:100000000C9482000C94AA000C94AA000C940D2469
:100010000C940D240C9436020C94AA000C94AA00A3
:100020000C94AA000C94AA000C94AA000C94AA00A8
:100030000C94AA000C94AA000C94AA000C94AA0098
:100040000C94D4250C94AA000C94B6280C94E8289F
:100050000C94AA000C94AA000C94AA000C94AA0078
:100060000C94AA000C94AA000000000800020100F1
:100070000003040700000000000000000102040863
:100080001020408001020408102001020408102002
:10009000040404040404040402020202020203032E
:1000A00003030303000000002300260029000000D2
:1000B0000000250028002B0000000000240027007D
:1000C0002A004E414E494E495459494E46CDCCCC5A
:1000D0003D0AD7233C17B7D13877CC2B329595E61C
:1000E000241FB14F0A000020410000C84200401CFC
:1000F0004620BCBE4CCA1B0E5AAEC59D74001604E9
:1001000018297A0411241FBECFEFD8E0DEBFCDBF7F
:1001100014E0A0E0B1E0E2E2F8E602C005900D9242
:10012000A837B107D9F726E0A8E7B4E001C01D92CF
:10013000A337B207E1F710E0C2E0D1E004C0229794
:10014000FE010E94B72FCE3FD107C9F70E94B32D01
:100150000C9404340C94030208950895089581E0EA
:1001600080937705089568E071E080910601909191
:1001700007010E94C62981E080937A05089563E112
:1001800071E080910601909107010E94A72968E122
:1001900071E080910601909107010E94C62981E0DB
:1001A000809379050895CF93C82F62E271E0809122
:1001B0000601909107010E94A72965E572E08091F0
:1001C0000601909107010E94C6296C2F87E994E0EF
:1001D000CF910C94431BCF93C82F6FE871E08091AF
:1001E0000601909107010E94A72965E572E08091C0
:1001F0000601909107010E94C6296C2F87E994E0BF
:10020000CF910C941D1B80937E0566E271E0809176
:100210000601909107010E94C6298FEB94E00C948F
:100220000E0580917F04882321F087E994E00E94E5
:10023000A31C10927F0481E080937805089520E04C
:1002400041E06AE586EE94E00E94E013811110928D
:100250007A05089580915705882361F021E041E0F7
:1002600064E586EE94E00E94E013882329F084E59B
:1002700080937E0410927D05089520E041E068E5BA
:1002800086EE94E00E94E013811110927C0508959F
:1002900020E041E069E586EE94E00E94E0138823C7
:1002A00091F06CE271E080910601909107010E944B
:1002B000A7296BE074E080910601909107010E94EC
:1002C000C62910927B050895611106C0682F86EE3D
:1002D00094E00E94181805C0682F86EE94E00E94F2
:1002E0001D1810927E050895CF93C82F87E994E0DA
:1002F0000E941F1D833529F0CC2371F060E084E457
:100300000DC0CC2319F081E080937F0480917E059D
:100310008111F2CFCF91089560E08CE4CF910C94DD
:10032000640180937E0560E371E080910601909105
:1003300007010E94C6298091E404882321F087E9FF
:1003400094E00C94361B65E371E080910601909176
:1003500007010E94C62980917E05882321F060E074
:100360008FE40C9464010895882321F08091E404C3
:10037000811104C08EE480937E0408956AE371E0E5
:1003800080910601909107010E94A72960917E0447
:1003900080910601909107010E94D82980E00E9477
:1003A0009101E8CF90917E05992319F061E00C94BA
:1003B0006401089521E041E066E486EE94E00E9445
:1003C000E013882329F086E480937E041092790557
:1003D000089520E041E063E486EE94E00E94E0139B
:1003E000811110927705089520E041E06FE486EED8
:1003F00094E00E94E013882329F08EE480937E0429
:100400001092780508951F920F920FB60F92112443
:100410002F933F934F935F936F937F938F939F930C
:10042000AF93BF93EF93FF936EE471E08091060169
:10043000909107010E94C62964B74AE050E080917C
:100440000601909107010E94B22AFF91EF91BF919E
:10045000AF919F918F917F916F915F914F913F915C
:100460002F910F900FBE0F901F9018951F920F9213
:100470000FB60F9211242F933F934F935F936F9377
:100480007F938F939F93AF93BF93EF93FF9387E0F7
:100490000E944827019729F481E894E00E94632292
:1004A00004C087E395E00E94B423FF91EF91BF91D0
:1004B000AF919F918F917F916F915F914F913F91FC
:1004C0002F910F900FBE0F901F9018950F931F93B1
:1004D00026E040E05BE460E070E080ED95E00E94A3
:1004E000542840E05BE460E070E080910601909168
:1004F00007010E94102586E595E00E94701F64EBBD
:1005000071E086EE94E00E94191703E011E021E902
:1005100031E04BEE50E063ED70E086EE94E00E9437
:10052000990702ED11E02FEA30E041E151E06FEB75
:1005300070E08FEB94E00E94B40566E575E086EE0E
:1005400094E00E94EC0766E575E08FEB94E00E9472
:10055000A70461E874E08FEB94E00E94A30461E8D3
:1005600074E087E994E00E94921B61E874E086EEF3
:1005700094E00E94C9071092800410927F04E8E67C
:10058000F0E0808184608083EDE6F0E08081806827
:1005900080831F910F910895CF92DF92EF92FF9287
:1005A000CF93DF93D82F84E6689F60011124C0E0C9
:1005B000EE24D7FCE094FE2CCD17A1F061E083E09F
:1005C0000E941227C701B6010E944D2660E083E019
:1005D0000E941227D23020F0C701B6010E944D269A
:1005E000CF5FEACFDF91CF91FF90EF90DF90CF9078
:1005F0000895CF92DF92EF92FF92CF93DF93CDB722
:10060000DEB727970FB6F894DEBF0FBECDBF80913F
:10061000800481115EC00E941E26683873418105E6
:10062000910508F456C086EE94E00E94120B8111E9
:100630000BC062E571E080910601909107010E9474
:10064000C62963E085E002C063E082E00E94CC023C
:100650000E941E266B017C019E01295F3F4FAE0167
:100660004F5F5F4F66E681E894E00E940222882394
:1006700059F16FE571E080910601909107010E94A8
:10068000C6290E941E266C197D098E099F09683EA5
:1006900073408105910518F48F81882391F381E0DF
:1006A0008093800461E070E089818E3911F060E010
:1006B00070E04AE050E080910601909107010E94AD
:1006C0008D2A8F8181119EC063E085E00E94CC025B
:1006D000A0C080917D0581110E942A0180917A0538
:1006E00081110E941F018091790581110E94DA0118
:1006F0008091780581110E94F40180917705811124
:100700000E94E90180917B0581110E94480180913E
:100710007C0581110E943D018091060190910701A5
:10072000DC01ED91FC910480F581E02D099518160E
:1007300019060CF056C060910601709107014AE05D
:10074000CE0101960E94092BBE016F5F7F4F88E7A3
:1007500094E00E940B2CCE0101960E94312B62E6A0
:1007600071E088E794E00E94C82C882321F080E0A3
:100770000E94030136C065E671E088E794E00E94BC
:10078000C82C882321F081E00E94D3002AC068E6AB
:1007900071E088E794E00E94C82C882321F081E072
:1007A0000E94EB001EC06BE671E088E794E00E94B7
:1007B000C82C882321F080E00E94910112C068E7D4
:1007C00074E0CE0101960E94022C40E0BE016F5FF2
:1007D0007F4F86EE94E00E94FC0BCE0101960E94B2
:1007E000312B81E894E00E94C0228FEB94E00E94BC
:1007F0004E0787E994E00E94561D86EE94E00E9421
:10080000341807C089818E3909F05ECF63E082E039
:100810005DCF27960FB6F894DEBF0FBECDBFDF9138
:10082000CF91FF90EF90DF90CF9008958F929F929D
:10083000AF92BF92CF92DF92EF92FF920F931F93EE
:1008400086E595E00E94A61D20E046E065E087E38E
:1008500095E00E94E02422E040ED55E067E375E07A
:1008600086EE94E00E94F20867E375E08FEB94E077
:100870000E948F0684E7C82E81E0D82E93EBE92EE4
:1008800090E0F92E0DEA10E02EEA30E04CEA50E05C
:1008900067E375E087E994E00E94F71A2BE7822E60
:1008A00025E0922E3CE7A32E35E0B32E41EEC42E78
:1008B00044E0D42E50EEE52E54E0F52E0CEB14E07F
:1008C0002BEB34E04DE755E067E375E081E894E019
:1008D0000E94672162E372E088E794E01F910F9124
:1008E000FF90EF90DF90CF90BF90AF909F908F9050
:1008F0000C949F2B88E794E00E94312B8EE295E0C8
:100900000E94312B8EEE94E00E94312B87E395E01C
:100910000E9487248FE595E0892B21F489E595E0F5
:100920000C94312B81E795E00E94312B8BE695E00A
:100930000E94312B85E695E00E94312B8FE595E0F2
:100940000E94312BEBCFFC01718360830895FC0181
:1009500074A363A308950F931F93CF93DF93EC01C8
:100960008E81882399F00E941E260F811885298583
:100970003A85601B710B820B930B21E0613D774040
:100980008105910508F420E0822F01C080E0DF910D
:10099000CF911F910F9108951F93CF93DF93EC0197
:1009A0008E81811123C062E4888199810E94302266
:1009B0000E941E266F83788789879A8711E01E839D
:1009C0001B8761E080E10E94122760E08FE00E94B7
:1009D00012271DA3EBA1FCA111836EE671E08C89A7
:1009E0009D89DF91CF911F910C94C629DF91CF9102
:1009F0001F910895CF93DF93EC018F8981110BC074
:100A000063E771E08C899D890E94C629E88DF98D84
:100A1000099581E08F8BDF91CF9108959C012C5F28
:100A20003F4FAC014B5F5F4F64E6FC0180819181D9
:100A30000C940222CF93DF93EC0181E08F870E9418
:100A40001E26688B798B8A8B9B8B61E083E00E94EA
:100A50001227EE8DFF8D84E4DF91CF9109940F93DF
:100A60001F93CF93DF93EC018F85882399F00E9429
:100A70001E26088919892A893B89601B710B820B04
:100A8000930B21E0603177428105910508F420E065
:100A9000822F01C080E0DF91CF911F910F910895C7
:100AA000CF93DF93EC0160E083E00E94122760E3C4
:100AB000888199810E9430221F8681E08E870E9462
:100AC0001E26688B798B8A8B9B8B60E084E0DF919C
:100AD000CF910C9412270F931F93CF93DF93EC01C8
:100AE0008E85882399F00E941E26088919892A89F3
:100AF0003B89601B710B820B930B21E068357B41B6
:100B00008105910508F420E0822F01C080E0DF918B
:100B1000CF911F910F910895CF93DF93EC011E8623
:100B200061E084E00E94122761E388819981DF916E
:100B3000CF910C943022CF93DF93EC01EBA1FCA179
:100B4000828181110CC08E85882349F0CE010E94DC
:100B50008C056BE771E08C899D890E94C629CE01C6
:100B6000DF91CF910C94CC040F931F93FC01718FF4
:100B7000608F538F428F358F248F178F068F1F9171
:100B80000F910895FC01178A15A203A0F4A1E02D8E
:100B9000118260E083E10C941227CF93DF93EC0184
:100BA0000E94C20565E871E08C899D890E94C62972
:100BB0008E89882321F0EA8DFB8D09951E8ADF91AD
:100BC000CF9108951F93CF93DF93EC018E81811114
:100BD00029C063E4888199810E9430220E941E26E8
:100BE0006F83788789879A8711E01E831C8761E06D
:100BF0008FE00E94122760E080E10E941227CE0160
:100C00000E94C2051E8B69EB72E08C899D890E944F
:100C1000A7296EE671E08C899D89DF91CF911F91A4
:100C20000C94C629DF91CF911F910895CF93DF9344
:100C3000EC0181E08D876BE871E08C899D890E94D1
:100C4000C629CE01DF91CF910C94E205DC01149608
:100C50001C92149715962C912A3991F018F4293981
:100C600031F008952B3999F02C3919F008950C942E
:100C70001A05DC015E96ED91FC915F978FE406C04A
:100C8000DC015E96ED91FC915F9784E509940C94EC
:100C9000160661E4FC01808191810C943022CF938F
:100CA000DF93EC0161E084E00E94D92661E084E0FA
:100CB0000E94122761E080E10E94D92660E080E175
:100CC0000E94122761E08FE00E94D92660E08FE049
:100CD0000E94122761E083E10E94D92660E083E14F
:100CE0000E94122761E083E00E94D92660E083E041
:100CF0000E9412271F8ACE010E94C205CE010E94C7
:100D000049061E861F861E8A1B861C8618A21E8206
:100D10001F82188619861A86DF91CF910895CF9386
:100D2000DF93EC01CB017D8B6C8B40E05BE460E0FA
:100D300070E00E941025CE01DF91CF910C944F06F8
:100D4000CF93DF93EC011E8260E080E10E941227C6
:100D500060E08FE00E9412271B861C861D86CE0154
:100D60000E94490663E971E08C899D89DF91CF91EA
:100D70000C94C6290F931F93CF93DF931F92CDB787
:100D8000DEB78C0169830E94A006D8015E96ED91C2
:100D9000FC915F976981662311F084E401C08CE4C3
:100DA0000F90DF91CF911F910F910994CF93DF9313
:100DB000EC018E818823E9F06DE971E08C899D89D1
:100DC0000E94A7298C85882361F08D85882361F096
:100DD00061E0CE010E94BA06CE01DF91CF910C9462
:100DE0001A058B85882329F0CE01DF91CF910C94D1
:100DF000A006DF91CF910895CF93DF93EC0119A264
:100E00008AA18D3A51F150F48B3AE9F0B8F48A3A5C
:100E100069F5CE01DF91CF910C949B058F3A49F093
:100E2000B8F08A5C823010F5CE01DF91CF910C943E
:100E3000D606CE01DF91CF910C94CD05CE01DF9186
:100E4000CF910C94FA04CE01DF91CF910C94E2057E
:100E5000CE01DF91CF910C948C0561E083E10E947B
:100E60001227EC8DFD8DDF91CF910994DF91CF9109
:100E70000895DC0112961C92129713962C911397E9
:100E8000273951F421E095962C9395979396ED91FF
:100E9000FC919497218308950C94C205CF93DF931E
:100EA000EC0189A1882319F0CE010E94FC06CE0135
:100EB0000E946B05882319F0CE010E948C05CE019B
:100EC0000E942F05882319F0CE010E9450058A81C7
:100ED000882319F0CE010E9439078C81882319F0EC
:100EE000CE010E942606CE010E94AB048823A1F009
:100EF00063E274E08C899D890E94A7298D858823EF
:100F000031F060E0CE01DF91CF910C94BA06CE01B2
:100F1000DF91CF910C94A006DF91CF910895FC0151
:100F2000E25BFF4F108262E372E0885B9F4F0C949C
:100F3000172C0F931F93FC0172AF61AF54AF43AFF7
:100F400036AF25AFFF96118300831F910F9108954F
:100F50001F93CF93DF93EB0110E0612F70E08C8142
:100F60009D816817790770F4CE010E942B2D282FE0
:100F7000332727FD3095205331092A30310520F4DD
:100F80001F5FEBCF81E001C080E0DF91CF911F9127
:100F90000895FC017183608308959B01BC01685F23
:100FA0007F4FC9010E94B52C91E0811101C090E0F2
:100FB000892F0895815B9F4FFC0180819181FC0105
:100FC0002081222331F003960E94B52C91E08111FB
:100FD00001C090E0892F0895815B9F4FFC017183D0
:100FE00060830895CF92DF92EF92FF920F931F9349
:100FF000CF93DF9300D000D000D0CDB7DEB78C0107
:101000007B016C0183E4C80ED11C60EA71E0F6013B
:10101000808191810E94A729B701F6018081918189
:101020000E94B429B801685F7F4FC7010E94B52CA8
:10103000811119C0B701CE0101960E94022CF8015E
:10104000E15BFF4FBE016F5F7F4F808191810E9406
:10105000CB1D182FCE0101960E94312B81E01F3F3E
:1010600019F480E001C081E026960FB6F894DEBF47
:101070000FBECDBFDF91CF911F910F91FF90EF90E9
:10108000DF90CF9008950F931F93CF93DF93EC01E0
:101090008F8D811138C068EA71E08E010D5B1F4FA2
:1010A000F801808191810E94A7296CEA71E0F80122
:1010B000808191810E94A7290E941E26AB01BC015C
:1010C0002AE030E0F801808191810E94C92A60E025
:1010D00089890E94122781E08F8F0E941E2669A3B2
:1010E0007AA38BA39CA30E941E2609A11AA12BA15F
:1010F0003CA1601B710B820B930B6536710581055A
:10110000910588F306C00E941E2669A37AA38BA3CB
:101110009CA3DF91CF911F910F9108950F931F937F
:10112000CF93DF93EC018C010D5B1F4F68EA71E0F8
:10113000F801808191810E94A72961EB71E0F8019B
:10114000808191810E94A7290E941E26AB01BC01CB
:101150002AE030E0F801808191810E94C92A61E093
:1011600089890E9412271F8EDF91CF911F910F91C5
:1011700008951F93CF93DF93EC01162F68EB71E076
:1011800008960E94172CCE010E948F07FE01E95B92
:10119000FF4F1082198B88EC88A31F8E188E198E32
:1011A00061E0812F0E94D926CE010E948E0883E043
:1011B0008E8785E08F87188A1E8A1F828EE48BA710
:1011C0001AA69AEF9A8F1FA293E498A78DA38EA3D5
:1011D00019A61DA61EA61CA681E08CABDF91CF919F
:1011E0001F910895DF92EF92FF920F931F93CF9379
:1011F000DF93EC017B018A01D22E62E372E0089654
:101200000E949F2B62E372E0CE01885B9F4F0E9499
:101210009F2BFE01ED5BFF4FF182E08240E05BE43B
:1012200060E070E0C7010E941025FE01EB5BFF4FFC
:101230001183008326E040E05BE460E070E0C801D9
:101240000E9454286D2DCE01DF91CF911F910F91F7
:10125000FF90EF90DF900C94B9080F931F93CF93FA
:10126000DF9300D0CDB7DEB78C014A8369830E943B
:101270004308D801AB5BBF4F4A8169818D919C9136
:10128000411108C00F900F90DF91CF911F910F91E6
:101290000C94A9290F900F90DF91CF911F910F917E
:1012A0000C94D829EF92FF920F931F93CF93DF9363
:1012B0001F92CDB7DEB78C017B0149830E944308A2
:1012C00062E372E0C7010E94C82CF801EB5BFF4F9C
:1012D0004981882359F0808191810F90DF91CF91CE
:1012E0001F910F91FF90EF900C94B029B70180816E
:1012F0009181411109C00F90DF91CF911F910F9102
:10130000FF90EF900C9499290F90DF91CF911F914E
:101310000F91FF90EF900C94B4290F931F93CF93EC
:10132000DF9300D000D000D0CDB7DEB78C0163ECE6
:1013300071E0CE0101960E949F2B41E0BE016F5FDC
:101340007F4FC8010E945209CE0101960E94312BA5
:1013500026960FB6F894DEBF0FBECDBFDF91CF91BA
:101360001F910F910895EF92FF920F931F93CF93C8
:10137000DF93CDB7DEB72C970FB6F894DEBF0FBE64
:10138000CDBF8C017B0162E372E0CE0107960E9423
:101390009F2B66ED71E0CE0107960E94172CB701D6
:1013A000CE0107960E945B2CBE01695F7F4FCE0184
:1013B00001960E94022C41E0BE016F5F7F4FC80181
:1013C0000E945209CE0101960E94312BCE01079650
:1013D0000E94312B2C960FB6F894DEBF0FBECDBF06
:1013E000DF91CF911F910F91FF90EF900895CF92D1
:1013F000DF92EF92FF920F931F93CF93DF9300D072
:1014000000D000D0CDB7DEB78C017B0162E372E083
:101410000E949F2B670185E4C80ED11CD6018D91D7
:101420009C91DC01ED91FC910480F581E02D099502
:1014300018161906ECF4C7010E944308F6016081F2
:1014400071814AE0CE0101960E94092BBE016F5FB7
:101450007F4FC8010E940B2CCE0101960E94312BB8
:10146000F701ED5BFF4FB801808191810E94B429A3
:10147000C80126960FB6F894DEBF0FBECDBFDF9130
:10148000CF911F910F91FF90EF90DF90CF90089533
:101490007F928F929F92AF92BF92CF92DF92EF9204
:1014A000FF920F931F93CF93DF93CDB7DEB7629771
:1014B0000FB6F894DEBF0FBECDBF8C016B01CE011D
:1014C00001960E94022C40E0BE016F5F7F4FC80171
:1014D0000E945209CE0101960E94312B780123E42B
:1014E000E20EF11CB601D7018D919C910E949929C1
:1014F0000E941E264B015C0162E372E0CE010D9654
:101500000E949F2B6801B5E4CB0ED11C0E941E26C1
:10151000681979098A099B09683B7B408105910517
:1015200008F064C0F60180819181DC01ED91FC91AD
:101530000480F581E02D0995181619063CF7B801CD
:10154000CE0101960E94F709BE016F5F7F4FCE0169
:101550000D960E940B2CCE0101960E94312BBE01EC
:10156000635F7F4FF701808191810E94B4296FED05
:1015700071E0CE0101960E949F2BBE01635F7F4FF9
:10158000CE0107960E94022CBE016F5F7F4FCE01F5
:1015900007960E94B52C782ECE0107960E94312B1B
:1015A000CE0101960E94312B711022C063EE71E0D2
:1015B000CE0101960E949F2BBE01635F7F4FCE013B
:1015C00007960E94022CBE016F5F7F4FCE010796E7
:1015D0000E94B52C782ECE0107960E94312BCE01A9
:1015E00001960E94312B772009F490CF10E001C0C2
:1015F00011E0CE010D960E94312B812F62960FB61D
:10160000F894DEBF0FBECDBFDF91CF911F910F9138
:10161000FF90EF90DF90CF90BF90AF909F908F9012
:101620007F900895CF92DF92EF92FF920F931F93D6
:10163000CF93DF93CDB7DEB762970FB6F894DEBFD6
:101640000FBECDBF8C01C12C895B9F4F7C016AEE20
:1016500071E0CE0101960E949F2BBE016F5F7F4F0C
:10166000C8010E94480AD82ECE0101960E94312B53
:10167000DD2009F470C06FEE71E0CE0101960E948A
:101680009F2BBE016F5F7F4FC8010E94480AD82E72
:10169000CE0101960E94312BDD2009F45CC06BEF76
:1016A00071E0CE0101960E949F2BBE016F5F7F4FBC
:1016B000C8010E94480AD82ECE0101960E94312B03
:1016C000DD2009F448C067E072E0CE010D960E946B
:1016D0009F2BBE01635F7F4FC8010E94480A882389
:1016E00031F163E172E0CE0107960E949F2BBE01AB
:1016F000695F7F4FC8010E94480A882391F06FE11B
:1017000072E0CE0101960E949F2BBE016F5F7F4F5A
:10171000C8010E94480AD82ECE0101960E94312BA2
:1017200001C0D12CCE0107960E94312B01C0D12CD3
:10173000CE010D960E94312BDD2069F0F801ED5BA2
:10174000FF4F63E372E0808191810E94C62981E0AE
:10175000F70180830AC0F7018081811105C0C110A3
:1017600004C0CC24C39473CF80E062960FB6F89483
:10177000DEBF0FBECDBFDF91CF911F910F91FF90C4
:10178000EF90DF90CF900895CF92DF92EF92FF928B
:101790000F931F93CF93DF9300D000D000D0CDB72D
:1017A000DEB77B016901BA01C7010E940B2D8823B6
:1017B00099F09801A601B701CE0101960E94572D1C
:1017C000BE016F5F7F4FC7010E940B2CCE010196B7
:1017D0000E94312B81E001C080E026960FB6F8947C
:1017E000DEBF0FBECDBFDF91CF911F910F91FF9054
:1017F000EF90DF90CF900895BF92CF92DF92EF925B
:10180000FF920F931F93CF93DF9300D000D000D0AF
:10181000CDB7DEB77C016B01B42EFB0104811581CD
:10182000015011096BE372E0CE0101960E949F2BDB
:1018300028E030E0AE014F5F5F4FB601C7010E9464
:10184000C40B811102C010E001C01B2DCE01019616
:101850000E94312B112349F0F701E15BFF4F6B2D03
:10186000808191810E943E1EF9C1F601048115819B
:101870000150110964E472E0CE0101960E949F2B91
:1018800024E030E0AE014F5F5F4FB601C7010E9418
:10189000C40B182FCE0101960E94312B112389F021
:1018A000B601C7010E94A807882309F44CC1C601EC
:1018B0000E94A72DF701628373838483958383E756
:1018C00032C1F601048115810150110969E472E009
:1018D000CE0101960E949F2B24E030E0AE014F5FC5
:1018E0005F4FB601C7010E94C40B182FCE010196AD
:1018F0000E94312B112389F0B601C7010E94A8076D
:10190000882309F420C1C6010E94A72DF701628334
:1019100073838483958385E706C1F601048115816D
:10192000015011096EE472E0CE0101960E949F2BD6
:1019300025E030E0AE014F5F5F4FB601C7010E9466
:10194000C40B182FCE0101960E94312B112389F070
:10195000B601C7010E94A807882309F4F4C0C60194
:101960000E94A72DF701628373838483958384E7A4
:10197000DAC0F601048115810150110964E572E0B5
:10198000CE0101960E949F2B24E030E0AE014F5F14
:101990005F4FB601C7010E94C40B182FCE010196FC
:1019A0000E94312B112389F0B601C7010E94A807BC
:1019B000882309F4C8C0C6010E94A72DF7016283DD
:1019C00073838483958380E7AEC0F601048115811B
:1019D0000150110969E572E0CE0101960E949F2B2A
:1019E00024E030E0AE014F5F5F4FB601C7010E94B7
:1019F000C40B182FCE0101960E94312B112389F0C0
:101A0000B601C7010E94A807882309F49CC0C6013B
:101A10000E94A72DF701628373838483958381E7F6
:101A200082C0F601048115810150110965E572E05B
:101A3000CE0101960E949F2B23E030E0AE014F5F64
:101A40005F4FB601C7010E94C40B182FCE0101964B
:101A50000E94312B112389F0B601C7010E94A8070B
:101A6000882309F470C0C6010E94A72DF701628384
:101A700073838483958382E756C0F60104811581C0
:101A8000015011096EE572E0CE0101960E949F2B74
:101A900024E030E0AE014F5F5F4FB601C7010E9406
:101AA000C40B182FCE0101960E94312B112391F007
:101AB00061E0F701E15BFF4F808191810E94221E6E
:101AC00080E090E0A0E8BFE3F70182839383A483E2
:101AD000B58328C0F601048115810150110963E620
:101AE00072E0CE0101960E949F2B25E030E0AE010E
:101AF0004F5F5F4FB601C7010E94C40B182FCE0184
:101B000001960E94312B1123F1F060E0F701E15BB7
:101B1000FF4F808191810E94221EF7011282138261
:101B20001482158286E78683F701228133814481FE
:101B300055816681808191810E94AB2191E0982737
:101B4000F70197838BC06CE672E0CE0101960E948C
:101B50009F2B0CE010E022E030E0AE014F5F5F4FC2
:101B6000B601C7010E94C40B182FCE0101960E9436
:101B7000312B112341F1F601848195810A9709F0F7
:101B80006DC0B601C7010E94A807882309F466C08A
:101B9000B601CE0101960E94022CF701E15BFF4FD6
:101BA0004B2DBE016F5F7F4F808191810E94A820E5
:101BB000182FCE0101960E94312BF3E4EF0EF11C99
:101BC0006FE672E03DC069E672E0CE0101960E94C8
:101BD0009F2B0CE010E022E030E0AE014F5F5F4F42
:101BE000B601C7010E94C40B182FCE0101960E94B6
:101BF000312B112399F1F601848195810A9771F5B2
:101C0000B601C7010E94A807882341F1B601CE01A1
:101C100001960E94022CF701E15BFF4F41E0BE01FB
:101C20006F5F7F4F808191810E944E20182FCE01DF
:101C300001960E94312BF3E4EF0EF11C67E772E08E
:101C4000F701808191810E94A729612F70E04AE00D
:101C500050E0F701808191810E948D2A26960FB66F
:101C6000F894DEBF0FBECDBFDF91CF911F910F91D2
:101C7000FF90EF90DF90CF90BF900895BF92CF92EA
:101C8000DF92EF92FF920F931F93CF93DF9300D0D9
:101C900000D000D0CDB7DEB78C017B01CE0101961C
:101CA0000E94022CBE016F5F7F4FC8010E94CD07CA
:101CB000B82ECE0101960E94312BBB2089F1B801CC
:101CC000CE0101960E94F709BE016F5F7F4FC701E9
:101CD0000E940B2CCE0101960E94312B6CE772E022
:101CE000680183E4C80ED11CF601808191810E94B5
:101CF000A729B701F601808191810E94B429B7011B
:101D0000CE0101960E94022C4B2DBE016F5F7F4FCA
:101D1000C8010E94FC0BCE0101960E94312B12C01B
:101D2000B701CE0101960E94022CBE016F5F7F4F6A
:101D3000C8010E94DA07D82ECE0101960E94312BED
:101D4000D110BDCFC8010E948D0926960FB6F89418
:101D5000DEBF0FBECDBFDF91CF911F910F91FF90DE
:101D6000EF90DF90CF90BF900895CF92DF92EF92E7
:101D7000FF920F931F93CF93DF9300D000D000D03A
:101D8000CDB7DEB77C016B0164E872E0CE0101964D
:101D90000E949F2B02E210E028E130E0AE014F5F8D
:101DA0005F4FB601C7010E94C40BF82ECE01019609
:101DB0000E94312B8F2D26960FB6F894DEBF0FBEF2
:101DC000CDBFDF91CF911F910F91FF90EF90DF90EA
:101DD000CF900895CF92DF92EF92FF920F931F93CF
:101DE000CF93DF9300D000D000D0CDB7DEB76C0129
:101DF0007B01FB0104811581015011096BE872E040
:101E0000CE0101960E949F2B2CE030E0AE014F5F87
:101E10005F4FB701C6010E94C40B182FCE01019677
:101E20000E94312B812F26960FB6F894DEBF0FBE8D
:101E3000CDBFDF91CF911F910F91FF90EF90DF9079
:101E4000CF900895CF92DF92EF92FF920F931F935E
:101E5000CF93DF9300D000D000D0CDB7DEB77C01A8
:101E60006B0162E972E0CE0101960E949F2B05E1B1
:101E700010E02BE030E0AE014F5F5F4FB601C701CD
:101E80000E94C40BF82ECE0101960E94312B8F2D9B
:101E900026960FB6F894DEBF0FBECDBFDF91CF916F
:101EA0001F910F91FF90EF90DF90CF900895CB019D
:101EB0006BE972E00E94C82C91E0811101C090E0B2
:101EC000892F0895CF92DF92EF92FF920F931F9385
:101ED000CF93DF9300D000D000D0CDB7DEB77C0128
:101EE0006B0161EA72E0CE0101960E949F2B07E030
:101EF00010E026E030E0AE014F5F5F4FB601C70152
:101F00000E94C40BF82ECE0101960E94312B8F2D1A
:101F100026960FB6F894DEBF0FBECDBFDF91CF91EE
:101F20001F910F91FF90EF90DF90CF900895EF9267
:101F3000FF920F931F93CF93DF93CDB7DEB72C970C
:101F40000FB6F894DEBF0FBECDBF8B01FC0125A1FB
:101F50002934E9F426A1293411F02F34C1F47C018D
:101F6000F3E4EF0EF11C68EA72E0F70180819181E1
:101F70000E94A729B801F701808191810E949929C7
:101F800063EB72E0F701808191810E94C6296BEBBF
:101F900072E0CE0101960E949F2BB801CE010796F8
:101FA0000E94022CBE016F5F7F4FCE0107960E94F8
:101FB000B52CF82ECE0107960E94312BCE0101964A
:101FC0000E94312BFF2011F081E059C067EC72E0D4
:101FD000CE0101960E949F2BB801CE0107960E9468
:101FE000022CBE016F5F7F4FCE0107960E94B52C79
:101FF000F82ECE0107960E94312BCE0101960E9449
:10200000312BF110E1CF6DEC72E0CE0101960E9410
:102010009F2BB801CE0107960E94022CBE016F5F74
:102020007F4FCE0107960E94B52CF82ECE01079661
:102030000E94312BCE0101960E94312BF110C4CFAA
:1020400063EE71E0CE0101960E949F2BB801CE0194
:1020500007960E94022CBE016F5F7F4FCE0107964C
:102060000E94B52C182FCE0107960E94312BCE016D
:1020700001960E94312B81E0111101C080E02C9665
:102080000FB6F894DEBF0FBECDBFDF91CF911F9189
:102090000F91FF90EF9008950F931F93CF93DF93CD
:1020A000CDB7DEB72C970FB6F894DEBF0FBECDBF0D
:1020B0008B0168ED72E0CE0101960E949F2BB80162
:1020C000CE0107960E94022CBE016F5F7F4FCE01AA
:1020D00007960E94B52C182FCE0107960E94312B2F
:1020E000CE0101960E94312B81E0111101C080E0E8
:1020F0002C960FB6F894DEBF0FBECDBFDF91CF9107
:102100001F910F910895CF92DF92EF92FF920F935C
:102110001F93CF93DF9300D000D000D0CDB7DEB7B0
:102120007C016B018C010D5B1F4F62EE72E0F801C8
:10213000808191810E94A729B601F8018081918157
:102140000E94B42967EE72E0CE0101960E949F2B97
:102150000CE010E02BE030E0AE014F5F5F4FB601C6
:10216000C7010E94C40B182FCE0101960E94312B8B
:10217000111136C064EF72E0CE0101960E949F2BD0
:102180000CE010E02BE030E0AE014F5F5F4FB60196
:10219000C7010E94C40B182FCE0101960E94312B5B
:1021A00011111AC061E073E0CE0101960E949F2BCD
:1021B0000CE010E02BE030E0AE014F5F5F4FB60166
:1021C000C7010E94C40B182FCE0101960E94312B2B
:1021D000112321F085E405C089E403C08EE401C029
:1021E00082E526960FB6F894DEBF0FBECDBFDF9115
:1021F000CF911F910F91FF90EF90DF90CF900895B6
:10220000CF92DF92EF92FF920F931F93CF93DF93C2
:10221000CDB7DEB72C970FB6F894DEBF0FBECDBF9B
:102220008C010E944308F801EB5BFF4F8081918194
:10223000DC01ED91FC910284F385E02D099562E3C8
:1022400072E0CE0107960E949F2B6EE073E0CE01F4
:1022500007960E94172CF801E15BFF4F0190F08177
:10226000E02D8081882321F0BF016D5F7F4F03C087
:10227000B801685F7F4FCE0107960E945B2C65E135
:1022800073E0CE0107960E94622CBE01695F7F4F0A
:10229000CE0101960E94022C41E0BE016F5F7F4F8C
:1022A000C8010E945209CE0101960E94312B0E9462
:1022B0001E260E942C2E6B017C010E941E260E946D
:1022C0002C2EA70196010E94C32D20E030E048EC9F
:1022D00052E40E94282E87FDF0CF62E372E0CE0127
:1022E00001960E949F2B41E0BE016F5F7F4FC801A6
:1022F0000E945209CE0101960E94312BF801ED5B3C
:10230000FF4F67E173E0808191810E94C6290E949E
:102310001E26F801638F748F858F968F82E585A3C3
:102320008FE486A3CE0107960E94312B2C960FB620
:10233000F894DEBF0FBECDBFDF91CF911F910F91FB
:10234000FF90EF90DF90CF9008950F931F93CF935E
:10235000DF93EC018CA9811111C00E941E260DA9EA
:102360001EA92FA938AD601B710B820B930B693E20
:1023700073408105910510F081E08CABDF91CF9126
:102380001F910F910895BF92CF92DF92EF92FF922B
:102390000F931F93CF93DF93CDB7DEB762970FB63E
:1023A000F894DEBF0FBECDBF8C016C0185E4C80E72
:1023B000D11CD6018D919C91DC01ED91FC910284A0
:1023C000F385E02D099562E372E0CE010D960E943F
:1023D0009F2BF80183A5893451F08F3429F0843480
:1023E00061F46AE273E005C065E871E002C061E291
:1023F00073E0CE010D960E94172C7801F3E4EF0EE6
:10240000F11C62E373E0D7018D919C910E94C62973
:1024100068E373E0CE0101960E949F2BBE016F5FBF
:102420007F4FC8010E94480AB82ECE0101960E9433
:10243000312BBB2009F473C062E372E0CE01079632
:102440000E949F2B63E473E0CE0107960E94172C35
:10245000F801E15BFF4F0190F081E02D808188233E
:1024600021F0BF016D5F7F4F03C0B801685F7F4FF0
:10247000CE0107960E945B2C69E972E0CE010796B7
:102480000E94622CBE01695F7F4FCE0101960E94BF
:10249000022CBE016F5F7F4FC8010E94480AB82E10
:1024A000CE0101960E94312BBB20A9F1BE01635FD2
:1024B0007F4FCE0101960E94022C41E0BE016F5F6A
:1024C0007F4FC8010E945209CE0101960E94312B14
:1024D000F60180819181DC01ED91FC910190F08108
:1024E000E02D6AE1099560E573E0F7018081918153
:1024F0000E94C62969E573E0CE0101960E949F2BD8
:1025000040E0BE016F5F7F4FC8010E945209CE01BB
:1025100001960E94312BCE0107960E94312BCE01ED
:102520000D960E94312B62960FB6F894DEBF0FBE57
:10253000CDBFDF91CF911F910F91FF90EF90DF9072
:10254000CF90BF9008950F931F93CF93DF93EC012B
:102550008E898823E1F00E941E264F850A891B89F7
:102560002C893D89601B710B820B930B24E6429FE3
:1025700080011124222717FD2095322F41E00617F4
:1025800017072807390708F040E0842F01C080E0D2
:10259000DF91CF911F910F910895EF92FF920F93CA
:1025A0001F93CF93DF9300D000D000D0CDB7DEB71C
:1025B0008C017C0185E4E80EF11CD7018D919C9182
:1025C000DC01ED91FC910284F385E02D099564E630
:1025D00073E0CE0101960E949F2B40E0BE016F5F29
:1025E0007F4FC8010E945209CE0101960E94312BF3
:1025F00040E0F8016789C8010E942D096FE673E089
:10260000CE0101960E949F2B41E0BE016F5F7F4F7C
:10261000C8010E945209CE0101960E94312BD701B8
:102620008D919C91DC01ED91FC910284F385E02D6C
:102630000995F80180898F5F808B168A26960FB6E0
:10264000F894DEBF0FBECDBFDF91CF911F910F91E8
:10265000FF90EF900895EF92FF921F93CF93DF9337
:102660001F92CDB7DEB77C01162FFC01EB5BFF4F4D
:1026700080819181DC01ED91FC910284F385E02D54
:10268000498309950E941E26F701628B738B848B08
:10269000958B81E0868B178B49814111108A0F90B1
:1026A000DF91CF911F91FF90EF900895EF92FF92ED
:1026B0000F931F93CF93DF9300D000D000D0CDB7FE
:1026C000DEB78C0181E0D80199968C937801B5E44E
:1026D000EB0EF11CF70180819181DC01ED91FC9101
:1026E0000284F385E02D099568E773E0CE01019639
:1026F0000E949F2B41E0BE016F5F7F4FC8010E9487
:102700005209CE0101960E94312BF70180819181FF
:10271000DC01ED91FC910284F385E02D099589E4BB
:10272000F80185A386A341E06DE4C8010E942B1344
:1027300026960FB6F894DEBF0FBECDBFDF91CF91C6
:102740001F910F91FF90EF9008950F931F93CF93D8
:10275000DF93EC0189A58823E1F00E941E264A8DB3
:102760000B8D1C8D2D8D3E8D601B710B820B930B81
:1027700024E6429F80011124222717FD2095322F45
:1027800041E0601771078207930708F440E0842F47
:1027900001C080E0DF91CF911F910F910895FC015E
:1027A00012A625A5211105C020A5322F3D7F313469
:1027B00011F40C940011233511F40C94C3110895F5
:1027C000AF92BF92DF92EF92FF920F931F93CF933E
:1027D000DF931F92CDB7DEB75C01F62EE22EFC012F
:1027E000E95BFF4F8081811117C066E873E0349781
:1027F0008081918149830E94A7294981442351F016
:10280000EE2041F0F501EF5BFF4F0190F081E02DEC
:1028100081E0099531E04BC041111EC06DE873E0C5
:1028200085010D5B1F4FF801808191810E94A729CE
:102830006F2DF801808191810E94D829F50185A131
:102840008E3441F786A18E3429F734A9332311F34E
:10285000F3A681E082A72BC0F50185A18E3431F566
:1028600086A18E3419F534A9332309F1DD24D394DC
:10287000D4A6C50139830E94430885010D5B1F4F13
:1028800068E973E0F801808191810E94A7296F2D8A
:10289000F801808191810E94A929F501F3A6E6A69D
:1028A000D5A6C5010E94CF13398101C030E0832F26
:1028B0000F90DF91CF911F910F91FF90EF90DF90DC
:1028C000BF90AF900895CF93DF93EC01862F9EA524
:1028D000992339F0FE01EF5BFF4F0190F081E02D6D
:1028E00009951DA61EA6DF91CF910895AF92BF92C4
:1028F000CF92DF92EF92FF920F931F93CF93DF93CC
:1029000000D000D000D0CDB7DEB78C01DC019796A7
:102910001C925C01B5E4AB0EB11CF5018081918184
:10292000DC01ED91FC910284F385E02D099563EAC9
:1029300073E0CE0101960E949F2B41E0BE016F5FC4
:102940007F4FC8010E945209CE0101960E94312B8F
:102950000E941E260E942C2E6B017C010E941E26C6
:102960000E942C2EA70196010E94C32D20E030E08A
:1029700048EC52E40E94282E87FDF0CF62E372E01B
:10298000CE0101960E949F2B41E0BE016F5F7F4FF9
:10299000C8010E945209CE0101960E94312BF50117
:1029A00080819181DC01ED91FC910284F385E02D21
:1029B0000995F80114A6108A11A68EE485A386A3B2
:1029C0000E941E26D801D5966D937D938D939C937E
:1029D000D897D4961C92D49758961C92589759968B
:1029E0001C926BEA73E0F801ED5BFF4F80819181EF
:1029F0000E94C629F80185A5882321F061E0C8015D
:102A00000E94631426960FB6F894DEBF0FBECDBFAA
:102A1000DF91CF911F910F91FF90EF90DF90CF90BA
:102A2000BF90AF900895FF920F931F93CF93DF93C2
:102A3000CDB7DEB72C970FB6F894DEBF0FBECDBF73
:102A40008C01FC0187A18F5F87A3833008F059C0F8
:102A5000811111C064EB73E0CE0101960E949F2B9F
:102A600041E0BE016F5F7F4FC8010E945209CE0155
:102A700001960E94312B62E372E0CE0107960E941C
:102A80009F2BB801CE0101960E94F709BE016F5F2E
:102A90007F4FCE0107960E940B2CCE0101960E941B
:102AA000312BBE01695F7F4FC8010E94220F88232E
:102AB00041F38B859C850A97F8F0BE01695F7F4FD3
:102AC000C8010E94A8078823B9F0BE01695F7F4F43
:102AD000CE0101960E94022CBE016F5F7F4FC8019C
:102AE0000E94F207F82ECE0101960E94312BF110C0
:102AF00003C0C8010E947614CE0107960E94312BB4
:102B00000CC0833051F40E941E26F801638F748F2D
:102B1000858F968FC8010E9456132C960FB6F89495
:102B2000DEBF0FBECDBFDF91CF911F910F91FF9000
:102B30000895DF92EF92FF920F931F93CF93DF934D
:102B400000D000D000D0CDB7DEB78C01FC01E68408
:102B5000F12C85A5882329F086A5882311F0EE0C99
:102B6000FF1CCE0101960E94022CBE016F5F7F4FB9
:102B7000C8010E944C10D82ECE0101960E94312B24
:102B8000DD20F1F0F801808990E08E159F05ACF40E
:102B900085A5882359F086A5882341F083A59789C8
:102BA000981302C081E401C0F801878B40E0F8016E
:102BB0006789C8010E942B1303C0C8010E947614C4
:102BC00026960FB6F894DEBF0FBECDBFDF91CF9132
:102BD0001F910F91FF90EF90DF900895EF92FF9279
:102BE0000F931F93CF93DF9300D000D000D0CDB7C9
:102BF000DEB78C017B01DC019D968C91882309F462
:102C000083C061EC71E0C7010E94C82C8823B9F130
:102C1000F801ED5BFF4F80819181DC01ED91FC912A
:102C20000284F385E02D09957801B5E4EB0EF11CE3
:102C3000F70180819181DC01ED91FC910284F385A3
:102C4000E02D099563EA73E0CE0101960E949F2B67
:102C500041E0BE016F5F7F4FC8010E945209CE0163
:102C600001960E94312BF70180819181DC01ED9169
:102C7000FC910284F385E02D099561E03EC06EEB86
:102C800073E0C7010E94C82C882309F4C5C0F8016D
:102C9000ED5BFF4F80819181DC01ED91FC9102841D
:102CA000F385E02D09957801B5E4EB0EF11CF701F1
:102CB00080819181DC01ED91FC910284F385E02D0E
:102CC000099563EA73E0CE0101960E949F2B41E0D3
:102CD000BE016F5F7F4FC8010E945209CE0101966D
:102CE0000E94312BF70180819181DC01ED91FC91F3
:102CF0000284F385E02D099560E0C8010E94631409
:102D0000C8010E94761488C0F801808D882331F1B3
:102D1000818D882319F1CB010E949C2D862F66306E
:102D200018F4611102C0ECCF85E0D80159969C914E
:102D30005997943049F499E49F969C939F97D9961C
:102D4000ED91FC91DA9758C0933009F065C094E496
:102D5000F80197A703ACF4ADE02D4EC060EC73E032
:102D6000C7010E94C82C882379F0D80158968C910D
:102D70005897882311F084E015C089E4F80187A7EB
:102D800001ACF2ADE02D37C062EF72E0C7010E94E6
:102D9000C82C882389F0D80158968C91589788239D
:102DA00021F083E059968C9337C084E4F80187A71B
:102DB00003ACF4ADE02D1FC061EC71E0C7010E94CF
:102DC000C82C882351F08FE4D8019F968C939F974D
:102DD000DD96ED91FC91DE970EC06EEB73E0C701BE
:102DE0000E94C82C882351F083E5F80187A7FF963D
:102DF0000190F081E02D81E009950EC062EC73E056
:102E0000C7010E94C82C882339F0D80159961C921A
:102E1000599781E058968C9326960FB6F894DEBFAA
:102E20000FBECDBFDF91CF911F910F91FF90EF901B
:102E300008958F5B9F4FFC017183608308950F930A
:102E40001F93CF93DF93EC018F8D8823E1F00E94D5
:102E50001E2648A109A11AA12BA13CA1601B710B40
:102E6000820B930B24E6429F80011124222717FD39
:102E70002095322F41E0601771078207930708F40D
:102E800040E0842F01C080E0DF91CF911F910F912E
:102E900008958F929F92AF92BF92EF92FF920F93FD
:102EA0001F93CF93DF9300D000D000D0CDB7DEB713
:102EB0007C018C010B5B1F4FD8018D919C91DC0133
:102EC000ED91FC910284F385E02D099564EC73E0AB
:102ED000CE0101960E949F2B40E0BE016F5F7F4FA5
:102EE000C7010E945209CE0101960E94312BF801C0
:102EF00080819181DC01ED91FC910284F385E02DCC
:102F000009950E941E264B015C010E941E2668192D
:102F100079098A099B096431710581059105A8F336
:102F200060ED73E0CE0101960E949F2B40E0BE0150
:102F30006F5F7F4FC7010E945209CE0101960E9428
:102F4000312BF80180819181DC01ED91FC910284AB
:102F5000F385E02D09950E941E26681979098A09D2
:102F60009B096431710581059105A8F326960FB67A
:102F7000F894DEBF0FBECDBFDF91CF911F910F91AF
:102F8000FF90EF90BF90AF909F908F900895CF9358
:102F9000DF93EC01CB016CED73E00E94C82C882319
:102FA00041F0CE010E947614CE01DF91CF910C94B6
:102FB0004917DF91CF910895FC0111AA27A5293463
:102FC00079F420A92C3419F441E063E313C02F34C1
:102FD00019F441E061E30EC0243471F40C947614CA
:102FE000243411F02F3441F4FC0120A92C3479F75A
:102FF00041E064E30C942B130895FC0112AA27A569
:103000002335A9F423A92C3419F441E062E404C067
:103010002F3421F441E062E30C942B13243519F48E
:1030200041E064E5F9CF243411F40C94761408954A
:1030300021E0FC0121AB60AB089521E0FC0122AB53
:1030400063AB0895CF93DF93EC012A813B814C81E0
:103050005D816E81888199810E94AB2191E09827E2
:103060009F83DF91CF9108952F923F924F925F926D
:103070006F927F928F929F92AF92BF92CF92DF9288
:10308000EF92FF920F931F93CF93DF93CDB7DEB7ED
:1030900062970FB6F894DEBF0FBECDBF8C01DC0186
:1030A00017968C91882319F0C8010E942218C80134
:1030B0000E941F17882319F0C8010E948E08F8018A
:1030C00085A18E3421F5C8010E94A511D8019A96D8
:1030D0008C91882319F0C8010E94CF136801B5E4D0
:1030E000CB0ED11CF801E25BFF4F7F015801F8E4E1
:1030F000AF0EB11C77247394480183E4880E911CB1
:103100009FE4692E22E5522E39E4432E77C089349C
:1031100011F0823519F7C8010E94A513882319F010
:10312000C8010E947614D801D2968C91882319F098
:10313000C8010E94FD17F80181A9882319F0C80170
:103140000E94DC17C8010E94A312882339F2C8012B
:103150000E94CD12C3CF62E372E0CE010D960E94B1
:103160009F2BD7018C91882309F476C0B501CE013D
:103170000D960E94EB2BD7011C92BE01635F7F4F1F
:10318000CE0101960E94022CBE016F5F7F4FC801E5
:103190000E94570F382ECE0101960E94312B33200A
:1031A00009F46BC0F80194A585A19111CAC08E34B1
:1031B00009F094C0D80196969C919E3409F091C074
:1031C000BE01635F7F4FCE0101960E94022CBE01BB
:1031D0006F5F7F4FC8010E94570F382ECE010196B6
:1031E0000E94312B332031F0F80155A246A2C801CC
:1031F0000E941315CE010D960E94312BD6018D91A0
:103200009C91DC01ED91FC910480F581E02D099504
:10321000181619060CF49FCFF701808181119BCFFE
:10322000C8010E948F0762960FB6F894DEBF0FBEEA
:10323000CDBFDF91CF911F910F91FF90EF90DF9065
:10324000CF90BF90AF909F908F907F906F905F9046
:103250004F903F902F900895B801CE0101960E94A3
:10326000F709BE016F5F7F4FCE010D960E940B2CB8
:10327000CE0101960E94312B80CFBE01635F7F4F4C
:10328000C8010E94EA0EBE01635F7F4F882359F098
:10329000CE0101960E94022CBE016F5F7F4FC801D4
:1032A0000E94B30916C0C8010E94B50EBE01635F3B
:1032B0007F4F882321F0C8010E943E0E73CFCE01BC
:1032C00001960E94022CBE016F5F7F4FC8010E94D1
:1032D000C717CE0101960E94312B64CF823521F4AD
:1032E00069CF993409F46CCF893459F5D801969691
:1032F0008C91893409F0CCC0BE01635F7F4FCE0151
:1033000001960E94022CBE016F5F7F4FC8010E9490
:10331000970F382ECE0101960E94312B332021F0D9
:10332000C8010E94761466CFBE01635F7F4FC8015B
:103330000E94620FBE01635F7F4F882309F4EEC0D5
:10334000FBC08E3419F0823509F09FC0F80136A019
:10335000FFE43F129AC0BE01635F7F4FCE0101962A
:103360000E94022CBE016F5F7F4FC8010E94831034
:10337000282ECE0101960E94312B82E528120FC023
:103380000E941E26D8015B966D937D938D939C932E
:103390005E9795962C92959796963C922BCFBE0170
:1033A000635F7F4FCE0107960E94022CBE01695FCA
:1033B0007F4FC8010E94970F811117C0BE01635F44
:1033C0007F4FCE0101960E94022CBE016F5F7F4F9E
:1033D000C8010E94831033243394853409F0312CC2
:1033E000CE0101960E94312B02C033243394CE01CA
:1033F00007960E94312B3320C1F0C8010E94761439
:10340000F80185A5882339F086A5882321F061E09D
:10341000C8010E946314D80198968C91813409F0F8
:10342000E9CEC8010E94C311E5CEBE01635F7F4FA4
:10343000CE0101960E94022CBE016F5F7F4FC80132
:103440000E948310382ECE0101960E94312BB9E4E0
:103450003B12D0CE6EEE73E0F401808191810E9428
:10346000C629D80195963C92959796966C920E94A3
:103470001E26F801638F748F858F968F71A641E0A9
:1034800063A5C8010E942B13B5CE893409F0B2CED2
:10349000D80196968C918F3409F0ACCEBE01635F53
:1034A0007F4FCE0107960E94022CBE01695F7F4FBD
:1034B000C8010E94970F811117C0BE01635F7F4F43
:1034C000CE0101960E94022CBE016F5F7F4FC801A2
:1034D0000E94831033243394853409F0312CCE01BB
:1034E00001960E94312B02C033243394CE010796FB
:1034F0000E94312B311014CFF80185A5882359F093
:1035000086A5882341F0BE01635F7F4FC8010E94FA
:10351000620F81110EC0BE01635F7F4FCE01019625
:103520000E94022CBE016F5F7F4FC8010E94991557
:103530000DC0BE01635F7F4FCE0101960E94022C39
:10354000BE016F5F7F4FC8010E94EE15CE0101964C
:103550000E94312B4FCE8F929F92AF92BF92CF920B
:10356000DF92EF92FF920F931F93CF93DF93EC01C3
:103570006B015A01490161E082E10E94D92661E0B4
:1035800081E10E94D92660E082E10E94122760E07A
:1035900081E10E9412278AEF8E8788E592E0A0E001
:1035A000B0E08A879B87AC87BD8786E08D838EE4F9
:1035B0008E8B1B82D98EC88EBB8EAA8E1F8F0E8FCC
:1035C0009D8E8C8EF9A2E8A21D8A1B8A1C8A1EA2DF
:1035D0001A821CA2DF91CF911F910F91FF90EF9063
:1035E000DF90CF90BF90AF909F908F900895CF9233
:1035F000DF92EF92FF920F931F93FB01BA01A90193
:10360000980187017601DC019396FC93EE939297E3
:103610000E94AB1A1F910F91FF90EF90DF90CF9017
:1036200008959C012A5D3F4FAC01495D5F4F62E602
:10363000FC01808191810C9402220F931F93CF9300
:10364000DF931F92CDB7DEB78C0169830E94111BF7
:1036500091E09827F801928384E4878B69816483E1
:103660000F90DF91CF911F910F910895CF93DF932A
:10367000EC010E94111B91E098279A8383E58F8BC0
:10368000DF91CF9108950F931F93CF93DF931F92F4
:10369000CDB7DEB78C0169830E94111B91E098279A
:1036A000F801928389E4878B698164830F90DF91AD
:1036B000CF911F910F910895CF93DF93EC018FA1CC
:1036C000843921F18D89811127C08B81811124C01A
:1036D00089E48E8B60E5888199810E943022EC8D8F
:1036E000FD8D81E0099560E081E10E94122761E093
:1036F00082E10E9412270E941E266E837F838887A4
:10370000998781E08D8BE8A1F9A109C06CEF73E086
:103710008AA19BA10E94C629E8A1F9A180E0DF91BE
:10372000CF910994FC01718360830895CF93DF9357
:10373000EC018FA1853921F18D89811127C08B8101
:10374000811124C084E48E8B60E5888199810E9478
:103750003022EC8DFD8D81E0099560E082E10E94D0
:10376000122761E081E10E9412270E941E266E83CB
:103770007F838887998781E08D8BE8A1F9A109C0B3
:103780006CEF73E08AA19BA10E94C629E8A1F9A170
:1037900080E0DF91CF910994CF93DF93EC018FA16B
:1037A0008539F1F08D89811121C08B8181111EC075
:1037B00083E58E8B62E5888199810E943022EC8DB1
:1037C000FD8D81E0099560E082E10E94122761E0B1
:1037D00081E10E94122781E08D8BE8A1F9A109C047
:1037E0006CEF73E08AA19BA10E94C629E8A1F9A110
:1037F00080E0DF91CF910994CF93DF93EC0161E0FA
:1038000082E10E94122761E081E10E94122761E5B6
:10381000888199810E943022EC8DFD8D80E0099590
:103820001D8A0E941E266F87788B898B9A8B81E078
:103830008C8BDF91CF910895CF93DF93EC018CA116
:10384000882359F168E074E08AA19BA10E94A7290E
:1038500062E174E08AA19BA10E94A7291CA29DA1FC
:103860008B89882341F08E898234B9F49B5D81E095
:103870009230A0F012C08D89882379F09B3D29F405
:1038800081E09E89993449F409C09A3D31F49E89BA
:10389000943421F081E0933509F080E0DF91CF91FD
:1038A0000895FF920F931F93CF93DF93EC01FD8850
:1038B000FF2049F18E89833529F10E941E265D8102
:1038C0004C810E811F8128853985601B710B820B0D
:1038D000930B549F9001112444E6429F8001439F23
:1038E000100D1124222717FD2095322F6017710724
:1038F0008207930738F06AE174E08AA19BA10E94D5
:10390000C62901C0F12C8F2DDF91CF911F910F910E
:10391000FF900895CF93DF93EC018EE48E8B61E0EE
:1039200082E10E94122761E081E10E94122761E595
:10393000888199810E9430221B8AEC8DFD8D80E068
:10394000DF91CF910994CF93DF93EC0182E48E8BCA
:1039500063E5888199810E94302261E082E10E94C2
:10396000122760E081E10E94122781E08B8BEC8DB1
:10397000FD8DDF91CF910994CF92DF92EF92FF926C
:10398000CF93DF93EC018C898823C9F18E8983352D
:10399000D9F40E941E266B017C014F8558896989E4
:1039A0007A89C41AD50AE60AF70A2A853B854C8526
:1039B0005D85A4E6B0E00E94962F21E0C616D706EA
:1039C000E806F906E8F419C00E941E262E85CF8469
:1039D000D888E988FA886C197D098E099F0934E630
:1039E000239F60011124EE24D7FCE094FE2C21E0FB
:1039F0006C157D058E059F0518F420E001C001C0FF
:103A0000822FDF91CF91FF90EF90DF90CF900895BC
:103A1000CF93DF93EC018E89893419F4E88DF98D09
:103A200009C0843419F4EA8DFB8D04C0833519F480
:103A3000EE8DFF8D09951C8ADF91CF910895FC01D1
:103A40008589882311F0868908958389882311F058
:103A500082E408958EE40895CF93DF93EC0165E24C
:103A600074E08AA19BA10E94A7294AE050E06FA1BF
:103A70008AA19BA10E94B22A1EA28F89893429F4AF
:103A8000CE01DF91CF910C945C1B843429F4CE01DC
:103A9000DF91CF910C94961B833529F4CE01DF91F1
:103AA000CF910C94CC1BDF91CF910895CF93DF93EE
:103AB000EC018A81882321F0CE010E94111B8A83A8
:103AC0008EA1882319F0CE010E942C1DCE010E94E8
:103AD000511C811105C0CE010E941C1C882331F0AD
:103AE0008B89882369F0CE010E948A1CCE010E9436
:103AF000BC1C882349F0CE01DF91CF910C94081DA6
:103B0000CE010E94FC1BF2CFDF91CF910895EF927E
:103B1000FF920F931F93CF93DF931F92CDB7DEB722
:103B20008C017B01FB01608169830E9439326981CC
:103B3000681719F0C8010E944132C7010F90DF9148
:103B4000CF911F910F91FF90EF900895EF92FF9208
:103B50000F931F93CF93DF93EC0162E372E0039620
:103B60000E949F2B8E01075F1F4F7E0181E2E80EAE
:103B7000F11C62E372E0C8010E949F2B0A5F1F4F95
:103B80000E151F05B1F71882DF91CF911F910F918C
:103B9000FF90EF900895EF92FF920F931F93CF93B2
:103BA000DF93EC018B018881882311F1CE0103960C
:103BB0000E94B52C81111EC0F12C86E0E82E4F2DFD
:103BC00050E0288130E0215031094217530784F436
:103BD000E49EC001E59E900D11240996B8018C0F5A
:103BE0009D1F0E94B52CF394882349F38F2D03C0A9
:103BF0008FEF01C080E0DF91CF911F910F91FF9077
:103C0000EF9008950F931F93CF93DF938C01FC01E6
:103C1000108262E372E003960E94172CC0E0D0E0AD
:103C2000075F1F4F62E372E0C8018C0F9D1F0E9467
:103C3000172C2696C831D105A9F7DF91CF911F9196
:103C40000F910895FC016283BC016E5F7F4F86E691
:103C500090E00C94871DCF93DF93EC0186E690E013
:103C60000E9439328A838F3F31F461E0CE01DF91C7
:103C7000CF910C94221EDF91CF910895AF92BF9205
:103C8000CF92DF92EF92FF920F931F93CF93DF9328
:103C90001F92CDB7DEB75C01611107C081E0F5016D
:103CA00080832CE203E110E00AC0FC01108262E391
:103CB00072E003960E94172C27E308E010E0E12C45
:103CC000F12C6501F9E0CF0ED11C62E372E0C60170
:103CD0008E0D9F1D29830E94172C86E0E80EF11C93
:103CE0002981E8E1EE16F10481F7E22EF12CE016CD
:103CF000F10638F06FEFC8010E9441320F5F1F4F8D
:103D0000F6CFB50184E090E00F90DF91CF911F9145
:103D10000F91FF90EF90DF90CF90BF90AF900C94F9
:103D2000871DCF92DF92EF92FF920F931F93CF9355
:103D3000DF937B018A016901611584E0780728F52A
:103D40002115310511F12130310519F4FA011082E4
:103D500025C0CB010E943932F8018083C1E0D0E058
:103D60008823E1F0CC15DD0594F4FFEFEF1AFF0A8C
:103D7000E11484E0F80659F0C7010E943932F801D5
:103D8000EC0FFD1F80832196EBCF80E008C01C164E
:103D90001D0624F4C00FD11F2197188281E0DF9106
:103DA000CF911F910F91FF90EF90DF90CF900895EA
:103DB000CF92DF92EF92FF920F931F93CF93DF93F7
:103DC000CDB7DEB78C01CB01BA01CDB6DEB62F5F21
:103DD0003F4F4DB75EB7421B530B0FB6F8945EBF13
:103DE0000FBE4DBF4F5F5F4F7A010E94911EB7011A
:103DF000C8010E949F2BC8010FB6F894DEBE0FBE0B
:103E0000CDBEDF91CF911F910F91FF90EF90DF908A
:103E1000CF900895EF92FF920F931F93CF93DF936C
:103E200000D000D000D0CDB7DEB78C0184E090E0A8
:103E30000E943932F801808381508E3F08F040C0E3
:103E40002BE030E048E050E0B801CE0101960E943E
:103E5000D81EBE016F5F7F4FC80103960E940B2CD6
:103E6000CE0101960E94312BFF24F39496E0E92EB7
:103E7000F8018081F81638F5FBE0FF9EA0011124BF
:103E8000485F5F4F2AE030E0B801CE0101960E9402
:103E9000D81E2F2D30E021503109E29EC001E39E53
:103EA000900D11240996BE016F5F7F4F800F911F07
:103EB0000E940B2CCE0101960E94312BF394D8CF97
:103EC000C8010E94021E26960FB6F894DEBF0FBEF0
:103ED000CDBFDF91CF911F910F91FF90EF9008958B
:103EE000CF93DF93EC010E942B1ECE01DF91CF9187
:103EF0000C940A1FCF92DF92EF92FF920F931F93C1
:103F0000CF93DF937B016901611524E07207B8F458
:103F1000CB018C0D9D1D8115944088F4EA0100E0D1
:103F200010E00C151D054CF46991C8018E0D9F1D04
:103F30000E9441320F5F1F4FF4CF81E001C080E04B
:103F4000DF91CF911F910F91FF90EF90DF90CF9075
:103F50000895FA0101900020E9F79F01241B350B19
:103F60000C947A1FAF92BF92CF92DF92EF92FF92A2
:103F70000F931F93CF93DF93CDB7DEB76C015B0137
:103F8000CA01EDB6FEB6FA01448155814F5F5F4F1D
:103F90002DB73EB7241B350B0FB6F8943EBF0FBEAE
:103FA0002DBF0DB71EB70F5F1F4F20E030E0B801E7
:103FB0000E942D2DA801B501C6010E94A91F0FB6B0
:103FC000F894FEBE0FBEEDBEDF91CF911F910F9111
:103FD000FF90EF90DF90CF90BF90AF900895EF9259
:103FE000FF920F931F93CF93DF9300D000D000D0A8
:103FF000CDB7DEB78C01BC0184E090E00E94871D44
:10400000F80180818823E9F1B8016D5F7F4FCE010F
:1040100001960E94022CAE014F5F5F4F68E070E096
:10402000C8010E94B21FCE0101960E94312BFF24CD
:10403000F39426E0E22EF8018081F81610F58F2D1A
:1040400090E00197E89EB001E99E700D1124675F32
:104050007F4F600F711FCE0101960E94022CFBE082
:10406000FF9EB0011124685F7F4FAE014F5F5F4F2D
:10407000C8010E94B21FCE0101960E94312BF39419
:10408000DACF26960FB6F894DEBF0FBECDBFDF9114
:10409000CF911F910F91FF90EF900895DF92EF92D3
:1040A000FF920F931F93CF93DF9300D000D000D0E7
:1040B000CDB7DEB78C017B01FB01848195810A9726
:1040C00011F080E037C0F80180818530D1F3CE0156
:1040D00001960E94022CBE016F5F7F4FC8010E94B3
:1040E000CB1DD82ECE0101960E94312BFFEFDF129F
:1040F000E8CFF8012081211104C0B701C80103965F
:104100000FC0253078F430E02150310946E0429F5D
:10411000C001439F900D11240996B701800F911F94
:104120000E94EB2BF80180818F5F8083C8010E9481
:10413000EF1F81E026960FB6F894DEBF0FBECDBF0D
:10414000DF91CF911F910F91FF90EF90DF90089535
:10415000EF92FF920F931F93CF93DF9300D000D085
:1041600000D0CDB7DEB78C01FB01848195810A9721
:1041700011F080E050C0F80180818230D0F3CE0190
:1041800001960E94022CBE016F5F7F4FC8010E9402
:10419000CB1DF82ECE0101960E94312B8FEF8F0D93
:1041A0008E3F38F74F2D50E04150510986E0849FF3
:1041B0009001859F300D1124275F3F4F62E372E02D
:1041C000C801820F931F0E94172C36E0E32EF801DE
:1041D0008081F816D0F42F2D30E0E29EB001E39EEE
:1041E000700D1124675F7F4F600F711FA90141504F
:1041F0005109E49EC001E59E900D11240996800F9F
:10420000911F0E94EB2BF394E2CF81508083C80171
:104210000E94EF1F81E026960FB6F894DEBF0FBE16
:10422000CDBFDF91CF911F910F91FF90EF90089537
:104230008EBD00000DB407FEFDCF8EB50895AF9280
:10424000BF92CF92DF92EF92FF920F931F93FC01E8
:10425000718360835383428335832483178306836A
:10426000F186E086D386C286B586A48660E087E0C4
:104270000E94D92661E08AE00E94D92661E08AE0A6
:104280000E9412270E949E258091C505882399F0DF
:104290009FB7F8948091C505813059F48DB3809310
:1042A000C3052DB38091C405809582238DBB9FBF2C
:1042B00002C09093C30583E58CBD1DBC1F910F9177
:1042C000FF90EF90DF90CF90BF90AF9008952F9226
:1042D0003F924F925F926F927F928F929F92AF9296
:1042E000BF92CF92DF92EF92FF920F931F93CF93E3
:1042F000DF9300D0CDB7DEB73C01CB015A834983B1
:10430000190128018701760165015401F301758BBC
:10431000648B40E05BE460E070E00E941025920155
:10432000A10169817A81C3010E941F210F900F9022
:10433000DF91CF911F910F91FF90EF90DF90CF9081
:10434000BF90AF909F908F907F906F905F904F90B5
:104350003F902F900895EF92FF920F931F93CF936A
:10436000DF9300D000D0CDB7DEB78C01F62E2983C5
:104370003A834B835C83FC018685811129C06FE2FF
:1043800074E0848995890E94A72968E374E0F801A4
:10439000848995890E94C62960E08AE00E941227DC
:1043A0008F2D0E9418218E010F5F1F4F7E01F5E0B7
:1043B000EF0EF11CF80181918F010E9418210E155A
:1043C0001F05C1F761E08AE00E94122781E001C069
:1043D00080E00F900F900F900F90DF91CF911F9181
:1043E0000F91FF90EF900895CF93C62F60E08AE081
:1043F0000E9412278C2F0E94182161E08AE0CF9141
:104400000C9412271F93CF93DF93EC01162F8E8508
:10441000811121C081E08E87588B4F87F90110826E
:104420003A8B298B6FE274E08C899D890E94A729C1
:1044300061E474E08C899D890E94A7294AE050E0DC
:10444000612F8C899D890E94B22A612FCE010E9422
:10445000F42181E001C080E0DF91CF911F910895A8
:104460001F93CF93DF93EC01162F8E85811113C01C
:104470006FE872E08C899D890E94A7294AE050E08C
:10448000612F8C899D890E94B22A612FCE010E94E2
:10449000F42181E001C080E0DF91CF911F91089568
:1044A000CF93DF93EC0160E08AE00E94122785E65B
:1044B0000E9418218B8B61E08AE00E94122780E025
:1044C000DF91CF9108950F931F93CF93DF93EC016A
:1044D0000E9450220B8910E084E0159507958A957B
:1044E000E1F768E474E08C899D890E94A7296B89B3
:1044F0004AE050E08C899D890E94B22A8E858823EB
:1045000011F0093079F10C30110599F4EE81FF8139
:1045100081E08083E885F98509C00E301105E4F457
:10452000EA81FB8181E08083EC81FD818B8980833E
:1045300022C00D30110554F40A30110539F30B3047
:104540001105C9F4E881F98181E0F1CF0E30110540
:1045500021F7EA85FB85F8CF0F30110561F4EC8572
:10456000FD85F2CFEF85F8898B898083E989FA8907
:1045700081E080831E86DF91CF911F910F91089576
:1045800008952091C1053091C20528173907B9F463
:1045900090917F0580918005981789F0E0917F05C3
:1045A000F0E0EF57FA4F808120917F0530E02F5FD8
:1045B0003F4F2F73332720937F0590E008958FEFAF
:1045C0009FEF08951F93CF93DF93DC015C968D914D
:1045D0009C915D97009749F481E090E013969C933D
:1045E0008E93129780E090E03BC05196ED91FC9144
:1045F000529750962C915097322F30951FB75E9658
:104600004C915E9741FB772770F941FD6095F894D6
:104610004081772311F0422B01C043234083EC01FA
:104620002197F1F748E0508160FF02C0522B01C092
:1046300053235083EC012197F1F76695415099F788
:104640008081772311F0832301C0822B80831FBFD9
:104650005C968D919C915D970197F1F781E090E0D8
:10466000DF91CF911F9108952091C1053091C2052E
:104670002817390781F490917F058091800598175C
:1046800051F0E0917F05F0E0EF57FA4F80819927D4
:1046900087FD909508958FEF9FEF08952091C105B4
:1046A0003091C2052817390771F480918005209157
:1046B0007F0590E0805C9F4F821B910960E470E071
:1046C0000E94412F089580E090E008952091C10557
:1046D0003091C2052817390739F48FB7F894109232
:1046E000800510927F058FBF0895E091C105F0917C
:1046F000C205E817F90769F4A389B4899C918589F3
:10470000809589238C931092C2051092C10581E097
:10471000089580E00895CF93DF93EC018A8D9B8DFF
:10472000892BF1F08091C1059091C2058C179D07EE
:10473000B9F0009711F00E9475238E8D8E7F8E8FB9
:104740001092800510927F05D093C205C093C105D9
:10475000EB89FC8980819D89892B808381E001C060
:1047600080E0DF91CF910895E091C105F091C205FD
:10477000309709F451C0868DA685B785958581FF50
:1047800004C08C91892329F408958C91892309F020
:1047900043C0A389B4899C918589809589238C9392
:1047A000868997890197F1F7208D318DA685B78588
:1047B000758558E040E0C9010197F1F7842F90E03A
:1047C00095958795482F6C91672309F04068515063
:1047D00091F7868D81FD40958091800590E001964E
:1047E0008F73992720917F05281749F0A0918005A4
:1047F000B0E0AF57BA4F4C938093800503C0868DCD
:104800008160868F828D938D0197F1F7A389B4899A
:104810008C919589892B8C9308951F920F920FB6D6
:104820000F9211242F933F934F935F936F937F9336
:104830008F939F93AF93BF93EF93FF93E091C10545
:10484000F091C205309709F451C0868DA685B785D1
:10485000958581FF04C08C91892329F447C08C91F0
:10486000892309F043C0A389B4899C9185898095E7
:1048700089238C93868997890197F1F7208D318D53
:10488000A685B785758558E040E0C9010197F1F725
:10489000842F90E095958795482F6C91672309F0B8
:1048A0004068515091F7868D81FD4095809180053B
:1048B00090E001968F73992720917F05281749F082
:1048C000A0918005B0E0AF57BA4F4C93809380051C
:1048D00003C0868D8160868F828D938D0197F1F75D
:1048E000A389B4898C919589892B8C93FF91EF9141
:1048F000BF91AF919F918F917F916F915F914F91F8
:104900003F912F910F900FBE0F901F90189520E5AB
:1049100034E0FC01318320830C9475231F93CF93E3
:10492000DF93EC01162F6E8D6695617081E068272C
:10493000812F0E94122761E0812F0E94D926812FAA
:1049400090E0FC01E458FF4FE491E88BFC01E05754
:10495000FF4FE491F0E0EE0FFF1FE255FF4F85910E
:1049600094919A8B898BDF91CF911F9108951F931A
:10497000CF93DF93EC01162F60E0812F0E94D926A0
:104980008E8D81FD04C061E0812F0E9412271C875B
:10499000812F90E0FC01E458FF4FE491ED87FC018A
:1049A000E057FF4FE491F0E0EE0FFF1FEC55FF4F93
:1049B000859194919F878E87DF91CF911F91089564
:1049C000FF920F931F93CF93DF93EC01F62E522F9C
:1049D0001B821A8208EE13E020E030E00C831D8376
:1049E0002E833F8380E594E0998388831F8A1E8A03
:1049F000198E188E1B8E1A8E1D8E1C8E8E8D8E7F9C
:104A000050FB81F98E8F642FCE010E948E246F2D72
:104A1000CE01DF91CF911F910F91FF900C94B7249D
:104A2000CF93DF93EC019A01AB011B8E1A8E198E86
:104A3000188E1F8A1E8A60E079E08DE390E00E9464
:104A4000772FC9012430310520F0B9016350710975
:104A500002C061E070E07D8F6C8FEC85E63108F07C
:104A600068C0B901769567956431710518F0635196
:104A7000710902C061E070E07F8B6E8B069718F0C1
:104A8000C901059702C081E090E0998F888FC90124
:104A9000880F991F820F931F9695879596958795F6
:104AA0008D30910510F00C9702C081E090E09B8F53
:104AB0008A8F20916800E83050F091E0EE3008F4E1
:104AC00090E081E001C0880F9A95EAF701C084E088
:104AD000822B809368002C85283038F02E3040F0EF
:104AE000263148F48CE690E008C08DE690E005C0E1
:104AF0008BE690E002C080E090E09C8B8B8B2830AE
:104B000030F481E001C0880F2A95EAF70DC0822FAA
:104B100090E02E3010F4089701C00E9791E001C08C
:104B2000990F8A95EAF7892F8D8B8C8D9D8D019732
:104B3000F1F7CE01DF91CF910C948B23CF93CFB7B8
:104B4000F8948091C605811127C0EAE9F0E08491CC
:104B5000E6E8F0E09491E82FF0E0EE0FFF1FE85454
:104B6000FF4FA591B4918C91892321F461E08AE0F3
:104B70000E94122761E08AE00E94D9268CB58061EC
:104B80008CBD8CB580648CBD61E08DE00E94D9261F
:104B900061E08BE00E94D9268091C6058F5F8093EB
:104BA000C605CFBFCF9108951F920F920FB60F92F7
:104BB00011242F933F938F939F93AF93BF93809133
:104BC000C8059091C905A091CA05B091CB05309157
:104BD000C70523E0230F2D3720F40196A11DB11D39
:104BE00005C026E8230F0296A11DB11D2093C7051D
:104BF0008093C8059093C905A093CA05B093CB05CF
:104C00008091CC059091CD05A091CE05B091CF05B6
:104C10000196A11DB11D8093CC059093CD05A09365
:104C2000CE05B093CF05BF91AF919F918F913F91EA
:104C30002F910F900FBE0F901F9018952FB7F894DB
:104C40006091C8057091C9058091CA059091CB0506
:104C50002FBF08953FB7F8948091CC059091CD0572
:104C6000A091CE05B091CF0526B5A89B05C02F3FDA
:104C700019F00196A11DB11D3FBF6627782F892F1E
:104C80009A2F620F711D811D911D42E0660F771FE3
:104C9000881F991F4A95D1F70895CF92DF92EF921E
:104CA000FF92CF93DF936B017C010E942A26EB01D8
:104CB000C114D104E104F10489F00E94C22D0E94C4
:104CC0002A266C1B7D0B683E734090F381E0C81A66
:104CD000D108E108F108C851DC4FEACFDF91CF914C
:104CE000FF90EF90DF90CF900895789484B5826024
:104CF00084BD84B5816084BD85B5826085BD85B580
:104D0000816085BDEEE6F0E0808181608083E1E82E
:104D1000F0E0108280818260808380818160808366
:104D2000E0E8F0E0808181608083E1EBF0E0808169
:104D300084608083E0EBF0E0808181608083EAE73B
:104D4000F0E08081846080838081826080838081C4
:104D5000816080838081806880831092C100089583
:104D6000833081F028F4813099F08230A1F00895E9
:104D70008730A9F08830B9F08430D1F48091800078
:104D80008F7D03C0809180008F778093800008958D
:104D900084B58F7702C084B58F7D84BD08958091DE
:104DA000B0008F7703C08091B0008F7D8093B000FA
:104DB0000895CF93DF9390E0FC01E458FF4F2491D6
:104DC000FC01E057FF4F8491882349F190E0880F60
:104DD000991FFC01E854FF4FA591B49182559F4F54
:104DE000FC01C591D4919FB7611108C0F8948C91D2
:104DF000209582238C93888182230AC0623051F4EB
:104E0000F8948C91322F309583238C938881822B58
:104E1000888304C0F8948C91822B8C939FBFDF9180
:104E2000CF9108950F931F93CF93DF931F92CDB728
:104E3000DEB7282F30E0F901E859FF4F8491F901DE
:104E4000E458FF4F1491F901E057FF4F04910023FC
:104E5000C9F0882321F069830E94B0266981E02F80
:104E6000F0E0EE0FFF1FE255FF4FA591B4919FB701
:104E7000F8948C91611103C01095812301C0812B9E
:104E80008C939FBF0F90DF91CF911F910F91089549
:104E9000CF93DF93282F30E0F901E859FF4F849139
:104EA000F901E458FF4FD491F901E057FF4FC49145
:104EB000CC2391F081110E94B026EC2FF0E0EE0F90
:104EC000FF1FEC55FF4FA591B4912C912D2381E04C
:104ED00090E021F480E002C080E090E0DF91CF918B
:104EE0000895FC01818D228D90E0805C9F4F821B94
:104EF00091098F7399270895FC01918D828D9817E0
:104F000031F0828DE80FF11D858D90E008958FEFCF
:104F10009FEF0895FC01918D828D981761F0828D2D
:104F2000DF01A80FB11D5D968C91928D9F5F9F73DD
:104F3000928F90E008958FEF9FEF08958EE099E2B1
:104F4000892B49F080E090E0892B29F00E940E29FE
:104F500081110C9400000895FC01848DDF01A80FDD
:104F6000B11DA35ABF4F2C91848D90E001968F7391
:104F70009927848FA689B7892C93A089B1898C91B0
:104F800080648C93938D848D981306C00288F38976
:104F9000E02D80818F7D80830895CF93DF93EC0196
:104FA000888D8823C9F0EA89FB89808185FD05C049
:104FB000A889B9898C9186FD0FC00FB607FCF5CF83
:104FC000808185FFF2CFA889B9898C9185FFEDCFCB
:104FD000CE010E94AC27E7CFDF91CF910895CF9209
:104FE000DF92FF920F931F93CF93DF931F92CDB762
:104FF000DEB76C0181E0D60158968C9358975B968A
:105000009C915B975C968C915C97981307C0509627
:10501000ED91FC915197808185FD2EC0F601038DA5
:1050200010E00F5F1F4F0F731127F02EF601848DD4
:10503000F81211C00FB607FCF9CFD6015096ED91CA
:10504000FC915197808185FFF1CFC60169830E9451
:10505000AC276981EBCF838DE80FF11DE35AFF4F39
:105060006083D6015B960C935B975296ED91FC9111
:105070005397808180620CC0D6015696ED91FC91C9
:10508000579760835096ED91FC9151978081806491
:10509000808381E090E00F90DF91CF911F910F917D
:1050A000FF90DF90CF900895BF92CF92DF92EF9262
:1050B000FF92CF93DF93EC016A017B01B22EE88966
:1050C000F98982E08083411581EE580761057105F9
:1050D000A1F060E079E08DE390E0A70196010E94E5
:1050E000552F21503109410951095695479537955A
:1050F0002795211580E1380798F0E889F989108211
:1051000060E874E88EE190E0A70196010E94552FB7
:1051100021503109410951095695479537952795F1
:10512000EC85FD853083EE85FF852083188EEC8924
:10513000FD89B082EA89FB89808180618083EA8968
:10514000FB89808188608083EA89FB89808180680F
:105150008083EA89FB8980818F7D8083DF91CF9175
:10516000FF90EF90DF90CF90BF9008951F920F9225
:105170000FB60F9211242F938F939F93EF93FF936A
:10518000E091E005F091E1058081E091E605F09184
:10519000E70582FD12C090818091E9058F5F8F73D2
:1051A0002091EA05821751F0E091E905F0E0E05323
:1051B000FA4F958F8093E90501C08081FF91EF91AF
:1051C0009F918F912F910F900FBE0F901F90189568
:1051D0001F920F920FB60F9211242F933F934F936C
:1051E0005F936F937F938F939F93AF93BF93EF934F
:1051F000FF9380ED95E00E94AC27FF91EF91BF9166
:10520000AF919F918F917F916F915F914F913F915E
:105210002F910F900FBE0F901F90189580ED95E085
:105220000E94712721E0892B09F420E0822F089544
:105230001092D3051092D20588EE93E0A0E0B0E082
:105240008093D4059093D505A093D605B093D70548
:1052500080E694E09093D1058093D00585EC90E0B2
:105260009093DD058093DC0584EC90E09093DF055E
:105270008093DE0580EC90E09093E1058093E0055B
:1052800081EC90E09093E3058093E20582EC90E05E
:105290009093E5058093E40586EC90E09093E70514
:1052A0008093E6051092E9051092EA051092EB054D
:1052B0001092EC050895CF92DF92EF92FF920F9338
:1052C0001F93CF93DF937C016A01EB0100E010E0B4
:1052D0000C151D0571F06991D701ED91FC910190BC
:1052E000F081E02DC7010995892B19F00F5F1F4F41
:1052F000EFCFC801DF91CF911F910F91FF90EF90F9
:10530000DF90CF9008956115710581F0DB010D905C
:105310000020E9F7AD0141505109461B570BDC0154
:10532000ED91FC910280F381E02D099480E090E002
:105330000895DC01ED91FC91DB0114964D915C9197
:1053400015976D917C910280F381E02D09940C9466
:105350008329DC01ED91FC910190F081E02D09940D
:1053600060E372E00C9483290F931F93CF93DF9334
:10537000EC010E9499298C01CE010E94B029800F76
:10538000911FDF91CF911F910F9108950F931F935C
:10539000CF93DF93EC010E9483298C01CE010E9400
:1053A000B029800F911FDF91CF911F910F91089528
:1053B0000F931F93CF93DF93EC010E94A9298C01D7
:1053C000CE010E94B029800F911FDF91CF911F91D4
:1053D0000F9108958F929F92AF92BF92CF92DF92DA
:1053E000EF92FF920F931F93CF93DF93CDB7DEB76A
:1053F000A1970FB6F894DEBF0FBECDBF7C01C42EBF
:10540000E52FCB01D22E19A221E02D1510F02AE0B4
:10541000D22E8E010F5D1F4F8D2C912CA12CB12C03
:105420006C2D7E2FA50194010E94552F8C2DD29EAC
:1054300080191124015011098A3014F4805D01C0D3
:10544000895CF8018083211531054105510521F062
:10545000C22EE32FCA01E4CFB801C7010E948329FD
:10546000A1960FB6F894DEBF0FBECDBFDF91CF91EE
:105470001F910F91FF90EF90DF90CF90BF90AF9072
:105480009F908F900895CF92DF92EF92FF920F93AB
:105490001F93CF93DF93EC016A017B012115310546
:1054A00079F4E881F9810190F081E02D642FDF919A
:1054B000CF911F910F91FF90EF90DF90CF900994C3
:1054C0002A303105E9F477FF1AC06DE20E94A9295C
:1054D0008C0144275527BA014C195D096E097F09D3
:1054E0002AE0CE010E94EA29800F911FDF91CF911F
:1054F0001F910F91FF90EF90DF90CF9008952AE0D9
:10550000B701A601CE01DF91CF911F910F91FF90BE
:10551000EF90DF90CF900C94EA290F931F93CF93D5
:10552000DF93EC019A01AB01662757FD6095762F5A
:105530000E94432A8C01CE010E94B029800F911F46
:10554000DF91CF911F910F9108952115310541F4FD
:10555000DC01ED91FC910190F081E02D642F099424
:105560000C94EA290F931F93CF93DF93EC019A01D8
:10557000462F50E060E070E00E94A52A8C01CE0129
:105580000E94B029800F911FDF91CF911F910F9141
:1055900008950F931F93CF93DF93EC010E94A52AE8
:1055A0008C01CE010E94B029800F911FDF91CF9115
:1055B0001F910F9108950F931F93CF93DF93EC01E9
:1055C0000E941E26688779878A879B87E881F981F0
:1055D0000680F781E02DCE01099597FF15C00E9446
:1055E0001E26088519852A853B85601B710B820B59
:1055F000930B0C811D812E813F81601771078207FB
:10560000930720F38FEF9FEFDF91CF911F910F91C1
:105610000895EF92FF920F931F93CF93DF93EC01C6
:105620008B01E42E62E372E00E949F2BC8010E946E
:10563000DB2AFF24E7FCF09497FD0BC08E159F0535
:1056400041F0682FCE010E94722CC8010E94DB2A13
:10565000F3CFCE01DF91CF911F910F91FF90EF908B
:105660000895FC01808191810C946230CF93DF9387
:10567000EC0188819981009711F00E9462301982B3
:1056800018821D821C821B821A82DF91CF9108959D
:105690000F931F93CF93DF93EC018B016F5F7F4FCD
:1056A000888199810E94F130009731F09983888335
:1056B0001B830A8381E001C080E0DF91CF911F91BD
:1056C0000F910895CF93DF93EC0188819981892B05
:1056D00029F08A819B818617970760F4CE010E948A
:1056E000482B882341F08C819D81892B19F4E88116
:1056F000F981108281E0DF91CF910895EF92FF92BE
:105700000F931F93CF93DF93EC017B018A01BA01C2
:105710000E94622B811104C0CE010E94362B07C06B
:105720001D830C83B701888199810E940032CE01CC
:10573000DF91CF911F910F91FF90EF900895FC01A1
:1057400011821082138212821582148261157105F2
:1057500059F0FB0101900020E9F7AF0141505109D8
:10576000461B570B0C947E2B08950F931F93CF93DA
:10577000DF938C01EB01FC0180819181009799F00E
:10578000428153812C813D814217530750F068813B
:1057900079810E9400328C819D81F80195838483F8
:1057A00013C00E94623088819981F80191838083BF
:1057B0008A819B81938382838C819D81958384835D
:1057C000198218821B821A821D821C82DF91CF915E
:1057D0001F910F910895CF93DF93EC01FB01861782
:1057E000970761F0608171816115710529F044812D
:1057F00055810E947E2B02C00E94362BCE01DF9184
:10580000CF910895FC0111821082138212821582B9
:1058100014820C94EB2BCF93DF93EC018617970740
:1058200011F00E94B52BCE01DF91CF910895CF9357
:10583000DF93EC016115710561F0FB01019000201F
:10584000E9F7AF0141505109461B570B0E947E2BCF
:1058500002C00E94362BCE01DF91CF910895EF92C6
:10586000FF920F931F93CF93DF93EC017B010C8189
:105870001D816115710511F480E016C041155105B7
:1058800091F0040F151FB8010E94622B8823A1F329
:10589000288139818C819D81B701820F931F0E94DD
:1058A00000321D830C8381E0DF91CF911F910F9116
:1058B000FF90EF900895FB014481558160817181D3
:1058C0000C942F2C6115710559F0FB0101900020FB
:1058D000E9F7AF0141505109461B570B0C942F2C8F
:1058E00080E00895CF93DF9300D0CDB7DEB7698312
:1058F0001A8241E050E0BE016F5F7F4F0E942F2C63
:105900000F900F90DF91CF910895CF93DF93DC013B
:10591000ED91FC91EB01A881B981309711F01097BE
:10592000C9F4109759F0EB012C813D81232B31F004
:105930008C9190E091958195910914C0309781F0F8
:10594000DC0114968D919C911597892B49F08081EB
:1059500090E008C0BD01CF01DF91CF910C94F731E9
:1059600080E090E0DF91CF910895FC014481558162
:10597000FB01248135814217530741F40E94852C95
:1059800021E0892B09F020E0822F089580E008951E
:10599000FC0124813581232B31F421E0611571054F
:1059A000A1F0FB0108C0FC018081918161157105A6
:1059B00031F421E0FC018081882339F005C00E9488
:1059C000F73121E0892B09F020E0822F0895FA01B8
:1059D000DB0114964D915C911597DC0114962D9185
:1059E0003C911597241B350B2E173F0788F08D919E
:1059F0009C91009769F0DB016D917C9161157105B7
:105A000039F08E0F9F1F0E94073221E0892B09F089
:105A100020E0822F0895FC0144815581FB012481FF
:105A200035814217530720F040E050E00C94E72CFA
:105A300080E00895FC01248135816217730748F4E2
:105A400080819181009729F0FC01E60FF71F80818A
:105A5000089580E008950C941A2D0F931F93CF930F
:105A6000DF93EB0141155105E9F02097D9F0FC01D6
:105A70006481758126173707A0F4621B730B8A01B6
:105A8000015011096017710708F48B01FC01608156
:105A90007181620F731FA801CE010E941532C00FE1
:105AA000D11F1882DF91CF911F910F910895BF925E
:105AB000CF92DF92EF92FF920F931F93CF93DF93DA
:105AC0006C017B01EA0189012417350720F48D2F31
:105AD000E901042F182F62E372E0C6010E949F2B98
