:100000000C9481000C94A9000C94A9000C94CF09C5
:100010000C94CF090C94AD0E0C94A9000C94A9007B
:100020000C94A9000C94A9000C94A9000C94A900AC
:100030000C94A9000C94A9000C94A9000C94A9009C
:100040000C9485090C94A9000C9448080C9422087F
:100050000C94A9000C94A9000C94A9000C94A9007C
:100060000C94A9000C94A9000000000024002700B3
:100070002A0000000000250028002B0000000000DE
:1000800023002600290004040404040404040202DA
:100090000202020203030303030301020408102007
:1000A0004080010204081020010204081020000012
:1000B0000008000201000003040700000000000027
:1000C00000004E414E494E495459494E46CDCCCC84
:1000D0003D0AD7233C17B7D13877CC2B329595E61C
:1000E000241FB14F0A000020410000C84200401CFC
:1000F0004620BCBE4CCA1B0E5AAEC59D74000729D3
:100100006E2B11241FBECFEFD8E0DEBFCDBF14E0B1
:10011000A0E0B1E0E8EBF4E602C005900D92A4394E
:10012000B107D9F726E0A4E9B4E001C01D92A93ACD
:10013000B207E1F710E0C0E8D0E004C02197FE016B
:100140000E94FB2BCF37D107C9F70E94E31B0C9409
:100150004F320C94DB0FCF93DF93EC01E0910E064E
:10016000F0910F068081882351F087A1BF01811192
:1001700003C06D5F7F4F05C06F5D7F4F02C061ECB4
:1001800075E0CE010E946707CE01DF91CF910895FF
:100190000F931F93CF93DF93EC01462F50E060E065
:1001A00070E02AE00E94AF078C01CE010E94F807A0
:1001B000800F911FDF91CF911F910F910895809132
:1001C000CC049091CD04FC012685211107C022EFBB
:1001D00034E043EF54E062E60C945E0A80E0089558
:1001E0000F931F93CF93DF938091D905811147C05F
:1001F00060EC72E080910206909103060E94200854
:1002000064EC72E080910206909103060E9420083F
:100210000E944909AB01BC01C0910206D0910306BE
:100220002AE0CE010E94AF07CE010E94F80760E0ED
:100230008091CA050E94A30881E08093D9050E949D
:1002400049096093DB057093DC058093DD0590938D
:10025000DE050E9449090091DB051091DC05209123
:10026000DD053091DE05DC01CB01801B910BA20B7B
:10027000B30B85369105A105B10558F30AC00E945C
:1002800049096093DB057093DC058093DD0590934D
:10029000DE05DF91CF911F910F9108951F93CF93AA
:1002A000DF93EC01162F0E94F00060EF72E0CE01A8
:1002B0000E9475062091040630910506882331F0CE
:1002C000C901DF91CF911F910C94F807BE01C901BC
:1002D000111105C0DF91CF911F910C948C07DF9114
:1002E000CF911F910C940E08CF92DF92EF92FF9264
:1002F0000F931F93CF93DF93CDB7DEB762970FB6FF
:10030000F894DEBF0FBECDBF8C01F62E809104069F
:1003100090910506DC01ED91FC910284F385E02DBE
:10032000099560EF72E0CE010D960E947007F11002
:1003300015C08091E505893451F08F3429F084345B
:1003400091F462ED72E005C066EA71E002C069EC0A
:1003500072E0CE010D960E94FB0605C0B801CE01E9
:100360000D960E9412076AED72E08091020690914C
:1003700003060E94FC0760EF72E0CE0107960E9420
:10038000700760EE72E0CE0107960E94FB06CE0178
:1003900001960E94AB00BE016F5F7F4FCE010796B2
:1003A0000E94F406CE0101960E94620743E050E0ED
:1003B0006DEE72E0CE0107960E94C606809104069B
:1003C00090910506DC01ED91FC910284F385E02D0E
:1003D0000995BE01695F7F4FCE0101960E946707B4
:1003E00060E0CE0101960E944E01CE0101960E946E
:1003F00062078091040690910506DC01ED91FC9165
:100400000284F385E02D09950E9449096B017C0166
:100410000E944909DC01CB018C199D09AE09BF0975
:10042000883E9340A105B10598F3BE01635F7F4FFD
:10043000CE0101960E94670761E0CE0101960E94FD
:100440004E01CE0101960E946207809104069091B0
:100450000506DC01ED91FC910284F385E02D099500
:100460000E9449096B017C010E944909DC01CB0112
:100470008C199D09AE09BF09883E9340A105B105BD
:1004800098F38091040690910506DC01ED91FC91B2
:100490000284F385E02D09950E94F0000091040686
:1004A000109105066AE1C8010E948507C8010E94F3
:1004B000F8078091040690910506DC01ED91FC910E
:1004C0000284F385E02D09950E9449096B017C01A6
:1004D0000E944909DC01CB018C199D09AE09BF09B5
:1004E000843F9140A105B10598F361EF72E08091DE
:1004F0000206909103060E94FC07CE0107960E9417
:100500006207CE010D960E94620762960FB6F894BC
:10051000DEBF0FBECDBFDF91CF911F910F91FF9036
:10052000EF90DF90CF900895CF92DF92EF92FF92FD
:10053000CF93DF93CDB7DEB72C970FB6F894DEBF1D
:100540000FBECDBF1092E4058091E705882321F00E
:100550008091E805811106C08091E2058D7F81348C
:1005600009F080C00E94F000809104069091050679
:10057000DC01ED91FC910284F385E02D099560EF9B
:1005800072E0CE0107960E9470076AEF72E0CE011A
:1005900007960E94FB06CE0101960E94AB00BE01A9
:1005A0006F5F7F4FCE0107960E94F406CE01019641
:1005B0000E94620741E050E061E073E0CE010796DF
:1005C0000E94C606BE01695F7F4FCE0101960E9460
:1005D000670761E0CE0101960E944E01CE010196AF
:1005E0000E9462070E9449090E94C6306B017C018B
:1005F0000E9449090E94C630A70196010E94012C61
:1006000020E030E048EC52E40E94C13087FDF0CF9A
:1006100060EF72E0CE0101960E94700761E0CE01AA
:1006200001960E944E01CE0101960E94620763E08E
:1006300073E080910206909103060E94FC070E94DD
:1006400049096093D5057093D6058093D70590939B
:10065000D80582E58093DF058FE48093E005CE0125
:1006600007960DC060EF72E0CE0101960E94700700
:1006700060E0CE0101960E947401CE0101960E94B5
:1006800062072C960FB6F894DEBF0FBECDBFDF9188
:10069000CF91FF90EF90DF90CF9008950F931F932D
:1006A000CF93DF93082F162F80910606811111C07A
:1006B0006DE073E080910206909103060E9420088D
:1006C000112381F1E0910006F091010681E0099586
:1006D00029C08091DF058E3439F58091E0058E3494
:1006E00019F5C091EF05CC2301F1D1E0D093E605D7
:1006F0000E94F00064E173E080910206909103068D
:100700000E942008602F80910206909103060E94AB
:1007100085070093E5051093E805D093E7050E944F
:10072000940203C0C1E001C0C0E08C2FDF91CF91E3
:100730001F910F910895FC01A089B18982E08C93EB
:10074000A485B5851C92A685B78587E68C93108E07
:10075000A489B58986E08C93A289B3898C91806144
:100760008C93A289B3898C9188608C93A289B38978
:100770008C9180688C930288F389E02D80818F7D35
:1007800080830895CF93DF93FC01138E128E118E18
:10079000108E178A168A8DEC90E0958F848F848551
:1007A000863108F04DC025E530E0378B268B2BECE9
:1007B00030E0318F208F20E930E0338F228F90910D
:1007C0006800883050F021E08E3008F420E081E0AD
:1007D00001C0880F2A95EAF701C084E0892B809335
:1007E00068009485983038F09E3040F0963148F09B
:1007F00020E030E008C02DE630E005C02BE630E018
:1008000002C02CE630E0348B238B983030F481E04A
:1008100001C0880F9A95EAF70EC0292F30E09E306C
:1008200018F42850310902C02E50310981E001C06E
:10083000880F2A95EAF7858B848D958D0197F1F7BE
:10084000828D938D892B21F1A0919E04B0919F04FC
:10085000AE17BF07E9F0109751F05396CD91DC9198
:100860005497988155968C91809589238883868D9D
:100870008E7F868F10929D0410929C04F0939F04AB
:10088000E0939E04A389B4899C918589892B8C93DC
:10089000DF91CF9108950895CF92DF92EF92FF926A
:1008A0000F931F93CF93DF936C017A018B01C0E00C
:1008B000D0E0CE15DF0589F0D8016D918D01D6010C
:1008C000ED91FC910190F081E02DC6010995892BF5
:1008D00011F47E0102C02196ECCFC701DF91CF91C8
:1008E0001F910F91FF90EF90DF90CF900895FC0142
:1008F000918D828D981761F0828DDF01A80FB11D57
:100900005D968C91928D9F5F9F73928F90E008957A
:100910008FEF9FEF0895FC01918D828D981731F034
:10092000828DE80FF11D858D90E008958FEF9FEF88
:100930000895FC01918D228D892F90E0805C9F4F5E
:10094000821B91098F73992708958BE195E00E948E
:10095000990421E0892B09F420E0822F0895FC01FD
:10096000848DDF01A80FB11DA35ABF4F2C91848D38
:1009700090E001968F739927848FA689B7892C936D
:10098000A089B1898C9180648C93938D848D981308
:1009900006C00288F389E02D80818F7D80830895D1
:1009A000EF92FF920F931F93CF93DF93EC0181E0BF
:1009B000888F9B8D8C8D981305C0E889F98980817B
:1009C00085FD24C0F62E0B8D10E00F5F1F4F0F73B7
:1009D0001127E02E8C8DE8120CC00FB607FCFACF61
:1009E000E889F989808185FFF5CFCE010E94AF04A7
:1009F000F1CF8B8DFE01E80FF11DE35AFF4FF0821E
:100A00000B8FEA89FB898081806207C0EE89FF89AC
:100A10006083E889F98980818064808381E090E047
:100A2000DF91CF911F910F91FF90EF900895CF9399
:100A3000DF93EC01888D8823C9F0EA89FB898081E6
:100A400085FD05C0A889B9898C9186FD0FC00FB6B8
:100A500007FCF5CF808185FFF2CFA889B9898C91F9
:100A600085FFEDCFCE010E94AF04E7CFDF91CF919C
:100A7000089580E090E0892B29F00E94A50481115F
:100A80000C94000008953FB7F89480919E069091D1
:100A90009F06A091A006B091A10626B5A89B05C00F
:100AA0002F3F19F00196A11DB11D3FBFBA2FA92FED
:100AB000982F8827820F911DA11DB11DBC01CD016A
:100AC00042E0660F771F881F991F4A95D1F7089556
:100AD00020919E0430919F042817390771F490915A
:100AE0009C0480919D04981741F0E0919C04F0E0F3
:100AF000E75AF94F808190E008958FEF9FEF0895B6
:100B000008951F93CF93DF93DC015C962D913C9168
:100B10005D972115310539F481E090E013969C939F
:100B20008E9312973DC05196ED91FC91529750963D
:100B30009C915097892F80951FB75E964C915E9738
:100B400041FB772770F941FD6095F8944081772348
:100B500011F0492B01C048234083E9012197F1F7A7
:100B600048E0508160FF02C0592B01C058235083D8
:100B7000E9012197F1F76695415099F7772321F024
:100B800090818923808303C08081982B90831FBF2D
:100B90005C968D919C915D970197F1F721E030E093
:100BA000C901DF91CF911F91089520919E0430914A
:100BB0009F042817390771F480919D0420919C04AB
:100BC00090E0805C9F4F821B910960E470E00E947E
:100BD000B12B089580E090E0089520919E0430911B
:100BE0009F0428173907B9F490919C0480919D04C3
:100BF000981789F0E0919C04F0E0E75AF94F808162
:100C000020919C0430E02F5F3F4F2F7333272093B8
:100C10009C0490E008958FEF9FEF08950E949E2E10
:100C2000CF93DF93EC0188819981009711F00E94A6
:100C30003C2D198218821D821C821B821A82DF9130
:100C4000CF9108950F931F93CF93DF93EC01888189
:100C50009981009729F02A813B812617370788F46C
:100C60008B016F5F7F4F0E94D42D009761F09983B5
:100C700088831B830A832C813D81232B11F4FC0183
:100C8000108281E001C080E0DF91CF911F910F9130
:100C90000895EF92FF920F931F93CF93DF93EC0190
:100CA0007B018A01BA010E942206811104C0CE0193
:100CB0000E94100607C01D830C83B70188819981AB
:100CC0000E94B52ECE01DF91CF911F910F91FF9021
:100CD000EF900895FC0180819181009711F00C94B0
:100CE000D92E60E070E0CB010895FC0124813581AC
:100CF000232B31F421E061157105A1F0FB0108C03F
:100D0000FC01808191816115710531F421E0FC01C4
:100D10008081882339F005C00E94AC2E21E0892B08
:100D200009F020E0822F0895FC0124813581FB0128
:100D3000448155812417350721F5FC01808191817B
:100D4000FB0160817181009719F061157105A1F4B3
:100D50006115710549F0232BB1F0FB01808190E012
:100D60009195819591090AC0009769F0232B59F05C
:100D7000FC01808190E002C00E94AC2E21E0892B12
:100D800019F020E001C021E0822F0895EF92FF9238
:100D90000F931F93CF93DF93FC012481358161155D
:100DA000710511F480E019C041155105A9F07B01CE
:100DB000EC018A01020F131FB8010E94220688234A
:100DC00089F3288139818C819D81B701820F931F1E
:100DD0000E94B52E1D830C8381E0DF91CF911F917E
:100DE0000F91FF90EF900895FB0144815581608140
:100DF00071810C94C606CF93DF93EC0161157105E8
:100E000059F0FB0101900020E9F73197AF01461B33
:100E1000570B0E94490602C00E941006CE01DF91C6
:100E2000CF910895CF93DF93EC01FB0186179707CD
:100E300061F0608171816115710529F044815581EE
:100E40000E94490602C00E941006CE01DF91CF9198
:100E500008950F931F93CF93DF938C01EB01FC0157
:100E6000808191810097B1F0688179816115710568
:100E700079F0428153812C813D814217530740F024
:100E80000E94B52E8C819D81F8019583848313C0C7
:100E90000E943C2D88819981F801918380838A8109
:100EA0009B81938382838C819D8195838483198226
:100EB00018821B821A821D821C82DF91CF911F91A2
:100EC0000F910895FC01808191810C943C2DFC01CF
:100ED0001182108213821282158214820C941207DE
:100EE000FC01118210821382128215821482611514
:100EF000710551F0FB0101900020E9F73197AF0136
:100F0000461B570B0C9449060895DC01ED91FC91AA
:100F10000190F081E02D0994DC01ED91FC91DB0161
:100F200014964D915C9115976D917C910280F3819F
:100F3000E02D09946115710579F0FB010190002005
:100F4000E9F73197AF01461B570BDC01ED91FC919E
:100F50000280F381E02D099480E090E008954F92A3
:100F60005F926F927F92EF92FF920F931F93CF93B6
:100F7000DF93CDB7DEB7A1970FB6F894DEBF0FBEF3
:100F8000CDBF7C01FA01CB0119A2223008F42AE07E
:100F90008E010F5D1F4F422E512C612C712CBF0111
:100FA000A30192010E94C52BF901CA010150110948
:100FB0006A3014F4605D01C0695CD8016C93232B26
:100FC000242B252B61F7B801C7010E949A07A1962F
:100FD0000FB6F894DEBF0FBECDBFDF91CF911F914A
:100FE0000F91FF90EF907F906F905F904F900895DA
:100FF0006EEE72E00C949A070F931F93CF93DF93DA
:10100000EC010E949A078C01CE010E94F807800F24
:10101000911FDF91CF911F910F9108950F931F930F
:10102000CF93DF93EC010E948C078C01CE010E94CC
:10103000F807800F911FDF91CF911F910F910895B5
:101040000C949A071F920F920FB60F9211242F93B0
:101050003F934F935F936F937F938F939F93AF9340
:10106000BF93EF93FF938BE195E00E94AF04FF9154
:10107000EF91BF91AF919F918F917F916F915F9110
:101080004F913F912F910F900FBE0F901F90189589
:101090001F920F920FB60F9211242F938F939F934D
:1010A000EF93FF93E0912B05F0912C058081E09167
:1010B0003105F091320582FD12C090818091340596
:1010C0008F5F8F7320913505821751F0E0913405C1
:1010D000F0E0E55EFA4F958F8093340501C0808182
:1010E000FF91EF919F918F912F910F900FBE0F90D5
:1010F0001F901895833081F028F4813099F0823068
:10110000A1F008958730A9F08830B9F08430D1F487
:10111000809180008F7D03C0809180008F778093C5
:101120008000089584B58F7702C084B58F7D84BD1B
:1011300008958091B0008F7703C08091B0008F7DBB
:101140008093B00008951F93CF93DF93282F30E052
:10115000F901E255FF4F8491F901E656FF4FD49112
:10116000F901EA57FF4FC491CC23C9F0162F811122
:101170000E947A08EC2FF0E0EE0FFF1FEE58FF4FB1
:10118000A591B4918FB7F894111105C09C91ED2FE2
:10119000E095E92302C0EC91ED2BEC938FBFDF913A
:1011A000CF911F910895CF93DF9390E0FC01E65615
:1011B000FF4F2491FC01EA57FF4F8491882361F18E
:1011C00090E0880F991FFC01E859FF4FC591D49119
:1011D000FC01EE58FF4FA591B491611109C09FB772
:1011E000F8948881209582238883EC912E230BC06C
:1011F000623061F49FB7F8943881822F8095832301
:101200008883EC912E2B2C939FBF06C08FB7F89448
:10121000E8812E2B28838FBFDF91CF9108958F9285
:101220009F92AF92BF92CF92DF92EF92FF926B01AB
:101230007C010E9443054B015C01C114D104E1040F
:10124000F104F1F00E944305DC01CB0188199909F2
:10125000AA09BB09883E9340A105B10570F321E0BE
:10126000C21AD108E108F10888EE880E83E0981EC2
:10127000A11CB11CC114D104E104F10419F7DDCFA4
:10128000FF90EF90DF90CF90BF90AF909F908F90A6
:1012900008952FB7F89460919A0670919B068091FB
:1012A0009C0690919D062FBF08950F931F93CF9397
:1012B000DF93EC010E944909688779878A879B87B9
:1012C000E881F9810680F781E02DCE01099597FF2D
:1012D00017C00E944909088519852A853B85DC01CC
:1012E000CB01801B910BA20BB30B0C811D812E81B6
:1012F0003F8180179107A207B30710F38FEF9FEF8D
:10130000DF91CF911F910F9108951F920F920FB609
:101310000F9211242F933F938F939F93AF93BF937B
:1013200080919A0690919B06A0919C06B0919D0693
:101330003091990623E0230F2D3720F40196A11D4B
:10134000B11D05C026E8230F0296A11DB11D2093F3
:10135000990680939A0690939B06A0939C06B0935F
:101360009D0680919E0690919F06A091A006B09147
:10137000A1060196A11DB11D80939E0690939F0624
:10138000A093A006B093A106BF91AF919F918F91BA
:101390003F912F910F900FBE0F901F9018951F92A5
:1013A0000F920FB60F9211242F933F934F935F9399
:1013B0006F937F938F939F93AF93BF93EF93FF931D
:1013C000E0919E04F0919F04309709F451C0968DEE
:1013D000A685B785858591FF04C09C91892329F452
:1013E00047C09C91892309F043C0A389B4899C918B
:1013F0008589809589238C93868997890197F1F750
:10140000608D718DA685B785558538E020E0CB01CC
:101410000197F1F7822F90E095958795282F4C91B1
:10142000452309F02068315091F7868D81FD209584
:1014300080919D0490E001968F73992730919C04D0
:10144000381749F0A0919D04B0E0A75AB94F2C93EA
:1014500080939D0403C0868D8160868F828D938DDD
:101460000197F1F7A389B4899C918589892B8C9385
:10147000FF91EF91BF91AF919F918F917F916F916C
:101480005F914F913F912F910F900FBE0F901F9042
:1014900018958EBD00000DB407FEFDCF8EB50895E2
:1014A000CF93C62F60E08AE00E94A3088C2F0E9491
:1014B000490A61E08AE0CF910C94A308CF92DF92B1
:1014C000EF92FF921F93CF93DF93EC01162F6A01E7
:1014D000790181E08E870E9449096F87788B898B1B
:1014E0009A8BDC8ACB8AF7011082FE8AED8A6FE143
:1014F00073E089A19AA10E94200868E273E089A1A3
:101500009AA10E942008612F89A19AA10E94C80077
:10151000612FCE010E94500A81E0DF91CF911F918F
:10152000FF90EF90DF90CF9008951F93CF93DF93BC
:10153000FC012685211113C0162FEC0168E072E032
:1015400081A192A10E942008612F89A19AA10E94E5
:10155000C800612FCE010E94500A81E001C080E0E6
:10156000DF91CF911F910895EF92FF920F931F93F8
:10157000CF93DF9300D000D0CDB7DEB7FC01298335
:101580003A834B835C83868581112BC0F62E8F01B5
:101590006FE173E081A192A10E9420086FE273E0E5
:1015A000F80181A192A10E94FC0760E08AE00E94FC
:1015B000A3088F2D0E94490A8E010F5F1F4F7E01E5
:1015C000F5E0EF0EF11CF80181918F010E94490AAC
:1015D0000E151F05C1F761E08AE00E94A30881E0B3
:1015E00001C080E00F900F900F900F90DF91CF918E
:1015F0001F910F91FF90EF900895CF93DF93EB0130
:101600000E94E8318883CE01DF91CF91089508953B
:101610000895089581E08093960408959091A2061C
:10162000992339F091E09093EC058093ED051092A9
:10163000A20608959091E104911107C0882399F0C2
:1016400081E08093EB0584E412C09091E20493352D
:10165000A9F7882319F091E0909394049091A20641
:101660009111ECCF089581E08093EB058CE4809399
:10167000EA051092A20608958F929F92AF92BF92B0
:10168000CF92DF92EF92FF920F931F93CF93DF934E
:10169000CDB7DEB75B01CDB6DEB6FA01E480F580EA
:1016A000C70101962DB73EB7281B390B0FB6F8942A
:1016B0003EBF0FBE2DBF0DB71EB70F5F1F4F892B4B
:1016C00099F00115110581F0E114F10411F4F8010C
:1016D0000AC0FA0160817181A701C8010E94CA2E67
:1016E000F801EE0DFF1D1082F80101900020E9F7CE
:1016F0003197E01BF10BA11424E0B206E8F47F015E
:101700003FEFE31AF30AC5018E0D9F1D811594402A
:1017100098F4812C912C8E149F0464F4F80161914B
:101720008F01C4018A0D9B1D0E94F031FFEF8F1ABB
:101730009F0AF1CF81E001C080E00FB6F894DEBED1
:101740000FBECDBEDF91CF911F910F91FF90EF9013
:10175000DF90CF90BF90AF909F908F90089568E3F7
:1017600073E080E196E00E94FC0781E08093990499
:10177000089563E473E080E196E00E94200868E445
:1017800073E080E196E00E94FC0781E0809398047A
:101790000895809194048823E1F01092E00482E49B
:1017A0008093E20463E58091CC049091CD040E9483
:1017B000950A61E082E10E94A30860E081E10E9455
:1017C000A30881E08093DF04E091EA04F091EB0448
:1017D00009951092940481E0809397040895809372
:1017E000A20662E573E080E196E00E94FC0780912A
:1017F000F4049091F504FC012685211107C028EF1F
:1018000034E049EF54E064E60C945E0A0895809356
:10181000A20668E573E080E196E00E94FC078091F3
:101820001905882351F00E94DF0091E089278093F9
:10183000CE0483E58093E30408956DE573E080E1D1
:1018400096E00E94FC078091A206882341F081E087
:101850008093EB058FE48093EA051092A206089529
:10186000CF93C82F67EC71E080E196E00E942008DA
:101870006CE274E080E196E00E94FC070E94DF00C9
:10188000ECECF4E091E08927828384E4878BC483C5
:10189000CF910895CF93C82F62E673E080E196E080
:1018A0000E9420086CE274E080E196E00E94FC0750
:1018B0000E94DF00ECECF4E091E08927828389E468
:1018C000878BC483CF910895882321F080911905D7
:1018D000811104C08EE480939504089566E673E058
:1018E00080E196E00E9420086091950480E196E0F6
:1018F0000E94850780E196E00E94F80780E00E9440
:10190000070CE8CFEF92FF920F931F93CF93DF93D3
:101910001F92CDB7DEB78C017B01FB01608169832B
:101920000E94E8316981681719F0C8010E94F031FE
:10193000C7010F90DF91CF911F910F91FF90EF9012
:101940000895EF92FF920F931F93CF93DF9300D0F0
:1019500000D000D0CDB7DEB78C01BC0184E090E0B0
:101960000E94820CF80180818823E9F1B8016D5F43
:101970007F4FCE0101960E946707AE014F5F5F4F18
:1019800068E070E0C8010E943C0BCE0101960E9405
:101990006207FF24F39486E0E82EF8018081F816B0
:1019A00010F58F2D90E00197E89EB001E99E700D33
:1019B0001124675F7F4F600F711FCE0101960E9457
:1019C0006707FBE0FF9EB0011124685F7F4FAE0107
:1019D0004F5F5F4FC8010E943C0BCE0101960E94F1
:1019E0006207F394DACF26960FB6F894DEBF0FBEE7
:1019F000CDBFDF91CF911F910F91FF90EF90089590
:101A0000CF92DF92EF92FF920F931F93CF93DF93CA
:101A10007C018B016A010E94E831F8018083C1E0FA
:101A2000D0E08823C9F0CC15DD057CF4CE018E0D05
:101A30009F1D8115F4E09F0744F40E94E831F801EE
:101A4000EC0FFD1F80832196ECCF1C161D0624F49D
:101A5000C00FD11F2197188281E0DF91CF911F9194
:101A60000F91FF90EF90DF90CF900895EF92FF924B
:101A70000F931F93CF93DF9300D000D000D0CDB74A
:101A8000DEB7FC012081222329F18C017C01F1E2E7
:101A9000EF0EF11CC7010E94120781E0F80180A738
:101AA000B801685D7F4F8AE690E00E94820CB70122
:101AB000CE0101960E946707AE014F5F5F4F62E75C
:101AC00070E0C8010E943C0BCE0101960E946207A3
:101AD00081E001C080E026960FB6F894DEBF0FBE0D
:101AE000CDBFDF91CF911F910F91FF90EF9008959F
:101AF000CF92DF92EF92FF920F931F93CF93DF93DA
:101B0000FC01E080EE2041F16B018C01C7A1C11105
:101B100004C003960E94940604C081960E94940615
:101B2000C0E081111AC0F12CF1E0EF1AF108D6E003
:101B30002C2F30E02E153F057CF4D29FC001D39F9F
:101B4000900D11240996B601800F911F0E949406F2
:101B5000CF5F882369F301C0CFEF8C2FDF91CF9146
:101B60001F910F91FF90EF90DF90CF900895EF922B
:101B7000FF920F931F93CF93DF9300D000D000D03C
:101B8000CDB7DEB7FC012081223010F480E04AC0DE
:101B90008C01CE0101960E946707BE016F5F7F4FE7
:101BA000C8010E94780DF82ECE0101960E946207AE
:101BB0008FEF8F0D8E3F50F72F2D30E021503109E0
:101BC00046E0429FC001439F900D1124099660EFAB
:101BD00072E0800F911F0E94FB0686E0E82EF8015C
:101BE0008081F816C8F48F2D90E0E89EB001E99E40
:101BF000700D1124675F7F4F600F711F0197E89E82
:101C00009001E99E300D1124C9010996800F911FA2
:101C10000E941207F394E3CF81508083C8010E9491
:101C2000A10C81E026960FB6F894DEBF0FBECDBFA3
:101C3000DF91CF911F910F91FF90EF900895DF9268
:101C4000EF92FF920F931F93CF93DF9300D000D0BA
:101C500000D0CDB7DEB7FC012081253011F480E043
:101C600035C07B018C01CE0101960E946707BE0141
:101C70006F5F7F4FC8010E94780DD82ECE0101966C
:101C80000E946207FFEFDF12EACFF80120812111E5
:101C900004C0B701C80103960FC0253078F430E0C6
:101CA0002150310946E0429FC001439F900D11240D
:101CB0000996B701800F911F0E941207F8018081D9
:101CC0008F5F8083C8010E94A10C81E026960FB629
:101CD000F894DEBF0FBECDBFDF91CF911F910F9162
:101CE000FF90EF90DF9008950F931F93CF93DF93B2
:101CF000EC018C01065B1F4F60EC72E0F801808103
:101D000091810E9420086AE773E0F8018081918147
:101D10000E9420080E944909AB01BC01F801008122
:101D200011812AE0C8010E94AF07C8010E94F8078C
:101D300061E08A890E94A30819A2DF91CF911F91C7
:101D40000F910895FC01178A15A203A0F4A1E02DBC
:101D5000118260E083E10C94A3081F920F920FB6EA
:101D60000F9211242F933F934F935F936F937F9321
:101D70008F939F93AF93BF93CF93DF93EF93FF9393
:101D8000E5EBF0E08491E1EAF0E0D491EDE8F0E0F9
:101D9000C491CC2379F081110E947A08EC2FF0E0F5
:101DA000EE0FFF1FE458FF4FA591B491EC91ED2386
:101DB00009F059C0E0919E04F0919F04309709F416
:101DC000E7C0968DA685B785858591FF04C09C9157
:101DD000892329F4DDC09C91892309F0D9C0A38906
:101DE000B4899C918589809589238C93868997896C
:101DF0000197F1F7608D718DA685B785558538E01F
:101E000020E0CB010197F1F7822F90E0959587951F
:101E1000282F4C91452309F02068315091F7868D89
:101E200081FD209580919D0490E001968F73992704
:101E300030919C04381749F0A0919D04B0E0A75A56
:101E4000B94F2C9380939D0403C0868D8160868F4B
:101E5000828D938D0197F1F7A389B4899C9185892F
:101E6000892B8C9395C060E08AE00E94A30885E6E8
:101E70000E94490A8093C00461E08AE00E94A3089E
:101E800061E873E08091CA049091CB040E9420081D
:101E90006091C0048091CA049091CB040E94C80054
:101EA0008091C2048823C9F0E091C50481E08E0FBF
:101EB0008093C504F0E08091C004E755FB4F828F0A
:101EC0008091C504823009F063C01092B70410926B
:101ED000C20481E08093C1045BC08091C00490E0A3
:101EE00034E0959587953A95E1F72091B704222340
:101EF00099F08930910581F4E091BC04F091BD0422
:101F00008091C0048083E091BE04F091BF0481E021
:101F100080831092B7043CC08C309105D9F4E091D5
:101F2000AF04F091B00481E08083E091B104F091BE
:101F3000B2040DC08E30910524F5E091AB04F09110
:101F4000AC0481E08083E091AD04F091AE04809117
:101F5000C0040DC08D30910564F48A309105F9F20A
:101F60000B97B1F4E091A904F091AA0481E0808379
:101F70000FC08E309105F1F6E091B304F091B404F6
:101F8000F5CF0F9729F4E091B504F091B604EECFA8
:101F9000FF91EF91DF91CF91BF91AF919F918F9181
:101FA0007F916F915F914F913F912F910F900FBE55
:101FB0000F901F9018951F920F920FB60F92112439
:101FC0002F933F934F935F936F937F938F939F9341
:101FD000AF93BF93EF93FF9365E873E080E196E0E2
:101FE0000E94FC0764B780E196E00E94C800FF9160
:101FF000EF91BF91AF919F918F917F916F915F9181
:102000004F913F912F910F900FBE0F901F901895F9
:10201000CF93DF93D82FC0E0CD17C1F061E083E00C
:102020000E94A3086CE271E080E090E00E940F093A
:1020300060E083E00E94A308D23030F06CE271E0EF
:1020400080E090E00E940F09CF5FE6CFDF91CF9153
:1020500008959091E805992329F0E0910006F09108
:10206000010609951092E7051092E8050895CF92B0
:10207000DF92EF92FF92CF93DF9300D000D000D099
:10208000CDB7DEB71092E105809104069091050668
:10209000DC01ED91FC910284F385E02D099569E85E
:1020A00073E0CE0101960E94700761E0CE010196B7
:1020B0000E944E01CE0101960E9462070E944909CA
:1020C0000E94C6306B017C010E9449090E94C63003
:1020D000A70196010E94012C20E030E048EC52E478
:1020E0000E94C13087FDF0CF60EF72E0CE01019613
:1020F0000E94700761E0CE0101960E944E01CE0160
:1021000001960E9462078091040690910506DC0109
:10211000ED91FC910284F385E02D09951092E6057E
:102120001092C9051092E3051092C0058EE48093C9
:10213000DF058093E0050E9449096093F0057093E4
:10214000F1058093F2059093F3051092EF0510923C
:10215000D1051092D20561E973E080910206909159
:1021600003060E94FC078091E705882319F081E0AF
:102170000E94291026960FB6F894DEBF0FBECDBF81
:10218000DF91CF91FF90EF90DF90CF9008950F9364
:102190001F93CF93DF931F92CDB7DEB7182F062F73
:1021A0008091040690910506DC01ED91FC9102847A
:1021B000F385E02D498309950E9449096093CB0579
:1021C0007093CC058093CD059093CE0581E08093EC
:1021D000CF05498141111093E5051093D0050111F8
:1021E0001092C9050F90DF91CF911F910F91089523
:1021F000FF920F931F93CF93DF93CDB7DEB7629714
:102200000FB6F894DEBF0FBECDBFBC019091C705DD
:10221000092F10E08091E705882321F08091E805DF
:10222000811111C08091D105882379F08091C0057A
:10223000811109C08091D205833038F083E0989FE6
:102240008001112402C0000F111FCE010D960E94C3
:1022500067076AE973E0CE0107960E947007BE0126
:10226000635F7F4FCE0101960E946707BE01695FE1
:102270007F4FCE0101960E949406F82ECE01019662
:102280000E946207CE0107960E946207CE010D965A
:102290000E946207FF2009F44AC08091C90590E0BE
:1022A000801791070CF041C08091E705882361F009
:1022B0008091E805882341F08091E5059091D00553
:1022C00098132AC081E428C08091D105882331F178
:1022D0008091C00581111AC08091D2058330F0F041
:1022E0009091D00529EB290F223010F485E414C019
:1022F000953411F48EE410C09E3481F4833011F4CF
:1023000087E40AC0843051F488E406C08091E50572
:102310009091D005981771F38093D00540E060E06C
:102320008091D0050E94C71002C00E9437106296AB
:102330000FB6F894DEBF0FBECDBFDF91CF911F91D6
:102340000F91FF9008950F931F93CF93DF93CDB715
:10235000DEB727970FB6F894DEBF0FBECDBF8C0156
:102360008091E705882309F477C06EEB72E0C8011D
:102370000E947506882391F18091020690910306D0
:10238000DC01ED91FC910284F385E02D09958091AB
:10239000040690910506DC01ED91FC910284F38521
:1023A000E02D099569E873E0CE0101960E9470075F
:1023B00061E0CE0101960E944E01CE0101960E947D
:1023C00062078091040690910506DC01ED91FC9175
:1023D0000284F385E02D099581E039C064EA73E059
:1023E000C8010E947506882309F404C18091020681
:1023F00090910306DC01ED91FC910284F385E02DC0
:1024000009958091040690910506DC01ED91FC91FF
:102410000284F385E02D099569E873E0CE01019609
:102420000E94700761E0CE0101960E944E01CE012C
:1024300001960E9462078091040690910506DC01D6
:10244000ED91FC910284F385E02D099580E00E94D6
:1024500029100E943710CEC08091D105882309F43D
:1024600053C02091D205222309F44EC0F801808187
:1024700091810097D1F02F830E94DD2E2F8169304A
:10248000A9F41092D1051092D2051092C0050E94B5
:1024900049096093D5057093D6058093D70590932D
:1024A000D80541E061E08DE464C060E0162F66303D
:1024B00008F015E0243091F489E48093E9050E9446
:1024C00049096093D5057093D6058093D7059093FD
:1024D000D805E091F805F091F90514C0233009F012
:1024E00089C084E48093E9050E9449096093D50579
:1024F0007093D6058093D7059093D805E091FA059F
:10250000F091FB05812F75C066EA73E0C8010E9457
:1025100075068823A1F081E08093D10584E0809343
:10252000D2050E9449096093D5057093D605809322
:10253000D7059093D80541E061E088E41AC06FEBBD
:1025400073E0C8010E9475068823B1F081E0809392
:10255000D10583E08093D2050E9449096093D50597
:102560007093D6058093D7059093D80541E061E03C
:1025700087E40E94C7103EC06EEB72E0C8010E9463
:1025800075068823B9F08FE48093E90581E0809394
:10259000D1058093D2050E9449096093D5057093B7
:1025A000D6058093D7059093D805E091FC05F0916E
:1025B000FD051EC064EA73E0C8010E947506882309
:1025C000C9F083E58093E90581E08093D10582E03D
:1025D0008093D2050E9449096093D5057093D60572
:1025E0008093D7059093D805E091FE05F091FF0503
:1025F00081E0099527960FB6F894DEBF0FBECDBFD8
:10260000DF91CF911F910F910895AF92BF92CF921A
:10261000DF92EF92FF920F931F93CF93DF9300D03F
:1026200000D000D0CDB7DEB7FC015A01DB01149613
:102630004D915C911597848195818417950708F4D5
:102640004BC080819181009709F446C06D917C91C7
:102650006115710509F440C069017F010E94BC2E1B
:10266000892BD1F5860165010A151B0510F4680157
:10267000850160EF72E0CE0101960E947007F701BC
:1026800084819581C816D906D8F48017910708F47B
:102690008C01D701ED91FC911197E00FF11FB080F3
:1026A00010826D917C916C0D7D1DCE0101960E9472
:1026B000FB06F70180819181FC01E00FF11FB082E0
:1026C000BE016F5F7F4FC7010E942907CE010196AF
:1026D0000E94620781E001C080E026960FB6F89460
:1026E000DEBF0FBECDBFDF91CF911F910F91FF9045
:1026F000EF90DF90CF90BF90AF9008950F931F930E
:10270000CF93DF9300D000D000D0CDB7DEB78C01DF
:1027100068EA73E0CE0101960E94700727E030E07E
:1027200046E050E0BE016F5F7F4FC8010E94051375
:10273000182FCE0101960E946207812F26960FB6B0
:10274000F894DEBF0FBECDBFDF91CF911F910F91E7
:102750000895FF920F931F93CF93DF9300D000D083
:1027600000D0CDB7DEB78C016FEA73E0809102062E
:10277000909103060E942008B80180910206909172
:1027800003060E940E0864EB73E0CE0101960E94DE
:1027900070072CE030E04BE050E0BE016F5F7F4FF0
:1027A000C8010E940513F82ECE0101960E9462070F
:1027B000F11030C061EC73E0CE0101960E94700709
:1027C0002CE030E04BE050E0BE016F5F7F4FC8016E
:1027D0000E940513F82ECE0101960E946207F110A7
:1027E0001BC06EEC73E0CE0101960E9470072CE0D6
:1027F00030E04BE050E0BE016F5F7F4FC8010E94A8
:102800000513182FCE0101960E946207111106C010
:102810008EE405C082E503C089E401C085E4269604
:102820000FB6F894DEBF0FBECDBFDF91CF911F91E1
:102830000F91FF900895FF920F931F93CF93DF9313
:10284000CDB7DEB72C970FB6F894DEBF0FBECDBF65
:102850008C018091DF058934E9F48091E0058934A9
:1028600011F08F34B9F46BED73E080910206909112
:1028700003060E942008B801809102069091030689
:102880000E948C0766EE73E0809102069091030629
:102890000E94FC076EEE73E0CE0101960E94700765
:1028A000B801CE0107960E946707BE016F5F7F4F98
:1028B000CE0107960E949406F82ECE0107960E943C
:1028C0006207CE0101960E946207FF2011F081E0AD
:1028D00059C06AEF73E0CE0101960E947007B801FB
:1028E000CE0107960E946707BE016F5F7F4FCE0142
:1028F00007960E949406F82ECE0107960E94620762
:10290000CE0101960E946207F110E1CF60E074E011
:10291000CE0101960E947007B801CE0107960E9471
:102920006707BE016F5F7F4FCE0107960E94940636
:10293000F82ECE0107960E946207CE0101960E94F2
:102940006207F110C4CF6BE074E0CE0101960E94E3
:102950007007B801CE0107960E946707BE016F5F3E
:102960007F4FCE0107960E949406182FCE0107963E
:102970000E946207CE0101960E94620781E0111158
:1029800001C080E02C960FB6F894DEBF0FBECDBF1D
:10299000DF91CF911F910F91FF900895EF92FF92D9
:1029A0000F931F93CF93DF9300D0CDB7DEB78C0189
:1029B0007B0160EF72E00E947007C7010E94550919
:1029C00097FD0EC08A30910559F089831A8241E043
:1029D00050E0BE016F5F7F4FC8010E94C606EDCF79
:1029E000C8010F900F90DF91CF911F910F91FF9031
:1029F000EF900895EF92FF920F931F93CF93DF9381
:102A000000D000D000D0CDB7DEB78C0160EF72E00F
:102A10000E9470078091040690910506DC01ED91FB
:102A2000FC910480F581E02D099518161906E4F44F
:102A30000E94F0006091040670910506CE01019697
:102A40007C010E94CE140E151F0521F0B701C801AC
:102A50000E942907C7010E946207B80180910206FF
:102A6000909103060E940E08C80126960FB6F894AE
:102A7000DEBF0FBECDBFDF91CF911F910F91FF90B1
:102A8000EF900895FC016481758190E0292F30E07A
:102A900026173707A8F4408151814115510529F0C7
:102AA000DA01A20FB31F2C9101C020E0022E000C0E
:102AB000330B205331092A30310520F49F5FE6CFD4
:102AC00081E0089580E00895CF92DF92EF92FF9227
:102AD0000F931F93CF93DF938C016B01770FEE0859
:102AE000FF08F7FE12C06DE20E948507EC01442743
:102AF0005527BA014C195D096E097F092AE0C80102
:102B00000E94AF07C80FD91F06C02AE0B701A6016F
:102B10000E94AF07EC01C8010E94F8078C0F9D1FAF
:102B2000DF91CF911F910F91FF90EF90DF90CF90A9
:102B300008958F929F92AF92BF92CF92DF92EF92C1
:102B4000FF920F931F93CF93DF9300D000D000D05C
:102B5000CDB7DEB78C01D62EFC01E480F580F1E024
:102B6000EF1AF10862E174E0CE0101960E9470074D
:102B7000970148E050E0BE016F5F7F4FC8010E949F
:102B80000513F82E8111FD2CCE0101960E946207DB
:102B9000FF2009F43FC000910E0610910F06D110DE
:102BA00009C081E0F80180832CE2C22E33E1E32EDC
:102BB000F12C0DC0F801108260EF72E0C80103969D
:102BC0000E94FB0687E3C82E98E0E92EF12C5801FD
:102BD000F9E0AF0EB11C480181E2880E911C60EF54
:102BE00072E0C5010E94FB06E6E0AE0EB11CA8141F
:102BF000B904A9F7D12CCE14DF0440F06FEFC70160
:102C00000E94F031FFEFEF1AFF0AF5CFB80184E020
:102C100090E0EAC3F801E480F580F1E0EF1AF108F2
:102C20006BE174E0CE0101960E947007970144E0C9
:102C300050E0BE016F5F7F4FC8010E940513F82E60
:102C4000CE0101960E946207FF2009F446C0C80128
:102C50000E944215882309F46CC3C8010E946A06C9
:102C60006B017C0120E030E048E452E40E94C13076
:102C700087FD09C0C092BA05D092BB05E092BC05A1
:102C8000F092BD050CC080E090E0A8E4B2E480932F
:102C9000BA059093BB05A093BC05B093BD0520E099
:102CA00030E040EA52E46091BA057091BB05809132
:102CB000BC059091BD050E949D2C181664F480E01F
:102CC00090E0A0EAB2E48093BA059093BB05A0938C
:102CD000BC05B093BD0583E7EFC1F801E480F58042
:102CE000F1E0EF1AF10860E274E0CE0101960E9473
:102CF0007007970144E050E0BE016F5F7F4FC8014D
:102D00000E940513F82ECE0101960E946207FF2053
:102D100099F0C8010E944215882309F40AC3C8012A
:102D20000E946A066093BA057093BB058093BC0548
:102D30009093BD0585E7C0C1F801E480F580F1E01E
:102D4000EF1AF10865E274E0CE0101960E94700767
:102D5000970145E050E0BE016F5F7F4FC8010E94C0
:102D60000513F82ECE0101960E946207FF2099F00C
:102D7000C8010E944215882309F4DBC2C8010E94E1
:102D80006A066093BA057093BB058093BC05909367
:102D9000BD0584E791C1F801E480F580F1E0EF1A08
:102DA000F1086BE274E0CE0101960E947007970172
:102DB00044E050E0BE016F5F7F4FC8010E940513E1
:102DC000F82ECE0101960E946207FF2009F446C04A
:102DD000C8010E944215882309F4ABC2C8010E94B1
:102DE0006A066B017C0120E030E040E253E40E947F
:102DF000C13087FD09C0C092BA05D092BB05E092F0
:102E0000BC05F092BD050CC080E090E0A0E2B3E408
:102E10008093BA059093BB05A093BC05B093BD0504
:102E200020E030E044E353E46091BA057091BB05C3
:102E30008091BC059091BD050E949D2C181664F4EC
:102E400080E090E0A4E3B3E48093BA059093BB05DF
:102E5000A093BC05B093BD0580E72EC1F801E480C6
:102E6000F580F1E0EF1AF10860E374E0CE0101961D
:102E70000E947007970144E050E0BE016F5F7F4FF2
:102E8000C8010E940513F82ECE0101960E94620728
:102E9000FF2009F446C0C8010E944215882309F4A6
:102EA00048C2C8010E946A066B017C0120E030E044
:102EB00040EF52E40E94C13087FD09C0C092BA05BC
:102EC000D092BB05E092BC05F092BD050CC080E03D
:102ED00090E0A0EFB2E48093BA059093BB05A09375
:102EE000BC05B093BD0520E030E04CE053E46091B8
:102EF000BA057091BB058091BC059091BD050E94FB
:102F00009D2C181664F480E090E0ACE0B3E480936C
:102F1000BA059093BB05A093BC05B093BD0581E7AE
:102F2000CBC0F801E480F580F1E0EF1AF1086FEA18
:102F300071E0CE0101960E947007970144E050E0D5
:102F4000BE016F5F7F4FC8010E940513F82ECE01AE
:102F500001960E946207FF2009F446C0C8010E9442
:102F60004215882309F4E5C1C8010E946A066B0175
:102F70007C0120E030E048EC53E40E94C13087FD42
:102F800009C0C092BA05D092BB05E092BC05F09290
:102F9000BD050CC080E090E0A8ECB3E48093BA05D6
:102FA0009093BB05A093BC05B093BD0520E030E035
:102FB00041E654E46091BA057091BB058091BC056F
:102FC0009091BD050E949D2C181664F480E090E05D
:102FD000A1E6B4E48093BA059093BB05A093BC0529
:102FE000B093BD0582E768C0F801E480F580F1E0A8
:102FF000EF1AF10865E374E0CE0101960E947007B4
:10300000970144E050E0BE016F5F7F4FC8010E940E
:103010000513F82ECE0101960E946207FF20D1F021
:10302000E0910E06F0910F0681E08283BF016E5F92
:103030007F4F86E690E00E94820C80E090E0A0E85E
:10304000BFE38093BA059093BB05A093BC05B093F2
:10305000BD0531C0F801E480F580F1E0EF1AF10818
:103060006AE374E0CE0101960E947007970145E083
:1030700050E0BE016F5F7F4FC8010E940513F82E1C
:10308000CE0101960E946207FF2009F453C0E0912F
:103090000E06F0910F061282BF016E5F7F4F86E62B
:1030A00090E00E94820C1092BA051092BB0510921B
:1030B000BC051092BD0586E78093BE0567E674E007
:1030C00080910206909103060E9420086CE674E04D
:1030D00080910206909103060E9420084091BE054F
:1030E00050E060E070E02AE08091020690910306D3
:1030F0000E94AF076CE674E080910206909103068F
:103100000E942008C090BA05D090BB05E090BC0595
:10311000F090BD050091020610910306A7019601EB
:10312000C701B6010E94A22C882309F453C06CE4A5
:1031300074E06AC0F801E480F580F1E0EF1AF1086C
:1031400060E474E0CE0101960E947007970144E0AC
:1031500050E0BE016F5F7F4FC8010E940513F82E3B
:10316000CE0101960E946207FF2021F081E080934A
:10317000F405DFC0F801E480F580F1E0EF1AF10812
:1031800065E474E0CE0101960E947007970146E065
:1031900050E0BE016F5F7F4FC8010E940513F82EFB
:1031A000CE0101960E946207FF2009F4C2C065E4C7
:1031B00074E0CE0101960E94700761E0CE01019695
:1031C0000E944E01CE0101960E94620781E0809329
:1031D000EE05AFC046015701E894B7F82FEF3FEF77
:1031E0004FE75FE7C501B4010E94A22C811110C016
:1031F0002FEF3FEF4FE75FE7C501B4010E94C130F9
:10320000181634F460E574E0C8010E949A0779C08A
:103210002FEF3FEF4FE75FE4C701B6010E949D2CFF
:10322000181654F02FEF3FEF4FE75FECC701B601E0
:103230000E94C13087FF03C064E574E0E5CF20E061
:1032400030E0A901C701B6010E94C13087FF08C064
:103250006DE2C8010E948507F7FAF094F7F8F09440
:103260002AE037ED43EA5BE3C701B6010E94022C76
:103270004B015C010E946E2C6B017C010E94C630E8
:103280009B01AC01C501B4010E94012C4B015C0102
:103290002AE0B701A601C8010E94AF076EED72E0F7
:1032A000C8010E949A0720E030E040E251E4C501E5
:1032B000B4010E9427314B015C010E946E2C6B010E
:1032C000E12CF12C2AE0B701A601C8010E94AF074A
:1032D000C701B6010E94C6309B01AC01C501B40113
:1032E0000E94012C20E030E040E251E40E942731AE
:1032F0000E946E2CAB0160E070E02AE0C8010E94E1
:10330000AF07C8010E94F8072091BA053091BB05AC
:103310004091BC055091BD056091BE058091B805F6
:103320009091B9050E94B40A91E089278093BF0566
:103330000CC16FE674E0CE0101960E9470072CE08C
:1033400030E042E050E0BE016F5F7F4FC8010E9455
:103350000513F82ECE0101960E946207F11047C0B6
:1033600064E674E0CE0101960E9470072CE030E024
:1033700042E050E0BE016F5F7F4FC8010E9405131D
:10338000F82ECE0101960E946207F8012481358152
:10339000F1104FC07901F1E0EF1AF10868E574E02F
:1033A000CE0101960E947007970144E050E0BE01F3
:1033B0006F5F7F4FC8010E940513F82ECE01019662
:1033C0000E946207FF2009F452C0E0910E06F091BE
:1033D0000F0680A5882309F4B8C081E087A3BF0148
:1033E000695D7F4F8EE690E00E94820CAEC0F801CE
:1033F000848195810A9709F0A8C0C8010E944215EE
:10340000882309F4A2C0B801CE0101960E94670783
:10341000BE016F5F7F4F80910E0690910F060E9454
:10342000B70D182FCE0101960E94620762E774E083
:103430007EC02A30310509F088C0C8010E944215BB
:10344000882309F482C0B801CE0101960E94670763
:10345000BE016F5F7F4F80910E0690910F060E9414
:103460001F0E182FCE0101960E9462075EC0F80160
:10347000E480F580F1E0EF1AF1086DE574E0CE012B
:1034800001960E947007970145E050E0BE016F5F12
:103490007F4FC8010E940513F82ECE0101960E94AD
:1034A0006207FF2031F0E0910E06F0910F0617A29F
:1034B00096CF63E674E0CE0101960E9470072DE07E
:1034C00030E043E050E0BE016F5F7F4FC8010E94D3
:1034D0000513F82ECE0101960E946207FF20A9F184
:1034E000F801848195810A9781F5C8010E944215EF
:1034F000882359F1B801CE0101960E946707BE01E9
:103500006F5F7F4F80910E0690910F060E94360DDF
:10351000182FCE0101960E9462076FE774E0809138
:103520000206909103060E9420086AE774E08091E9
:103530000206909103060E942008612F70E080919E
:103540000206909103060E94641526960FB6F89421
:10355000DEBF0FBECDBFDF91CF911F910F91FF90C6
:10356000EF90DF90CF90BF90AF909F908F90089595
:10357000CF93DF93C4EFD4E01E8260E080E10E942D
:10358000A30860E08FE00E94A3081B861C861D86AE
:1035900061E4888199810E94950A66E874E08C89CB
:1035A0009D89DF91CF910C94FC071F93CF93DF93FC
:1035B000C4EFD4E063E4888199810E94950A0E9457
:1035C00049096F83788789879A8711E01E831C8752
:1035D00061E08FE00E94A30860E080E10E94A30800
:1035E000CE010E94A20E1E8B6CEE73E08C899D8929
:1035F0000E9420086EEB71E08C899D89DF91CF914C
:103600001F910C94FC07CF93DF93C4EFD4E081E0CB
:103610008F870E944909688B798B8A8B9B8B61E02D
:1036200083E00E94A308EE8DFF8D84E4DF91CF91AB
:103630000994CF93DF93C4EFD4E01E8661E084E069
:103640000E94A30861E388819981DF91CF910C9456
:10365000950ACF92DF92EF92FF920F931F93CF9331
:10366000DF93CDB7DEB762970FB6F894DEBF0FBE1B
:10367000CDBF8C01BC01CE0101960E94670760E0BE
:10368000CE0101960E944E01CE0101960E94620772
:10369000B80180910206909103060E948C070E9457
:1036A00049096B017C0160EF72E0CE010D960E942A
:1036B00070070E944909DC01CB018C199D09AE09F4
:1036C000BF09883B9B40A105B10508F065C080910A
:1036D000040690910506DC01ED91FC910480F581D2
:1036E000E02D09951816190624F7CE0101960E94BF
:1036F000FA14BE016F5F7F4FCE010D960E9429071D
:10370000CE0101960E946207BE01635F7F4F8091E8
:103710000206909103060E940E0860E974E0CE0153
:1037200001960E947007BE01635F7F4FCE0107962E
:103730000E946707BE016F5F7F4FCE0107960E9410
:103740009406182FCE0107960E946207CE010196BB
:103750000E946207111122C06BE074E0CE01019655
:103760000E947007BE01635F7F4FCE0107960E94E3
:103770006707BE016F5F7F4FCE0107960E949406D8
:10378000182FCE0107960E946207CE0101960E9473
:103790006207112309F48DCF10E001C011E0CE01C2
:1037A0000D960E946207812F62960FB6F894DEBFD5
:1037B0000FBECDBFDF91CF911F910F91FF90EF9082
:1037C000DF90CF900895CF93DF93CDB7DEB7A49766
:1037D0000FB6F894DEBF0FBECDBF789484B582607B
:1037E00084BD84B5816084BD85B5826085BD85B5A5
:1037F000816085BD80916E00816080936E00109223
:10380000810080918100826080938100809181009D
:10381000816080938100809180008160809380002E
:103820008091B10084608093B1008091B00081608C
:103830008093B00080917A00846080937A008091B8
:103840007A00826080937A0080917A008160809310
:103850007A0080917A00806880937A001092C1008B
:103860008BE195E00E949B0380E196E00E94C203F9
:1038700061E376E086E690E00E94FD0A80913106E1
:103880008F3F49F481E08093310661E376E086E67C
:1038900090E00E94820C6FE276E084E090E00E946B
:1038A000FD0A80912F0681508E3F08F055C04CE0F4
:1038B00050E0BE016F5F7F4F88E090E00E94000DF6
:1038C000BE016F5F7F4FCE0142960E947007BE011E
:1038D0006E5E7F4F82E396E00E942907CE014296FA
:1038E0000E94620711E006E080912F06181708F089
:1038F00049C0E12EF12C2BE0129FC0011124089643
:103900008115A4E09A073CF44BE050E0BE016F5FE4
:103910007F4F0E94000DBE016F5F7F4FCE01429628
:103920000E9470070FB6F894DEBF0FBECDBFB1E0A6
:10393000EB1AF1080E9DC0010F9D900D1124BE01E0
:103940006E5E7F4F885C994F0E942907CE01429698
:103950000E9462071F5FC8CF10922F0660EF72E0CF
:1039600082E396E00E94FB0600E010E060EF72E068
:10397000C801885C994F0E94FB060A5F1F4F0831FF
:103980001105A1F766E576E08EE690E00E94FD0A5B
:10399000809156068F3F41F41092560666E576E018
:1039A0008EE690E00E94820C67E576E08AE690E081
:1039B0000E94FD0A809157068130E1F44CE050E00E
:1039C000BE016F5F7F4F82E790E00E94000DBE0155
:1039D0006F5F7F4FCE0142960E947007BE016E5E00
:1039E0007F4F80E596E00E942907CE0142960E9413
:1039F00062070AC08F3F41F41982BE016F5F7F4F9B
:103A00008AE690E00E94820C84E69CE09093010696
:103A1000809300068AE49CE09093F9058093F80572
:103A200080E39CE09093FB058093FA0587E09CE09F
:103A30009093FD058093FC058FEE9BE09093FF052E
:103A40008093FE0589EB9BE090930D0580930C0518
:103A500089EC9BE090930F0580930E058AE09BE034
:103A600090931105809310058EE09BE090931305D1
:103A7000809312058FE296E090930F0680930E06D6
:103A8000909318058093170589EA94E09093F504C4
:103A90008093F4049093CD048093CC049093B90563
:103AA0008093B80510929B04109294048091680052
:103AB00084608093680080916D00806880936D00C1
:103AC0003FE4D32E42E5C42E55EFE52E55E0F52E0A
:103AD00080919B0481118AC00E9449096838734112
:103AE0008105910508F482C000E066E271E0CE0134
:103AF00001960E947007CE0101960E94291B182F83
:103B0000CE0101960E946207112309F467C06BE29F
:103B100071E0CE0101960E947007CE0101960E94CD
:103B2000291B182FCE0101960E946207112309F468
:103B300055C067E371E0CE0101960E947007CE0187
:103B400001960E94291B182FCE0101960E94620740
:103B5000112309F443C063E471E0CE0148960E944A
:103B60007007CE0148960E94291B882399F16FE4C3
:103B700071E0CE0142960E947007CE0142960E94EB
:103B8000291B182F882379F06BE571E0CE0101968F
:103B90000E947007CE0101960E94291B182FCE01AA
:103BA00001960E946207CE0142960E946207CE01F2
:103BB00048960E946207112389F06FE671E08091B8
:103BC0000206909103060E94FC0781E0809306069E
:103BD00082E044C6CE0148960E94620780910606A4
:103BE000811135C6011133C601E07FCF8091A80451
:103BF000882379F080913006882349F061E084E5DC
:103C00000E944E03882329F084E580939504109246
:103C1000A80480919904882339F060E08AE50E9425
:103C20004E0381111092990480919804882359F0D1
:103C300061E086E40E944E03882329F086E48093A5
:103C400095041092980480919704882359F060E0BD
:103C50008FE40E944E03882329F08EE4809395041C
:103C60001092970480919604882339F060E083E4F1
:103C70000E944E038111109296048091A60488231D
:103C8000A1F060E089E50E944E03882371F06AE7A5
:103C900071E080E196E00E94200864EE71E080E12E
:103CA00096E00E94FC071092A6048091A704882346
:103CB00039F060E088E50E944E0381111092A7045C
:103CC00080919A04882381F1E0911B05F0911C05F5
:103CD0000480F581E02D8BE195E009951816190611
:103CE0001CF560EF72E0CE0101960E9470078BE137
:103CF00095E00E94550997FD0CC08A8B1B8A41E014
:103D000050E0BE016E5E7F4FCE0101960E94C60656
:103D1000EECFBE016F5F7F4F80E196E00E948C077F
:103D2000CE0101960E946207E0911006F091110603
:103D30000480F581E02D80E196E0099518161906BA
:103D40000CF072C060E176E0CE0101960E94CE14C4
:103D5000BE016F5F7F4F80EA94E00E942907CE0189
:103D600001960E94620780919A04882391F06EE781
:103D700071E080EA94E00E947506882319F01092A1
:103D80009A0452C060EA74E08BE195E00E940E084C
:103D90004BC06BE871E080EA94E00E9475068823CE
:103DA00021F080E00E94EF0B3FC06EE871E080EAF6
:103DB00094E00E947506882321F081E00E944A0C5D
:103DC00033C061E971E080EA94E00E9475068823BF
:103DD00021F081E00E94300C27C064E971E080EAA4
:103DE00094E00E947506882321F080E00E94070C71
:103DF0001BC067E971E080EA94E00E9475068823A1
:103E000021F081E080939A040FC060EA74E0CE0153
:103E100001960E94670760E0CE0101960E94991505
:103E2000CE0101960E9462078091B7048823B1F009
:103E30000E9449090091B8041091B9042091BA0474
:103E40003091BB04DC01CB01801B910BA20BB30BA7
:103E50008D3A9D40A105B10508F047C58091C10488
:103E60008823F1F01092C104E091C604F091C704D8
:103E70008091C40490E0982F8827918380832091BB
:103E8000C304822B91838083E091C804F091C9041C
:103E900081E080831092C3041092C4041092C50480
:103EA00080911505882309F4C9C0109215058091E9
:103EB00016058D3A09F4B9C048F48B3A09F4ABC041
:103EC00008F04DC08A3A09F45FC0B8C08F3A71F16A
:103ED00008F4A8C08A5C823008F0B0C08091FA046F
:103EE000882309F4ABC063EA71E0809108059091E2
:103EF00009050E94200880910005882379F08091AF
:103F00000105882381F00E94B81AE0911205F09112
:103F1000130584E409950E94031B90C08091FF045F
:103F2000882309F48BC00E94B81A88C084EF94E0FB
:103F30000E94A20E66EA71E0809108059091090541
:103F40000E94FC0780910A05882309F477C0E0915C
:103F50000E05F0910F05099510920A056FC080912A
:103F60000B0581116BC06CEA71E08091080590919E
:103F700009050E94FC07E0910C05F0910D050995DB
:103F800081E080930B055AC0E0911705F091180568
:103F9000828181110EC080910205882351F00E9418
:103FA000191B64EB71E080910805909109050E944E
:103FB000FC078091FA04811141C062E48091F4040D
:103FC0009091F5040E94950A0E9449096093FB04B0
:103FD0007093FC048093FD049093FE0411E0109311
:103FE000FA041093FF0461E080E10E94A30860E0FE
:103FF0008FE00E94A30810931905E0911705F09136
:10400000180511836EEB71E0809108059091090508
:104010000E94FC0713C08091FA0481110FC00E9416
:10402000D51A0CC00E94191B09C061E083E10E94EF
:10403000A308E0911005F091110509958091020502
:104040008823B1F00E9449090091040510910505EB
:104050002091060530910705DC01CB01801B910BF7
:10406000A20BB30B88359B41A105B10508F044C4F0
:10407000809103058823B1F00E944909009104054D
:10408000109105052091060530910705DC01CB0153
:10409000801B910BA20BB30B80319742A105B10598
:1040A00008F02DC48091F604882399F01092F6044C
:1040B0008091F704873949F481E080931905E091F4
:1040C0001705F0911805818304C084EF94E00E94E5
:1040D000A20E8091F804882371F11092F804809167
:1040E000F9048A3981F028F4893929F50E94031BE3
:1040F00022C08B3979F08C39F1F4E0911205F091FE
:1041000013058FE405C0E0911205F091130584E5D5
:10411000099511C081E08093010563EC71E0809105
:104120000805909109050E94FC078091FA0481110D
:1041300002C00E94D51A8091FA04882351F10E948E
:1041400049090091FB041091FC042091FD04309179
:10415000FE04DC01CB01801B910BA20BB30B813D54
:104160009740A105B105A8F06FE972E080910805BC
:10417000909109050E94200880910105882309F487
:10418000DDC30E94B81AE0911205F09113058CE48A
:1041900009958091CE04882321F00E94DF0080934E
:1041A000CE048091F204882309F4ABC06BEC71E07B
:1041B0008091EE049091EF040E9420086091F30436
:1041C0008091EE049091EF040E94C8001092F204D6
:1041D0008091E304893429F59091F304953909F429
:1041E00082C09091E104911186C09091CF04911109
:1041F00082C01092E0048093E20460E58091CC04D8
:104200009091CD040E94950AE091EA04F091EB04AC
:1042100081E0099560E081E10E94A30861E082E10C
:1042200026C0843489F59091F304943909F45BC075
:104230009091E10491115FC09091CF0491115BC006
:104240001092E0048093E20460E58091CC049091A8
:10425000CD040E94950AE091EA04F091EB0481E01C
:10426000099560E082E10E94A30861E081E10E947B
:10427000A3080E9449096093D2047093D3048093E9
:10428000D4049093D50427C08335D9F59091F304D5
:10429000943949F19091E10491112DC09091CF048E
:1042A000911129C01092E0048093E20462E58091AC
:1042B000CC049091CD040E94950AE091EA04F0911B
:1042C000EB0481E0099560E082E10E94A30861E0CF
:1042D00081E10E94A30881E08093E104E091EC0475
:1042E000F091ED040DC065ED71E08091EE049091C8
:1042F000EF040E94FC07E091EC04F091ED0480E0F3
:1043000009958091E104882351F18091E20483357D
:1043100031F10E9449092091D1043091D00480905C
:10432000D2049090D304A090D404B090D504AB01F3
:10433000BC01481959096A097B09239F900111247E
:10434000E4E6E29FC001E39F900D1124092E000CCA
:10435000AA0BBB0B481759076A077B07D8F5809152
:10436000F004882309F45DC061EE71E08091EE04F1
:104370009091EF040E9420086BEE71E08091EE04B2
:104380009091EF040E9420081092F0048091F104B3
:104390009091DF04992351F09091E204923409F056
:1043A00040C08C3DF9F08A3DE1F51CC09091E104DC
:1043B0009923B9F18A3D29F48091E204893489F581
:1043C00011C08B3D71F58091E204843459F083353E
:1043D00041F508C066E972E08091EE049091EF0427
:1043E0000E94FC078091DF04882309F4EBC68EE469
:1043F0008093E20461E082E10E94A30861E081E130
:104400000E94A30861E58091CC049091CD040E94A4
:10441000950A1092DF04E091EA04F091EB0480E049
:1044200009958091E004882309F45EC08091E2043C
:10443000833511F50E9449090091DB041091DC04D9
:104440002091DD043091DE044B015C01801A910A59
:10445000A20AB30A2091D6043091D7044091D8041F
:104460005091D904A4E6B0E00E94FE31861697066A
:10447000A806B90600F538C00E944909E091DA049F
:104480000091DB041091DC042091DD043091DE0406
:10449000AB01BC01401B510B620B730BA4E6EA9FFE
:1044A000C0011124092E000CAA0BBB0B4817590799
:1044B0006A077B07C8F08091E204893429F4E0910F
:1044C000E404F091E5040DC0843429F4E091E6049D
:1044D000F091E70406C0833529F4E091E804F091F7
:1044E000E90409951092E004B090F405BB2099F11D
:1044F0000091B8051091B905F8018685811126C093
:10450000F68EE58E87EF95E090A3878F1092F605E3
:104510001092F5051092F705108E148EAA24A3941C
:10452000A18E62ED71E081A192A10E94200860E25B
:10453000D80191968D919C9192970E94C800F801A4
:10454000A68660E2C8010E94500A01C0B12C81E039
:104550008B258093F4058091F705882309F451C0D9
:104560001092F70560EF72E0CE0148960E94700746
:104570008091F5059091F605892B49F163EF71E083
:10458000CE0148960E94FB068091F5059091F605B4
:104590001B8A1A8A1D8A1C8A1F8A1E8A4AE0BE014B
:1045A0006F5F7F4F0E94192FBE016F5F7F4FCE015B
:1045B00042960E94FB06BE016E5E7F4FCE0148967A
:1045C0000E94F406CE0142960E94620706C068EF80
:1045D00071E0CE0148960E94FB06BE01685E7F4FE7
:1045E000CE0101960E94670761E0CE0101960E940C
:1045F0007401CE0101960E946207CE0148960E9486
:1046000062078091BF058823A1F02091BA053091FF
:10461000BB054091BC055091BD056091BE058091E0
:10462000B8059091B9050E94B40A91E0892780935A
:10463000BF058091D905882301F10E944909E091C5
:10464000DA050091DB051091DC052091DD05309144
:10465000DE05AB01BC01401B510B620B730BF4E692
:10466000EF9FC0011124092E000CAA0BBB0B4817A9
:1046700059076A077B0708F064C18091DF058E3413
:1046800011F58091EF05811116C00E944909009132
:10469000F0051091F1052091F2053091F305DC0150
:1046A000CB01801B910BA20BB30B893E9340A1055C
:1046B000B10508F04BC18091E405882309F4A6C038
:1046C0000E949402A3C0893419F0823509F09EC07B
:1046D0000E9449090091D5051091D6052091D70572
:1046E0003091D805AB01BC01401B510B620B730B21
:1046F0002091D3053091D405E4E6E29FC001E39F09
:10470000900D1124A0E0B0E0481759076A077B0715
:1047100010F00E9437108091EC05882311F110925F
:10472000EC058091E9058335E1F481E08093C005D3
:104730008091ED058C3421F441E061E082E405C014
:104740008F3431F441E061E082E30E94C71009C078
:10475000843519F441E061E0F8CF843411F40E940B
:1047600037108091EB05882369F11092EB05809159
:10477000E9058934C1F481E08093C0058091EA05A0
:104780008C3421F441E061E083E305C08F3431F4DF
:1047900041E061E081E30E94C71014C0843491F4C9
:1047A0000E9437100FC0843411F08F3459F481E027
:1047B0008093C0058091EA058C3441F741E061E0C7
:1047C00084E3E9CF8091CF05882301F10E94490954
:1047D000E091C8050091CB051091CC052091CD0545
:1047E0003091CE05AB01BC01401B510B620B730B2A
:1047F000A4E6EA9FC0011124092E000CAA0BBB0BF2
:1048000084179507A607B70708F4A4C088248394E3
:1048100009E48091040690910506DC01ED91FC917C
:104820000480F581E02D0995181619060CF4DAC0FC
:1048300080910D068111D6C010920D0660EF72E0D6
:1048400087E096E00E94FB060E94390541C969E8AD
:1048500072E080E196E00E94FC0785E00E9408106B
:104860000E9449094B015C018091B704811134C059
:104870009E012E5E3F4FAE014F5F5F4F66E689EAB5
:1048800094E00E945E0A882339F167E771E080E1D5
:1048900096E00E94FC070E944909DC01CB018819BF
:1048A0009909AA09BB09883E9340A105B10518F4EE
:1048B0008A89882381F381E080939B0461E070E022
:1048C00089818E3911F060E070E080E196E00E940D
:1048D00064158A89811104C085E00E940810B4CF54
:1048E00089818E39C9F782E0F8CF1092B70410920F
:1048F000C2041092C104B2CA0E94191BB9CB60E075
:1049000083E00E94A30860E38091F4049091F50491
:104910000E94950A1092030581E0809302050E948F
:1049200049096093040570930505809306059093EB
:10493000070560E084E00E94A308B4CB0E94B81A87
:1049400028CC88EB95E00E94740E97CE81E080938E
:10495000EF05B1CE8091040690910506DC01ED9142
:10496000FC910284F385E02D099561EA72E0CE01A5
:1049700001960E94700760E0CE0101960E944E01F0
:10498000CE0101960E9462076091D0056CA30E943F
:10499000F0006CA180910406909105060E948507A5
:1049A0006CEA72E0CE0101960E94700761E0CE01D0
:1049B00001960E944E01CE0101960E9462078091ED
:1049C000040690910506DC01ED91FC910284F385CB
:1049D000E02D09958091C9058F5F8093C9051092DC
:1049E000CF0514CF60EF72E0CE014E960E947007A3
:1049F00080910D06882349F067E076E0CE014E965F
:104A00000E94120710920D060FC0CE0101960E945F
:104A1000FA14BE016F5F7F4FCE014E960E942907A8
:104A2000CE0101960E946207BE01625E7F4FCE01F9
:104A300042960E94670767E474E0CE0101960E94E7
:104A4000700725E030E044E050E0BE016F5F7F4F2B
:104A5000CE0142960E940513182FCE0101960E94A6
:104A6000620711111091EE05CE0142960E94620775
:104A7000112379F01092EE05BE01625E7F4FCE01E8
:104A800001960E94670761E0CE0101960E947401C1
:104A9000E8C0AAA0BBA0B1E0AB1AB10864E072E024
:104AA000CE0101960E94700795014CE050E0BE01D6
:104AB0006F5F7F4FCE014E960E940513182FCE01D7
:104AC00001960E946207112389F1BE01625E7F4F49
:104AD000CE0148960E94670760EF72E0CE014296D1
:104AE0000E9470076BE072E0CE0142960E94FB06C6
:104AF000BE01685E7F4FCE0142960E94F406BE0161
:104B00006E5E7F4FCE0101960E94670761E0CE0185
:104B100001960E944E01CE0101960E946207CE01CD
:104B200042960E946207CE014896ABC064E172E0F3
:104B3000CE0101960E94700722E230E048E150E089
:104B4000BE016F5F7F4FCE014E960E940513182F56
:104B5000CE0101960E946207BE01625E7F4FCE01C8
:104B6000112309F481C001960E94670761EC75E08A
:104B7000CE0101960E94940699249394811101C05C
:104B8000912CCE0101960E946207992089F1CE01F5
:104B900001960E94FA14BE016F5F7F4FCE014E96C0
:104BA0000E942907CE0101960E9462076BE172E024
:104BB00080910206909103060E942008BE01625E69
:104BC0007F4F80910206909103060E940E08BE015D
:104BD000625E7F4FCE0101960E946707692DCE016C
:104BE00001960E949915CE0101960E9462072EC07F
:104BF000BE01625E7F4FCE0101960E946707A090C2
:104C00000E06B0900F06F50180818823C1F0BE0129
:104C10006F5F7F4FC50103960E949406811110C0FB
:104C2000D50197968C91882351F0BE016F5F7F4F1D
:104C3000C50181960E94940611E0811101C010E027
:104C4000CE0101960E9462071111A1CF63E272E0CA
:104C5000CE0101960E94700761E0CE0101960E948C
:104C60004E01CE0101960DC042960E94670766E391
:104C700072E0CE0142960E94750681110BC0CE01F2
:104C800042960E9462079091E6058091DF0591119E
:104C9000A1C15EC00E943710809104069091050664
:104CA000DC01ED91FC910284F385E02D099568E427
:104CB00072E0CE0101960E94700760E0CE0101967D
:104CC0000E944E01CE0101960E9462078091040667
:104CD00090910506DC01ED91FC910284F385E02DB5
:104CE00009950E9449092B013C010E944909DC01F8
:104CF000CB0184199509A609B7094497A105B10507
:104D0000A0F364E572E0CE0101960E94700760E0B6
:104D1000CE0101960E944E01CE0101960E946207CB
:104D20008091040690910506DC01ED91FC910284CE
:104D3000F385E02D09950E944909DC01CB01841916
:104D40009509A609B7094497A105B105A0F397CF26
:104D50008E3419F0823509F0E0C19091E0059E345F
:104D600019F0993409F004C1BE01625E7F4FCE0193
:104D700001960E94670760E672E0CE0101960E94EC
:104D80007506182FCE0101960E946207112309F4BF
:104D900006C2C092DF050093E0058091E1058F5FB8
:104DA0008093E105833008F0A7C08130D1F46BE235
:104DB00071E0CE0101960E94700760E0CE0101967D
:104DC0000E944E01CE0101960E9462078091040666
:104DD00090910506DC01ED91FC910284F385E02DB4
:104DE000099560EF72E0CE0148960E947007CE01EF
:104DF00001960E94FA14BE016F5F7F4FCE01489664
:104E00000E942907CE0101960E94620766E672E0C1
:104E1000CE0101960E94700725E130E04BE050E0A2
:104E2000BE016F5F7F4FCE0148960E940513182F79
:104E3000CE0101960E9462071123C9F20E9449091E
:104E40006093D5057093D6058093D7059093D805C8
:104E50008C8D9D8D0A9708F44CC0CE0148960E9417
:104E60004215182F882309F444C08091E10582304F
:104E700008F43FC0BE01685E7F4FCE0142960E949B
:104E800067076FE672E080910206909103060E9428
:104E90002008BE016E5E7F4F80910206909103064E
:104EA0000E940E0861EC75E0CE0142960E949406C5
:104EB00081117AC1BE016E5E7F4FCE0101960E94C4
:104EC0006707BE016F5F7F4F80910E0690910F06BE
:104ED0000E94780DB82ECE0101960E946207BFEFA6
:104EE000BB1262C1CE0142960E94620711110E945C
:104EF0003710CE0148966BC0833009F050C10E9434
:104F000049096093D5057093D6058093D705909392
:104F1000D8058092E3058091040690910506DC0196
:104F2000ED91FC910284F385E02D099567E772E02D
:104F3000CE0101960E94700761E0CE0101960E94A9
:104F40004E01CE0101960E94620780910406909165
:104F50000506DC01ED91FC910284F385E02D0995B5
:104F60000093DF050093E00541E061E08DE4D2C0ED
:104F7000893481F59091E005993461F5BE01625E56
:104F80007F4FCE0101960E946707CE0101960E94D5
:104F90001B14182FCE0101960E946207112319F0ED
:104FA0000E943710FCC0CE014E960E947E13BE01B7
:104FB000625E7F4F882309F4FCC0CE0101960E94F7
:104FC0006707CE0101960E94A311CE0101960E94AF
:104FD0006207E5C08E3419F0823509F0A1C0109146
:104FE000E0051F3409F0DBC0BE01625E7F4FCE01D9
:104FF00001960E946707CE0101960E94A913B82E60
:10500000CE0101960E946207B2E5BB120FC00E945A
:1050100049096093D5057093D6058093D705909381
:10502000D805B092DF051093E005B9C0BE01625EFD
:105030007F4FCE0142960E946707CE0142960E94A2
:105040001B14182F811113C0BE01625E7F4FCE0169
:1050500001960E946707CE0101960E94A91311E0F4
:10506000853409F010E0CE0101960E946207CE015E
:1050700042960E9462071123F1F00E94371080913E
:10508000E705882339F08091E805882319F081E04D
:105090000E9429108091E205813409F080C060EF00
:1050A00072E0CE0101960E94700760E0CE01019689
:1050B0000E9474018ACFBE01625E7F4FCE010196CD
:1050C0000E946707CE0101960E94A913182FCE01F6
:1050D00001960E946207193409F061C06BE772E023
:1050E00080910206909103060E94FC070E944909E4
:1050F0006093D5057093D6058093D7059093D80516
:105100001093DF05D092E0058092E30541E061E075
:105110008091E5050E94C71042C0893409F42ACF66
:105120008934E9F58091E0058F34C9F5BE01625EEE
:105130007F4FCE0142960E946707CE0142960E94A1
:105140001B14182F811113C0BE01625E7F4FCE0168
:1051500001960E946707CE0101960E94A91311E0F3
:10516000853409F010E0CE0101960E946207CE015D
:1051700042960E946207111113CF8091E7058823A0
:10518000A9F08091E805882389F0CE014E960E940F
:105190007E13882359F0BE01625E7F4F0ECFCE0191
:1051A0004E960E94620735CB10E09CCEBE01625E37
:1051B0007F4FCE0101960E946707CE0101960E94A3
:1051C000F81003CF61E082E10E94A30861E081E171
:1051D0000E94A30861E58091CC049091CD040E94C7
:1051E000950AE091EA04F091EB0480E009951092B1
:1051F000E1040E9449096093DB047093DC0480930E
:10520000DD049093DE0481E08093E0040AC91F93DB
:10521000CF93DF9310921E0510921D0588EE93E048
:10522000A0E0B0E080931F0590932005A093210596
:10523000B09322058AE091E090931C0580931B05B2
:1052400085EC90E0909328058093270584EC90E00E
:1052500090932A058093290580EC90E090932C058B
:1052600080932B0581EC90E090932E0580932D0583
:1052700082EC90E09093300580932F0586EC90E0CF
:1052800090933205809331051092340510923505C4
:10529000109236051092370560EF72E082E396E0D7
:1052A0000E947007C0E0D0E060EF72E0CE01885C41
:1052B000994F0E9470072696C831D105A9F760EF73
:1052C00072E080E596E00E94700710922F0610921F
:1052D00013061092120688EE93E0A0E0B0E08093EF
:1052E000140690931506A0931606B09317068AE14C
:1052F00091E0909311068093100610922706109269
:105300002606109229061092280610922B0610925B
:105310002A0610922D0610922C0660912E066E7FA2
:105320006D7F60932E066695617081E0682786E048
:105330000E94A30861E086E00E94D308E0EAF0E062
:10534000E491E0932006ECE8F0E0E491F0E0EE0F69
:10535000FF1FEE58FF4F8591949190932206809302
:10536000210660E085E00E94D30880912E0681FD31
:1053700004C061E085E00E94A308C0E1D6E015E02A
:1053800010931C06EFE9F0E0E491E0931D06EBE8D2
:10539000F0E0E491F0E0EE0FFF1FE458FF4F85913D
:1053A000949190931F0680931E0660EF72E081EC4B
:1053B00095E00E94700760EF72E087E096E00E943F
:1053C0007007D0930306C0930206CE010E94C20369
:1053D0008BE195E090930506809304060E949B0361
:1053E00065EB72E081EC95E00E94FB0610920D06E1
:1053F00060EF72E087E096E00E94FB0610920606DE
:1054000082E08093CA0588EC8093DA051092D90572
:105410001092D1051092D20561E082E00E94D3087B
:1054200088EB95E00E94740E8AE08093C705109384
:10543000C8051092C9051092CF051092BF051EE451
:105440001093E5051092E4051092C00584E492E003
:105450009093D4058093D3051092E10583E4809363
:10546000E2051093DF051093E0051092E30510921A
:10547000E7051092E8051092E6051092EE0581E02E
:105480008093EF05D0930905C0930805CE010E94D3
:10549000C20361E084E00E94D30861E084E00E94DE
:1054A000A30861E080E10E94D30860E080E10E94EF
:1054B000A30861E08FE00E94D30860E08FE00E94C3
:1054C000A30861E083E10E94D30860E083E10E94C9
:1054D000A30861E083E00E94D30860E083E00E94BB
:1054E000A30810920B0584EF94E00E94A20E61E4E1
:1054F0008091F4049091F5040E94950A109202059F
:105500001092030510920A051092FF0410920005F4
:10551000109214051092FA041092FB041092FC04ED
:105520001092FD041092FE04D093EF04C093EE0499
:1055300061E082E10E94D30861E081E10E94D3082A
:1055400060E082E10E94A30860E081E10E94A3087C
:105550008AEF8093DA0488E592E0A0E0B0E08093DF
:10556000D6049093D704A093D804B093D90486E0CE
:105570008093D1041093E2041092CF0487E09BE063
:105580009093E5048093E40488E09BE09093E70423
:105590008093E6048FEA9BE09093E9048093E8040B
:1055A00089E09BE09093EB048093EA048AE19BE01E
:1055B0009093ED048093EC041092E1041092DF04C8
:1055C0001092E0041092F2041092CE041092F004B3
:1055D000D093CB04C093CA04CE010E94C20388EAD0
:1055E00094E09093AA048093A90480EF94E09093B0
:1055F000AC048093AB0481EF94E09093AE0480936D
:10560000AD0485E195E09093B0048093AF0486E10A
:1056100095E09093B2048093B10487EA94E090936C
:10562000B4048093B30486EA94E09093B604809324
:10563000B50460E087E00E94D30861E08AE00E9440
:10564000D30861E08AE00E94A3088091680081602D
:105650008093680080916B00846080936B00CFB76B
:10566000F89480915806811127C0E0E9F0E0849118
:10567000E4EAF0E09491E82FF0E0EE0FFF1FE85924
:10568000FF4FA591B491EC91E92321F461E08AE008
:105690000E94A30861E08AE00E94D3088CB5806173
:1056A0008CBD8CB580648CBD61E08DE00E94D30818
:1056B00061E08BE00E94D308809158068F5F809351
:1056C0005806CFBF83E58CBD1DBC60EF72E080EA59
:1056D00094E0DF91CF911F910C94700780EA94E0E1
:1056E0000E94620787E096E00E94620781EC95E0E5
:1056F0000E9462078AE191E0909311068093100660
:1057000080919E0490919F048051964071F4E091A5
:105710002306F091240690818091250680958923A7
:10572000808310929F0410929E0480E596E00E9470
:10573000620788E396E0892B81F08AE496E00E9474
:10574000620784E496E00E9462078EE396E00E947E
:10575000620788E396E00E94620782E396E00C9479
:10576000620797FB072E16F4009407D077FD09D047
:105770000E94E72B07FC05D03EF4909581959F4F42
:105780000895709561957F4F0895A1E21A2EAA1B86
:10579000BB1BFD010DC0AA1FBB1FEE1FFF1FA217E1
:1057A000B307E407F50720F0A21BB30BE40BF50BDE
:1057B000661F771F881F991F1A9469F76095709567
:1057C000809590959B01AC01BD01CF010895AA1B66
:1057D000BB1B51E107C0AA1FBB1FA617B70710F0DC
:1057E000A61BB70B881F991F5A95A9F7809590950E
:1057F000BC01CD010895EE0FFF1F0590F491E02D3F
:1058000009945058BB27AA270E94192C0C94AE313A
:105810000E94A03138F00E94A73120F039F49F3F58
:1058200019F426F40C949D310EF4E095E7FB0C94EA
:105830009731E92F0E94BF3158F3BA1762077307F7
:105840008407950720F079F4A6F50C94E1310EF465
:10585000E0950B2EBA2FA02D0B01B90190010C0180
:10586000CA01A0011124FF27591B99F0593F50F498
:10587000503E68F11A16F040A22F232F342F4427F0
:10588000585FF3CF469537952795A795F0405395E8
:10589000C9F77EF41F16BA0B620B730B840BBAF0B8
:1058A0009150A1F0FF0FBB1F661F771F881FC2F723
:1058B0000EC0BA0F621F731F841F48F48795779537
:1058C0006795B795F7959E3F08F0B0CF9395880FF1
:1058D00008F09927EE0F9795879508950E94C73194
:1058E00088F09F5798F0B92F9927B751B0F0E1F0A1
:1058F000660F771F881F991F1AF0BA95C9F714C051
:10590000B13091F00E94E131B1E008950C94E131A1
:10591000672F782F8827B85F39F0B93FCCF3869589
:1059200077956795B395D9F73EF4909580957095E6
:1059300061957F4F8F4F9F4F08950E94033108F468
:105940008FEF08950E940331880B990B0895CF9330
:10595000DF938230910510F482E090E0E091A5069B
:10596000F091A60620E030E0C0E0D0E0309711F1E1
:105970004081518148175907C0F04817590761F411
:1059800082819381209719F09B838A832BC0909307
:10599000A6068093A50626C02115310519F04217E9
:1059A000530718F49A01BE01DF01EF010280F38171
:1059B000E02DDCCF2115310509F1281B390B2430EE
:1059C000310590F412968D919C9113976115710594
:1059D00021F0FB019383828304C09093A6068093F9
:1059E000A506FD01329644C0FD01E20FF31F81932D
:1059F0009193225031092D933C933AC02091A306F4
:105A00003091A406232B41F420910201309103012F
:105A10003093A4062093A306209100013091010148
:105A20002115310541F42DB73EB740910401509145
:105A30000501241B350BE091A306F091A406E217A3
:105A4000F307A0F42E1B3F0B2817390778F0AC01A1
:105A50004E5F5F4F2417350748F04E0F5F1F50937E
:105A6000A4064093A3068193919302C0E0E0F0E086
:105A7000CF01DF91CF9108950F931F93CF93DF93C1
:105A8000009709F48CC0FC013297138212820091B6
:105A9000A5061091A6060115110581F4208131811A
:105AA000820F931F2091A3063091A406281739076F
:105AB00079F5F093A406E093A30671C0D80140E005
:105AC00050E0AE17BF0750F412962D913C911397FA
:105AD000AD012115310509F1D901F3CF9D01DA019D
