:100000000C9481000C94A9000C94A9000C948E0609
:100010000C948E060C94F60E0C94A9000C94A90076
:100020000C94A9000C94A9000C94A9000C94A900AC
:100030000C94A9000C94A9000C94A9000C94A9009C
:100040000C9444060C94A9000C9407050C94E1044C
:100050000C94A9000C94A9000C94A9000C94A9007C
:100060000C94A9000C94A9000000000800020100F3
:100070000003040700000000000000000000000072
:10008000240027002A0000000000250028002B0083
:1000900000000000230026002900040404040404D6
:1000A0000404020202020202030303030303010227
:1000B00004081020408001020408102001020408F6
:1000C00010204E414E494E495459494E46CDCCCC54
:1000D0003D0AD7233C17B7D13877CC2B329595E61C
:1000E000241FB14F0A000020410000C84200401CFC
:1000F0004620BCBE4CCA1B0E5AAEC59D7400422899
:10010000A72A11241FBECFEFD8E0DEBFCDBF14E079
:10011000A0E0B1E0E2ECF2E602C005900D92A2365A
:10012000B107D9F726E0A2E6B4E001C01D92A537D9
:10013000B207E1F710E0C0E8D0E004C02197FE016B
:100140000E94342BCF37D107C9F70E94C91B0C94EA
:1001500054310C9424100895CF92DF92EF92FF92C5
:100160000F931F93CF93DF936C017A018B01C0E053
:10017000D0E0CE15DF0589F0D8016D918D01D60153
:10018000ED91FC910190F081E02DC6010995892B3C
:1001900011F47E0102C02196ECCFC701DF91CF910F
:1001A0001F910F91FF90EF90DF90CF900895FC0189
:1001B000918D828D981761F0828DDF01A80FB11D9E
:1001C0005D968C91928D9F5F9F73928F90E00895C2
:1001D0008FEF9FEF0895FC01918D828D981731F07C
:1001E000828DE80FF11D858D90E008958FEF9FEFD0
:1001F0000895FC01918D228D892F90E0805C9F4FA6
:10020000821B91098F739927089581E395E00E94DD
:10021000F90021E0892B09F420E0822F0895FC01E8
:10022000848DDF01A80FB11DA35ABF4F2C91848D7F
:1002300090E001968F739927848FA689B7892C93B4
:10024000A089B1898C9180648C93938D848D98134F
:1002500006C00288F389E02D80818F7D8083089518
:10026000EF92FF920F931F93CF93DF93EC0181E006
:10027000888F9B8D8C8D981305C0E889F9898081C2
:1002800085FD24C0F62E0B8D10E00F5F1F4F0F73FE
:100290001127E02E8C8DE8120CC00FB607FCFACFA8
:1002A000E889F989808185FFF5CFCE010E940F0191
:1002B000F1CF8B8DFE01E80FF11DE35AFF4FF08265
:1002C0000B8FEA89FB898081806207C0EE89FF89F4
:1002D0006083E889F98980818064808381E090E08F
:1002E000DF91CF911F910F91FF90EF900895CF93E1
:1002F000DF93EC01888D8823C9F0EA89FB8980812E
:1003000085FD05C0A889B9898C9186FD0FC00FB6FF
:1003100007FCF5CF808185FFF2CFA889B9898C9140
:1003200085FFEDCFCE010E940F01E7CFDF91CF9186
:10033000089580E090E0892B29F00E940501811149
:100340000C94000008953FB7F8948091AE0490910A
:10035000AF04A091B004B091B10426B5A89B05C02C
:100360002F3F19F00196A11DB11D3FBFBA2FA92F34
:10037000982F8827820F911DA11DB11DBC01CD01B1
:1003800042E0660F771F881F991F4A95D1F708959D
:100390002091B4043091B5042817390771F4909175
:1003A000B2048091B304981741F0E091B204F0E0F8
:1003B000E759FB4F808190E008958FEF9FEF0895FC
:1003C00008951F93CF93DF93DC015C962D913C91B0
:1003D0005D972115310539F481E090E013969C93E7
:1003E0008E9312973DC05196ED91FC915297509685
:1003F0009C915097892F80951FB75E964C915E9780
:1004000041FB772770F941FD6095F894408177238F
:1004100011F0492B01C048234083E9012197F1F7EE
:1004200048E0508160FF02C0592B01C0582350831F
:10043000E9012197F1F76695415099F7772321F06B
:1004400090818923808303C08081982B90831FBF74
:100450005C968D919C915D970197F1F721E030E0DA
:10046000C901DF91CF911F9108952091B40430917B
:10047000B5042817390771F48091B3042091B204B0
:1004800090E0805C9F4F821B910960E470E00E94C5
:10049000EA2A089580E090E008952091B404309114
:1004A000B50428173907B9F49091B2048091B304C8
:1004B000981789F0E091B204F0E0E759FB4F808192
:1004C0002091B20430E02F5F3F4F2F7333272093EA
:1004D000B20490E008958FEF9FEF08950E94A32D3E
:1004E0006115710579F0FB0101900020E9F7319762
:1004F000AF01461B570BDC01ED91FC910280F381AB
:10050000E02D099480E090E00895CF93DF93EC0113
:1005100088819981009711F00E94412C19821882DC
:100520001D821C821B821A82DF91CF9108950F9346
:100530001F93CF93DF93EC0188819981009729F075
:100540002A813B812617370788F48B016F5F7F4F25
:100550000E94D92C009761F0998388831B830A83BA
:100560002C813D81232B11F4FC01108281E001C01C
:1005700080E0DF91CF911F910F910895EF92FF924C
:100580000F931F93CF93DF93EC017B018A01BA0194
:100590000E949702811104C0CE010E94850207C00B
:1005A0001D830C83B701888199810E94BA2DCE01E9
:1005B000DF91CF911F910F91FF90EF900895FC0173
:1005C00080819181009711F00C94DE2D60E070E045
:1005D000CB010895AF92BF92CF92DF92EF92FF923C
:1005E0000F931F93CF93DF93DC01CD90DC90119795
:1005F000C114D10409F442C01496CD91DC91159731
:100600002097E1F18C0156017501BFEFAB1ABB0ACF
:10061000F7018081082E000C990B0E94952F892BE1
:1006200099F72197CC0DDD1D8881082E000C990BC0
:100630000E94952F892B91F4AE014F5F5F4F4E19A9
:100640005F09D80115965C934E931497CE14DF047E
:1006500050F4B701C6010E94A82D05C0CE15DF05D4
:1006600058F32197E1CFD801ED91FC9111971496A1
:100670008D919C911597E80FF91F1082DF91CF9112
:100680001F910F91FF90EF90DF90CF90BF90AF90B0
:100690000895FC0124813581232B31F421E061157B
:1006A0007105A1F0FB0108C0FC01808191816115F9
:1006B000710531F421E0FC018081882339F005C007
:1006C0000E94B12D21E0892B09F020E0822F0895AE
:1006D000FC0124813581FB014481558124173507B4
:1006E00021F5FC0180819181FB016081718100977E
:1006F00019F061157105A1F46115710549F0232BFD
:10070000B1F0FB01808190E09195819591090AC03B
:10071000009769F0232B59F0FC01808190E002C022
:100720000E94B12D21E0892B19F020E001C021E0C9
:10073000822F0895EF92FF920F931F93CF93DF9331
:10074000FC01248135816115710511F480E019C027
:1007500041155105A9F07B01EC018A01020F131F1D
:10076000B8010E949702882389F3288139818C81FE
:100770009D81B701820F931F0E94BA2D1D830C83A8
:1007800081E0DF91CF911F910F91FF90EF9008953D
:10079000FB0144815581608171810C949A03CF9350
:1007A000DF93EC016115710559F0FB010190002008
:1007B000E9F73197AF01461B570B0E94BE0202C0FA
:1007C0000E948502CE01DF91CF910895CF93DF93F0
:1007D000EC01FB018617970761F06081718161155B
:1007E000710529F0448155810E94BE0202C00E9419
:1007F0008502CE01DF91CF9108950F931F93CF9380
:10080000DF938C01EB01FC01808191810097B1F0B5
:10081000688179816115710579F0428153812C815C
:100820003D814217530740F00E94BA2D8C819D8173
:10083000F8019583848313C00E94412C888199819B
:10084000F801918380838A819B81938382838C8149
:100850009D8195838483198218821B821A821D824E
:100860001C82DF91CF911F910F910895FC0180812F
:1008700091810C94412CFC0111821082138212820E
:10088000158214820C94E603FC01118210821382FB
:100890001282158214826115710551F0FB010190DD
:1008A0000020E9F73197AF01461B570B0C94BE02AD
:1008B00008954F925F926F927F92EF92FF920F9303
:1008C0001F93CF93DF93CDB7DEB7A1970FB6F89400
:1008D000DEBF0FBECDBF7C01FA01CB0119A22230D1
:1008E00008F42AE08E010F5D1F4F422E512C612C1F
:1008F000712CBF01A30192010E94FE2AF901CA01D5
:10090000015011096A3014F4605D01C0695CD801BE
:100910006C93232B242B252B61F7B801C7010E9470
:100920007002A1960FB6F894DEBF0FBECDBFDF9167
:10093000CF911F910F91FF90EF907F906F905F90FC
:100940004F9008956CE671E00C9470020F931F9322
:10095000CF93DF93EC010E9470028C01CE010E94C4
:10096000A204800F911FDF91CF911F910F910895E5
:10097000DC01ED91FC910190F081E02D09940C9443
:100980007002DC01ED91FC91DB0114964D915C91BC
:1009900015976D917C910280F381E02D09940F935E
:1009A0001F93CF93DF93EC010E94C1048C01CE0111
:1009B0000E94A204800F911FDF91CF911F910F9190
:1009C00008951F920F920FB60F9211242F933F9309
:1009D0004F935F936F937F938F939F93AF93BF9347
:1009E000EF93FF9381E395E00E940F01FF91EF9158
:1009F000BF91AF919F918F917F916F915F914F9137
:100A00003F912F910F900FBE0F901F9018951F923E
:100A10000F920FB60F9211242F938F939F93EF9302
:100A2000FF93E0914105F09142058081E0914705F7
:100A3000F091480582FD12C0908180914A058F5F38
:100A40008F7320914B05821751F0E0914A05F0E039
:100A5000EF5CFA4F958F80934A0501C08081FF912A
:100A6000EF919F918F912F910F900FBE0F901F903C
:100A70001895833081F028F4813099F08230A1F00C
:100A800008958730A9F08830B9F08430D1F480918E
:100A900080008F7D03C0809180008F7780938000DD
:100AA000089584B58F7702C084B58F7D84BD089585
:100AB0008091B0008F7703C08091B0008F7D8093CC
:100AC000B00008951F93CF93DF93282F30E0F901F2
:100AD000E859FF4F8491F901E255FF4FD491F90194
:100AE000E656FF4FC491CC23C9F0162F81110E9406
:100AF0003905EC2FF0E0EE0FFF1FEA57FF4FA591ED
:100B0000B4918FB7F894111105C09C91ED2FE09529
:100B1000E92302C0EC91ED2BEC938FBFDF91CF91D5
:100B20001F910895CF93DF9390E0FC01E255FF4FB2
:100B30002491FC01E656FF4F8491882361F190E0F7
:100B4000880F991FFC01E458FF4FC591D491FC0117
:100B5000EA57FF4FA591B491611109C09FB7F8946E
:100B60008881209582238883EC912E230BC06230EC
:100B700061F49FB7F8943881822F8095832388830E
:100B8000EC912E2B2C939FBF06C08FB7F894E88171
:100B90002E2B28838FBFDF91CF9108958F929F9244
:100BA000AF92BF92CF92DF92EF92FF926B017C01E6
:100BB0000E94A3014B015C01C114D104E104F104C2
:100BC000F1F00E94A301DC01CB0188199909AA095F
:100BD000BB09883E9340A105B10570F321E0C21A1C
:100BE000D108E108F10888EE880E83E0981EA11C68
:100BF000B11CC114D104E104F10419F7DDCFFF9059
:100C0000EF90DF90CF90BF90AF909F908F9008951E
:100C10002FB7F8946091AA047091AB048091AC0452
:100C20009091AD042FBF08950F931F93CF93DF933F
:100C3000EC010E940806688779878A879B87E8818C
:100C4000F9810680F781E02DCE01099597FF17C045
:100C50000E940806088519852A853B85DC01CB01A1
:100C6000801B910BA20BB30B0C811D812E813F8148
:100C700080179107A207B30710F38FEF9FEFDF9163
:100C8000CF911F910F9108951F920F920FB60F925F
:100C900011242F933F938F939F93AF93BF93809192
:100CA000AA049091AB04A091AC04B091AD04309132
:100CB000A90423E0230F2D3720F40196A11DB11DB7
:100CC00005C026E8230F0296A11DB11D2093A9049B
:100CD0008093AA049093AB04A093AC04B093AD04AA
:100CE0008091AE049091AF04A091B004B091B10492
:100CF0000196A11DB11D8093AE049093AF04A09303
:100D0000B004B093B104BF91AF919F918F913F9187
:100D10002F910F900FBE0F901F9018951F920F925A
:100D20000FB60F9211242F933F934F935F936F93BE
:100D30007F938F939F93AF93BF93EF93FF93E09134
:100D4000B404F091B504309709F451C0968DA6858E
:100D5000B785858591FF04C09C91892329F447C0FC
:100D60009C91892309F043C0A389B4899C9185890A
:100D7000809589238C93868997890197F1F7608DF7
:100D8000718DA685B785558538E020E0CB010197A8
:100D9000F1F7822F90E095958795282F4C91452368
:100DA00009F02068315091F7868D81FD2095809162
:100DB000B30490E001968F7399273091B2043817ED
:100DC00049F0A091B304B0E0A759BB4F2C93809396
:100DD000B30403C0868D8160868F828D938D0197C9
:100DE000F1F7A389B4899C918589892B8C93FF9114
:100DF000EF91BF91AF919F918F917F916F915F9193
:100E00004F913F912F910F900FBE0F901F9018950B
:100E10008EBD00000DB407FEFDCF8EB50895CF93B3
:100E2000C62F60E08AE00E9462058C2F0E940807AE
:100E300061E08AE0CF910C946205CF92DF92EF924D
:100E4000FF921F93CF93DF93EC01162F6A01790174
:100E500081E08E870E9408066F87788B898B9A8B3A
:100E6000DC8ACB8AF7011082FE8AED8A60E972E0A3
:100E700089A19AA10E94BF0469E972E089A19AA19F
:100E80000E94BF04612F89A19AA10E94E307612FEC
:100E9000CE010E940F0781E0DF91CF911F91FF905B
:100EA000EF90DF90CF9008951F93CF93DF93FC01D5
:100EB0002685211113C0162FEC0169EE71E081A186
:100EC00092A10E94BF04612F89A19AA10E94E30709
:100ED000612FCE010E940F0781E001C080E0DF9109
:100EE000CF911F910895EF92FF920F931F93CF938D
:100EF000DF9300D000D0CDB7DEB7FC0129833A8361
:100F00004B835C83868581112BC0F62E8F0160E9AF
:100F100072E081A192A10E94BF0460EA72E0F80130
:100F200081A192A10E94A60460E08AE00E9462056D
:100F30008F2D0E9408078E010F5F1F4F7E01F5E085
:100F4000EF0EF11CF80181918F010E9408070E1528
:100F50001F05C1F761E08AE00E94620581E001C0DF
:100F600080E00F900F900F900F90DF91CF911F9125
:100F70000F91FF90EF900895CF93DF93EB010E94C4
:100F8000ED308883CE01DF91CF910895CF93DF9329
:100F9000EC01E0912306F09124068081882351F032
:100FA00087A1BF01811103C06D5F7F4F05C06F5DD9
:100FB0007F4F02C067ED75E0CE010E943B04CE0179
:100FC000DF91CF9108950F931F93CF93DF93EC019F
:100FD000462F50E060E070E02AE00E9459048C0146
:100FE000CE010E94A204800F911FDF91CF911F912B
:100FF0000F9108958091E2049091E304FC0126850D
:10100000211107C028E035E049E055E062E60C9484
:101010001D0780E008950F931F93CF93DF93809176
:10102000EF05811147C064EB72E080911706909143
:1010300018060E94BF0468EB72E080911706909139
:1010400018060E94BF040E940806AB01BC01C091B3
:101050001706D09118062AE0CE010E945904CE014D
:101060000E94A20460E08091E0050E94620581E098
:101070008093EF050E9408066093F1057093F205D6
:101080008093F3059093F4050E9408060091F10502
:101090001091F2052091F3053091F405DC01CB01AC
:1010A000801B910BA20BB30B85369105A105B105F1
:1010B00058F30AC00E9408066093F1057093F20588
:1010C0008093F3059093F405DF91CF911F910F91D9
:1010D00008951F93CF93DF93EC01162F0E940B0806
:1010E0006EE671E0CE010E9449032091190630910D
:1010F0001A06882331F0C901DF91CF911F910C941A
:10110000A204BE01C901111105C0DF91CF911F9149
:101110000C94C104DF91CF911F910C94CF04FF92E6
:101120000F931F93CF93DF93CDB7DEB762970FB6C0
:10113000F894DEBF0FBECDBF8C01F62E809119064C
:1011400090911A06DC01ED91FC910284F385E02D6B
:1011500009956EE671E0CE010D960E944404F110EF
:1011600015C08091FB05893451F08F3429F0843407
:1011700091F466EC72E005C06DE871E002C06DEBC1
:1011800072E0CE010D960E94CF0305C0B801CE01DA
:101190000D960E94E6036EEC72E080911706909126
:1011A00018060E94A6046EE671E0CE0107960E9422
:1011B000440464ED72E0CE0107960E94CF03CE0195
:1011C00001960E94C607BE016F5F7F4FCE01079652
:1011D0000E94C803CE0101960E94360441E050E00F
:1011E00068E472E0CE0107960E949A038091190686
:1011F00090911A06DC01ED91FC910284F385E02DBB
:101200000995BE01695F7F4FCE0101960E943B04A4
:1012100060E0CE0101960E946908CE0101960E940D
:1012200036048091190690911A06DC01ED91FC912B
:101230000284F385E02D0995BE01635F7F4FCE01E7
:1012400001960E943B0461E0CE0101960E9469086C
:10125000CE0101960E9436048091190690911A06DB
:10126000DC01ED91FC910284F385E02D09958091DC
:10127000190690911A06DC01ED91FC910190F08124
:10128000E02D6AE109958091190690911A06DC011A
:10129000ED91FC910284F385E02D099561EE72E0F9
:1012A00080911706909118060E94A604CE01079619
:1012B0000E943604CE010D960E94360462960FB647
:1012C000F894DEBF0FBECDBFDF91CF911F910F917C
:1012D000FF900895CF92DF92EF92FF92CF93DF932A
:1012E000CDB7DEB72C970FB6F894DEBF0FBECDBFDB
:1012F0001092FA058091FD05882321F08091FE056A
:10130000811106C08091F8058D7F813409F080C07D
:101310000E940B088091190690911A06DC01ED914C
:10132000FC910284F385E02D09956EE671E0CE0113
:1013300007960E9444046AEE72E0CE0107960E946E
:10134000CF03CE0101960E94C607BE016F5F7F4F9B
:10135000CE0107960E94C803CE0101960E94360472
:1013600041E050E061EF72E0CE0107960E949A03DF
:10137000BE01695F7F4FCE0101960E943B0461E090
:10138000CE0101960E946908CE0101960E943604A2
:101390000E9408060E94CB2F6B017C010E94080668
:1013A0000E94CB2FA70196010E943A2B20E030E04B
:1013B00048EC52E40E94C62F87FDF0CF6EE671E044
:1013C000CE0101960E94440461E0CE0101960E9484
:1013D0006908CE0101960E94360463EF72E08091A5
:1013E0001706909118060E94A6040E9408066093B2
:1013F000EB057093EC058093ED059093EE0582E587
:101400008093F5058FE48093F605CE0107960DC015
:101410006EE671E0CE0101960E94440460E0CE01C8
:1014200001960E948F08CE0101960E9436042C96E8
:101430000FB6F894DEBF0FBECDBFDF91CF91FF9006
:10144000EF90DF90CF9008950F931F93CF93DF938A
:10145000082F162F80911B06811111C06DEF72E0CD
:1014600080911706909118060E94BF04112381F104
:10147000E0911506F091160681E0099529C080914A
:10148000F5058E3439F58091F6058E3419F5C09145
:101490000406CC2301F1D1E0D093FC050E940B0897
:1014A00064E073E080911706909118060E94BF04D3
:1014B000602F80911706909118060E94B80400933F
:1014C000FB051093FE05D093FD050E946A0903C039
:1014D000C1E001C0C0E08C2FDF91CF911F910F912F
:1014E0000895FC01A089B18982E08C93A485B5851B
:1014F0001C92A685B78587E68C93108EA489B58942
:1015000086E08C93A289B3898C9180618C93A289A7
:10151000B3898C9188608C93A289B3898C918068FF
:101520008C930288F389E02D80818F7D80830895DC
:10153000CF93DF93FC01138E128E118E108E178ABB
:10154000168A8DEC90E0958F848F8485863108F023
:101550004DC025E530E0378B268B2BEC30E0318F0A
:10156000208F20E930E0338F228F909168008830FF
:1015700050F021E08E3008F420E081E001C0880FB7
:101580002A95EAF701C084E0892B8093680094854E
:10159000983038F09E3040F0963148F020E030E04E
:1015A00008C02DE630E005C02BE630E002C02CE696
:1015B00030E0348B238B983030F481E001C0880F09
:1015C0009A95EAF70EC0292F30E09E3018F4285083
:1015D000310902C02E50310981E001C0880F2A95DF
:1015E000EAF7858B848D958D0197F1F7828D938D28
:1015F000892B21F1A091B404B091B504AE17BF07B7
:10160000E9F0109751F05396CD91DC915497988161
:1016100055968C91809589238883868D8E7F868FC1
:101620001092B3041092B204F093B504E093B404A2
:10163000A389B4899C918589892B8C93DF91CF9163
:101640000895CF93DF93D82FC0E0CD17C1F061E0AC
:1016500083E00E9462056CE271E080E090E00E940D
:10166000CE0560E083E00E946205D23030F06CE28B
:1016700071E080E090E00E94CE05CF5FE6CFDF9181
:10168000CF9108959091FE05992329F0E0911506D8
:10169000F091160609951092FD051092FE05089529
:1016A00008950895089581E08093640408959091C9
:1016B0006E06992339F091E0909302068093030619
:1016C00010926E0608959091F704911107C0882337
:1016D00099F081E08093010684E412C09091F804AF
:1016E0009335A9F7882319F091E0909362049091C3
:1016F0006E069111ECCF089581E0809301068CE491
:101700008093000610926E0608958F929F92AF927A
:10171000BF92CF92DF92EF92FF920F931F93CF93DE
:10172000DF93CDB7DEB75B01CDB6DEB6FA01E4805C
:10173000F580C70101962DB73EB7281B390B0FB6B0
:10174000F8943EBF0FBE2DBF0DB71EB70F5F1F4FE2
:10175000892B99F00115110581F0E114F10411F4C0
:10176000F8010AC0FA0160817181A701C8010E94D5
:10177000CF2DF801EE0DFF1D1082F8010190002021
:10178000E9F73197E01BF10BA11424E0B206E8F46D
:101790007F013FEFE31AF30AC5018E0D9F1D8115EE
:1017A000944098F4812C912C8E149F0464F4F801D9
:1017B00061918F01C4018A0D9B1D0E94F530FFEFDE
:1017C0008F1A9F0AF1CF81E001C080E00FB6F89434
:1017D000DEBE0FBECDBEDF91CF911F910F91FF9066
:1017E000EF90DF90CF90BF90AF909F908F90089533
:1017F0006FE073E085E296E00E94A60481E08093AA
:10180000670408956AE173E085E296E00E94BF04F0
:101810006FE173E085E296E00E94A60481E0809388
:1018200066040895809162048823E1F01092F60422
:1018300082E48093F80463E58091E2049091E304EC
:101840000E94540761E082E10E94620560E081E14C
:101850000E94620581E08093F504E091FE04F0911E
:10186000FF0409951092620481E080936504089555
:1018700080936E0669E273E085E296E00E94A6041A
:1018800080910A0590910B05FC012685211107C066
:101890002EE035E04FE055E064E60C941D07089516
:1018A00080936E066FE273E085E296E00E94A604E4
:1018B00080912F05882351F00E94FA0791E0892733
:1018C0008093E40483E58093F904089564E373E06E
:1018D00085E296E00E94A60480916E06882341F07E
:1018E00081E0809301068FE48093000610926E06DB
:1018F0000895CF93C82F6EEA71E085E296E00E94CA
:10190000BF046DE074E085E296E00E94A6040E94A8
:10191000FA07E2EEF4E091E08927828384E4878B82
:10192000C483CF910895CF93C82F69E373E085E214
:1019300096E00E94BF046DE074E085E296E00E94AC
:10194000A6040E94FA07E2EEF4E091E08927828380
:1019500089E4878BC483CF910895882321F08091F7
:101960002F05811104C08EE48093630408956DE314
:1019700073E085E296E00E94BF046091630485E213
:1019800096E00E94B80485E296E00E94A20480E0FE
:101990000E94500CE8CFEF92FF920F931F93CF93CA
:1019A000DF931F92CDB7DEB78C017B01FB01608115
:1019B00069830E94ED306981681719F0C8010E949F
:1019C000F530C7010F90DF91CF911F910F91FF90DC
:1019D000EF900895EF92FF920F931F93CF93DF93B1
:1019E00000D000D000D0CDB7DEB78C01BC0184E0C0
:1019F00090E00E94CB0CF80180818823E9F1B801C6
:101A00006D5F7F4FCE0101960E943B04AE014F5F98
:101A10005F4F68E070E0C8010E94850BCE0101961F
:101A20000E943604FF24F39486E0E82EF8018081BA
:101A3000F81610F58F2D90E00197E89EB001E99E11
:101A4000700D1124675F7F4F600F711FCE010196EB
:101A50000E943B04FBE0FF9EB0011124685F7F4FB2
:101A6000AE014F5F5F4FC8010E94850BCE0101960A
:101A70000E943604F394DACF26960FB6F894DEBFB0
:101A80000FBECDBFDF91CF911F910F91FF90EF90CF
:101A90000895CF92DF92EF92FF920F931F93CF930F
:101AA000DF937C018B016A010E94ED30F801808395
:101AB000C1E0D0E08823C9F0CC15DD057CF4CE016F
:101AC0008E0D9F1D8115F4E09F0744F40E94ED30B8
:101AD000F801EC0FFD1F80832196ECCF1C161D062C
:101AE00024F4C00FD11F2197188281E0DF91CF919C
:101AF0001F910F91FF90EF90DF90CF900895EF929C
:101B0000FF920F931F93CF93DF9300D000D000D0AC
:101B1000CDB7DEB7FC012081222329F18C017C01A5
:101B2000F1E2EF0EF11CC7010E94E60381E0F8012B
:101B300080A7B801685D7F4F8AE690E00E94CB0CD9
:101B4000B701CE0101960E943B04AE014F5F5F4F8B
:101B500062E770E0C8010E94850BCE0101960E94E9
:101B6000360481E001C080E026960FB6F894DEBF0F
:101B70000FBECDBFDF91CF911F910F91FF90EF90DE
:101B80000895CF92DF92EF92FF920F931F93CF931E
:101B9000DF93FC01E080EE2041F16B018C01C7A1D5
:101BA000C11104C003960E94680304C081960E947C
:101BB0006803C0E081111AC0F12CF1E0EF1AF108BE
:101BC000D6E02C2F30E02E153F057CF4D29FC001CB
:101BD000D39F900D11240996B601800F911F0E948A
:101BE0006803CF5F882369F301C0CFEF8C2FDF91AB
:101BF000CF911F910F91FF90EF90DF90CF900895BC
:101C0000EF92FF920F931F93CF93DF9300D000D0FA
:101C100000D0CDB7DEB7FC012081223010F480E087
:101C20004AC08C01CE0101960E943B04BE016F5F49
:101C30007F4FC8010E94C10DF82ECE0101960E946F
:101C400036048FEF8F0D8E3F50F72F2D30E021504F
:101C5000310946E0429FC001439F900D112409962F
:101C60006EE671E0800F911F0E94CF0386E0E82EA0
:101C7000F8018081F816C8F48F2D90E0E89EB0013D
:101C8000E99E700D1124675F7F4F600F711F0197F0
:101C9000E89E9001E99E300D1124C9010996800F3C
:101CA000911F0E94E603F394E3CF81508083C80123
:101CB0000E94EA0C81E026960FB6F894DEBF0FBEB4
:101CC000CDBFDF91CF911F910F91FF90EF900895BD
:101CD000DF92EF92FF920F931F93CF93DF9300D089
:101CE00000D000D0CDB7DEB7FC012081253011F443
:101CF00080E035C07B018C01CE0101960E943B043F
:101D0000BE016F5F7F4FC8010E94C10DD82ECE016A
:101D100001960E943604FFEFDF12EACFF80120811E
:101D2000211104C0B701C80103960FC0253078F413
:101D300030E02150310946E0429FC001439F900DA1
:101D400011240996B701800F911F0E94E603F80144
:101D500080818F5F8083C8010E94EA0C81E0269613
:101D60000FB6F894DEBF0FBECDBFDF91CF911F91AC
:101D70000F91FF90EF90DF9008950F931F93CF93F3
:101D8000DF93EC018C01075B1F4F64EB72E0F801FD
:101D9000808191810E94BF0461E573E0F801808138
:101DA00091810E94BF040E940806AB01BC01F801AA
:101DB000008111812AE0C8010E945904C8010E94D3
:101DC000A20461E08A890E94620519A2DF91CF9185
:101DD0001F910F910895FC01178A15A203A0F4A189
:101DE000E02D118260E083E10C9462051F920F9256
:101DF0000FB60F9211242F933F934F935F936F93DE
:101E00007F938F939F93AF93BF93CF93DF93EF9382
:101E1000FF93EFE6F0E08491E5EBF0E0D491E1EAA6
:101E2000F0E0C491CC2379F081110E943905EC2FA8
:101E3000F0E0EE0FFF1FE057FF4FA591B491EC913A
:101E4000ED2309F059C0E091B404F091B504309746
:101E500009F4E7C0968DA685B785858591FF04C0F6
:101E60009C91892329F4DDC09C91892309F0D9C074
:101E7000A389B4899C918589809589238C938689CF
:101E800097890197F1F7608D718DA685B785558586
:101E900038E020E0CB010197F1F7822F90E0959593
:101EA0008795282F4C91452309F02068315091F7F0
:101EB000868D81FD20958091B30490E001968F730B
:101EC00099273091B204381749F0A091B304B0E0DB
:101ED000A759BB4F2C938093B30403C0868D8160B8
:101EE000868F828D938D0197F1F7A389B4899C9198
:101EF0008589892B8C9395C060E08AE00E946205F9
:101F000085E60E9408078093D60461E08AE00E947B
:101F1000620568E573E08091E0049091E1040E941D
:101F2000BF046091D6048091E0049091E1040E9486
:101F3000E3078091D8048823C9F0E091DB0481E0B5
:101F40008E0F8093DB04F0E08091D604E154FB4FC8
:101F5000828F8091DB04823009F063C01092CD043F
:101F60001092D80481E08093D7045BC08091D6049E
:101F700090E034E0959587953A95E1F72091CD046E
:101F8000222399F08930910581F4E091D204F091F7
:101F9000D3048091D6048083E091D404F091D504D9
:101FA00081E080831092CD043CC08C309105D9F43F
:101FB000E091C504F091C60481E08083E091C704FC
:101FC000F091C8040DC08E30910524F5E091C10454
:101FD000F091C20481E08083E091C304F091C404D5
:101FE0008091D6040DC08D30910564F48A3091053E
:101FF000F9F20B97B1F4E091BF04F091C00481E0D5
:1020000080830FC08E309105F1F6E091C904F09104
:10201000CA04F5CF0F9729F4E091CB04F091CC04DA
:10202000EECFFF91EF91DF91CF91BF91AF919F9153
:102030008F917F916F915F914F913F912F910F9071
:102040000FBE0F901F9018951F920F920FB60F9210
:1020500011242F933F934F935F936F937F938F93AD
:102060009F93AF93BF93EF93FF936CE573E085E28B
:1020700096E00E94A60464B785E296E00E94E3071A
:10208000FF91EF91BF91AF919F918F917F916F9150
:102090005F914F913F912F910F900FBE0F901F9026
:1020A00018950F931F93CF93DF9300D000D000D0EB
:1020B000CDB7DEB709E116E0D8018D919C91DC0126
:1020C000ED91FC910284F385E02D099560E673E0C3
:1020D000CE0101960E94440461E0CE0101960E9467
:1020E0006908CE0101960E943604F8018081918131
:1020F000DC01ED91FC910284F385E02D0995269693
:102100000FB6F894DEBF0FBECDBFDF91CF911F9108
:102110000F910895CF92DF92EF92FF92CF93DF93CA
:1021200000D000D000D0CDB7DEB71092F705809177
:10213000190690911A06DC01ED91FC910284F38559
:10214000E02D09956AE673E0CE0101960E944404F1
:1021500061E0CE0101960E946908CE0101960E94BD
:1021600036040E9408060E94CB2F6B017C010E945E
:1021700008060E94CB2FA70196010E943A2B20E06F
:1021800030E048EC52E40E94C62F87FDF0CF6EE6A7
:1021900071E0CE0101960E94440461E0CE010196F7
:1021A0000E946908CE0101960E94360480911906AA
:1021B00090911A06DC01ED91FC910284F385E02DEB
:1021C00009951092FC051092DF051092F905109206
:1021D000D6058EE48093F5058093F6050E940806E7
:1021E0006093050670930606809307069093080691
:1021F000109204061092E7051092E80562E773E07A
:1022000080911706909118060E94A6048091FD0502
:10221000882319F081E00E94420B26960FB6F894AD
:10222000DEBF0FBECDBFDF91CF91FF90EF90DF906B
:10223000CF900895CF93DF93C82FD62F80911906A2
:1022400090911A06DC01ED91FC910284F385E02D5A
:1022500009950E9408066093E1057093E20580935A
:10226000E3059093E40581E08093E505C093FB05C9
:10227000C093E605D1111092DF05DF91CF9108954B
:10228000FF920F931F93CF93DF93CDB7DEB7629783
:102290000FB6F894DEBF0FBECDBFBC019091DD0537
:1022A000092F10E08091FD05882321F08091FE0523
:1022B000811111C08091E705882379F08091D605BE
:1022C000811109C08091E805833038F083E0989F40
:1022D0008001112402C0000F111FCE010D960E9433
:1022E0003B046BE773E0CE0107960E944404BE01F5
:1022F000635F7F4FCE0101960E943B04BE01695F80
:102300007F4FCE0101960E946803F82ECE01019600
:102310000E943604CE0107960E943604CE010D9627
:102320000E943604FF2009F449C08091DF0590E047
:10233000801791070CF040C08091FD05882361F063
:102340008091FE05882341F08091FB059091E60580
:1023500098132AC081E428C08091E705882331F1D1
:102360008091D60581111AC08091E8058330F0F084
:102370009091E60529EB290F223010F485E414C072
:10238000953411F48EE410C09E3481F4833011F43E
:1023900087E40AC0843051F488E406C08091FB05CC
:1023A0009091E605981771F38093E60560E08091BF
:1023B000E6050E941A1102C00E948A1062960FB6AA
:1023C000F894DEBF0FBECDBFDF91CF911F910F916B
:1023D000FF9008950F931F93CF93DF93CDB7DEB790
:1023E00027970FB6F894DEBF0FBECDBF8C0180914A
:1023F000FD05882309F477C062EB72E0C8010E94F2
:102400004903882391F18091170690911806DC0109
:10241000ED91FC910284F385E02D099580911906D8
:1024200090911A06DC01ED91FC910284F385E02D78
:1024300009956AE673E0CE0101960E94440461E0CA
:10244000CE0101960E946908CE0101960E943604D1
:102450008091190690911A06DC01ED91FC9102849D
:10246000F385E02D099581E039C065E873E0C80186
:102470000E944903882309F403C1809117069091B3
:102480001806DC01ED91FC910284F385E02D09959D
:102490008091190690911A06DC01ED91FC9102845D
:1024A000F385E02D09956AE673E0CE0101960E945E
:1024B000440461E0CE0101960E946908CE010196B4
:1024C0000E9436048091190690911A06DC01ED9164
:1024D000FC910284F385E02D099580E00E94420B77
:1024E0000E948A10CDC08091E705882309F450C06E
:1024F0002091E805222309F44BC0F80180819181E5
:102500000097B9F02F830E94E22D2F81693091F45A
:102510001092E7051092E8050E9408066093EB050B
:102520007093EC058093ED059093EE0561E08DE4EA
:1025300062C060E0162F663008F015E0243091F498
:1025400089E48093FF050E9408066093EB05709371
:10255000EC058093ED059093EE05E0910D06F0916A
:102560000E0614C0233009F08BC084E48093FF056D
:102570000E9408066093EB057093EC058093ED05CF
:102580009093EE05E0910F06F0911006812F77C031
:1025900067E873E0C8010E944903882399F081E04D
:1025A0008093E70584E08093E8050E940806609325
:1025B000EB057093EC058093ED059093EE0561E0DB
:1025C00088E419C060EA73E0C8010E9449038823C7
:1025D000A9F081E08093E70583E08093E8050E94FD
:1025E00008066093EB057093EC058093ED059093DE
:1025F000EE0561E087E40E941A1142C062EB72E0CE
:10260000C8010E9449038823C9F08FE48093FF0525
:1026100081E08093E7058093E8050E9408066093B7
:10262000EB057093EC058093ED059093EE050E9409
:102630005110E0911106F091120620C065E873E098
:10264000C8010E9449038823D9F083E58093FF05E0
:1026500081E08093E70582E08093E8050E94080608
:102660006093EB057093EC058093ED059093EE0578
:102670000E945110E0911306F091140681E0099533
:1026800027960FB6F894DEBF0FBECDBFDF91CF9176
:102690001F910F910895FB0144815581FC018081B8
:1026A0009181009759F0FB0160817181611571057D
:1026B00029F00E94C12D21E0892B09F020E0822F12
:1026C0000895AF92BF92CF92DF92EF92FF920F9355
:1026D0001F93CF93DF9300D000D000D0CDB7DEB7EB
:1026E000FC01A481B581FB0104811581A017B1070C
:1026F00008F443C069015A017C010E944B138823EE
:10270000E1F1860165010A151B0510F468018501D8
:102710006EE671E0CE0101960E944404D701149642
:102720008D919C911597C816D906D8F480179107FA
:1027300008F48C01D701ED91FC911197E00FF11F86
:10274000B08010826D917C916C0D7D1DCE01019643
:102750000E94CF03F70180819181FC01E00FF11FFE
:10276000B082BE016F5F7F4FC7010E94FD03CE01A3
:1027700001960E94360481E001C080E026960FB6E3
:10278000F894DEBF0FBECDBFDF91CF911F910F91A7
:10279000FF90EF90DF90CF90BF90AF9008950F9390
:1027A0001F93CF93DF9300D000D000D0CDB7DEB71A
:1027B0008C0169E873E0CE0101960E94440427E091
:1027C00030E046E050E0BE016F5F7F4FC8010E94DD
:1027D0006113182FCE0101960E943604812F269690
:1027E0000FB6F894DEBF0FBECDBFDF91CF911F9122
:1027F0000F910895FF920F931F93CF93DF9300D013
:1028000000D000D0CDB7DEB78C0160E973E08091D5
:102810001706909118060E94BF04B8018091170610
:10282000909118060E94CF0465E973E0CE010196ED
:102830000E9444042CE030E04BE050E0BE016F5FAA
:102840007F4FC8010E946113F82ECE0101960E94AD
:102850003604F11030C062EA73E0CE0101960E94A6
:1028600044042CE030E04BE050E0BE016F5F7F4F4E
:10287000C8010E946113F82ECE0101960E94360411
:10288000F1101BC06FEA73E0CE0101960E94440470
:102890002CE030E04BE050E0BE016F5F7F4FC8019D
:1028A0000E946113182FCE0101960E943604111167
:1028B00006C08EE405C082E503C089E401C085E45A
:1028C00026960FB6F894DEBF0FBECDBFDF91CF9135
:1028D0001F910F91FF900895FF920F931F93CF9335
:1028E000DF93CDB7DEB72C970FB6F894DEBF0FBEDF
:1028F000CDBF8C018091F5058934E9F48091F6050E
:10290000893411F08F34B9F46CEB73E080911706C1
:10291000909118060E94BF04B8018091170690910B
:1029200018060E94C10467EC73E08091170690912D
:1029300018060E94A6046FEC73E0CE0101960E9477
:102940004404B801CE0107960E943B04BE016F5FAC
:102950007F4FCE0107960E946803F82ECE0107969E
:102960000E943604CE0101960E943604FF2011F029
:1029700081E059C06BED73E0CE0101960E944404E2
:10298000B801CE0107960E943B04BE016F5F7F4FE6
:10299000CE0107960E946803F82ECE0107960E948A
:1029A0003604CE0101960E943604F110E1CF61EEAB
:1029B00073E0CE0101960E944404B801CE0107964F
:1029C0000E943B04BE016F5F7F4FCE0107960E94BD
:1029D0006803F82ECE0107960E943604CE010196B8
:1029E0000E943604F110C4CF6CEE73E0CE01019664
:1029F0000E944404B801CE0107960E943B04BE0128
:102A00006F5F7F4FCE0107960E946803182FCE019B
:102A100007960E943604CE0101960E94360481E09A
:102A2000111101C080E02C960FB6F894DEBF0FBEE6
:102A3000CDBFDF91CF911F910F91FF900895EF923D
:102A4000FF920F931F93CF93DF9300D0CDB7DEB7E4
:102A50008C017B016EE671E00E944404C7010E9474
:102A6000140697FD0EC08A30910559F089831A82A9
:102A700041E050E0BE016F5F7F4FC8010E949A03A2
:102A8000EDCFC8010F900F90DF91CF911F910F9163
:102A9000FF90EF900895EF92FF920F931F93CF93C3
:102AA000DF9300D000D000D0CDB7DEB78C016EE64A
:102AB00071E00E9444048091190690911A06DC018D
:102AC000ED91FC910480F581E02D09951816190609
:102AD000E4F40E940B086091190670911A06CE0169
:102AE00001967C010E941F150E151F0521F0B701EC
:102AF000C8010E94FD03C7010E943604B8018091FD
:102B00001706909118060E94CF04C80126960FB6AA
:102B1000F894DEBF0FBECDBFDF91CF911F910F9113
:102B2000FF90EF900895FC016481758190E0292F5A
:102B300030E026173707A8F440815181411551052F
:102B400029F0DA01A20FB31F2C9101C020E0022E60
:102B5000000C330B205331092A30310520F49F5FDC
:102B6000E6CF81E0089580E00895CF92DF92EF9262
:102B7000FF920F931F93CF93DF938C016B01770F1D
:102B8000EE08FF08F7FE12C06DE20E94B804EC01E7
:102B900044275527BA014C195D096E097F092AE0BF
:102BA000C8010E945904C80FD91F06C02AE0B70106
:102BB000A6010E945904EC01C8010E94A2048C0FD6
:102BC0009D1FDF91CF911F910F91FF90EF90DF90AC
:102BD000CF9008958F929F92AF92BF92CF92DF9243
:102BE000EF92FF920F931F93CF93DF93CDB7DEB792
:102BF00062970FB6F894DEBF0FBECDBF8C01D62E04
:102C0000FC01E480F580F1E0EF1AF10863EF73E076
:102C1000CE0101960E944404970148E050E0BE01B5
:102C20006F5F7F4FC8010E946113F82E8111FD2C48
:102C3000CE0101960E943604FF2009F43FC00091A6
:102C4000230610912406D11009C081E0F801808389
:102C50002CE2C22E33E1E32EF12C0DC0F8011082DC
:102C60006EE671E0C80103960E94CF0387E3C82E89
:102C700098E0E92EF12C5801F9E0AF0EB11C4801A3
:102C800021E2820E911C6EE671E0C5010E94CF0325
:102C900086E0A80EB11CA814B904A9F7D12CCE1453
:102CA000DF0440F06FEFC7010E94F530EFEFEE1A3E
:102CB000FE0AF5CFB80184E090E07CC3F801E4801F
:102CC000F580F1E0EF1AF1086CEF73E0CE010196A8
:102CD0000E944404970144E050E0BE016F5F7F4FC3
:102CE000C8010E946113F82ECE0101960E9436049D
:102CF000FF2009F446C0C8010E949315882309F4F7
:102D0000FEC2C8010E94DF026B017C0120E030E0BE
:102D100048E452E40E94C62F87FD09C0C092D00546
:102D2000D092D105E092D205F092D3050CC080E09C
:102D300090E0A8E4B2E48093D0059093D105A093ED
:102D4000D205B093D30520E030E040EA52E4609130
:102D5000D0057091D1058091D2059091D3050E9444
:102D6000A72B181664F480E090E0A0EAB2E4809308
:102D7000D0059093D105A093D205B093D30583E7F6
:102D8000EEC1F801E480F580F1E0EF1AF10861E0AE
:102D900074E0CE0101960E944404970144E050E0A3
:102DA000BE016F5F7F4FC8010E946113F82ECE01F4
:102DB00001960E943604FF2099F0C8010E949315E5
:102DC000882309F49CC2C8010E94DF026093D005E9
:102DD0007093D1058093D2059093D30585E7BFC149
:102DE000F801E480F580F1E0EF1AF10866E074E0A4
:102DF000CE0101960E944404970145E050E0BE01D7
:102E00006F5F7F4FC8010E946113F82ECE010196BB
:102E10000E943604FF2099F0C8010E949315882370
:102E200009F46DC2C8010E94DF026093D00570935F
:102E3000D1058093D2059093D30584E790C1F80122
:102E4000E480F580F1E0EF1AF1086CE074E0CE0167
:102E500001960E944404970144E050E0BE016F5F78
:102E60007F4FC8010E946113F82ECE0101960E9487
:102E70003604FF2009F446C0C8010E949315882338
:102E800009F43DC2C8010E94DF026B017C0120E011
:102E900030E040E253E40E94C62F87FD09C0C09293
:102EA000D005D092D105E092D205F092D3050CC0A6
:102EB00080E090E0A0E2B3E48093D0059093D10548
:102EC000A093D205B093D30520E030E044E353E46F
:102ED0006091D0057091D1058091D2059091D30574
:102EE0000E94A72B181664F480E090E0A4E3B3E4FA
:102EF0008093D0059093D105A093D205B093D305CC
:102F000080E72DC1F801E480F580F1E0EF1AF108C7
:102F100061E174E0CE0101960E944404970144E00F
:102F200050E0BE016F5F7F4FC8010E946113F82E11
:102F3000CE0101960E943604FF2009F446C0C80164
:102F40000E949315882309F4DAC1C8010E94DF02A8
:102F50006B017C0120E030E040EF52E40E94C62F7C
:102F600087FD09C0C092D005D092D105E092D2056C
:102F7000F092D3050CC080E090E0A0EFB2E4809323
:102F8000D0059093D105A093D205B093D30520E04E
:102F900030E04CE053E46091D0057091D105809110
:102FA000D2059091D3050E94A72B181664F480E0F7
:102FB00090E0ACE0B3E48093D0059093D105A0936A
:102FC000D205B093D30581E7CAC0F801E480F5804B
:102FD000F1E0EF1AF10866E971E0CE0101960E9476
:102FE0004404970143E050E0BE016F5F7F4FC8018A
:102FF0000E946113F82ECE0101960E943604FF2034
:1030000009F446C0C8010E949315882309F477C1CA
:10301000C8010E94DF026B017C0120E030E048EC37
:1030200053E40E94C62F87FD09C0C092D005D092FC
:10303000D105E092D205F092D3050CC080E090E07B
:10304000A8ECB3E48093D0059093D105A093D2056A
:10305000B093D30520E030E041E654E46091D00520
:103060007091D1058091D2059091D3050E94A72B34
:10307000181664F480E090E0A1E6B4E48093D005F3
:103080009093D105A093D205B093D30582E767C092
:10309000F801E480F580F1E0EF1AF10866E174E0F0
:1030A000CE0101960E944404970144E050E0BE0125
:1030B0006F5F7F4FC8010E946113F82ECE01019609
:1030C0000E943604FF20D1F0E0912306F0912406FF
:1030D00081E08283BF016E5F7F4F86E690E00E94B1
:1030E000CB0C80E090E0A0E8BFE38093D005909304
:1030F000D105A093D205B093D30530C0F801E48088
:10310000F580F1E0EF1AF1086BE174E0CE01019671
:103110000E944404970145E050E0BE016F5F7F4F7D
:10312000C8010E946113F82ECE0101960E94360458
:10313000FF2061F1E0912306F09124061282BF0185
:103140006E5F7F4F86E690E00E94CB0C1092D00518
:103150001092D1051092D2051092D30586E7809384
:10316000D4052091D0053091D1054091D2055091E0
:10317000D3056091D4058091CE059091CF050E9432
:10318000730791E089278093D505C5C1F801E480D4
:10319000F580F1E0EF1AF10861E274E0CE010196EA
:1031A0000E944404970144E050E0BE016F5F7F4FEE
:1031B000C8010E946113F82ECE0101960E943604C8
:1031C000FF2021F081E08093090699C0F801E48096
:1031D000F580F1E0EF1AF10866E274E0CE010196A5
:1031E0000E944404970146E050E0BE016F5F7F4FAC
:1031F000C8010E946113F82ECE0101960E94360488
:10320000FF2009F47CC066E274E0CE0101960E94C2
:10321000440461E0CE0101960E946908CE01019646
:103220000E9436040E9408064B015C016EE671E0C4
:10323000CE010D960E9444040E940806DC01CB01D9
:1032400088199909AA09BB098D3D9540A105B105C9
:1032500008F451C0CE0101960E944B15BE016F5F6C
:103260007F4FCE010D960E94FD03CE0101960E9474
:103270003604CE010D960E94EA02BE01635F7F4FC5
:10328000CE0107960E943B04CE0107960E94EA02F7
:1032900068E274E0CE0101960E9444042B853C85CF
:1032A0008D819E812817390748F0BE016F5F7F4FDF
:1032B000CE0107960E944B13F82E01C0F12CCE01CF
:1032C00001960E943604CE0107960E943604FF2024
:1032D00009F4B2CFBE01635F7F4FCE0101960E9419
:1032E0003B0461E0CE0101960E948F08CE01019659
:1032F0000E943604A1CFCE010D960E9436046CE3E5
:1033000074E0CE0101960E9444042CE030E042E0DB
:1033100050E0BE016F5F7F4FC8010E946113F82E1D
:10332000CE0101960E943604F11047C069E374E0B3
:10333000CE0101960E9444042CE030E042E050E0CF
:10334000BE016F5F7F4FC8010E946113F82ECE014E
:1033500001960E943604F80124813581F1104FC096
:103360007901F1E0EF1AF1086DE274E0CE01019607
:103370000E944404970144E050E0BE016F5F7F4F1C
:10338000C8010E946113F82ECE0101960E943604F6
:10339000FF2009F452C0E0912306F091240680A595
:1033A000882309F4B8C081E087A3BF01695D7F4F1E
:1033B0008EE690E00E94CB0CAEC0F801848195812E
:1033C0000A9709F0A8C0C8010E949315882309F440
:1033D000A2C0B801CE0101960E943B04BE016F5FFE
:1033E0007F4F80912306909124060E94000E182F93
:1033F000CE0101960E9436046FE374E07EC02A304D
:10340000310509F088C0C8010E949315882309F48A
:1034100082C0B801CE0101960E943B04BE016F5FDD
:103420007F4F80912306909124060E94680E182FEA
:10343000CE0101960E9436045EC0F801E480F5805A
:10344000F1E0EF1AF10862E374E0CE0101960E9408
:103450004404970145E050E0BE016F5F7F4FC80113
:103460000E946113F82ECE0101960E943604FF20BF
:1034700031F0E0912306F091240617A296CF68E37D
:1034800074E0CE0101960E9444042DE030E043E058
:1034900050E0BE016F5F7F4FC8010E946113F82E9C
:1034A000CE0101960E943604FF20A9F1F801848123
:1034B00095810A9781F5C8010E949315882359F1D7
:1034C000B801CE0101960E943B04BE016F5F7F4FA1
:1034D00080912306909124060E947F0D182FCE0123
:1034E00001960E9436046CE474E080911706909176
:1034F00018060E94BF0467E474E08091170690915B
:1035000018060E94BF04612F70E080911706909109
:1035100018060E94B51562960FB6F894DEBF0FBE6E
:10352000CDBFDF91CF911F910F91FF90EF90DF9072
:10353000CF90BF90AF909F908F900895CF93DF93DF
:10354000CAE0D5E01E8260E080E10E94620560E092
:103550008FE00E9462051B861C861D8661E48881BF
:1035600099810E94540763E574E08C899D89DF91FD
:10357000CF910C94A6041F93CF93DF93CAE0D5E0BC
:1035800063E4888199810E9454070E9408066F8332
:10359000788789879A8711E01E831C8761E08FE016
:1035A0000E94620560E080E10E946205CE010E94F7
:1035B000EB0E1E8B6DEC73E08C899D890E94BF041D
:1035C00065EA71E08C899D89DF91CF911F910C9400
:1035D000A604CF93DF93CAE0D5E081E08F870E94F5
:1035E0000806688B798B8A8B9B8B61E083E00E9455
:1035F0006205EE8DFF8D84E4DF91CF910994CF9326
:10360000DF93CAE0D5E01E8661E084E00E94620597
:1036100061E388819981DF91CF910C945407CF9217
:10362000DF92EF92FF920F931F93CF93DF93CDB76B
:10363000DEB762970FB6F894DEBF0FBECDBF8C0128
:10364000BC01CE0101960E943B0460E0CE010196D0
:103650000E946908CE0101960E943604B80180914B
:103660001706909118060E94C1040E9408066B017B
:103670007C016EE671E0CE010D960E9444040E942A
:103680000806DC01CB018C199D09AE09BF09883BF6
:103690009B40A105B10508F065C080911906909185
:1036A0001A06DC01ED91FC910480F581E02D09956D
:1036B0001816190624F7CE0101960E944B15BE017B
:1036C0006F5F7F4FCE010D960E94FD03CE010196E4
:1036D0000E943604BE01635F7F4F80911706909170
:1036E00018060E94CF046DE574E0CE0101960E9499
:1036F0004404BE01635F7F4FCE0107960E943B04E6
:10370000BE016F5F7F4FCE0107960E946803182F9E
:10371000CE0107960E943604CE0101960E9436041F
:10372000111122C06CEE73E0CE0101960E94440498
:10373000BE01635F7F4FCE0107960E943B04BE012E
:103740006F5F7F4FCE0107960E946803182FCE014E
:1037500007960E943604CE0101960E94360411237A
:1037600009F48DCF10E001C011E0CE010D960E944A
:103770003604812F62960FB6F894DEBF0FBECDBF20
:10378000DF91CF911F910F91FF90EF90DF90CF903D
:103790000895CF93DF93CDB7DEB7A4970FB6F89413
:1037A000DEBF0FBECDBF789484B5826084BD84B582
:1037B000816084BD85B5826085BD85B5816085BD2C
:1037C00080916E00816080936E00109281008091E4
:1037D000810082608093810080918100816080936C
:1037E0008100809180008160809380008091B10091
:1037F00084608093B1008091B00081608093B000BC
:1038000080917A00846080937A0080917A0082604F
:1038100080937A0080917A00816080937A00809111
:103820007A00806880937A001092C10081E395E06D
:103830000E94710A85E296E00E94980A66E476E0AA
:1038400086E690E00E94BC07809146068F3F49F4CF
:1038500081E08093460666E476E086E690E00E948A
:10386000CB0C64E476E084E090E00E94BC07809199
:10387000440681508E3F08F055C04CE050E0BE0138
:103880006F5F7F4F88E090E00E94490DBE016F5F3F
:103890007F4FCE0142960E944404BE016E5E7F4F70
:1038A00087E496E00E94FD03CE0142960E94360412
:1038B00011E006E080914406181708F049C0E12E97
:1038C000F12C2BE0129FC001112408968115A4E071
:1038D0009A073CF44BE050E0BE016F5F7F4F0E94BF
:1038E000490DBE016F5F7F4FCE0142960E94440496
:1038F0000FB6F894DEBF0FBECDBFB1E0EB1AF108F2
:103900000E9DC0010F9D900D1124BE016E5E7F4F74
:10391000835B994F0E94FD03CE0142960E943604BC
:103920001F5FC8CF109244066EE671E087E496E010
:103930000E94CF0300E010E06EE671E0C801835BF7
:10394000994F0E94CF030A5F1F4F08311105A1F75D
:103950006BE676E08EE690E00E94BC0780916B06F5
:103960008F3F41F410926B066BE676E08EE690E0B6
:103970000E94CB0C6CE676E08AE690E00E94BC07E1
:1039800080916C068130E1F44CE050E0BE016F5F45
:103990007F4F82E790E00E94490DBE016F5F7F4F2D
:1039A000CE0142960E944404BE016E5E7F4F85E6C2
:1039B00096E00E94FD03CE0142960E9436040AC0A2
:1039C0008F3F41F41982BE016F5F7F4F8AE690E01E
:1039D0000E94CB0C8DEA9CE090931606809315060E
:1039E00083E99CE090930E0680930D0689E79CE0A6
:1039F0009093100680930F0680E59CE0909312064A
:103A00008093110688E39CE090931406809313063C
:103A100082E09CE0909323058093220582E19CE064
:103A2000909325058093240583E59BE090932705DB
:103A30008093260587E59BE09093290580932805D0
:103A400084E496E0909324068093230690932E05B9
:103A500080932D058FEB94E090930B0580930A05DE
:103A60009093E3048093E2049093CF058093CE0576
:103A700010926804109262048091680084608093C0
:103A8000680080916D00806880936D003FE4C32ED4
:103A900042E5B42E5AE0E52E56E0F52E80916804FA
:103AA00081118AC00E94080668387341810591051A
:103AB00008F482C000E066E271E0CE0101960E9447
:103AC0004404CE0101960E940F1B182FCE010196CF
:103AD0000E943604112309F467C06BE271E0CE0145
:103AE00001960E944404CE0101960E940F1B182FDC
:103AF000CE0101960E943604112309F455C067E3F4
:103B000071E0CE0101960E944404CE0101960E940C
:103B10000F1B182FCE0101960E943604112309F4C1
:103B200043C063E471E0CE0148960E944404CE0194
:103B300048960E940F1B882399F16FE471E0CE0133
:103B400042960E944404CE0142960E940F1B182FF9
:103B5000882379F06BE571E0CE0101960E94440460
:103B6000CE0101960E940F1B182FCE0101960E94D4
:103B70003604CE0142960E943604CE0148960E9439
:103B80003604112389F06FE671E080911706909159
:103B900018060E94A60481E080931B0682E0D5C52A
:103BA000CE0148960E94360480911B068111C6C53D
:103BB0000111C4C501E07FCF8091BE04882379F054
:103BC00080914506882349F061E084E50E94240A3B
:103BD000882329F084E5809363041092BE048091C9
:103BE0006704882339F060E08AE50E94240A811185
:103BF0001092670480916604882359F061E086E49E
:103C00000E94240A882329F086E48093630410929A
:103C1000660480916504882359F060E08FE40E9477
:103C2000240A882329F08EE48093630410926504AB
:103C300080916404882339F060E083E40E94240AC0
:103C40008111109264048091BC048823A1F060E08B
:103C500089E50E94240A882371F06AE771E085E211
:103C600096E00E94BF046BEC71E085E296E00E9452
:103C7000A6041092BC048091BD04882339F060E052
:103C800088E50E94240A81111092BD04E091250666
:103C9000F09126060480F581E02D85E296E00995F5
:103CA000181619060CF050C065E276E0CE010196B8
:103CB0000E941F15BE016F5F7F4F86EB94E00E944C
:103CC000FD03CE0101960E9436046EE771E086EB9B
:103CD00094E00E944903882321F080E00E94380C80
:103CE00033C061E871E086EB94E00E9449038823C9
:103CF00021F081E00E94930C27C064E871E086EB1C
:103D000094E00E944903882321F081E00E94790C0D
:103D10001BC067E871E086EB94E00E9449038823AA
:103D200021F080E00E94500C0FC066EB74E0CE01E1
:103D300001960E943B0460E0CE0101960E94EA15C4
:103D4000CE0101960E9436048091CD048823B1F003
:103D50000E9408060091CE041091CF042091D00457
:103D60003091D104DC01CB01801B910BA20BB30B72
:103D70008D3A9D40A105B10508F02EC58091D7046C
:103D80008823F1F01092D704E091DC04F091DD0477
:103D90008091DA0490E0982F882791838083209186
:103DA000D904822B91838083E091DE04F091DF04BB
:103DB00081E080831092D9041092DA041092DB041F
:103DC00080912B05882309F4C9C010922B0580919E
:103DD0002C058D3A09F4B9C048F48B3A09F4ABC00C
:103DE00008F04DC08A3A09F45FC0B8C08F3A71F14B
:103DF00008F4A8C08A5C823008F0B0C08091100539
:103E0000882309F4ABC06AE871E080911E059091A7
:103E10001F050E94BF0480911605882379F08091C8
:103E20001705882381F00E949E1AE0912805F091E1
:103E3000290584E409950E94E91A90C0809115052E
:103E4000882309F48BC00E949E1A88C08AE095E0FE
:103E50000E94EB0E6DE871E080911E0590911F05A8
:103E60000E94A60480912005882309F477C0E09180
:103E70002405F09125050995109220056FC08091C9
:103E8000210581116BC063E971E080911E0590915D
:103E90001F050E94A604E0912205F09123050995D3
:103EA00081E0809321055AC0E0912D05F0912E0507
:103EB000828181110EC080911805882351F00E94E3
:103EC000FF1A6BE971E080911E0590911F050E9419
:103ED000A60480911005811141C062E480910A0519
:103EE00090910B050E9454070E94080660931105EB
:103EF00070931205809313059093140511E01093AD
:103F000010051093150561E080E10E94620560E0F4
:103F10008FE00E94620510932F05E0912D05F0912E
:103F20002E05118365EA71E080911E0590911F05B1
:103F30000E94A60413C08091100581110FC00E9439
:103F4000BB1A0CC00E94FF1A09C061E083E10E9405
:103F50006205E0912605F0912705099580911805E5
:103F60008823B1F00E94080600911A0510911B05E4
:103F700020911C0530911D05DC01CB01801B910BAC
:103F8000A20BB30B88359B41A105B10508F02BC4EA
:103F9000809119058823B1F00E94080600911A0546
:103FA00010911B0520911C0530911D05DC01CB01F2
:103FB000801B910BA20BB30B80319742A105B10579
:103FC00008F014C480910C05882399F010920C0518
:103FD00080910D05873949F481E080932F05E091A8
:103FE0002D05F0912E05818304C08AE095E00E94A2
:103FF000EB0E80910E05882371F110920E058091D1
:104000000F058A3981F028F4893929F50E94E91AC7
:1040100022C08B3979F08C39F1F4E0912805F091C8
:1040200029058FE405C0E0912805F091290584E574
:10403000099511C081E0809317056AEA71E08091CB
:104040001E0590911F050E94A60480911005811104
:1040500002C00E94BB1A80911005882351F10E9472
:104060000806009111051091120520911305309159
:104070001405DC01CB01801B910BA20BB30B813D1E
:104080009740A105B105A8F062E772E080911E0596
:1040900090911F050E94BF0480911705882309F4A1
:1040A000C4C30E949E1AE0912805F09129058CE472
:1040B00009958091E404882321F00E94FA078093F7
:1040C000E40480910805882309F4A5C062EB71E03F
:1040D00080910405909105050E94BF046091090537
:1040E00080910405909105050E94E3071092080550
:1040F0008091F904893419F590910905943909F4EE
:104100007CC09091F704911180C09091E5049111C9
:104110007CC08093F80460E58091E2049091E30410
:104120000E945407E091FE04F091FF0481E009959C
:1041300060E081E10E94620561E082E124C0843494
:1041400079F590910905953909F457C09091F704D4
:1041500091115BC09091E504911157C08093F804D0
:1041600060E58091E2049091E3040E945407E0919D
:10417000FE04F091FF0481E0099560E082E10E9475
:10418000620561E081E10E9462050E940806609379
:10419000E8047093E9048093EA049093EB0425C04B
:1041A0008335C9F590910905953939F19091F70456
:1041B00091112BC09091E504911127C08093F804D0
:1041C00062E58091E2049091E3040E945407E0913B
:1041D000FE04F091FF0481E0099560E082E10E9415
:1041E000620561E081E10E94620581E08093F7044D
:1041F000E0910205F09103050DC06CEB71E0809138
:104200000405909105050E94A604E0910205F09135
:10421000030580E009958091F704882351F180918E
:10422000F804833531F10E9408062091E7043091AB
:10423000E6044090E8045090E9046090EA0470902D
:10424000EB04AB01BC014419550966097709239FAA
:1042500090011124E4E6E29FC001E39F900D112438
:10426000092E000CAA0BBB0B481759076A077B07DE
:10427000D0F580910605882309F45CC068EC71E0F4
:1042800080910405909105050E94BF0462ED71E0E4
:1042900080910405909105050E94BF0410920605C7
:1042A000809107059091F504992349F09091F804C5
:1042B000923409F03FC08B5D8230E0F51CC09091D4
:1042C000F7049923B9F18B3D29F48091F8048934DE
:1042D00089F511C08A3D71F58091F804843459F054
:1042E000833541F508C069E672E08091040590913C
:1042F00005050E94A6048091F504882309F49DC653
:104300008EE48093F80461E082E10E94620561E03E
:1043100081E10E94620561E58091E2049091E304ED
:104320000E9454071092F504E091FE04F091FF04FE
:1043300080E009958091F604882309F44BC08091B0
:10434000F804833521F50E9408060091F1041091CC
:10435000F2042091F3043091F4042B013C01401A43
:10436000510A620A730A2091EC043091ED044091E5
:10437000EE045091EF04A4E6B0E00E940331DD2486
:10438000D394461657066806790630F521C00E9478
:104390000806E091F0040091F1041091F2042091DC
:1043A000F3043091F404AB01BC01401B510B620BD0
:1043B000730BA4E6EA9FC0011124092E000CAA0B7E
:1043C000BB0BDD24D394481759076A077B0720F4F9
:1043D000D12C1BC0DD20C9F08091F804893429F468
:1043E000E091FA04F091FB040DC0843429F4E091CB
:1043F000FC04F091FD0406C0833529F4E09100052A
:10440000F091010509951092F604A0900906AA20E2
:1044100099F10091CE051091CF05F80186858111A3
:1044200026C0F68EE58E8CE096E090A3878F1092E2
:104430000B0610920A0610920C06108E148E992408
:104440009394918E69EB71E081A192A10E94BF04C7
:1044500060E2D80191968D919C9192970E94E3071A
:10446000F801968660E2C8010E940F0701C0A12CE6
:1044700081E08A258093090680910C068823F1F15A
:1044800010920C066AED71E0CE0148960E94440439
:1044900080910A0690910B061B8A1A8A1D8A1C8A33
:1044A0001F8A1E8A4AE0BE016F5F7F4F0E941E2E48
:1044B000BE016F5F7F4FCE0142960E94CF03BE01C7
:1044C0006E5E7F4FCE0148960E94C803BE01685EB3
:1044D0007F4FCE0101960E943B0461E0CE01019620
:1044E0000E948F08CE0101960E943604CE014296AA
:1044F0000E943604CE0148960E9436048091D5056C
:104500008823A1F02091D0053091D1054091D205AA
:104510005091D3056091D4058091CE059091CF053F
:104520000E94730791E089278093D5058091EF055C
:10453000882301F10E940806E091F0050091F10541
:104540001091F2052091F3053091F405AB01BC0107
:10455000401B510B620B730BF4E6EF9FC00111245B
:10456000092E000CAA0BBB0B481759076A077B07DB
:1045700008F05EC18091F5058E3411F58091040636
:10458000811116C00E9408060091050610910606CA
:104590002091070630910806DC01CB01801B910BAE
:1045A000A20BB30B893E9340A105B10508F045C1AC
:1045B0008091FA05882309F4A0C00E946A099DC071
:1045C000893419F0823509F098C00E9408060091DC
:1045D000EB051091EC052091ED053091EE05AB0156
:1045E000BC01401B510B620B730B2091E90530910C
:1045F000EA05E4E6E29FC001E39F900D1124A0E0EC
:10460000B0E0481759076A077B0710F00E948A102C
:10461000809102068823F9F0109202068091FF052E
:104620008335C9F481E08093D605809103068C34EC
:1046300019F461E082E404C08F3429F461E082E37C
:104640000E941A1108C0843511F461E0F9CF843456
:1046500011F40E948A1080910106882351F1109272
:1046600001068091FF058934B1F481E08093D6057D
:10467000809100068C3419F461E083E304C08F3428
:1046800029F461E081E30E941A1113C0843489F493
:104690000E948A100EC0843411F08F3451F481E0EE
:1046A0008093D605809100068C3449F761E084E35D
:1046B000EACF8091E505882301F10E940806E09188
:1046C000DE050091E1051091E2052091E3053091AE
:1046D000E405AB01BC01401B510B620B730BA4E65C
:1046E000EA9FC0011124092E000CAA0BBB0B8417F2
:1046F0009507A607B70708F4A4C0AA24A39409E461
:104700008091190690911A06DC01ED91FC910480CC
:10471000F581E02D0995181619060CF4DAC0809180
:1047200022068111D6C0109222066EE671E08CE15D
:1047300096E00E94CF030E949901B0C96CE572E037
:1047400085E296E00E94A60485E00E94210B0E946B
:1047500008062B013C018091CD04811134C09E01DB
:104760002E5E3F4FAE014F5F5F4F66E68FEB94E0EA
:104770000E941D07882339F167E771E085E296E022
:104780000E94A6040E940806DC01CB018419950949
:10479000A609B709883E9340A105B10518F48A8996
:1047A000882381F381E08093680461E070E089816F
:1047B0008E3911F060E070E085E296E00E94B51558
:1047C0008A89811104C085E00E94210BB4CF8981C0
:1047D0008E39C9F782E0F8CF1092CD041092D80438
:1047E0001092D704CBCA0E94FF1AD2CB60E083E0BC
:1047F0000E94620560E380910A0590910B050E947A
:1048000054071092190581E0809318050E9408064C
:1048100060931A0570931B0580931C0590931D05EA
:1048200060E084E00E946205CDCB0E949E1A41CCDC
:104830008EEC95E00E94BD0E9DCE81E08093040633
:10484000B7CE8091190690911A06DC01ED91FC918A
:104850000284F385E02D099564E772E0CE010196AC
:104860000E94440460E0CE0101960E946908CE01D6
:1048700001960E9436046091E6056CA30E940B0825
:104880006CA18091190690911A060E94B8046FE7F6
:1048900072E0CE0101960E94440461E0CE010196CF
:1048A0000E946908CE0101960E9436048091190683
:1048B00090911A06DC01ED91FC910284F385E02DC4
:1048C00009958091DF058F5F8093DF051092E505E4
:1048D00014CF6EE671E0CE014E960E9444048091A2
:1048E0002206882349F06CE176E0CE014E960E94C4
:1048F000E603109222060FC0CE0101960E944B15CE
:10490000BE016F5F7F4FCE014E960E94FD03CE0128
:1049100001960E943604BE01625E7F4FCE01019671
:104920000E943B046FED71E0CE0101960E944903A5
:10493000182FCE0101960E943604111159C18AA088
:104940009BA0B1E08B1A910865EE71E0CE01019653
:104950000E94440494014CE050E0BE016F5F7F4F21
:10496000CE014E960E946113182FCE0101960E942F
:104970003604112389F1BE01625E7F4FCE01489655
:104980000E943B046EE671E0CE0142960E94440410
:104990006CEE71E0CE0142960E94CF03BE01685ECC
:1049A0007F4FCE0142960E94C803BE016E5E7F4FCC
:1049B000CE0101960E943B0461E0CE0101960E9467
:1049C0006908CE0101960E943604CE0142960E94EB
:1049D0003604CE014896ABC065EF71E0CE0101967A
:1049E0000E94440422E230E048E150E0BE016F5FE3
:1049F0007F4FCE014E960E946113182FCE01019673
:104A00000E943604BE01625E7F4FCE01112309F47D
:104A100081C001960E943B0467ED75E0CE010196CE
:104A20000E94680377247394811101C0712CCE0118
:104A300001960E943604772089F1CE0101960E94EA
:104A40004B15BE016F5F7F4FCE014E960E94FD0356
:104A5000CE0101960E9436046CEF71E0809117063A
:104A6000909118060E94BF04BE01625E7F4F809144
:104A70001706909118060E94CF04BE01625E7F4F18
:104A8000CE0101960E943B04672DCE0101960E9443
:104A9000EA15CE0101960E9436042EC0BE01625E68
:104AA0007F4FCE0101960E943B0480902306909098
:104AB0002406F40180818823C1F0BE016F5F7F4F1F
:104AC000C40103960E946803811110C0D401979617
:104AD0008C91882351F0BE016F5F7F4FC401819696
:104AE0000E94680311E0811101C010E0CE0101961F
:104AF0000E9436041111A1CF64E072E0CE0101964C
:104B00000E94440461E0CE0101960E946908CE0132
:104B100001960DC042960E943B0467E172E0CE010F
:104B200042960E944903811105C0CE0142960E941F
:104B300036045EC00E948A108091190690911A0670
:104B4000DC01ED91FC910284F385E02D099569E289
:104B500072E0CE0101960E94440460E0CE0101960D
:104B60000E946908CE0101960E94360480911906C0
:104B700090911A06DC01ED91FC910284F385E02D01
:104B800009950E9408062B013C010E940806DC01E1
:104B9000CB0184199509A609B7094497A105B10568
:104BA000A0F365E372E0CE0101960E94440460E048
:104BB000CE0101960E946908CE0101960E9436043A
:104BC0008091190690911A06DC01ED91FC91028406
:104BD000F385E02D09950E940806DC01CB018419BC
:104BE0009509A609B7094497A105B105A0F39DCF82
:104BF0009091FC058091F50591112AC18E3419F030
:104C0000823509F0C7C19091F6059E3419F09934A8
:104C100009F0ECC0BE01625E7F4FCE0101960E949A
:104C20003B046FED71E0CE0101960E944903182FFD
:104C3000CE0101960E943604112309F4EDC1B09211
:104C4000F5050093F6058091F7058F5F8093F705D2
:104C5000833008F090C0813079F46BE271E0CE01CE
:104C600001960E94440460E0CE0101960E9469080A
:104C7000CE0101960E9436046EE671E0CE014896A0
:104C80000E944404CE0101960E944B15BE016F5F45
:104C90007F4FCE0148960E94FD03CE0101960E94EF
:104CA000360461E472E0CE0101960E94440425E1DD
:104CB00030E04BE050E0BE016F5F7F4FCE01489681
:104CC0000E946113182FCE0101960E943604112311
:104CD000C9F28C8D9D8D0A9708F44AC0CE01489682
:104CE0000E949315182F882309F442C0BE01685E04
:104CF0007F4FCE0142960E943B0468E872E08091AB
:104D00001706909118060E94BF04BE016E5E7F4F89
:104D100080911706909118060E94CF0467ED75E008
:104D2000CE0142960E94680381111AC0BE016E5ED8
:104D30007F4FCE0101960E943B04BE016F5F7F4F03
:104D400080912306909124060E94C10D982ECE01D9
:104D500001960E94360411E0BFEF9B1201C010E0E3
:104D6000CE0142960E943604111102C00E948A10A0
:104D7000CE0148966AC0833009F04EC10E940806F1
:104D80006093EB057093EC058093ED059093EE0531
:104D9000A092F9058091190690911A06DC01ED9117
:104DA000FC910284F385E02D09956AE472E0CE015E
:104DB00001960E94440461E0CE0101960E946908B8
:104DC000CE0101960E9436048091190690911A0630
:104DD000DC01ED91FC910284F385E02D09950093AF
:104DE000F5050093F60561E08DE4D1C0893481F5C5
:104DF0009091F605993461F5BE01625E7F4FCE0158
:104E000001960E943B04CE0101960E946C14182F5B
:104E1000CE0101960E943604112319F00E948A10D7
:104E2000FBC0CE014E960E94CF13BE01625E7F4F43
:104E3000882309F4F9C0CE0101960E943B04CE01FB
:104E400001960E94EA11CE0101960E943604E4C048
:104E50008E3419F0823509F0A0C01091F6051F3488
:104E600009F0DAC0BE01625E7F4FCE0101960E945A
:104E70003B04CE0101960E94FA13982ECE010196B2
:104E80000E943604B2E59B120FC00E940806609390
:104E9000EB057093EC058093ED059093EE059092F1
:104EA000F5051093F605B8C0BE01625E7F4FCE01D6
:104EB00042960E943B04CE0142960E946C14182F29
:104EC000811113C0BE01625E7F4FCE0101960E9428
:104ED0003B04CE0101960E94FA1311E0853409F0DB
:104EE00010E0CE0101960E943604CE0142960E9447
:104EF00036041123F1F00E948A108091FD05882369
:104F000039F08091FE05882319F081E00E94420B60
:104F10008091F805813409F07FC06EE671E0CE0122
:104F200001960E94440460E0CE0101960E948F0821
:104F30008ACFBE01625E7F4FCE0101960E943B0484
:104F4000CE0101960E94FA13182FCE0101960E94FD
:104F50003604193409F060C06EE472E080911706DF
:104F6000909118060E94A6040E9408066093EB0523
:104F70007093EC058093ED059093EE051093F50585
:104F8000C092F605A092F90561E08091FB050E94B0
:104F90001A1142C0893409F42BCF8934E9F5809184
:104FA000F6058F34C9F5BE01625E7F4FCE01429691
:104FB0000E943B04CE0142960E946C14182F81116E
:104FC00013C0BE01625E7F4FCE0101960E943B047A
:104FD000CE0101960E94FA1311E0853409F010E029
:104FE000CE0101960E943604CE0142960E943604FC
:104FF000111114CF8091FD05882399F08091FE0551
:10500000882379F0CE014E960E94CF13882349F071
:10501000BE01625E7F4F0FCFCE014E960E943604D6
:105020006FCBBE01625E7F4FCE0101960E943B04B2
:10503000CE0101960E94401106CF61E082E10E94FC
:10504000620561E081E10E94620561E58091E20410
:105050009091E3040E945407E091FE04F091FF0454
:1050600080E009951092F7040E9408066093F1040D
:105070007093F2048093F3049093F40481E080939E
:10508000F60458C91F93CF93DF9310923405109202
:10509000330588EE93E0A0E0B0E08093350590936F
:1050A0003605A0933705B09338058AE091E09093D8
:1050B00032058093310585EC90E090933E05809316
:1050C0003D0584EC90E09093400580933F0580EC93
:1050D00090E0909342058093410581EC90E090939D
:1050E00044058093430582EC90E0909346058093BD
:1050F000450586EC90E09093480580934705109213
:105100004A0510924B0510924C0510924D056EE623
:1051100071E087E496E00E944404C0E0D0E06EE6CF
:1051200071E0CE01835B994F0E9444042696C831FA
:10513000D105A9F76EE671E085E696E00E94440489
:1051400010924406109228061092270688EE93E0EB
:10515000A0E0B0E08093290690932A06A0932B0646
:10516000B0932C068AE191E0909326068093250661
:1051700010923C0610923B0610923E0610923D069D
:105180001092400610923F0610924206109241067D
:10519000609143066E7F6D7F6093430666956170F4
:1051A00081E0682786E00E94620561E086E00E9457
:1051B0009205E4EBF0E0E491E0933506E0EAF0E0FC
:1051C000E491F0E0EE0FFF1FEA57FF4F85919491B5
:1051D000909337068093360660E085E00E94920542
:1051E0008091430681FD04C061E085E00E94620574
:1051F000C5E2D6E015E010933106E3EBF0E0E49170
:10520000E0933206EFE9F0E0E491F0E0EE0FFF1FEB
:10521000E057FF4F85919491909334068093330625
:105220006EE671E087ED95E00E9444046EE671E061
:105230008CE196E00E944404D0931806C0931706B0
:10524000CE010E94980A81E395E090931A0680931C
:1052500019060E94710A69EA72E087ED95E00E94E2
:10526000CF03109222066EE671E08CE196E00E9478
:10527000CF0310921B0682E08093E00588EC8093B8
:10528000F0051092EF051092E7051092E80561E035
:1052900082E00E9492058EEC95E00E94BD0E8AE0AD
:1052A0008093DD051093DE051092DF051092E50571
:1052B0001092D5051EE41093FB051092FA0510928A
:1052C000D60584E492E09093EA058093E905109274
:1052D000F70581E48093F8051093F5051093F60522
:1052E0001092F9051092FD051092FE051092FC0532
:1052F00081E080930406D0931F05C0931E05CE0164
:105300000E94980A61E084E00E94920561E084E0D6
:105310000E94620561E080E10E94920560E080E108
:105320000E94620561E08FE00E94920560E08FE0DC
:105330000E94620561E083E10E94920560E083E1E2
:105340000E94620561E083E00E94920560E083E0D4
:105350000E946205109221058AE095E00E94EB0E02
:1053600061E480910A0590910B050E945407109208
:10537000180510921905109220051092150510922B
:10538000160510922A051092100510921105109220
:1053900012051092130510921405D0930505C093C1
:1053A000040561E082E10E94920561E081E10E94D2
:1053B000920560E082E10E94620560E081E10E9466
:1053C00062058AEF8093F00488E592E0A0E0B0E007
:1053D0008093EC049093ED04A093EE04B093EF045B
:1053E00086E08093E7041093F8041092E50480E5CA
:1053F0009BE09093FB048093FA0481E59BE09093FB
:10540000FD048093FC0488EF9BE09093010580935A
:10541000000582E59BE09093FF048093FE0483E601
:105420009BE090930305809302051092F70410927D
:10543000F5041092F604109208051092E4041092FC
:105440000605D093E104C093E004CE010E94980ABF
:105450008EEB94E09093C0048093BF0486E095E0C7
:105460009093C2048093C10487E095E09093C404B4
:105470008093C3048BE295E09093C6048093C504A7
:105480008CE295E09093C8048093C7048DEB94E080
:105490009093CA048093C9048CEB94E09093CC045D
:1054A0008093CB0460E087E00E94920561E08AE08F
:1054B0000E94920561E08AE00E9462058091680086
:1054C00081608093680080916B00846080936B00A2
:1054D000CFB7F89480916D06811127C0E4EAF0E01F
:1054E0008491E8EBF0E09491E82FF0E0EE0FFF1FDD
:1054F000E458FF4FA591B491EC91E92321F461E0C8
:105500008AE00E94620561E08AE00E9492058CB503
:1055100080618CBD8CB580648CBD61E08DE00E94A3
:10552000920561E08BE00E94920580916D068F5F8D
:1055300080936D06CFBF83E58CBD1DBC6EE671E028
:1055400086EB94E0DF91CF911F910C94440486EB9D
:1055500094E00E9436048CE196E00E94360487EDC8
:1055600095E00E9436048AE191E0909326068093AC
:1055700025068091B4049091B5048552964071F44B
:10558000E0913806F0913906908180913A06809535
:10559000892380831092B5041092B40485E696E0C6
:1055A0000E9436048DE496E0892B81F08FE596E029
:1055B0000E94360489E596E00E94360483E596E071
:1055C0000E9436048DE496E00E94360487E496E05B
:1055D0000C94360497FB072E16F4009407D077FD41
:1055E00009D00E94202B07FC05D03EF490958195B0
:1055F0009F4F0895709561957F4F0895A1E21A2EEF
:10560000AA1BBB1BFD010DC0AA1FBB1FEE1FFF1F66
:10561000A217B307E407F50720F0A21BB30BE40BB6
:10562000F50B661F771F881F991F1A9469F76095FD
:105630007095809590959B01AC01BD01CF010895B7
:10564000AA1BBB1B51E107C0AA1FBB1FA617B707A8
:1056500010F0A61BB70B881F991F5A95A9F78095C4
:105660009095BC01CD010895EE0FFF1F0590F491B8
:10567000E02D09945058BB27AA270E94522B0C9466
:10568000B3300E94A53038F00E94AC3020F039F4DD
:105690009F3F19F426F40C94A2300EF4E095E7FB3A
:1056A0000C949C30E92F0E94C43058F3BA1762075B
:1056B00073078407950720F079F4A6F50C94E6307B
:1056C0000EF4E0950B2EBA2FA02D0B01B90190011D
:1056D0000C01CA01A0011124FF27591B99F0593F61
:1056E00050F4503E68F11A16F040A22F232F342FA9
:1056F0004427585FF3CF469537952795A795F040F7
:105700005395C9F77EF41F16BA0B620B730B840B0B
:10571000BAF09150A1F0FF0FBB1F661F771F881FC3
:10572000C2F70EC0BA0F621F731F841F48F487951B
:1057300077956795B795F7959E3F08F0B0CF93950D
:10574000880F08F09927EE0F9795879508950E9486
:10575000083008F48FEF0895CF93DF9382309105DE
:1057600010F482E090E0E0917106F091720620E082
:1057700030E0C0E0D0E0309711F14081518148170E
:105780005907C0F04817590761F482819381209727
:1057900019F09B838A832BC09093720680937106C5
:1057A00026C02115310519F04217530718F49A0144
:1057B000BE01DF01EF010280F381E02DDCCF211576
:1057C000310509F1281B390B2430310590F412966C
:1057D0008D919C9113976115710521F0FB019383C5
:1057E000828304C09093720680937106FD01329605
:1057F00044C0FD01E20FF31F8193919322503109C0
:105800002D933C933AC020916F0630917006232B64
:1058100041F42091020130910301309370062093EE
:105820006F0620910001309101012115310541F4ED
:105830002DB73EB74091040150910501241B350B53
:10584000E0916F06F0917006E217F307A0F42E1BAB
:105850003F0B2817390778F0AC014E5F5F4F2417D4
:10586000350748F04E0F5F1F5093700640936F0648
:105870008193919302C0E0E0F0E0CF01DF91CF91FE
:1058800008950F931F93CF93DF93009709F48CC073
:10589000FC013297138212820091710610917206F8
:1058A0000115110581F420813181820F931F209110
:1058B0006F06309170062817390779F5F093700656
:1058C000E0936F0671C0D80140E050E0AE17BF070B
:1058D00050F412962D913C911397AD01211531058D
:1058E00009F1D901F3CF9D01DA013383228360816D
:1058F0007181860F971F8217930769F4EC01288145
:105900003981260F371F2E5F3F4F318320838A81D5
:105910009B8193838283452B29F4F0937206E09355
:10592000710642C01396FC93EE931297ED014991D4
:1059300059919E01240F351FE217F30771F48081FE
:105940009181840F951F029611969C938E9382816C
:10595000938113969C938E931297E0E0F0E0D80128
:1059600012968D919C911397009719F0F8018C0174
:10597000F6CF8D919C9198012E5F3F4F820F931F20
:1059800020916F06309170062817390769F4309717
:1059900029F4109272061092710602C013821282CC
:1059A0001093700600936F06DF91CF911F910F91B6
:1059B0000895A0E0B0E0EFEDFCE20C941231EC01B0
:1059C000009721F4CB010E94AC2BB8C0FC01E60F7C
:1059D000F71F9C0122503109E217F30708F4ACC00D
:1059E000D9010D911C91119706171707B0F00530DA
:1059F000110508F49FC0C80104978617970708F49B
:105A000099C002501109061B170B019311936D9356
:105A10007C93CF010E94412C8DC05B01A01AB10A7A
:105A20004C01800E911EA0917106B091720640E06B
:105A300050E0E12CF12C109709F44AC0A815B905E3
:105A4000D1F56D907C901197630182E0C80ED11C56
:105A5000CA14DB0480F1A3014A195B096A0182E0E0
:105A6000C80ED11C1296BC9012971396AC91B5E05B
:105A7000CB16D10440F0B282A38351834083D90175
:105A80006D937C930AC00E5F1F4FC301800F911F5F
:105A9000F90191838083EB2DFA2FE114F10431F0A9
:105AA000D7011396FC93EE93129744C0F0937206BD
:105AB000E09371063FC08D919C911197481759074B
:105AC00008F4AC017D0112960D90BC91A02DB3CFCE
:105AD00080916F069091700688159905E1F446173C
