:100000000C94F2000C9464030C943D030C941A01BC
:100010000C941A010C941A010C941A010C941A01F4
:100020000C941A010C941A010C941A010C941A01E4
:100030000C941A010C941A010C941A010C941A01D4
:100040000C94F3020C948E060C941A010C941A0171
:100050000C941A010C941A010C941A010C941A01B4
:100060000C941A010C941A01E60EEC0EF90EF40E23
:10007000FF0EAF0F050F080FE00FE90FD40FF50FBC
:10008000061011101D10005EBCE2613FDD83C29CB2
:100090007E20A3FD1F419DC3217FFCA2401E5F0166
:1000A000E3BD3E6082DC237D9FC1421CFEA0E1BF18
:1000B0005D0380DE3C62BEE0025CDF81633D7C224A
:1000C000C09E1D43A1FF4618FAA427799BC584DA78
:1000D0003866E5BB5907DB856739BAE40658194726
:1000E000A5FB7826C49A653BD987045AB8E6A7F9D8
:1000F0001B45C6987A24F8A6441A99C7257B3A640A
:1001000086D85B05E7B98CD2306EEDB3510F4E1037
:10011000F2AC2F7193CD114FADF3702ECC92D38DE5
:100120006F31B2EC0E50AFF1134DCE90722C6D3397
:10013000D18F0C52B0EE326C8ED0530DEFB1F0AEC9
:100140004C1291CF2D73CA947628ABF517490856F7
:10015000B4EA6937D58B5709EBB536688AD495CBA5
:100160002977F4AA4816E9B7550B88D6346A2B7557
:1001700097C94A14F6A8742AC896154BA9F7B6E889
:100180000A54D7896B3500000000240027002A009C
:1001900000000000250028002B00000000002300C4
:1001A00026002900040404040404040402020202D8
:1001B000020203030303030301020408102040802A
:1001C00001020408102001020408102000000008A9
:1001D000000201000003040700000000000000000E
:1001E000A011801111241FBECFEFD8E0DEBFCDBF1C
:1001F00011E0A0E0B1E0ECEDF0E302C005900D925B
:10020000A231B107D9F721E0A2E1B1E001C01D920E
:10021000A53FB207E1F710E0C1EFD0E004C021979D
:10022000FE010E94BC13C03FD107C9F70E94B40869
:100230000C9461180C940000089580E090E0892BE4
:1002400049F080E090E0892B29F00E9400008111A4
:100250000C9400000895833081F028F4813099F0E7
:100260008230A1F008958730A9F08830B9F0843049
:10027000D1F4809180008F7D03C0809180008F77C2
:1002800080938000089584B58F7702C084B58F7DF8
:1002900084BD08958091B0008F7703C08091B00035
:1002A0008F7D8093B00008953FB7F89480915601F8
:1002B00090915701A0915801B091590126B5A89B82
:1002C00005C02F3F19F00196A11DB11D3FBFBA2FE8
:1002D000A92F982F8827820F911DA11DB11DBC0148
:1002E000CD0142E0660F771F881F991F4A95D1F70D
:1002F00008950895089591E090933F0180934A01F5
:100300000895089508950F931F93CF93DF938C0161
:10031000EB01FC01808191810097B1F068817981C6
:100320006115710579F0428153812C813D8142171D
:10033000530740F00E94E9168C819D81F801958356
:10034000848313C00E947E1588819981F80191836E
:1003500080838A819B81938382838C819D81958315
:100360008483198218821B821A821D821C82DF916B
:10037000CF911F910F910895EF92FF920F931F93CA
:10038000CF93DF93EC017B018A01888199810097EB
:1003900029F02A813B8124173507F8F4B8016F5FF3
:1003A0007F4F0E941616009759F0998388831B830C
:1003B0000A832C813D81232B81F4FC0110820DC026
:1003C00088819981009711F00E947E151982188208
:1003D0001D821C821B821A8207C01D830C83B701F9
:1003E000888199810E94E916CE01DF91CF911F91FA
:1003F0000F91FF90EF900895FC01118210821382FB
:100400001282158214826115710551F0FB01019071
:100410000020E9F73197AF01461B570B0C94BC0144
:100420000895CF93DF93282F30E0F901E453FE4F76
:100430008491F901E854FE4FD491F901EC55FE4F37
:10044000C491CC2391F081110E942B01EC2FF0E09C
:10045000EE0FFF1FE656FE4FA591B491EC91ED23F0
:1004600081E090E021F480E002C080E090E0DF9144
:10047000CF9108951F93CF93DF93282F30E0F90198
:10048000E453FE4F8491F901E854FE4FD491F901F1
:10049000EC55FE4FC491CC23C9F0162F81110E9458
:1004A0002B01EC2FF0E0EE0FFF1FE057FE4FA59160
:1004B000B4918FB7F894111105C09C91ED2FE09580
:1004C000E92302C0EC91ED2BEC938FBFDF91CF912C
:1004D0001F910895CF93DF9390E0FC01E854FE4F05
:1004E0002491FC01EC55FE4F8491882361F190E04A
:1004F000880F991FFC01EA57FE4FC591D491FC016A
:10050000E057FE4FA591B491611109C09FB7F894CF
:100510008881209582238883EC912E230BC0623042
:1005200061F49FB7F8943881822F80958323888364
:10053000EC912E2B2C939FBF06C08FB7F894E881C7
:100540002E2B28838FBFDF91CF9108958E3008F036
:100550008E508770806480937C0080917A008064E4
:1005600080937A0080917A0086FDFCCF809178009C
:100570002091790090E0922B08952FB7F894609124
:1005800052017091530180915401909155012FBFF8
:10059000089582E00E941102892B69F481E0809322
:1005A000A7010E94BD026093A8017093A9018093E6
:1005B000AA019093AB010895CF93DF93CAE9D1E0EC
:1005C0008AA99BA9ACA9BDA98EA79FA7A8ABB9ABC7
:1005D0000E94BD026AAB7BAB8CAB9DAB81E08CA76C
:1005E000DF91CF9108951F920F920FB60F921124B1
:1005F0002F933F938F939F93AF93BF93809152011B
:1006000090915301A0915401B09155013091510145
:1006100023E0230F2D3720F40196A11DB11D05C045
:1006200026E8230F0296A11DB11D2093510180934E
:10063000520190935301A0935401B09355018091BE
:10064000560190915701A0915801B091590101961E
:10065000A11DB11D8093560190935701A09358019D
:10066000B0935901BF91AF919F918F913F912F917D
:100670000F900FBE0F901F9018951F920F920FB6FC
:100680000F9211242F933F934F935F936F937F9318
:100690008F939F93AF93BF93EF93FF93E0910201EA
:1006A000F09103010995FF91EF91BF91AF919F9157
:1006B0008F917F916F915F914F913F912F910F900B
:1006C0000FBE0F901F9018951F920F920FB60F92AA
:1006D00011242F933F934F935F936F937F938F9347
:1006E0009F93AF93BF93EF93FF93E0910001F0913D
:1006F00001010995FF91EF91BF91AF919F918F916A
:100700007F916F915F914F913F912F910F900FBE0D
:100710000F901F901895DC01E0E0615038F08D914A
:10072000E827F0E0EA57FF4FE491F7CF8E2F0895C6
:10073000FC0190810180F281E02DF8948181892B68
:1007400081832281892F809528232283A7E0B0E02E
:100750001197F1F7218182238183A3E2B0E0119701
:10076000F1F780817894EFECF0E03197F1F798237E
:1007700081E009F480E00895FC0190810180F2811C
:10078000E02D892F809560FF12C0F894228182238A
:1007900082838181892B8183A3E2B0E01197F1F7F5
:1007A0008281982B9283789487ED90E011C0F89421
:1007B0002281822382838181892B8183AFEFB0E004
:1007C0001197F1F78281982B928378948FE090E0D3
:1007D0000197F1F70895CF92DF92EF92FF920F9376
:1007E0001F93CF93DF931F92CDB7DEB76C01E62E38
:1007F00008E010E0FF24F39461E08F2D8E2109F4CE
:1008000060E0C60149830E94BC03FF0C015011093E
:1008100049810115110581F7411115C0F894D601E0
:100820001196ED91FC91129791818C91809589237D
:1008300081831196ED91FC91129792818C91809514
:100840008923828378940F90DF91CF911F910F912C
:10085000FF90EF90DF90CF900895CF92DF92EF92CC
:10086000FF920F931F93CF93DF931F92CDB7DEB705
:100870008C01F62E40E065E579830E94EB03CF2CD6
:100880007981D72E760188E0E80EF11CF60161919E
:100890006F0140E0C8010E94EB03CE14DF04B1F702
:1008A0000F90DF91CF911F910F91FF90EF90DF900C
:1008B000CF900895FC0190810180F281E02DF894A1
:1008C0008181292F20958223818378948DE743E0CD
:1008D00050E0815021F1DA011197F1F7308139238D
:1008E000C1F3F8948281822382838181892B818361
:1008F0007894ABE7B7E01197F1F7F894818128235A
:100900002183A3E1B1E01197F1F78081982381E081
:1009100009F080E07894E3E6F6E03197F1F7089586
:100920008F929F92AF92BF92CF92DF92EF92FF92FF
:10093000CF93DF93EC018D819E810E945A0440E0A9
:100940006CEC8D819E810E94EB03488164E48D8173
:100950009E810E94EB038A818823C9F1E981E950D5
:10096000E33040F4F0E0EE0FFF1FE55FFE4F8081C3
:10097000918102C08EEE92E06C01990FEE08FF08A3
:100980000E9454014B015C01C114D104E104F10443
:10099000F1F00E945401DC01CB0188199909AA09E0
:1009A000BB09883E9340A105B10570F321E0C21A4E
:1009B000D108E108F10888EE880E83E0981EA11C9A
:1009C000B11CC114D104E104F10419F7DDCFDF91AA
:1009D000CF91FF90EF90DF90CF90BF90AF909F901E
:1009E0008F9008956F927F928F929F92AF92BF9255
:1009F000CF92DF92EF92FF920F931F93CF93DF93EB
:100A000000D0CDB7DEB78C017A01FC0185819681DB
:100A100069837A830E945A0469817A81882391F1DB
:100A2000F801858196810E942D0440E06EEBF8016B
:100A3000858196810E94EB0337015701F9E0AF0EE3
:100A4000B11CF8018580968088E0C82ED12CEE2458
:100A5000E394F12CC4010E9498038111FE28EE0C4E
:100A6000F1E0CF1AD108B1F7F301F1923F01EA1595
:100A7000FB0539F7F801858196810E945A0491E0BF
:100A8000813009F090E0892F0F900F90DF91CF9186
:100A90001F910F91FF90EF90DF90CF90BF90AF909C
:100AA0009F908F907F906F900895CF93DF93CDB7F5
:100AB000DEB729970FB6F894DEBF0FBECDBFFB019E
:100AC0002081203119F1AE014F5F5F4F0E94F20487
:100AD000882379F068E0CE0101960E948B03998506
:100AE000891307C008C0803458F08F3569F08F37FC
:100AF00069F080E00CC08D818F33A9F78AE007C0D0
:100B00008F31B9F789E003C08BE001C08CE02996F2
:100B10000FB6F894DEBF0FBECDBFDF91CF91089521
:100B2000FC018085811107C06EBD61E087E00E94F5
:100B30003A0281E0089580E008950F931F93CF93C8
:100B4000DF938C01EB010E9414188883C801019681
:100B50000E9414188983CE01DF91CF911F910F91CC
:100B60000895AF92BF92CF92DF92EF92FF920F93D0
:100B70001F93CF93DF931F92CDB7DEB75C017B014C
:100B80008B016C0182E0C80ED11CF80161918F01CC
:100B9000C50169830E9414186981681719F0C5019D
:100BA0000E941C18FFEFAF1ABF0AAC14BD0469F70E
:100BB000C7010F90DF91CF911F910F91FF90EF90A0
:100BC000DF90CF90BF90AF900895CF92DF92EF92D9
:100BD000FF920F931F93CF93DF937C018B016A01E8
:100BE0000E941418F8018083C1E0D0E08823C9F086
:100BF000CC15DD057CF4CE018E0D9F1D8115F4E032
:100C00009F0744F40E941418F801EC0FFD1F808325
:100C10002196ECCF1C161D0624F4C00FD11F21977E
:100C2000188281E0DF91CF911F910F91FF90EF909B
:100C3000DF90CF900895CF93DF931F92CDB7DEB7AB
:100C4000FC01668786E690E069830E94141869813A
:100C5000681739F086E690E00F90DF91CF910C9401
:100C60001C180F90DF91CF910895CF92DF92EF92F1
:100C7000FF92CF93DF9361E082E10E943A0281E12B
:100C80000E94A6020E94BD026B017C010E94BD026F
:100C9000DC01CB018C199D09AE09BF090297A105A2
:100CA000B105A0F381E10E94A602EC0160E082E1BF
:100CB0000E943A02CE01DF91CF91FF90EF90DF903A
:100CC000CF900895FC01178E1586168A178A128E0A
:100CD000138E60E081E00C943A02CF93DF93EC0135
:100CE0001D8681E08F8F0E94BD0269A37AA38BA32A
:100CF0009CA31A8E1B8E61E081E0DF91CF910C9452
:100D00003A0210923F011092400181E0809341012C
:100D100080939E018AE991E00C946D061F920F92D8
:100D20000FB60F9211242F933F934F935F936F93BE
:100D30007F938F939F93AF93BF93EF93FF938EB562
:100D4000853699F460E087E00E943A0280916D0157
:100D5000882391F180916F01811104C081E080931B
:100D60006E012AC010926D0127C0282F30E094E058
:100D7000359527959A95E1F72730310599F4E2E802
:100D8000F1E01EBC00000DB407FEFDCF9EB59193AF
:100D900091E0E638F907A9F78093860181E0809316
:100DA00087010AC081E0809388018EB58093890114
:100DB00060E087E00E943A02FF91EF91BF91AF910E
:100DC0009F918F917F916F915F914F913F912F9163
:100DD0000F900FBE0F901F90189580914A018823A5
:100DE00011F069E901C06BE985E691E00C9490058A
:100DF000CF93C091F001CC23E1F0E091D201F091CA
:100E0000D3016485758580E090E00E94F5169B0112
:100E1000AC016091EC017091ED018091EE01909137
:100E2000EF010E94E41418162CF01092D501C0E0D6
:100E300001C0C1E08C2FCF910895CF93DF93CAE911
:100E4000D1E08C8B682F8A819B810E94900591E074
:100E500089278D8BDF91CF9108950F931F938091F8
:100E6000B9018823B9F00E94BD020091BB01109125
:100E7000BC012091BD013091BE01AB01BC01401B02
:100E8000510B620B730B81E049315105610571050E
:100E900008F480E01F910F9108958CE891E00E9482
:100EA0003506E0918E01F0918F012085318528175C
:100EB0003907B0F4228533858217930798F420917F
:100EC0009101222389F020919001222369F0209141
:100ED0009301309194012817390730F08DE9089576
:100EE00084E9089585E9089586E90895CF93DF930D
:100EF000CCE8D1E08987682F888199810E9490058C
:100F000091E089278A87DF91CF910895E091780158
:100F100081E08E0F80937801F0E0EB59FE4F9189CC
:100F20009EBD823018F081E080936F0161E087E020
:100F30000C943A0280916301811112C090915C017E
:100F40002DEF290F2E3460F4933049F08091610128
:100F5000882329F01092610110926401089581E0C4
:100F60000895CF92DF92EF92FF92CF93DF9361E0EB
:100F700088E00E943A0280E10E94A6020E94BD021F
:100F80006B017C01EE24FF240E94BD02DC01CB0139
:100F90008C199D09AE09BF090297A105B105A0F3FF
:100FA00080E10E94A602EC0160E088E00E943A0223
:100FB000BE01DD0F880B990B0E94F71620E030E090
:100FC00040EA50E40E94561720E030E040E85AE33F
:100FD0000E94561723EC35EF40E850E40E94561764
:100FE00020E030E048E351E40E94D6136B017C011D
:100FF0000E94BD0260935D0170935E0180935F016A
:101000009093600120E030E040E251E4C701B60176
:101010000E9456170E94B514862FDF91CF91FF9042
:10102000EF90DF90CF9008950E94B10780935C010C
:101030000E949A07811107C080916101811103C04C
:1010400081E0809364010895AF92BF92CF92DF92C6
:10105000EF92FF920F931F93CF93DF931F92CDB721
:10106000DEB75C01D62EE72EFC018585811105C017
:10107000C5010E945A04811106C0F5011386158628
:10108000148680E065C040E060EFC5010E94EB037C
:1010900001E0F12CC12C11E0C5010E949803682FDA
:1010A000C50169830E9498036981613019F4813018
:1010B000B9F433C04F2D50E068131BC0F501838590
:1010C000181730F4E40FF51F8381802349F402C020
:1010D000181731F060E0193058F4F501148708C092
:1010E000F501EF0DF11D8381802B838361E009C041
:1010F000C12EF501E40FF51F9381802F8095892380
:101100008383C5010E94BC031F5F000F11F4F39499
:1011100001E0F7E0FF1508F0BFCF113408F4ADCFC0
:10112000F501C386C11002C081E08587F501838186
:10113000882309F4A2CFD5011396ED2DFE2D95013C
:10114000255F3F4F8D918193A217B307D9F781E0B7
:101150000F90DF91CF911F910F91FF90EF90DF9053
:10116000CF90BF90AF900895CF93DF93CDB7DEB708
:1011700064970FB6F894DEBF0FBECDBF789484B5E8
:10118000826084BD84B5816084BD85B5826085BD83
:1011900085B5816085BD80916E00816080936E0011
:1011A0001092810080918100826080938100809103
:1011B00081008160809381008091800081608093B4
:1011C00080008091B10084608093B1008091B00074
:1011D00081608093B00080917A00846080937A006F
:1011E00080917A00826080937A0080917A00816099
:1011F00080937A0080917A00806880937A001092C0
:10120000C10060E083E10E946A0261E080E00E9428
:101210006A0260E080E00E943A0286E690E00E9466
:101220001418809320018F3F29F461E082E191E05E
:101230000E941B0664E171E080E090E00E949D0541
:1012400066E171E080E590E00E949D0568E171E053
:1012500084E590E00E949D05809114019091150114
:10126000019661F48CEB92E0909315018093140148
:1012700064E171E080E090E00E94B1058091160188
:1012800090911701019661F480EA90E09093170124
:101290008093160166E171E080E590E00E94B1055F
:1012A0008091180190911901019661F482E890E013
:1012B000909319018093180168E171E084E590E052
:1012C0000E94B1056EE171E08AE590E00E949D0503
:1012D00080911E0190911F01019689F482E390E0B4
:1012E0009C8B8B8BBE016D5E7F4F8AE590E00E94E8
:1012F000B1056EE171E08AE590E00E949D056AE12A
:1013000071E082E690E00E949D056CE171E08EE55F
:1013100090E00E949D0580911A0190911B01019619
:1013200061F481E490E090931B0180931A016AE1DB
:1013300071E082E690E00E94B10580911C019091DD
:101340001D01019661F48CE591E090931D0180935D
:101350001C016CE171E08EE590E00E94B10584E033
:1013600090E00E9414188093120181508E3F08F083
:1013700055C04CE050E0BE016F5F7F4F88E090E0C9
:101380000E94E505BE016F5F7F4FCE010D960E9462
:10139000FC01BE01635F7F4F81E291E00E94830107
:1013A0008D859E850E947E1511E006E080911201D8
:1013B000181708F04DC0E12EF12CEBE01E9FC00184
:1013C000112408968115F4E09F073CF44BE050E0AF
:1013D000BE016F5F7F4F0E94E505BE016F5F7F4FCB
:1013E000CE010D960E94FC010FB6F894DEBF0FBE31
:1013F000CDBF21E0E21AF1080E9DC0010F9D900DB6
:101400001124BE01635F7F4F895D9E4F0E9483015F
:101410008D859E850E947E151F5FC8CF1092120198
:1014200040E050E061E171E081E291E00E94BC01A6
:1014300000E010E040E050E061E171E0C801895D4A
:101440009E4F0E94BC010A5F1F4F0831110591F7A2
:1014500085E691E090939D0180939C0190938D018E
:1014600080938C019093D1018093D00182E191E02F
:1014700090939B0180939A019093D3018093D20122
:1014800090938F0180938E0180ED91E090936A019B
:10149000809369018CE891E09093680180936701E3
:1014A0008AE991E090936601809365018AE591E075
:1014B00090937F0180937E01109249018CED92E020
:1014C0009093030180930201809169008C60809366
:1014D0006900E99A89EC92E0909301018093000100
:1014E000809169008C7F816080936900E89A11E0A7
:1014F00009C00E94BD02643F71408105910538F426
:101500000E941D018091490181114AC0F2CF809152
:101510000401882301F11093A1018AE991E00E945E
:101520006D068091F001882391F08091E201909105
:10153000E3010E9490040E94BD026093DB0170935E
:10154000DC018093DD019093DE011093DF010E94A6
:101550001408109204010E94BD02653C7940810587
:10156000910570F28091F001882391F08091E20161
:101570009091E3010E9490040E94BD026093DB0100
:101580007093DC018093DD019093DE011093DF0105
:10159000109349016EE985E691E00E949005B0CF75
:1015A00080914601811116C00E94BD02C090420187
:1015B000D0904301E0904401F0904501DC01CB0163
:1015C0008C199D09AE09BF09893E9340A105B1055B
:1015D00008F0DBC580914601882331F10E94BD02ED
:1015E000C0904201D0904301E0904401F090450149
:1015F000DC01CB018C199D09AE09BF098436910528
:10160000A105B10588F083E10E941102019709F05C
:10161000E2C580914801882309F4C8C510924601AB
:1016200060E080E00E943A02809141018823D9F075
:10163000109241010E94F806882311F06AE905C062
:101640008091C701882331F06CE985E691E00E9422
:10165000900509C080913F01882319F00E94ED0692
:1016600002C01093400180914001882351F0809185
:101670003F01882331F00E94ED0610923F01109245
:1016800040018091AF01882359F06091AE018091B3
:101690009C0190919D010E94900581278093AF014C
:1016A0008091C601882309F411C1F8946091CC019E
:1016B0007091CD018091CE019091CF010E94F516DD
:1016C0006B017C018090C8019090C901A090CA0173
:1016D000B090CB01789420E030E0A9010E94F01690
:1016E000882309F4F1C0C501B4010E94F5164B012D
:1016F0005C0120E030E0A9010E94F016882309F483
:10170000E3C0A5019401C701B6010E94F016882329
:1017100009F4DAC0A5019401C701B6010E94D613ED
:101720009B01AC0160E070E68AE697E40E944314F6
:101730006093A3017093A4018093A5019093A601E7
:10174000C090A301D090A401E090A501F090A60163
:101750008091B701882309F441C08091A2018111D1
:101760001CC0E0919A01F0919B0186858823A9F025
:10177000648175816C5E7F4F80E090E00E94F51679
:101780009B01AC01C701B6010E94E41418162CF4A9
:101790001093A2018EEA0E941D07E0919A01F09138
:1017A0009B016481758180E090E00E94F5169B01A9
:1017B000AC01C701B6010E94E4149091BF01181654
:1017C00034F49A3F20F49F5F9093BF0107C09A3F83
:1017D00028F01092B7018DEA0E941D078091B80190
:1017E0008823B1F0E0919A01F0919B0162817381AD
:1017F00080E090E00E94F5169B01AC01C701B601A4
:101800000E94F01687FF04C01092B6011092B80132
:101810008091B80181111FC08091C7018823D9F040
:10182000E0919A01F0919B016281738180E090E0E8
:101830000E94F5169B01AC01C701B6010E94E41499
:1018400018160CF0D0C48091B6018A3F08F0C6C4C7
:101850008F5F8093B6018091C7018823D1F0E0911A
:101860009A01F0919B016681778180E090E00E946F
:10187000F5169B01AC01C701B6010E94F0161816BF
:101880001CF18091B30181111FC01093B3018BEA49
:1018900019C08091B201811117C0E0919A01F091B5
:1018A0009B016481758180E090E00E94F5169B01A8
:1018B000AC01C701B6010E94E41487FD05C0109376
:1018C000B2018AEA0E941D071092C60180919F0111
:1018D000882349F08091A701811188C40E942D07B7
:1018E000811184C40CC080919E01882341F08091B5
:1018F000A701811191C40E942D0781118DC480918F
:10190000A101882309F464C00E942D07882309F4EB
:101910005FC082E00E94110201E0892B09F000E023
:101920001092A101C090A301D090A401E090A50164
:10193000F090A601E0919A01F0919B016681778178
:1019400080E090E00E94F5164B015C019B01AC0128
:10195000C701B6010E94E414181684F401110EC0E8
:101960008AE991E00E9462061092BF011093C701BC
:10197000E0919A01F0919B0111832AC020E030E0B0
:10198000A901C701B6010E94E41418160CF5A501BF
:101990009401C701B6010E94F01687FF19C0002309
:1019A000B9F08AE991E00E9462061092BF0110929C
:1019B000B7011092C7011092B8011092B2011092B3
:1019C000B3011092A201E0919A01F0919B01118262
:1019D0008091A701882309F461C08091B90188230F
:1019E00009F45CC082E00E94110221E0892B09F019
:1019F00020E08091B001882339F1211125C0809128
:101A0000B40181114BC00E94BD022091AC01C09075
:101A1000A801D090A901E090AA01F090AB01AB0120
:101A2000BC014C195D096E097F09A4E62A9FC0011B
:101A30001124092E000CAA0BBB0B84179507A607CF
:101A4000B70708F4FDC32AC08091B101882331F1A2
:101A5000222321F18091B501811120C00E94BD0295
:101A60002091AD01C090A801D090A901E090AA01F9
:101A7000F090AB01AB01BC014C195D096E097F0907
:101A8000B4E62B9FC0011124092E000CAA0BBB0B3E
:101A900084179507A607B70708F4D6C38091C60137
:101AA00081114BC0F8948090CC019090CD01A09012
:101AB000CE01B090CF017894C090A301D090A40142
:101AC000E090A501F090A6010E94BD02811491044E
:101AD000A104B10491F1DC01CB0188199909AA098B
:101AE000BB09883B9B40A105B10538F120E030E0FF
:101AF000A901C701B6010E94F0168823F1F01092E7
:101B0000A3011092A4011092A5011092A6018FEAE0
:101B10000E941D071092BF011092B7011092C701D9
:101B20001092B8011092B2011092B3011092A2016A
:101B3000E0919A01F0919B01118280919601882396
:101B400059F06091950180918C0190918D010E94D6
:101B5000900581278093960180919101882319F146
:101B60000E944D078639F9F0843941F4809198013B
:101B7000811119C0109398018BED13C08D3941F478
:101B80008091990181110FC0109399018CED09C0CA
:101B9000853949F480919701811105C0109397010F
:101BA0008AED0E94760780919201882359F0109265
:101BB00092010E944D07682F80918C0190918D01B8
:101BC0000E9490058091D601882369F06AEB80918C
:101BD000D0019091D1010E949005882321F01093AB
:101BE000D5011092D601E091D201F091D30181810B
:101BF000811102C01092D5018091F00181110BC0BA
:101C00008091D401882339F061E98091D0019091CD
:101C1000D1010E9490058091F001882309F41AC334
:101C20008091DF01811116C30E94BD02C090D701CF
:101C3000D090D801E090D901F090DA01DC01CB011D
:101C40008C199D09AE09BF0980339547A105B105DF
:101C500008F400C38091E2019091E3010E94900496
:101C60000E94BD026093DB017093DC018093DD0173
:101C70009093DE011093DF018091F001882309F435
:101C80006CC08091DF01882309F467C00E94BD0207
:101C9000C090DB01D090DC01E090DD01F090DE012E
:101CA000DC01CB018C199D09AE09BF098C3D954023
:101CB000A105B10508F451C0AE014F5F5F4F64EE5E
:101CC00071E08091E2019091E3010E94F204882387
:101CD00049F068E0CE0101960E948B03998589172F
:101CE00009F4D1C260E874EE613854EE75070CF463
:101CF000B6C2072E000C880B990B0E94F71620E045
:101D000030E040E05CE30E9456176093EC01709372
:101D1000ED018093EE019093EF010E94BD0260936C
:101D2000D7017093D8018093D9019093DA01109272
:101D3000DF018091D401882309F498C21092D40164
:101D40000E94F8062091D0013091D101882309F436
:101D50008BC261E9C9010E94900580918A018823A4
:101D600039F010928A016EE985E691E00E949005B3
:101D700080918801882309F4F2C010928801809133
:101D8000890190E024E0959587952A95E1F78430C4
:101D9000910509F461C024F4039709F43FC0DFC042
:101DA0008530910509F4A8C0069709F0D8C0E091E4
:101DB00089018E2F90E0FC01E056F109E830F10531
:101DC00008F0CDC0EC5CFF4F0C94BC13E0916901AE
:101DD000F0916A011483C3C08091650190916601FE
:101DE000DC0115961C9381C0E0916501F0916601BC
:101DF00004C0E0916701F09168011683B0C0E091E2
:101E00008001F09181010995AAC010938A01A7C0B1
:101E1000E0917E01F0917F011087A1C0809189013E
:101E2000E0916501F0916601803329F410A300A4CC
:101E3000F1A5E02D04C010A202A4F3A5E02D0995A0
:101E400080918901E0917E01F0917F01803311F44E
:101E5000118785C0118683C080918901E09065015A
:101E6000F0906601813409F443C028F4803409F00D
:101E700076C0C7013AC0823411F1833409F06FC0D3
:101E8000F701178BC7010E946D06D70195961C922A
:101E900095975D961C925D979D961C929D975E9678
:101EA0001C925E9758961C92589718961C921897F9
:101EB000ED91FC911197118259961C9250C0F70137
:101EC000168BC7010E946D06D7015D961C935D9726
:101ED00095961C9295979D961C939D97ED91FC91DC
:101EE0001197118358961C923AC00E946D0637C014
:101EF000C7010E94620633C080918901E0906701AA
:101F0000F0906801813561F020F4803541F5F701EA
:101F100021C08235A1F0833511F5F70114831AC071
:101F2000D70115961C92159714961C9260E082E1D9
:101F30000E943A02F70113861486158610C0C70165
:101F40000E943506D70118969C938E931797159685
:101F50001C9301C0158361E082E10E943A028091E6
:101F60008701882309F470C0109287016091820173
:101F70007091830180918401909185010E94B51434
:101F8000262FE09186018E2F90E0FC01E057F109A9
:101F9000E730F10508F058C0E45CFF4FE0906B01BA
:101FA000F0906C010C94BC13D70112966C931297AD
:101FB00013967C93B7016E5F7F4F80E090E02EC058
:101FC000F70164837583B7016C5F7F4F80E590E014
:101FD00025C0D70116966C93169717967C93B70178
:101FE0006A5F7F4F84E590E019C06D877E87BE01F0
:101FF000635F7F4F8AE590E00E94B105B701645F9F
:102000007F4F8AE590E00E949D051EC0F701628720
:102010007387B701665F7F4F8EE590E00E94B10540
:1020200013C0D70118966C93189719967C93B70133
:10203000685F7F4F82E690E0F1CF61E0211101C03F
:1020400060E0C7010E941B0680916D01882309F49E
:102050004EC00E94BD02C0907901D0907A01E090FC
:102060007B01F0907C01AB01BC014C195D096E094C
:102070007F0980917D0190E0A0E0B0E08417950792
:10208000A607B70718F410926D0131C080916E0158
:10209000882371F010926E01109370010E94BD02AE
:1020A0006093710170937201809373019093740136
:1020B000809170018823D9F00E94BD02C090710107
:1020C000D0907201E0907301F0907401AB01BC01FB
:1020D0004C195D096E097F098091750190E0A0E0BF
:1020E000B0E084179507A607B70708F401C18091EF
:1020F00062018823C1F0109262010E94B1078093AF
:102100005C010E949A0720915A0130915B01811174
:1021100006C080916101811102C060E801C06FE9D1
:10212000C9010E9490050E94BD02C0905D01D0903F
:102130005E01E0905F01F0906001DC01CB018C1941
:102140009D09AE09BF0981329F4BA240B10528F01D
:1021500080916301882309F4D0C0809164018823B1
:1021600009F4CEC9809161018111CAC96AEE8091DA
:102170005A0190915B010E949005882309F4C0C91F
:102180001093610110926401BBC91093460161E094
:1021900080E00E943A020E94BD0260934201709367
:1021A0004301809344019093450114CA80914701F3
:1021B000823020F48F5F8093470130CA6AEF85E652
:1021C00091E00E94900580934801882309F426CA73
:1021D0001092470123CA1092480120CA1093B801F7
:1021E0008CEA0E941D071092B60135CB82E00E9456
:1021F00011027C018AE991E00E94620610929F011F
:1022000080919C0190919D01EF2811F463E901C038
:1022100062E90E94900573CB82E00E9411027C016A
:1022200010929E018AE991E00E94620681E0EF2807
:1022300009F080E0E091C001F091C10109955FCB08
:102240001093B4018AEC03C01093B5018BEC0E948B
:102250001D0724CC8091D4018111FCCC0DCD60E010
:1022600070E08EEF92EC51CD60E974CD0E94F806DB
:10227000882309F472CDE091D201F091D3018181DC
:1022800081112FC06ACD6981F8E06F9FB0011124E0
:102290008A81282F30E0322F2227330F330F330F5C
:1022A000262B372B8091E4018031C9F4688570E0DA
:1022B0008F81AB01481B5109CA019695982F882739
:1022C000979587950E94A81360517109207F53E06C
:1022D000220F331F5A95E1F7620F731F05CDB90125
:1022E00003CD8091D501811138CD1093D60135CD24
:1022F000109270010E948607FACE0E9414082DCF1A
:10230000CF93DF9387E291E0892B71F480912101D3
:10231000909122010E947E1580914B0190914C0179
:10232000DF91CF910C947E15C9E3D1E0888199812A
:102330000E947E15269781E0C132D807B9F7E6CF13
:10234000AF92BF92CF92DF92EF92FF920F931F93C3
:10235000CF93DF93CDB7DEB761970FB6F894DEBFAA
:102360000FBECDBF61E171E08BE491E00E94FC0102
:102370001092D7011092D8011092D9011092DA016F
:102380001092DB011092DC011092DD011092DE014F
:102390001092DF018EE090E00E94E9147C0160E081
:1023A00084E00E946A02ECEBF1E0E491D701EC9347
:1023B000E8EAF1E0E491F0E0EE0FFF1FE656FE4F91
:1023C00085919491F70192838183138615861486F3
:1023D0006701FBE0CF0ED11C570183E0A80EB11CB2
:1023E000F6011292EA15FB05E1F7F092E101E092A5
:1023F000E00183E190E00E94E9148C018AE791E01A
:10240000D80152969C938E9351971696FC92EE9219
:10241000159714961C9214971C9289E011968C9330
:10242000119781E012968C93129713968C931093C8
:10243000E3010093E201F60112926F01EA15FB0538
:10244000D1F7FF24F394BE01665F7F4FD801159644
:102450008D919C9116970E942408882309F456C0F8
:1024600067E0CE010A960E948B0399898913EBCF0E
:10247000D8018C91811127C015968D919C9116974A
:102480000E945A04BE01665F7F4FF80185819681E4
:102490000E942D0440E064EBD80115968D919C912B
:1024A00016970E94EB03F801858196810E9498039C
:1024B000E82ED80115968D919C9116970E945A048A
:1024C000EE2009F442C1AE014F5F5F4FBE01665F6F
:1024D0007F4FC8010E94F204F801E180BE01665FEF
:1024E0007F4FC8010E9455058E1520F4D801119622
:1024F0008C9106C0BE01665F7F4FC8010E945505E2
:10250000F801818384818F5F84839DCF1092D501F0
:102510001092D401A091E201B091E30114968C9144
:102520001497811103C01092F00124C081E08093C0
:10253000F0011596ED91FC91169713861586148679
:10254000CF010B969F012D5F3F4FFC011292CF01EF
:10255000E217F307D1F764EE71E015968D919C9127
:1025600016970E942408882329F067E084EE91E002
:102570000E948B03E091E201F091E301128210923C
:10258000EC011092ED011092EE011092EF0161E06A
:1025900082E10E946A0210929701109298011092B3
:1025A0009901109291011092900161E171E081E234
:1025B00091E00E94FC0100E010E061E171E0C801DF
:1025C000895D9E4F0E94FC010A5F1F4F0831110573
:1025D000A1F7109212018BE791E09093C1018093D3
:1025E000C00181E891E09093C3018093C20182E829
:1025F00091E09093C5018093C40161E081E00E9465
:102600006A0260E082E00E946A0262E083E00E9467
:102610006A0260E081E00E943A021092B6011092D4
:10262000B8011092BF011092B7011092C701109229
:10263000B2011092B3011092A201E0919A01F091BF
:102640009B0111828AE991E00E9462061092C60104
:102650001092BA011092A3011092A4011092A50148
:102660001092A6011092C8011092C9011092CA01DD
:102670001092CB011092CC011092CD011092CE019C
:102680001092CF011092B7011092A2011092B001E6
:102690001092B1011092B3011092B20189E08093BF
:1026A000AC0181E08093AD0110929F011092A001D6
:1026B00010929E0181E896E09093810180938001C1
:1026C00082E191E090936C0180936B0161E087E07F
:1026D0000E946A028CB580648CBD61E08CE00E942F
:1026E0006A0210926D0183E0809375018AE0809305
:1026F0007D018CB580688CBD61E088E00E946A0233
:1027000060E088E00E943A02109264011092610138
:10271000109262011092630110925D0110925E01AD
:1027200010925F011092600161960FB6F894DEBFBF
:102730000FBECDBFDF91CF911F910F91FF90EF9012
:10274000DF90CF90BF90AF900895D801FC92BBCEA0
:1027500097FB072E16F4009407D077FD09D00E944E
:10276000C21307FC05D03EF4909581959F4F0895C4
:10277000709561957F4F0895EE0FFF1F0590F491BE
:10278000E02D0994AA1BBB1B51E107C0AA1FBB1F68
:10279000A617B70710F0A61BB70B881F991F5A95ED
:1027A000A9F780959095BC01CD0108955058BB279D
:1027B000AA270E94EE130C94DA170E94CC1738F067
:1027C0000E94D31720F039F49F3F19F426F40C949B
:1027D000C9170EF4E095E7FB0C94C317E92F0E948C
:1027E000EB1758F3BA17620773078407950720F0B1
:1027F00079F4A6F50C940D180EF4E0950B2EBA2F73
:10280000A02D0B01B90190010C01CA01A0011124F6
:10281000FF27591B99F0593F50F4503E68F11A16A2
:10282000F040A22F232F342F4427585FF3CF469533
:1028300037952795A795F0405395C9F77EF41F1655
:10284000BA0B620B730B840BBAF09150A1F0FF0F1F
:10285000BB1F661F771F881FC2F70EC0BA0F621F0B
:10286000731F841F48F4879577956795B795F795FB
:102870009E3F08F0B0CF9395880F08F09927EE0F90
:102880009795879508950E9457140C94DA170E9423
:10289000D31758F00E94CC1740F029F45F3F29F07D
:1028A0000C94C31751110C940E180C94C9170E9464
:1028B000EB1768F39923B1F3552391F3951B550B4F
:1028C000BB27AA2762177307840738F09F5F5F4F03
:1028D000220F331F441FAA1FA9F335D00E2E3AF042
:1028E000E0E832D091505040E695001CCAF72BD05A
:1028F000FE2F29D0660F771F881FBB1F26173707AB
:102900004807AB07B0E809F0BB0B802DBF01FF27DC
:1029100093585F4F3AF09E3F510578F00C94C317DF
:102920000C940E185F3FE4F3983ED4F386957795A8
:102930006795B795F7959F5FC9F7880F911D969595
:10294000879597F90895E1E0660F771F881FBB1FF1
:10295000621773078407BA0720F0621B730B840B9E
:10296000BA0BEE1F88F7E09508950E94F31788F0E0
:102970009F5798F0B92F9927B751B0F0E1F0660F43
:10298000771F881F991F1AF0BA95C9F714C0B13084
:1029900091F00E940D18B1E008950C940D18672F66
:1029A000782F8827B85F39F0B93FCCF386957795B3
:1029B0006795B395D9F73EF490958095709561959C
:1029C0007F4F8F4F9F4F08950E94321708F48FEF6B
:1029D0000895CF93DF938230910510F482E090E068
:1029E000E091F301F091F40120E030E0C0E0D0E0AC
:1029F000309711F14081518148175907C0F04817AD
:102A0000590761F482819381209719F09B838A830F
:102A10002BC09093F4018093F30126C0211531055A
:102A200019F04217530718F49A01BE01DF01EF01B4
:102A30000280F381E02DDCCF2115310509F1281B3F
:102A4000390B2430310590F412968D919C91139797
:102A50006115710521F0FB019383828304C090937B
:102A6000F4018093F301FD01329644C0FD01E20FB1
:102A7000F31F81939193225031092D933C933AC0D7
:102A80002091F1013091F201232B41F420910701B3
:102A9000309108013093F2012093F101209105015A
:102AA000309106012115310541F42DB73EB7409113
:102AB000090150910A01241B350BE091F101F091BD
:102AC000F201E217F307A0F42E1B3F0B281739077A
:102AD00078F0AC014E5F5F4F2417350748F04E0F7A
:102AE0005F1F5093F2014093F1018193919302C0D3
:102AF000E0E0F0E0CF01DF91CF9108950F931F93B5
:102B0000CF93DF93009709F48CC0FC0132971382B6
:102B100012820091F3011091F4010115110581F465
:102B200020813181820F931F2091F1013091F201B8
:102B30002817390779F5F093F201E093F10171C09C
:102B4000D80140E050E0AE17BF0750F412962D9127
:102B50003C911397AD012115310509F1D901F3CF4E
:102B60009D01DA013383228360817181860F971F73
:102B70008217930769F4EC0128813981260F371FEA
:102B80002E5F3F4F318320838A819B819383828391
:102B9000452B29F4F093F401E093F30142C013961E
:102BA000FC93EE931297ED01499159919E01240FE8
:102BB000351FE217F30771F480819181840F951F0F
:102BC000029611969C938E938281938113969C9387
:102BD0008E931297E0E0F0E0D80112968D919C91CF
:102BE0001397009719F0F8018C01F6CF8D919C9105
:102BF00098012E5F3F4F820F931F2091F10130917A
:102C0000F2012817390769F4309729F41092F4017A
:102C10001092F30102C0138212821093F20100930A
:102C2000F101DF91CF911F910F910895A0E0B0E0E5
:102C3000ECE1F6E10C942E18EC01009721F4CB01A5
:102C40000E94E914B8C0FC01E60FF71F9C01225056
:102C50003109E217F30708F4ACC0D9010D911C91BA
:102C6000119706171707B0F00530110508F49FC03B
:102C7000C80104978617970708F499C002501109F4
:102C8000061B170B019311936D937C93CF010E9448
:102C90007E158DC05B01A01AB10A4C01800E911EF9
:102CA000A091F301B091F40140E050E0E12CF12C4F
:102CB000109709F44AC0A815B905D1F56D907C901C
:102CC0001197630182E0C80ED11CCA14DB0480F1A5
:102CD000A3014A195B096A0182E0C80ED11C129651
:102CE000BC9012971396AC91B5E0CB16D10440F08E
:102CF000B282A38351834083D9016D937C930AC030
:102D00000E5F1F4FC301800F911FF90191838083D4
:102D1000EB2DFA2FE114F10431F0D7011396FC9357
:102D2000EE93129744C0F093F401E093F3013FC097
:102D30008D919C9111974817590708F4AC017D01BA
:102D400012960D90BC91A02DB3CF8091F10190917E
:102D5000F20188159905E1F446175707C8F48091E8
:102D6000050190910601009741F48DB79EB74091FF
:102D7000090150910A01841B950BE817F907C8F463
:102D8000F093F201E093F101F901718360830FC0C8
:102D9000CB010E94E9147C01009759F0A801BE0103
:102DA0000E94E016CE010E947E15C70104C0CE012C
:102DB00002C080E090E0CDB7DEB7EEE00C944A1898
:102DC000FB01DC0102C001900D9241505040D8F748
:102DD0000895FB01DC0101900D920020E1F70895B8
:102DE0000E94321708F481E00895E89409C097FB27
:102DF0003EF490958095709561957F4F8F4F9F4FD2
:102E00009923A9F0F92F96E9BB279395F695879515
:102E100077956795B795F111F8CFFAF4BB0F11F4D8
:102E200060FF1BC06F5F7F4F8F4F9F4F16C088237F
:102E300011F096E911C0772321F09EE8872F762FB5
:102E400005C0662371F096E8862F70E060E02AF0F6
:102E50009A95660F771F881FDAF7880F96958795E2
:102E600097F90895990F0008550FAA0BE0E8FEEFB7
:102E700016161706E807F907C0F012161306E4073E
:102E8000F50798F0621B730B840B950B39F40A2637
:102E900061F0232B242B252B21F408950A2609F415
:102EA000A140A6958FEF811D811D08950E9469178D
:102EB0000C94DA170E94CC1738F00E94D31720F038
:102EC000952311F00C94C3170C94C91711240C947A
:102ED0000E180E94EB1770F3959FC1F3950F50E009
:102EE000551F629FF001729FBB27F00DB11D639FBC
:102EF000AA27F00DB11DAA1F649F6627B00DA11D62
:102F0000661F829F2227B00DA11D621F739FB00D07
:102F1000A11D621F839FA00D611D221F749F332777
:102F2000A00D611D231F849F600D211D822F762F10
:102F30006A2F11249F5750409AF0F1F088234AF0ED
:102F4000EE0FFF1FBB1F661F771F881F9150504059
:102F5000A9F79E3F510580F00C94C3170C940E18EE
:102F60005F3FE4F3983ED4F3869577956795B795E0
:102F7000F795E7959F5FC1F7FE2B880F911D9695FA
:102F8000879597F9089597F99F6780E870E060E06A
:102F900008959FEF80EC089500240A9416161706F2
:102FA00018060906089500240A941216130614063A
:102FB00005060895092E0394000C11F4882352F09D
:102FC000BB0F40F4BF2B11F460FF04C06F5F7F4F55
:102FD0008F4F9F4F089557FD9058440F551F59F03C
:102FE0005F3F71F04795880F97FB991F61F09F3FF6
:102FF00079F087950895121613061406551FF2CF1F
:103000004695F1DF08C0161617061806991FF1CF6E
:1030100086957105610508940895E894BB27662795
:103020007727CB0197F90895F999FECF92BD81BD1D
:10303000F89A992780B50895262FF999FECF1FBADF
:1030400092BD81BD20BD0FB6F894FA9AF99A0FBED1
:10305000019608952F923F924F925F926F927F92C6
:103060008F929F92AF92BF92CF92DF92EF92FF9298
:103070000F931F93CF93DF93CDB7DEB7CA1BDB0B44
:103080000FB6F894DEBF0FBECDBF09942A883988E9
:1030900048885F846E847D848C849B84AA84B984F0
:1030A000C884DF80EE80FD800C811B81AA81B981FC
:1030B000CE0FD11D0FB6F894DEBF0FBECDBFED0110
:1030C000089510E0C1EFD0E004C0FE010E94BC13DF
:0C30D0002196C23FD107C9F7F894FFCF4A
:1030DC0079017901010000F50180005E00BC0077E8
:0230EC000100E1
:00000001FF
