:100000000C94EA000C9422120C9449120C9487115F
:100010000C9487110C9412010C9412010C9412018F
:100020000C9412010C9412010C9412010C94120104
:100030000C9412010C9412010C9412010C941201F4
:100040000C9470120C9435020C9412010C94120151
:100050000C9412010C9412010C9412010C941201D4
:100060000C9412010C941201420C460C3E0C4A0CEA
:100070004E0C520C560C005EBCE2613FDD83C29C0C
:100080007E20A3FD1F419DC3217FFCA2401E5F0176
:10009000E3BD3E6082DC237D9FC1421CFEA0E1BF28
:1000A0005D0380DE3C62BEE0025CDF81633D7C225A
:1000B000C09E1D43A1FF4618FAA427799BC584DA88
:1000C0003866E5BB5907DB856739BAE40658194736
:1000D000A5FB7826C49A653BD987045AB8E6A7F9E8
:1000E0001B45C6987A24F8A6441A99C7257B3A641A
:1000F00086D85B05E7B98CD2306EEDB3510F4E1048
:10010000F2AC2F7193CD114FADF3702ECC92D38DF5
:100110006F31B2EC0E50AFF1134DCE90722C6D33A7
:10012000D18F0C52B0EE326C8ED0530DEFB1F0AED9
:100130004C1291CF2D73CA947628ABF51749085607
:10014000B4EA6937D58B5709EBB536688AD495CBB5
:100150002977F4AA4816E9B7550B88D6346A2B7567
:1001600097C94A14F6A8742AC896154BA9F7B6E899
:100170000A54D7896B350000000800020100000313
:100180000407000000000000000001020408102025
:100190004080010204081020010204081020040419
:1001A000040404040404020202020202030303031F
:1001B00003030000000023002600290000000000C7
:1001C000250028002B0000000000240027002A0042
:1001D000D102F50211241FBECFEFD8E0DEBFCDBFA4
:1001E00011E0A0E0B1E0E6E5F3E302C005900D9276
:1001F000AE30B107D9F722E0AEE0B1E001C01D9208
:10020000A231B207E1F711E0C2EDD1E004C02297BC
:10021000FE010E944C17C03DD107C9F70E9422156C
:100220000C949E190C94000091E09093BF01809370
:10023000BC01089508950895CF93DF93C2E5D1E0FE
:1002400088819981AA81BB8180934E0190934F014F
:10025000A0935001B09351010E94BA126883798330
:100260008A839B8381E080934C01DF91CF91089535
:100270001092BF011092BE0181E08093BD0182E225
:1002800091E00C94330682E291E00C9416048BE624
:1002900091E0892B41F485E691E00E9443148FEAB6
:1002A00091E00C9443148DE791E00E94431487E79A
:1002B00091E00E94431481E791E00E9443148BE691
:1002C00091E00E944314E7CF0F931F938091B701F1
:1002D000811117C00E94BA120091B8011091B901A2
:1002E0002091BA013091BB01601B710B820B930B03
:1002F00021E0693E73408105910508F420E0822FDA
:1003000001C080E01F910F91089581E08093B701B3
:1003100061E080E00E94D6130E94BA126093B80197
:100320007093B9018093BA019093BB0108950F9324
:100330001F938091B7018823B9F00E94BA120091EF
:10034000B8011091B9012091BA013091BB01601B35
:10035000710B820B930B21E06436710581059105C9
:1003600008F420E0822F01C080E01F910F910895D2
:100370001092B70160E080E00C94D6138091BC012C
:10038000882311F069E901C06BE98EE091E00C94DB
:10039000610C1092BD018FE891E00E940D0B882343
:1003A00011F06AE907C082E291E00E94AD0488235F
:1003B00029F06CE98EE091E00C94610C8091BF0112
:1003C00081110C94BE0181E08093BE01089560E02C
:1003D00083E10E949D1361E080E00E949D1360E034
:1003E00080E00E94D61386E591E00E94340A6EE018
:1003F00071E082E291E00E94FB026EE071E083E82E
:1004000091E00E94CB066EE071E08FE891E00E94DF
:10041000930A66E571E082E291E00E94F70266E5E8
:1004200071E08FE891E00E94970A66E571E083E849
:1004300091E00E94C7062FE831E043E851E062E214
:1004400071E08EE091E00E94A80B1092C00143E0A1
:1004500050E06CE171E081E00E94021241E050E066
:1004600063E471E080E00C9402121F920F920FB6C9
:100470000F9211242F933F934F935F936F937F932A
:100480008F939F93AF93BF93EF93FF938EE091E091
:100490000E94B00BFF91EF91BF91AF919F918F910F
:1004A0007F916F915F914F913F912F910F900FBE70
:1004B0000F901F9018958091C001811108C00E9473
:1004C000BA12643F71408105910508F04CC00E944A
:1004D000640181110E9485010E949701882301F126
:1004E00083E10E940C140197B9F48091B501811148
:1004F00015C08091B601833020F48F5F8093B601E0
:100500000DC06AEF8EE091E00E94610C1092B6017E
:1005100081E08093B50102C01092B5010E94B8013C
:100520008091BD0181110E94C9018091BE01882383
:1005300051F08091BF01882331F00E94BE011092DA
:10054000BF011092BE0182E291E00E94740683E82E
:1005500091E00E94A0078FE891E00E94530B8EE08B
:1005600091E00C94660C80910601882351F082E2A0
:1005700091E00E94E9048FE891E00E944D0B1092F7
:1005800006010E94BA12653C79408105910540F050
:100590008FE891E00E944D0B81E08093C0010895A7
:1005A00008956CE071E08FEA91E00E94B1148FE849
:1005B00091E00E94470A83E891E00E94B80686E530
:1005C00091E00E947C082BE131E04AE151E064E1D6
:1005D00071E082E291E00E94F90446E551E068E3AF
:1005E00071E08EE091E00C948A0B0C944701FC01C1
:1005F000718360830895FC0173836283089521E011
:10060000FC0126830895FC01828193810C94610C86
:100610008F929F92AF92BF92CF92DF92EF92FF9212
:10062000CF93DF93EC01F89468A979A98AA99BA9D3
:100630000E9431166B017C018CA49DA4AEA4BFA4C2
:10064000789420E030E0A9010E949915882309F4EC
:10065000D9C0C501B4010E9431164B015C0120E0F4
:1006600030E0A9010E949915882309F4CBC0A501A7
:100670009401C701B6010E9434159B01AC0160E0F2
:1006800070E68AE697E40E949D1569877A878B87D2
:100690009C87C984DA84EB84FC848B8D8823D9F110
:1006A000888581111BC0E881F98186858823B1F096
:1006B000648175816C5E7F4F80E090E00E9431160E
:1006C0009B01AC01C701B6010E94E316181634F471
:1006D00081E088876EEACE010E940303E881F981F8
:1006E0006481758180E090E00E9431169B01AC012D
:1006F000C701B6010E94E3169BA118162CF4943191
:1007000018F49F5F9BA307C0943128F01B8E6DEAFD
:10071000CE010E9403038C8D882391F0E881F9813A
:100720006281738180E090E00E9431169B01AC01F0
:10073000C701B6010E94991587FF02C01A8E1C8E50
:100740008C8D81111AC08BA58823B9F0E881F981BD
:100750006281738180E090E00E9431169B01AC01C0
:10076000C701B6010E94E31618160CF049C08A8D25
:10077000843108F03FC08F5F8A8F8BA58823B9F042
:10078000E881F9816681778180E090E00E943116EE
:100790009B01AC01C701B6010E949915181694F18E
:1007A0008F8981112FC081E08F8B6BEA16C08E89F3
:1007B000811128C0E881F9816481758180E090E031
:1007C0000E9431169B01AC01C701B6010E94E316DD
:1007D00087FD18C081E08E8B6AEACE01DF91CF9150
:1007E000FF90EF90DF90CF90BF90AF909F908F9051
:1007F0000C94030381E08C8F6CEACE010E9403030A
:100800001A8EBBCFDF91CF91FF90EF90DF90CF900A
:10081000BF90AF909F908F90089582E00E940C143B
:1008200021E0892B09F020E0822F0895CF93DF93F8
:10083000EC010E940D04882341F081E08D870E9425
:10084000BA126E877F87888B998BDF91CF9108953D
:1008500021E0DC015E962C935E979696ED91FC91DB
:1008600097970994DC015E961C925E979896ED919D
:10087000FC9199970994603311F40C9428040C941A
:100880003204FC0113A281E083A70190F081E02DE6
:1008900081830895FC0113A2138E13A6148E168A69
:1008A000178A10860190F081E02D118208958F92B1
:1008B0009F92AF92BF92CF92DF92EF92FF92CF932F
:1008C000DF93EC018AA581113DC0F894C8A8D9A88E
:1008D000EAA8FBA8789489849A84AB84BC840E949B
:1008E000BA12C114D104E104F10461F1AB01BC01FD
:1008F0004C195D096E097F09483B5B406105710534
:1009000008F120E030E0A901C501B4010E94991569
:100910008823C1F019861A861B861C868B8D81114F
:1009200004C06FEACE010E940303CE01DF91CF9194
:10093000FF90EF90DF90CF90BF90AF909F908F90FF
:100940000C944A04DF91CF91FF90EF90DF90CF900D
:10095000BF90AF909F908F900895FC0183A508955C
:10096000CF93DF93EC011D8681E08D8F0E94BA1238
:100970006F8F78A389A39AA3188E198E61E081E006
:10098000DF91CF910C94D61321E0FC0125830C94C8
:10099000B0041F93CF93DF93EC0111E01C8B0E94F6
:1009A000B0041B8FCE010E9441041E8ADF91CF91BB
:1009B0001F910895CF93DF93EC0181E08D8BCE01E1
:1009C0000E94B004CE010E944A041F8ADF91CF9199
:1009D000089521E0FC0127830C94B004FC01158EDE
:1009E0001586148A158A108E118E60E081E00C94B1
:1009F000D613CF93DF93EC017DA36CA35FA34EA32B
:100A000039A728A761E081E00E949D1360E082E0A1
:100A10000E949D1362E083E00E949D1360E081E0EC
:100A20000E94D6131A8E1C8ECE010E944A04CE015B
:100A30000E94EE041AA61E8E19861A861B861C8634
:100A40001CA61DA61EA61FA618AA19AA1AAA1BAA8A
:100A50001B8E18861C8A1D8A1F8A1E8A89E08A8B33
:100A600081E08B8B1D821E821C82DF91CF910895C5
:100A70000F931F93CF93DF931F92CDB7DEB78C01F7
:100A800069830E94EE04F801158282819381698155
:100A9000662311F063E901C062E90F90DF91CF9105
:100AA0001F910F910C94610C613471F018F4603453
:100AB00049F00895623421F0633441F40C94DA046F
:100AC0000C94C9040C94B0040C94EE0408958F9215
:100AD0009F92AF92BF92CF92DF92EF92FF921F93BD
:100AE000CF93DF93EC010E940D04182F1F82C9845D
:100AF000DA84EB84FC84E881F9816681778180E087
:100B000090E00E9431164B015C019B01AC01C701D2
:100B1000B6010E94E31618169CF4111111C0CE0103
:100B20000E94EE04CE01DF91CF911F91FF90EF90D4
:100B3000DF90CF90BF90AF909F908F900C94410426
:100B400020E030E0A901C701B6010E94E3161816A3
:100B5000DCF4A5019401C701B6010E94991587FF35
:100B600013C0112389F0CE010E94EE04CE01DF9163
:100B7000CF911F91FF90EF90DF90CF90BF90AF90FB
:100B80009F908F900C944A04DF91CF911F91FF901A
:100B9000EF90DF90CF90BF90AF909F908F9008958F
:100BA0000F931F93CF93DF93EC018D85882309F476
:100BB00055C08D8D882309F451C0CE010E940D04CB
:100BC0009C89992309F181111FC0888D811146C02C
:100BD0000E94BA124A890E851F8528893989601BAF
:100BE000710B820B930B24E6429F80011124222774
:100BF00017FD2095322F061717072807390770F5BC
:100C000081E0888F6AEC23C09D89992339F188237C
:100C100029F1898D811122C00E94BA124B890E855B
:100C20001F8528893989601B710B820B930B24E681
:100C3000429F80011124222717FD2095322F06178D
:100C400017072807390750F481E0898F6BECCE0134
:100C5000DF91CF911F910F910C940303DF91CF91FE
:100C60001F910F91089521E0FC0124830C94B0049E
:100C70000F931F93CF93DF931F92CDB7DEB78C01F5
:100C8000DC0114961C9269830E94EE04D8019496AC
:100C9000ED91FC9195976981862F0F90DF91CF910F
:100CA0001F910F9109940F931F93CF93DF93EC0142
:100CB0008D8D882399F00E94BA120F8D18A129A159
:100CC0003AA1601B710B820B930B21E06931710516
:100CD0008105910508F420E0822F01C080E0DF91BA
:100CE000CF911F910F910895CF93DF93EC018AA5C7
:100CF000882321F0CE010E9408031AA68D81882343
:100D000049F08D85811124C0CE010E9453068111C6
:100D10001FC00BC08C81882341F08D85811120C0BC
:100D2000CE010E94530681111BC08F81882341F0A0
:100D3000CE010E945306882319F0CE010E94670558
:100D4000CE010E94D005CE01DF91CF910C945704C3
:100D5000CE010E940D04682FCE010E943805E5CF18
:100D6000CE010E940D04682FCE010E943806DDCF0F
:100D7000CF93DF93EC0161E082E10E949D1319861D
:100D80001A861B861D821C82DF91CF910895FC017B
:100D9000738362830895FC0171836083089521E069
:100DA000FC0126830895FC01808191810C94610CE3
:100DB00061E082E10C94D61360E082E10C94D613DA
:100DC00021E0FC0125830C94D806CF93DF93EC013E
:100DD0001D821C820E94DC0619861A861B86DF9102
:100DE000CF91089521E0FC0124830C94E006CF927A
:100DF000DF92EF92FF92CF93DF93EC010E94D8062F
:100E000081E10E9457130E94BA126B017C010E947B
:100E1000BA126C197D098E099F096230710581052E
:100E20009105A8F381E10E9457137C01CE010E9435
:100E3000DC06C701DF91CF91FF90EF90DF90CF905C
:100E40000895CF93DF93EC010E94F70698878F8374
:100E5000CE01DF91CF910C94E006613559F018F482
:100E6000603531F00895623539F0633539F0089511
:100E70000C94E0060C94E5060C9421070C94F20601
:100E8000CF93DF93EC010E94F706EA81FB81208576
:100E900031852817390790F4228533858217930707
:100EA00078F42D81222371F02C81222359F02F8197
:100EB00038852817390730F08DE905C084E903C06B
:100EC00085E901C086E9DF91CF910895CF93DF9343
:100ED000EC011E820E944007682F88819981DF9172
:100EE000CF910C94610CCF93DF93EC018D8188231B
:100EF00021F1CE010E9440078639F9F0843939F496
:100F00008A8581111AC081E08A876BED11C08D3905
:100F100039F48B85811111C081E08B876CED08C09D
:100F2000853959F48985811108C081E089876AED86
:100F3000CE01DF91CF910C94D306DF91CF9108952C
:100F4000CF93DF93EC018D81811103C08C818823C5
:100F500019F0CE010E9473078E81882329F0CE01FB
:100F6000DF91CF910C946607DF91CF9108950F9395
:100F70001F93CF93DF938C01EB010E94511988835B
:100F8000C80101960E9451198983CE01DF91CF914A
:100F90001F910F910895EF92FF920F931F93CF939C
:100FA000DF931F92CDB7DEB77C01FC010081118178
:100FB000C80169830E9451196981681719F0C80135
:100FC0000E945919C7010F90DF91CF911F910F9186
:100FD000FF90EF900895EF92FF920F931F93CF939E
:100FE000DF9300D0CDB7DEB77C018B01FB016081C0
:100FF0009A838983CE0101960E94CB07F801618113
:10100000FFEFEF1AFF0AFA82E982CE0101960E94F1
:10101000CB07C8010F900F90DF91CF911F910F91D7
:10102000FF90EF9008950F931F93CF93DF9300D01D
:10103000CDB7DEB78B01FB0160819A838983CE0136
:1010400001960E94CB07C8010F900F90DF91CF91BE
:101050001F910F910895FC0173836283BC016E5F41
:101060007F4F80E090E00C94EB07FC017583648374
:10107000BC016C5F7F4F80E590E00C94EB07FC01B6
:1010800077836683BC016A5F7F4F84E590E00C94B0
:10109000EB07FC0171876087BC01685F7F4F82E6C8
:1010A00090E00C94EB07FC0173876287BC01665FDC
:1010B0007F4F8EE590E00C94EB070F931F93CF9337
:1010C000DF9300D0CDB7DEB78C017A836983BE0190
:1010D0006F5F7F4F8AE590E00E94EB07B801645F85
:1010E0007F4F8AE590E00E94B7070F900F90DF9145
:1010F000CF911F910F910895EF92FF920F931F933D
:10110000CF93DF93EC016CE071E00F960E94B11475
:101110008E010B5E1F4F7E018DE2E80EF11C6CE02C
:1011200071E0C8010E94B1140A5F1F4F0E151F0520
:10113000B1F71882DF91CF911F910F91FF90EF903F
:101140000895CF93DF93EC01BC016E5F7F4F80E089
:1011500090E00E94B707BE016C5F7F4F80E590E092
:101160000E94B707BE016A5F7F4F84E590E00E944E
:10117000B7078A819B81019629F46CEB72E0CE015E
:101180000E942B088C819D81019629F460EA70E011
:10119000CE010E9435088E819F81019639F462E864
:1011A00070E0CE01DF91CF910C943F08DF91CF9199
:1011B0000895CF93DF93EC01BC01645F7F4F8AE514
:1011C00090E00E94B7078C859D85019639F462E313
:1011D00070E0CE01DF91CF910C945D08DF91CF914B
:1011E0000895CF93DF93EC01BC01685F7F4F82E6E7
:1011F00090E00E94B707BE01665F7F4F8EE590E0EA
:101200000E94B70788859985019629F461E470E00A
:10121000CE010E9449088A859B85019639F46CE5C8
:1012200071E0CE01DF91CF910C945308DF91CF9103
:1012300008950F931F93CF93DF938C01FC011082CD
:101240006CE071E00F960E940915C0E0D0E00B5EE3
:101250001F4F6CE071E0C8018C0F9D1F0E940915A3
:101260002696C831D105A9F7DF91CF911F910F9133
:101270000895FC016687BC01625F7F4F86E690E0BF
:101280000C941308CF93DF93EC0186E690E00E9464
:1012900051198E878F3F31F461E0CE01DF91CF91FC
:1012A0000C943909DF91CF910895CF92DF92EF929C
:1012B000FF920F931F93CF93DF937B018A01690104
:1012C000611584E0780728F52115310511F12130E9
:1012D000310519F4FA01108225C0CB010E94511981
:1012E000F8018083C1E0D0E08823E1F0CC15DD0572
:1012F00094F4FFEFEF1AFF0AE11484E0F80659F0C6
:10130000C7010E945119F801EC0FFD1F808321963F
:10131000EBCF80E008C01C161D0624F4C00FD11FBF
:101320002197188281E0DF91CF911F910F91FF905B
:10133000EF90DF90CF900895CF92DF92EF92FF92DF
:101340000F931F93CF93DF93CDB7DEB78C01CB0103
:10135000BA01CDB6DEB62F5F3F4F4DB75EB7421B29
:10136000530B0FB6F8945EBF0FBE4DBF4F5F5F4F7C
:101370007A010E945509B701C8010E94B114C80141
:101380000FB6F894DEBE0FBECDBEDF91CF911F9198
:101390000F91FF90EF90DF90CF900895EF92FF9222
:1013A0000F931F93CF93DF9300D000D000D0CDB721
:1013B000DEB78C0184E090E00E945119F80180832F
:1013C00081508E3F08F040C02BE030E048E050E014
:1013D000B801CE0101960E949C09BE016F5F7F4F4C
:1013E000C8010F960E94FD14CE0101960E9443147D
:1013F000FF24F39496E0E92EF8018081F81638F581
:10140000FBE0FF9EA0011124485F5F4F2AE030E01F
:10141000B801CE0101960E949C092F2D30E0215089
:101420003109E29EC001E39E900D11244596BE0154
:101430006F5F7F4F800F911F0E94FD14CE010196B8
:101440000E944314F394D8CFC8010E94190926962C
:101450000FB6F894DEBF0FBECDBFDF91CF911F91C5
:101460000F91FF90EF900895CF93DF93EC010E94CE
:101470004209CE010E94A108CE010E94D908CE01E6
:101480000E94F108CE01DF91CF910C94CE090F9309
:101490001F93CF93DF93EC011E821F82188619865B
:1014A0001A861B861C861D861E868EE090E00E9492
:1014B00031158C0164E00E94BB0D188B0F8783E10E
:1014C00090E00E9431158C016F8578890E94830E0F
:1014D0001A8B098BC8010E94B30F1D821C82898957
:1014E0009A890E94920E811102C01F8E0AC081E06B
:1014F0008F8F40E0BE016D5E7F4F89899A890E947F
:10150000A40E60E089899A890E941B101B8E1C8E94
:101510001D8E1E8EDF91CF911F910F91089521E0B6
:10152000FC0124830895FC01718360830895FC010C
:101530007383628308950F931F93CF93DF93EC011E
:101540008F8D8823B1F08E85811113C00E94BA124D
:101550000E811F8128853985601B710B820B930BCF
:1015600021E0603375478105910508F420E0822F62
:1015700001C080E0DF91CF911F910F910895CF932B
:10158000DF93EC0189899A890E9488100E94BA121F
:101590006A877B878C879D8781E08E87DF91CF91DB
:1015A00008950F931F93CF93DF93EC018F8D8823C2
:1015B000B1F08E85882399F00E94BA120A851B85A6
:1015C0002C853D85601B710B820B930B21E06C3DDC
:1015D00075408105910508F420E0822F01C080E06C
:1015E000DF91CF911F910F910895CF93DF93EC017D
:1015F000BC016D5E7F4F89899A890E9457116B8F5C
:101600007C8F8D8F9E8F0E94BA126E837F83888716
:1016100099871E86DF91CF9108951F93CF93DF9313
:10162000EC011F8D1123A9F0EA81FB81648575858A
:1016300080E090E00E9431169B01AC016B8D7C8DA7
:101640008D8D9E8D0E94E316181624F01D8210E0E9
:1016500001C011E0812FDF91CF911F910895CF93A9
:10166000DF93EC011C820E940D0B288139818823B5
:1016700011F061E901C060E9C901DF91CF910C94DB
:10168000610CFC018581811107C081E085836AEBD3
:10169000808191810C94610C0895FC01278D2111AA
:1016A0000C94BF0A0895CF93DF93EC018F8D8111C5
:1016B00008C08C81882329F061E9888199810E9482
:1016C000610CCE010E949B0A81111DC08C81811189
:1016D0001AC0CE010E94D10A8823C9F0CE010E940F
:1016E000F50A8C81882329F0CE01DF91CF910C94EB
:1016F0002F0BCE010E940D0B882349F0CE01DF9104
:10170000CF910C94410BCE010E94BF0AE2CFDF9132
:10171000CF910895FC01718760875783468361E00C
:1017200087E00E949D138CB580648CBD61E08CE0E5
:101730000E949D13E8E6F0E0808181608083EBE603
:10174000F0E08081846080838CB580688CBD0895D2
:10175000FC0135832483538342837183608308951E
:10176000FC012EB5253601F1822F90E034E09595ED
:1017700087953A95E1F7873099F4DF011A9680E072
:1017800090E01EBC00000DB407FEFDCF3EB53D93BA
:10179000019684309105A9F7268781E0878708950F
:1017A00081E0808B8EB5818B60E087E00C94D6134E
:1017B000FC01108A818990E044E0959587954A95CF
:1017C000E1F784309105A1F11CF4039761F10895CC
:1017D0008530910591F10697A9F581898236C1F08E
:1017E00028F4803649F0813659F008958436A1F006
:1017F00058F08636A9F00895848195810C948F0A5B
:10180000808191810C94C404808191810C94FF02A9
:10181000828193810C94CF060084F185E02D099498
:1018200081E0828B08956189808191810C943B04D1
:101830006189808191810C945405618982819381B1
:101840000C942D070895CF93DF93EC011F866A85D2
:101850007B858C859D850E940516262F4E85842FBD
:1018600090E0AC01405751094730510538F54C5CC8
:101870005F4F8E819F81FA010C944A17DF91CF91BF
:101880000C942B08DF91CF910C943508DF91CF9108
:101890000C943F08DF91CF910C945D08DF91CF91BC
:1018A0000C945308DF91CF910C94490861E0211109
:1018B00001C060E0DF91CF910C943909DF91CF91A5
:1018C00008956EBD61E087E00C94D613CF93DF934B
:1018D000EC018A89882329F01A8A6EE9CE010E94D8
:1018E000610C8889882319F0CE010E94D80B8F855E
:1018F000882329F0CE01DF91CF910C94230CDF9146
:10190000CF910895FF920F931F93CF93DF93FC0124
:101910000081C181D281F8948981F02EF0948F21C9
:10192000898378941DE7115029F182E090E00E94AC
:10193000111388818023B9F3F8948A818F218A83D7
:101940008981802B8983789480EE91E00E94111325
:10195000F89489818F21898386E490E00E94111395
:101960008881802311E009F010E078948AE991E001
:101970000E941113812FDF91CF911F910F91FF9042
:1019800008951F93CF93DF93FC011081C181D28111
:10199000912F909560FF12C0F8948A8189238A83E1
:1019A0008981812B89838AE090E00E9411138A81CA
:1019B000812B8A83789487E390E011C0F8948A8120
:1019C00089238A838981812B898381E490E00E9425
:1019D00011138A81812B8A83789485E090E0DF91CE
:1019E000CF911F910C9411130F931F93CF93DF93FB
:1019F000FC011081C181D281F8948981812B898376
:101A00008A81012F009580238A8383E090E00E94E1
:101A100011138981802389838AE090E00E94111349
:101A2000C881789485E390E00E9411131C2381E023
:101A300009F480E0DF91CF911F910F910895CF922B
:101A4000DF92EF92FF920F931F93CF93DF931F923A
:101A5000CDB7DEB76C01E62E08E010E0FF24F3946A
:101A600061E09F2D9E2109F460E0C60149830E9438
:101A7000C10CFF0C0150110949810115110581F7B5
:101A8000411115C0F894D6011196ED91FC91129771
:101A900091818C918095892381831196ED91FC91A0
:101AA000129792818C9180958923828378940F90EC
:101AB000DF91CF911F910F91FF90EF90DF90CF902A
:101AC0000895EF92FF920F931F93CF93DF938C01B2
:101AD000C8E0D0E0F12CEE24E394C8010E94F40C9D
:101AE0008111FE28EE0C2197C1F78F2DDF91CF9148
:101AF0001F910F91FF90EF900895CF92DF92FF9288
:101B00000F931F93CF93DF931F92CDB7DEB78C0156
:101B1000F62E40E065E579830E941F0DCF2C798178
:101B2000D72E88E0F82EF60161916F0140E0C801E0
:101B30000E941F0DFA94B9F70F90DF91CF911F917A
:101B40000F91FF90DF90CF90089540E06CEC0C94E3
:101B50001F0DFC0113861586148627E030E0DF0197
:101B6000A20FB31F13961C922115310519F02150B5
:101B70003109F5CF08951F93CF93DF93EC01162F12
:101B800060E0812F0E949D13612F70E0FB01E657FA
:101B9000FE4FE491E883FB01E256FE4FE491F0E052
:101BA000EE0FFF1FEE54FE4F859194919A83898327
:101BB000CE01DF91CF911F910C94A90DAF92BF92EE
:101BC000CF92DF92EF92FF920F931F93CF93DF9309
:101BD0001F92CDB7DEB75C01E62ED72EFC018585BE
:101BE00081115DC0C5010E94820C811105C0F50103
:101BF0001386158614866EC040E060EFC5010E9412
:101C00001F0D01E0F12CC12C11E0C5010E94F40C64
:101C1000682FC50169830E94F40C6981613019F451
:101C20008130B9F433C02F2D30E068131BC0F501AB
:101C30008385181730F4E20FF31F8381802349F462
:101C400002C0181731F060E0193058F4F50114871C
:101C500008C0F501EF0DF11D8381802B838361E0C6
:101C600009C0C12EF501E20FF31F8381902F9095DB
:101C700089238383C5010E94C10C1F5F000F11F4EB
:101C8000F39401E0F7E0FF1508F0BFCF113438F00E
:101C9000F501C386C11018C081E0858715C0F50124
:101CA00013861586148680E0EE2DFD2D20E030E0B1
:101CB000D501A20FB31F13969C9191932F5F3F4FB5
:101CC00028303105A9F706C0F5018381882339F34F
:101CD00081E0EACF0F90DF91CF911F910F91FF909C
:101CE000EF90DF90CF90BF90AF900895DC0180E03F
:101CF000615038F0ED91E827F0E0EA58FF4F849109
:101D0000F7CF08950895FC0182E89EE0928B818BC5
:101D1000768365831482108289E0818381E08283E7
:101D200083830895FC0184810895CF93DF93EB01B1
:101D300067E0CE010E94760E91E02F81821390E041
:101D4000892FDF91CF910895EF92FF920F931F9308
:101D5000CF93DF93EC018B01E42E8D819E810E9455
:101D6000A90DF12CB8018D819E810E94DE0D882382
:101D700059F0FE1006C0B801CE010E94950E8111E7
:101D800004C0F394EF1470F780E0DF91CF911F91BE
:101D90000F91FF90EF900895EF92FF920F931F9392
:101DA000CF93DF9300D0CDB7DEB77C018A01FC0171
:101DB0008581968169837A830E94820C69817A8108
:101DC000F701858196810E947D0D40E06EEBF70161
:101DD000858196810E941F0DF701858196810E9461
:101DE000610DF8018083F701858196810E94610D64
:101DF000F8018183F701858196810E94610DF801C8
:101E00008283F701858196810E94610DF8018383A9
:101E1000F701858196810E94610DF8018483F701A5
:101E2000858196810E94610DF8018583F701858186
:101E300096810E94610DF8018683F7018581968164
:101E40000E94610DF8018783F701858196810E94C8
:101E5000610DF8018087F701858196810F900F90C1
:101E6000DF91CF911F910F91FF90EF900C94820C16
:101E7000CF93DF93EA010E94CC0E68E0CE010E946E
:101E8000760E91E02885821390E0892FDF91CF9123
:101E90000895EF92FF921F93CF93DF9300D0CDB7B9
:101EA000DEB77C01FC018581968169837A830E947B
:101EB000820C69817A81F701858196810E947D0D6E
:101EC00040E064EBF701858196810E941F0DF701C8
:101ED000858196810E94F40C182FF70185819681E7
:101EE0000E94820C81E0111180E00F900F90DF9131
:101EF000CF911F91FF90EF900895CF93DF93CDB7CF
:101F0000DEB729970FB6F894DEBF0FBECDBFFB0139
:101F100020812031F1F0AE014F5F5F4F0E94380FFA
:101F20008823A9F08D818F3349F018F48F3189F01F
:101F300007C08F3551F08F3731F002C08AE00AC0F8
:101F4000807F803F21F48CE005C08BE003C080E0FF
:101F500001C089E029960FB6F894DEBF0FBECDBF51
:101F6000DF91CF910895EF92FF920F931F93CF933C
:101F7000DF93CDB7DEB761970FB6F894DEBF0FBE23
:101F8000CDBF8C01FC01858196810E94A90DF801CD
:101F90001482FF24F394BE01665F7F4FF8018581B0
:101FA00096810E94DE0D8823C9F1BE01665F7F4FD6
:101FB000C8010E94950E882371F3F8018081811178
:101FC00008C0BE01665F7F4FC8010E94490F8111A2
:101FD00022C0AE014F5F5F4FBE01665F7F4FC801F9
:101FE0000E94CC0EF801E180BE01665F7F4FC80100
:101FF0000E947D0F8E1518F4F801818106C0BE0184
:10200000665F7F4FC8010E947D0FF8018183848144
:102010008F5F8483C0CFF801F082DBCF61960FB66B
:10202000F894DEBF0FBECDBFDF91CF911F910F910E
:10203000FF90EF900895FC0162830895CF93DF93A2
:10204000CDB7DEB729970FB6F894DEBF0FBECDBF70
:10205000AE014F5F5F4F0E94CC0E81E099819111DC
:1020600001C080E029960FB6F894DEBF0FBECDBF49
:10207000DF91CF910895CF92DF92EF92FF920F936D
:102080001F93CF93DF93EC018B01452BE1F08B8104
:102090008823C9F08881811116C00E94BA126B0191
:1020A0007C0160E070E0CE010E941E1081110BC027
:1020B0000E94BA126C197D098E099F096E3E72400A
:1020C0008105910570F3F80180818A3049F08B30E9
:1020D00061F0893079F46EE570E080E090E00EC048
:1020E0006CEB70E080E090E009C067E771E080E0B1
:1020F00090E004C06EEE72E080E090E0DF91CF915E
:102100001F910F91FF90EF90DF90CF900C94E91208
:10211000CF93DF93EC018D819E810E94820C8D8193
:102120009E810E94A50D488164E48D819E810E945C
:102130001F0D8A81882351F0BE016F5F7F4F40E001
:1021400050E0CE01DF91CF910C943B10DF91CF9105
:1021500008958F929F92AF92BF92CF92DF92EF92AB
:10216000FF921F93CF93DF93FB01EA01988189814E
:10217000692F70E0782B80818232E9F1A0F58031FF
:1021800009F085C01F8175956795882777FD809533
:10219000982F0E94331620E030E040E85EE30E9472
:1021A00034156B017C01612F70E08E81681B710911
:1021B000882777FD8095982F0E9433164B015C018C
:1021C000612F70E080E090E00E9431169B01AC012D
:1021D000C501B4010E949D159B01AC01C701B60168
:1021E0000E94351550C0883231F08B3309F04FC052
:1021F00090FD45C01BC08C818F3381F198F48F31E5
:1022000009F045C093E0759567959A95E1F78827A1
:1022100077FD8095982F0E94331620E030E040E053
:102220005FE32AC08F3569F08F3789F5882777FDFE
:102230008095982F0E94331620E030E040E85DE35F
:102240001BC075956795882777FD8095982F0E940C
:10225000331620E030E040E05EE30EC075956795F0
:1022600075956795882777FD8095982F0E9433167E
:1022700020E030E040E85EE30E94E71604C060E042
:1022800070E080EC9FE7562F472F382F292F652FBE
:10229000742F832F922FDF91CF911F91FF90EF909A
:1022A000DF90CF90BF90AF909F908F900895EF9266
:1022B000FF920F931F93CF93DF93CDB7DEB729978C
:1022C0000FB6F894DEBF0FBECDBF8C017B01AE010F
:1022D0004F5F5F4F0E94380F882341F0AE014F5F80
:1022E0005F4FB701C8010E94A91004C060E070E010
:1022F0008EEF92EC29960FB6F894DEBF0FBECDBFDD
:10230000DF91CF911F910F91FF90EF9008951F9251
:102310000F920FB60F9211242F933F934F935F9319
:102320006F937F938F939F93AF93BF93EF93FF939D
:10233000E0910302F0910402309709F451C0868DB8
:10234000A685B785958581FF04C08C91892329F4E2
:1023500047C08C91892309F043C0A389B4899C911B
:102360008589809589238C93868997890197F1F7D0
:10237000208D318DA685B785758558E040E0C9016F
:102380000197F1F7842F90E095958795482F6C91F0
:10239000672309F04068515091F7868D81FD409583
:1023A0008091C20190E001968F7399272091C1011D
:1023B000281749F0A091C201B0E0AD53BE4F4C9335
:1023C0008093C20103C0868D8160868F828D938D3C
:1023D0000197F1F7A389B4898C919589892B8C9306
:1023E000FF91EF91BF91AF919F918F917F916F91ED
:1023F0005F914F913F912F910F900FBE0F901F90C3
:10240000189508958230E8F4E82FF0E0EE0FFF1FF2
:10241000E95FFE4F71836083813041F080916900F4
:102420008C7F842B80936900E89A089580916900DD
:10243000440F551F440F551F837F842B80936900E1
:10244000E99A08951F920F920FB60F9211242F93BD
:102450003F934F935F936F937F938F939F93AF932C
:10246000BF93EF93FF93E0910701F0910801099565
:10247000FF91EF91BF91AF919F918F917F916F915C
:102480005F914F913F912F910F900FBE0F901F9032
:1024900018951F920F920FB60F9211242F933F930E
:1024A0004F935F936F937F938F939F93AF93BF935C
:1024B000EF93FF93E0910901F0910A010995FF91D3
:1024C000EF91BF91AF919F918F917F916F915F91AC
:1024D0004F913F912F910F900FBE0F901F90189525
:1024E0001F920F920FB60F9211242F933F938F9349
:1024F0009F93AF93BF938091060290910702A091A2
:102500000802B09109023091050223E0230F2D3714
:1025100020F40196A11DB11D05C026E8230F0296E7
:10252000A11DB11D2093050280930602909307021E
:10253000A0930802B093090280910A0290910B02C5
:10254000A0910C02B0910D020196A11DB11D8093C6
:102550000A0290930B02A0930C02B0930D02BF915C
:10256000AF919F918F913F912F910F900FBE0F9040
:102570001F9018952FB7F89460910602709107028A
:1025800080910802909109022FBF08953FB7F894F7
:1025900080910A0290910B02A0910C02B0910D0261
:1025A00026B5A89B05C02F3F19F00196A11DB11DAE
:1025B0003FBF6627782F892F9A2F620F711D811DCB
:1025C000911D42E0660F771F881F991F4A95D1F72A
:1025D0000895CF92DF92EF92FF92CF93DF936B013A
:1025E0007C010E94C612EB01C114D104E104F10484
:1025F00089F00E9433150E94C6126C1B7D0B683E49
:10260000734090F381E0C81AD108E108F108C8517D
:10261000DC4FEACFDF91CF91FF90EF90DF90CF902A
:1026200008958230910538F0880F991F880F991FFF
:1026300005970197F1F70895789484B5826084BD79
:1026400084B5816084BD85B5826085BD85B58160B6
:1026500085BDEEE6F0E0808181608083E1E8F0E016
:102660001082808182608083808181608083E0E845
:10267000F0E0808181608083E1EBF0E08081846024
:102680008083E0EBF0E0808181608083EAE7F0E026
:10269000808184608083808182608083808181608A
:1026A00080838081806880831092C10008958E307D
:1026B00008F08E50877020910B0190E4299F9001C3
:1026C0001124822B80937C0080917A008064809317
:1026D0007A0080917A0086FDFCCF8091780020916D
:1026E000790090E0922B0895833081F028F48130B6
:1026F00099F08230A1F008958730A9F08830B9F0C0
:102700008430D1F4809180008F7D03C0809180005F
:102710008F7780938000089584B58F7702C084B549
:102720008F7D84BD08958091B0008F7703C0809124
:10273000B0008F7D8093B0000895CF93DF9390E039
:10274000FC01E657FE4F2491FC01E256FE4F8491B6
:10275000882349F190E0880F991FFC01EA53FE4F4E
:10276000A591B49184549E4FFC01C591D4919FB71B
:10277000611108C0F8948C91209582238C938881F4
:1027800082230AC0623051F4F8948C91322F309534
:1027900083238C938881822B888304C0F8948C9146
:1027A000822B8C939FBFDF91CF9108950F931F933E
:1027B000CF93DF931F92CDB7DEB7282F30E0F9011A
:1027C000EA58FE4F8491F901E657FE4F1491F90142
:1027D000E256FE4F04910023C9F0882321F069835B
:1027E0000E9474136981E02FF0E0EE0FFF1FE454A4
:1027F000FE4FA591B4919FB7F8948C91611103C0DD
:102800001095812301C0812B8C939FBF0F90DF9186
:10281000CF911F910F910895CF93DF93282F30E030
:10282000F901EA58FE4F8491F901E657FE4FD49121
:10283000F901E256FE4FC491CC2391F081110E9420
:102840007413EC2FF0E0EE0FFF1FEE54FE4FA59136
:10285000B4912C912D2381E090E021F480E002C01E
:1028600080E090E0DF91CF91089580E090E0892BA7
:1028700049F080E090E0892B29F00E94000081114E
:102880000C9400000895FC01808191810C94E8175C
:10289000CF93DF93EC0188819981009711F00E941A
:1028A000E817198218821D821C821B821A82DF910E
:1028B000CF9108950F931F93CF93DF93EC018B017A
:1028C0006F5F7F4F888199810E947718009731F060
:1028D000998388831B830A8381E001C080E0DF91B4
:1028E000CF911F910F910895CF93DF93EC018881D1
:1028F0009981892B29F08A819B818617970760F43B
:10290000CE010E945A14882341F08C819D81892B2D
:1029100019F4E881F981108281E0DF91CF91089567
:10292000EF92FF920F931F93CF93DF93EC017B0104
:102930008A01BA010E947414811104C0CE010E9460
:10294000481407C01D830C83B701888199810E94B8
:102950004A19CE01DF91CF911F910F91FF90EF9017
:102960000895FC0111821082138212821582148252
:102970006115710559F0FB0101900020E9F7AF01E5
:1029800041505109461B570B0C94901408950F9316
:102990001F93CF93DF938C01EB01FC018081918128
:1029A000009799F0428153812C813D814217530752
:1029B00050F0688179810E944A198C819D81F801CB
:1029C0009583848313C00E94E81788819981F80158
:1029D000918380838A819B81938382838C819D8173
:1029E00095838483198218821B821A821D821C821D
:1029F000DF91CF911F910F910895CF93DF93EC0159
:102A00008617970711F00E94C714CE01DF91CF916E
:102A10000895CF93DF93EC016115710561F0FB011F
:102A200001900020E9F7AF0141505109461B570BB7
:102A30000E94901402C00E944814CE01DF91CF91F1
:102A4000089508950E941C130E9421150E94E70119
:102A5000C5E3D4E10E945B022097E1F30E943514A4
:102A6000F9CF0C94501708955058BB27AA270ED0C1
:102A700070C161D130F066D120F031F49F3F11F484
:102A80001EF456C10EF4E095E7FB4CC1E92F72D15C
:102A900080F3BA17620773078407950718F071F47B
:102AA0009EF58AC10EF4E0950B2EBA2FA02D0B01D6
:102AB000B90190010C01CA01A0011124FF27591B83
:102AC00099F0593F50F4503E68F11A16F040A22F89
:102AD000232F342F4427585FF3CF469537952795FA
:102AE000A795F0405395C9F77EF41F16BA0B620BF9
:102AF000730B840BBAF09150A1F0FF0FBB1F661F40
:102B0000771F881FC2F70EC0BA0F621F731F841F82
:102B100048F4879577956795B795F7959E3F08F0A8
:102B2000B3CF9395880F08F09927EE0F9795879567
:102B30000895D4D008F481E008950CD00AC102D1E0
:102B400040F0F9D030F021F45F3F19F0EBC05111A3
:102B500034C1EEC00FD198F39923C9F35523B1F3D3
:102B6000951B550BBB27AA2762177307840738F0FC
:102B70009F5F5F4F220F331F441FAA1FA9F333D05B
:102B80000E2E3AF0E0E830D091505040E695001C0F
:102B9000CAF729D0FE2F27D0660F771F881FBB1FCB
:102BA000261737074807AB07B0E809F0BB0B802DA5
:102BB000BF01FF2793585F4F2AF09E3F510568F0F1
:102BC000B1C0FBC05F3FECF3983EDCF38695779590
:102BD0006795B795F7959F5FC9F7880F911D9695F3
:102BE000879597F90895E1E0660F771F881FBB1F4F
:102BF000621773078407BA0720F0621B730B840BFC
:102C0000BA0BEE1F88F7E0950895BCD088F09F5767
:102C100090F0B92F9927B751A0F0D1F0660F771F28
:102C2000881F991F1AF0BA95C9F712C0B13081F008
:102C3000C3D0B1E00895C0C0672F782F8827B85F50
:102C400039F0B93FCCF3869577956795B395D9F769
:102C50003EF490958095709561957F4F8F4F9F4F73
:102C60000895E89409C097FB3EF49095809570957F
:102C700061957F4F8F4F9F4F9923A9F0F92F96E9C8
:102C8000BB279395F695879577956795B795F1113D
:102C9000F8CFFAF4BB0F11F460FF1BC06F5F7F4FDA
:102CA0008F4F9F4F16C0882311F096E911C07723EC
:102CB00021F09EE8872F762F05C0662371F096E8F5
:102CC000862F70E060E02AF09A95660F771F881FC4
:102CD000DAF7880F9695879597F90895990F000868
:102CE000550FAA0BE0E8FEEF16161706E807F907DE
:102CF000C0F012161306E407F50798F0621B730B79
:102D0000840B950B39F40A2661F0232B242B252BF9
:102D100021F408950A2609F4A140A6958FEF811D9C
:102D2000811D089597F99F6780E870E060E008953D
:102D30009FEF80EC089500240A94161617061806D3
:102D40000906089500240A941216130614060506AF
:102D50000895092E0394000C11F4882352F0BB0F40
:102D600040F4BF2B11F460FF04C06F5F7F4F8F4FA3
:102D70009F4F089557FD9058440F551F59F05F3FDE
:102D800071F04795880F97FB991F61F09F3F79F08D
:102D900087950895121613061406551FF2CF46950F
:102DA000F1DF08C0161617061806991FF1CF869591
:102DB0007105610508940895E894BB276627772775
:102DC000CB0197F908958ADF08F48FEF08950BD0AF
:102DD000C0CFB1DF28F0B6DF18F0952309F0A2CFFD
:102DE000A7CF1124EACFC6DFA0F3959FD1F3950FAB
:102DF00050E0551F629FF001729FBB27F00DB11D7F
:102E0000639FAA27F00DB11DAA1F649F6627B00D0E
:102E1000A11D661F829F2227B00DA11D621F739FF7
:102E2000B00DA11D621F839FA00D611D221F749F05
:102E30003327A00D611D231F849F600D211D822F4C
:102E4000762F6A2F11249F5750408AF0E1F0882393
:102E50004AF0EE0FFF1FBB1F661F771F881F9150A0
:102E60005040A9F79E3F510570F05CCFA6CF5F3F61
:102E7000ECF3983EDCF3869577956795B795F795D3
:102E8000E7959F5FC1F7FE2B880F911D969587955B
:102E900097F90895EE0FFF1F0590F491E02D099426
:102EA000CF93DF938230910510F482E090E0E091BF
:102EB0001002F091110220E030E0A0E0B0E0309785
:102EC00039F14081518148175907B8F0481759071F
:102ED00071F482819381109729F013969C938E93BD
:102EE00012972CC0909311028093100227C02115D5
:102EF000310531F04217530718F0A901DB0101C079
:102F0000EF019A01BD01DF010280F381E02DD7CFEF
:102F100021153105F9F0281B390B2430310580F4D7
:102F20008A819B816115710521F0FB019383828366
:102F300004C09093110280931002FE01329644C0A7
:102F4000FE01E20FF31F81939193225031093983DF
:102F500028833AC020910E0230910F02232B41F4B6
:102F6000209102013091030130930F0220930E0251
:102F700020910001309101012115310541F42DB757
:102F80003EB74091040150910501241B350BE0919F
:102F90000E02F0910F02E217F307A0F42E1B3F0B75
:102FA0002817390778F0AC014E5F5F4F24173507BB
:102FB00048F04E0F5F1F50930F0240930E02819313
:102FC000919302C0E0E0F0E0CF01DF91CF9108954E
:102FD000CF93DF93009709F487C0FC0132971382E7
:102FE0001282C0911002D0911102209781F42081A9
:102FF0003181280F391F80910E0290910F028217A4
:10300000930779F5F0930F02E0930E026DC0DE0195
:1030100020E030E0AE17BF0750F412964D915C915E
:1030200013979D014115510509F1DA01F3CFB383DF
:10303000A28340815181840F951F8A179B0771F4E9
:103040008D919C911197840F951F02969183808397
:1030500012968D919C91139793838283211531054C
:1030600029F4F0931102E09310023EC0D9011396A7
:10307000FC93EE9312974D915D91A40FB51FEA1743
:10308000FB0779F480819181840F951F0296D90105
:1030900011969C938E938281938113969C938E9329
:1030A0001297E0E0F0E08A819B81009719F0FE0121
:1030B000EC01F9CFCE01029628813981820F931F4E
:1030C00020910E0230910F022817390769F43097CA
:1030D00029F4109211021092100202C0138212827F
:1030E000D0930F02C0930E02DF91CF910895A0E01C
:1030F000B0E0EDE7F8E10C946B19EC01CB012097FF
:1031000019F40E945017B8C0FE01E60FF71F9E0188
:1031100022503109E217F30708F4ACC0D9010D9130
:103120001C91119706171707B8F00530110508F420
:103130009FC0A801445051094617570708F498C08A
:1031400002501109061B170B019311936D937C9389
:10315000CF010E94E8178CC05B01A01AB10A4E0192
:10316000800E911EA0911002B0911102612C712C61
:1031700060E070E0109709F449C0A815B905C9F5D9
:10318000ED90FC901197670142E0C40ED11CCA1467
:10319000DB0478F147018A189B08640142E0C40E01
:1031A000D11C1296BC9012971396AC91B5E0CB1639
:1031B000D10440F0B282A38391828082D9018D93A1
:1031C0009C9309C00E5F1F4F0E0D1F1DF901118347
:1031D0000083EB2DFA2F6115710531F0DB01139699
:1031E000FC93EE93129744C0F0931102E093100207
:1031F0003FC06D917C9111976616770608F43B01EC
:10320000BD0112960D90BC91A02DB4CF60910E021D
:1032100070910F0268157905E9F468167906D0F403
:1032200040910001509101014115510541F44DB704
:103230005EB76091040170910501461B570BE417BE
:10324000F507C0F4F0930F02E0930E02F9019183A9
:1032500080830EC00E9450177C01009759F0A8018E
:10326000BE010E944119CE010E94E817C70104C0A7
:10327000CE0102C080E090E0CDB7DEB7EEE00C9466
:103280008719FB01DC0102C001900D9241505040B2
:10329000D8F70895FB01DC0101900D920020E1F7C1
:1032A0000895F999FECF92BD81BDF89A992780B50E
:1032B0000895262FF999FECF1FBA92BD81BD20BD7A
:1032C0000FB6F894FA9AF99A0FBE019608952F92C4
:1032D0003F924F925F926F927F928F929F92AF92A6
:1032E000BF92CF92DF92EF92FF920F931F93CF93F3
:1032F000DF93CDB7DEB7CA1BDB0B0FB6F894DEBF8A
:103300000FBECDBF09942A88398848885F846E84AF
:103310007D848C849B84AA84B984C884DF80EE80F9
:10332000FD800C811B81AA81B981CE0FD11D0FB602
:10333000F894DEBF0FBECDBFED01089511E0C2EDE0
:10334000D1E004C0FE010E944C172296C43DD10773
:06335000C9F7F894FFCF5D
:0E3356000000120280000101120112010000AD
:00000001FF
