:100000000C94EA000C9445030C941E030C9412010A
:100010000C9412010C9412010C9412010C94120114
:100020000C9412010C9412010C9412010C94120104
:100030000C9412010C9412010C9412010C941201F4
:100040000C94D4020C946D060C9412010C941201C1
:100050000C9412010C9412010C9412010C941201D4
:100060000C9412010C941201580F610F4C0F6D0F7C
:100070007E0F890F950F005EBCE2613FDD83C29C5D
:100080007E20A3FD1F419DC3217FFCA2401E5F0176
:10009000E3BD3E6082DC237D9FC1421CFEA0E1BF28
:1000A0005D0380DE3C62BEE0025CDF81633D7C225A
:1000B000C09E1D43A1FF4618FAA427799BC584DA88
:1000C0003866E5BB5907DB856739BAE40658194736
:1000D000A5FB7826C49A653BD987045AB8E6A7F9E8
:1000E0001B45C6987A24F8A6441A99C7257B3A641A
:1000F00086D85B05E7B98CD2306EEDB3510F4E1048
:10010000F2AC2F7193CD114FADF3702ECC92D38DF5
:100110006F31B2EC0E50AFF1134DCE90722C6D33A7
:10012000D18F0C52B0EE326C8ED0530DEFB1F0AED9
:100130004C1291CF2D73CA947628ABF51749085607
:10014000B4EA6937D58B5709EBB536688AD495CBB5
:100150002977F4AA4816E9B7550B88D6346A2B7567
:1001600097C94A14F6A8742AC896154BA9F7B6E899
:100170000A54D7896B3500000000240027002A00AC
:1001800000000000250028002B00000000002300D4
:1001900026002900040404040404040402020202E8
:1001A000020203030303030301020408102040803A
:1001B00001020408102001020408102000000008B9
:1001C000000201000003040700000000000000001E
:1001D000C110A11011241FBECFEFD8E0DEBFCDBFEC
:1001E00011E0A0E0B1E0EEEFFEE202C005900D925A
:1001F000A231B107D9F721E0A2E1B1E001C01D921F
:10020000AF3EB207E1F710E0C9EED0E004C021979D
:10021000FE010E94CD12C83ED107C9F70E941C08FA
:100220000C9472170C940000089580E090E0892BE4
:1002300049F080E090E0892B29F00E9400008111B4
:100240000C9400000895833081F028F4813099F0F7
:100250008230A1F008958730A9F08830B9F0843059
:10026000D1F4809180008F7D03C0809180008F77D2
:1002700080938000089584B58F7702C084B58F7D08
:1002800084BD08958091B0008F7703C08091B00045
:100290008F7D8093B00008953FB7F8948091570107
:1002A00090915801A0915901B0915A0126B5A89B8F
:1002B00005C02F3F19F00196A11DB11D3FBFBA2FF8
:1002C000A92F982F8827820F911DA11DB11DBC0158
:1002D000CD0142E0660F771F881F991F4A95D1F71D
:1002E00008950895089591E09093120180934B0131
:1002F0000895089508950F931F93CF93DF938C0172
:10030000EB01FC01808191810097B1F068817981D6
:100310006115710579F0428153812C813D8142172D
:10032000530740F00E94FA158C819D81F801958356
:10033000848313C00E948F1488819981F80191836E
:1003400080838A819B81938382838C819D81958325
:100350008483198218821B821A821D821C82DF917B
:10036000CF911F910F910895EF92FF920F931F93DA
:10037000CF93DF93EC017B018A01888199810097FB
:1003800029F02A813B8124173507F8F4B8016F5F03
:100390007F4F0E942715009759F0998388831B830C
:1003A0000A832C813D81232B81F4FC0110820DC036
:1003B00088819981009711F00E948F141982188208
:1003C0001D821C821B821A8207C01D830C83B70109
:1003D000888199810E94FA15CE01DF91CF911F91FA
:1003E0000F91FF90EF900895FC011182108213820B
:1003F0001282158214826115710551F0FB01019082
:100400000020E9F73197AF01461B570B0C94B4015C
:100410000895CF93DF93282F30E0F901E454FE4F85
:100420008491F901E855FE4FD491F901EC56FE4F45
:10043000C491CC2391F081110E942301EC2FF0E0B4
:10044000EE0FFF1FE657FE4FA591B491EC91ED23FF
:1004500081E090E021F480E002C080E090E0DF9154
:10046000CF9108951F93CF93DF93282F30E0F901A8
:10047000E454FE4F8491F901E855FE4FD491F901FF
:10048000EC56FE4FC491CC23C9F0162F81110E9467
:100490002301EC2FF0E0EE0FFF1FE058FE4FA59177
:1004A000B4918FB7F894111105C09C91ED2FE09590
:1004B000E92302C0EC91ED2BEC938FBFDF91CF913C
:1004C0001F910895CF93DF9390E0FC01E855FE4F14
:1004D0002491FC01EC56FE4F8491882361F190E059
:1004E000880F991FFC01EA58FE4FC591D491FC0179
:1004F000E058FE4FA591B491611109C09FB7F894DF
:100500008881209582238883EC912E230BC0623052
:1005100061F49FB7F8943881822F80958323888374
:10052000EC912E2B2C939FBF06C08FB7F894E881D7
:100530002E2B28838FBFDF91CF9108952FB7F8948A
:100540006091530170915401809155019091560131
:100550002FBF089582E00E940902892B69F481E08F
:10056000809368010E949E026093690170936A0102
:1005700080936B0190936C010895CF93DF93CBE54B
:10058000D1E088AD99ADAAADBBAD8CAB9DABAEABA8
:10059000BFAB0E949E0268AF79AF8AAF9BAF81E08C
:1005A0008AABDF91CF9108951F920F920FB60F92F1
:1005B00011242F933F938F939F93AF93BF93809179
:1005C000530190915401A0915501B0915601309181
:1005D000520123E0230F2D3720F40196A11DB11DF8
:1005E00005C026E8230F0296A11DB11D20935201DC
:1005F0008093530190935401A0935501B0935601F9
:100600008091570190915801A0915901B0915A01E0
:100610000196A11DB11D8093570190935801A0939D
:100620005901B0935A01BF91AF919F918F913F9122
:100630002F910F900FBE0F901F9018951F920F9241
:100640000FB60F9211242F933F934F935F936F93A5
:100650007F938F939F93AF93BF93EF93FF93E0911B
:100660000201F09103010995FF91EF91BF91AF91C4
:100670009F918F917F916F915F914F913F912F91BA
:100680000F900FBE0F901F9018951F920F920FB6EC
:100690000F9211242F933F934F935F936F937F9308
:1006A0008F939F93AF93BF93EF93FF93E0910001DC
:1006B000F09101010995FF91EF91BF91AF919F9149
:1006C0008F917F916F915F914F913F912F910F90FB
:1006D0000FBE0F901F901895DC01E0E0615038F0DC
:1006E0008D91E827F0E0EA58FF4FE491F7CF8E2F85
:1006F0000895FC0190810180F281E02DF8948181C0
:10070000892B81832281892F809528232283A7E04A
:10071000B0E01197F1F7218182238183A3E2B0E059
:100720001197F1F780817894EFECF0E03197F1F7D1
:10073000982381E009F480E00895FC019081018014
:10074000F281E02D892F809560FF12C0F8942281FC
:10075000822382838181892B8183A3E2B0E0119778
:10076000F1F78281982B9283789487ED90E011C005
:10077000F8942281822382838181892B8183AFEF48
:10078000B0E01197F1F78281982B928378948FE0F3
:1007900090E00197F1F70895CF92DF92EF92FF92E8
:1007A0000F931F93CF93DF931F92CDB7DEB76C01EA
:1007B000E62E08E010E0FF24F39461E08F2D8E21F7
:1007C00009F460E0C60149830E949D03FF0C0150BB
:1007D000110949810115110581F7411115C0F894DE
:1007E000D6011196ED91FC91129791818C91809593
:1007F000892381831196ED91FC91129792818C91BE
:1008000080958923828378940F90DF91CF911F91F7
:100810000F91FF90EF90DF90CF900895CF92DF92ED
:10082000EF92FF920F931F93CF93DF931F92CDB759
:10083000DEB78C01F62E40E065E579830E94CC039B
:10084000CF2C7981D72E760188E0E80EF11CF601D5
:1008500061916F0140E0C8010E94CC03CE14DF0417
:10086000B1F70F90DF91CF911F910F91FF90EF9013
:10087000DF90CF900895FC0190810180F281E02DFE
:10088000F8948181292F20958223818378948DE7A4
:1008900043E050E0815021F1DA011197F1F7308106
:1008A0003923C1F3F8948281822382838181892B49
:1008B00081837894ABE7B7E01197F1F7F8948181E1
:1008C00028232183A3E1B1E01197F1F780819823D8
:1008D00081E009F080E07894E3E6F6E03197F1F703
:1008E00008958F929F92AF92BF92CF92DF92EF9234
:1008F000FF92CF93DF93EC018D819E810E943B0498
:1009000040E06CEC8D819E810E94CC03488164E4C0
:100910008D819E810E94CC038A818823C9F1E9815F
:10092000E950E33040F4F0E0EE0FFF1FE55FFE4FCB
:100930008081918102C08EEE92E06C01990FEE08E9
:10094000FF080E944C014B015C01C114D104E10479
:10095000F104F1F00E944C01DC01CB0188199909E6
:10096000AA09BB09883E9340A105B10570F321E0B7
:10097000C21AD108E108F10888EE880E83E0981EBB
:10098000A11CB11CC114D104E104F10419F7DDCF9D
:10099000DF91CF91FF90EF90DF90CF90BF90AF901D
:1009A0009F908F9008956F927F928F929F92AF92B7
:1009B000BF92CF92DF92EF92FF920F931F93CF934C
:1009C000DF9300D0CDB7DEB78C017A01FC018581C1
:1009D000968169837A830E943B0469817A818823A6
:1009E00091F1F801858196810E940E0440E06EEB42
:1009F000F801858196810E94CC0337015701F9E007
:100A0000AF0EB11CF8018580968088E0C82ED12CED
:100A1000EE24E394F12CC4010E9479038111FE2895
:100A2000EE0CF1E0CF1AD108B1F7F301F1923F01DA
:100A3000EA15FB0539F7F801858196810E943B0490
:100A400091E0813009F090E0892F0F900F90DF91B5
:100A5000CF911F910F91FF90EF90DF90CF90BF90BB
:100A6000AF909F908F907F906F900895CF93DF937A
:100A7000CDB7DEB729970FB6F894DEBF0FBECDBF56
:100A8000FB012081203119F1AE014F5F5F4F0E94C1
:100A9000D304882379F068E0CE0101960E946C03AC
:100AA0009985891307C008C0803458F08F3569F0E4
:100AB0008F3769F080E00CC08D818F33A9F78AE011
:100AC00007C08F31B9F789E003C08BE001C08CE02B
:100AD00029960FB6F894DEBF0FBECDBFDF91CF9140
:100AE0000895FC018085811107C06EBD61E087E03B
:100AF0000E94320281E0089580E008950F931F93D1
:100B0000CF93DF938C01EB010E9425178883C801E6
:100B100001960E9425178983CE01DF91CF911F9105
:100B20000F910895AF92BF92CF92DF92EF92FF9212
:100B30000F931F93CF93DF931F92CDB7DEB75C0166
:100B40007B018B016C0182E0C80ED11CF801619120
:100B50008F01C50169830E9425176981681719F003
:100B6000C5010E942D17FFEFAF1ABF0AAC14BD04D8
:100B700069F7C7010F90DF91CF911F910F91FF90FF
:100B8000EF90DF90CF90BF90AF900895CF92DF921B
:100B9000EF92FF920F931F93CF93DF937C018B0112
:100BA0006A010E942517F8018083C1E0D0E0882304
:100BB000C9F0CC15DD057CF4CE018E0D9F1D81158D
:100BC000F4E09F0744F40E942517F801EC0FFD1F85
:100BD00080832196ECCF1C161D0624F4C00FD11F74
:100BE0002197188281E0DF91CF911F910F91FF90A3
:100BF000EF90DF90CF900895CF93DF931F92CDB702
:100C0000DEB7FC01678786E690E069830E942517BE
:100C10006981681739F086E690E00F90DF91CF91F7
:100C20000C942D170F90DF91CF910895CF92DF9202
:100C3000EF92FF92CF93DF9361E082E10E94320254
:100C40000E9410070E949E026B017C010E949E027E
:100C5000DC01CB018C199D09AE09BF090297A105E2
:100C6000B105A0F30E941007EC0160E082E10E9450
:100C70003202CE01DF91CF91FF90EF90DF90CF90C5
:100C80000895FC01178E1586168A178A128E138E08
:100C900060E081E00C943202CF93DF93EC011D867B
:100CA00081E08F8F0E949E0269A37AA38BA39CA3ED
:100CB0001A8E1B8E61E081E0DF91CF910C9432029D
:100CC000109212011092130181E08093140180931D
:100CD0005F018BE591E00C944C061F920F920FB6CA
:100CE0000F9211242F933F934F935F936F937F93B2
:100CF0008F939F93AF93BF93EF93FF938EB58536FA
:100D000099F460E087E00E9432028091AD0188236F
:100D100091F18091AF01811104C081E08093AE0117
:100D20002AC01092AD0127C0282F30E094E03595FD
:100D300027959A95E1F72730310599F4E0ECF1E039
:100D40001EBC00000DB407FEFDCF9EB5919391E04F
:100D5000E43CF907A9F78093C40181E08093C501C1
:100D60000AC081E08093C6018EB58093C70160E020
:100D700087E00E943202FF91EF91BF91AF919F9166
:100D80008F917F916F915F914F913F912F910F9034
:100D90000FBE0F901F90189580914B01882311F082
:100DA00069E901C06BE985EA91E00C947105CF9384
:100DB000C091EA01CC23E1F0E091CC01F091CD01AA
:100DC0006585768580E090E00E9406169B01AC0167
:100DD0006091E6017091E7018091E8019091E9014D
:100DE0000E94F51318162CF01092CF01C0E001C03C
:100DF000C1E08C2FCF910895E091B80181E08E0F72
:100E00008093B801F0E0EB55FE4F91899EBD823092
:100E100018F081E08093AF0161E087E00C9432022A
:100E200083E480937C0080917A00806480937A00D0
:100E300080917A0086FDFCCF809178002091790026
:100E400090E0922B089587E991E00E941606E091C8
:100E50009901F0919A012185328528173907B0F45C
:100E6000238534858217930798F420919C012223CF
:100E700089F020919B01222369F020919E013091FD
:100E80009F018217930730F08DE9089584E9089552
:100E900085E9089586E90895CF93DF93C7E9D1E006
:100EA0008987682F888199810E94710591E089273F
:100EB0008A87DF91CF910895CF93DF93CBE5D1E07F
:100EC0008C8B682F8A819B810E94710591E0892714
:100ED0008D8BDF91CF9108950F931F9380917A01AD
:100EE0008823B9F00E949E0200917C0110917D013F
:100EF00020917E0130917F01AB01BC01401B510B61
:100F0000620B730B81E0493151056105710508F4ED
:100F100080E01F910F910895AF92BF92CF92DF9220
:100F2000EF92FF920F931F93CF93DF931F92CDB752
:100F3000DEB75C01D62EE72EFC018585811105C048
:100F4000C5010E943B04811106C0F5011386158678
:100F5000148680E065C040E060EFC5010E94CC03CC
:100F600001E0F12CC12C11E0C5010E947903682F2A
:100F7000C50169830E9479036981613019F4813068
:100F8000B9F433C04F2D50E068131BC0F5018385C1
:100F9000181730F4E40FF51F8381802349F402C051
:100FA000181731F060E0193058F4F501148708C0C3
:100FB000F501EF0DF11D8381802B838361E009C072
:100FC000C12EF501E40FF51F9381802F80958923B1
:100FD0008383C5010E949D031F5F000F11F4F394EA
:100FE00001E0F7E0FF1508F0BFCF113408F4ADCFF2
:100FF000F501C386C11002C081E08587F5018381B8
:10100000882309F4A2CFD5011396ED2DFE2D95016D
:10101000255F3F4F8D918193A217B307D9F781E0E8
:101020000F90DF91CF911F910F91FF90EF90DF9084
:10103000CF90BF90AF900895CF93DF93CDB7DEB739
:1010400064970FB6F894DEBF0FBECDBF789484B519
:10105000826084BD84B5816084BD85B5826085BDB4
:1010600085B5816085BD80916E00816080936E0042
:101070001092810080918100826080938100809134
:1010800081008160809381008091800081608093E5
:1010900080008091B10084608093B1008091B000A5
:1010A00081608093B00080917A00846080937A00A0
:1010B00080917A00826080937A0080917A008160CA
:1010C00080937A0080917A00806880937A001092F1
:1010D000C10060E083E10E94620261E080E00E9462
:1010E000620260E080E00E94320286E690E00E94A8
:1010F0002517809324018F3F29F461E085E191E079
:101100000E94FC0568E171E080E090E00E947E05AD
:101110006AE171E080E590E00E947E056CE171E09B
:1011200084E590E00E947E0580911801909119015C
:10113000019661F48AE991E0909319018093180176
:1011400068E171E080E090E00E94920580911A01D0
:1011500090911B01019661F480EA90E090931B014D
:1011600080931A016AE171E080E590E00E949205A7
:1011700080911C0190911D01019661F482E890E03C
:1011800090931D0180931C016CE171E084E590E077
:101190000E94920562E271E08AE590E00E947E057D
:1011A0008091220190912301019689F482E390E0DD
:1011B0009C8B8B8BBE016D5E7F4F8AE590E00E9419
:1011C000920562E271E08AE590E00E947E056EE1A0
:1011D00071E082E690E00E947E0560E271E08EE5BB
:1011E00090E00E947E0580911E0190911F01019662
:1011F00061F482E390E090931F0180931E016EE101
:1012000071E082E690E00E94920580912001909129
:101210002101019661F480E991E09093210180938E
:10122000200160E271E08EE590E00E94920584E08A
:1012300090E00E9425178093150181508E3F08F0A1
:1012400055C04CE050E0BE016F5F7F4F88E090E0FA
:101250000E94C605BE016F5F7F4FCE010D960E94B2
:10126000F401BE01635F7F4F85E291E00E947B0144
:101270008D859E850E948F1411E006E080911501F6
:10128000181708F04DC0E12EF12CEBE01E9FC001B5
:10129000112408968115F4E09F073CF44BE050E0E0
:1012A000BE016F5F7F4F0E94C605BE016F5F7F4F1B
:1012B000CE010D960E94F4010FB6F894DEBF0FBE6A
:1012C000CDBF21E0E21AF1080E9DC0010F9D900DE7
:1012D0001124BE01635F7F4F855D9E4F0E947B019D
:1012E0008D859E850E948F141F5FC8CF10921501B7
:1012F00040E050E061E171E085E291E00E94B401DC
:1013000000E010E040E050E061E171E0C801855D7F
:101310009E4F0E94B4010A5F1F4F0831110591F7DB
:1013200085EA91E090935E0180935D01909398012E
:10133000809397019093CB018093CA0185E191E05E
:1013400090935C0180935B019093CD018093CC01DD
:1013500090939A01809399018AEC91E09093AA016D
:101360008093A90187E991E09093A8018093A70158
:101370008BE591E09093A6018093A50110924A011C
:101380008DEB92E0909303018093020180916900BC
:101390008C6080936900E99A8AEA92E09093010157
:1013A00080930001809169008C7F81608093690047
:1013B000E89A11E009C00E949E02643F71408105D5
:1013C000910538F40E94150180914A01811148C0AD
:1013D000F2CF809104018823F1F0109362018BE534
:1013E00091E00E944C068091EA01882391F080915F
:1013F000DC019091DD010E9471040E949E026093C5
:10140000D5017093D6018093D7019093D8011093A2
:10141000D901109204010E949E02653C7940810529
:10142000910580F28091EA01882391F08091DC019E
:101430009091DD010E9471040E949E026093D5018B
:101440007093D6018093D7019093D8011093D9015E
:1014500010934A016EE985EA91E00E947105B2CFCE
:1014600080911701882309F4CFC38091470181112E
:1014700016C00E949E02C0904301D0904401E090AB
:101480004501F0904601DC01CB018C199D09AE09A4
:10149000BF09893E9340A105B10508F0A2C580911E
:1014A0004701882331F10E949E02C0904301D090F1
:1014B0004401E0904501F0904601DC01CB018C191C
:1014C0009D09AE09BF0984369105A105B10588F0D3
:1014D00083E10E940902019709F0A9C580914901A1
:1014E000882309F48FC51092470160E080E00E94D4
:1014F0003202809114018823D9F0109214010E94C5
:10150000D706882311F06AE905C080918E018823EF
:1015100031F06CE985EA91E00E94710509C0809183
:101520001201882319F00E94CC0602C01093130107
:1015300080911301882351F080911201882331F0AA
:101540000E94CC061092120110921301809170013A
:10155000882359F060916F0180915D0190915E0147
:101560000E94710581278093700180918D018823ED
:1015700009F403C1F89460919301709194018091F2
:101580009501909196010E9406166B017C01809056
:101590008F0190909001A0909101B0909201789469
:1015A00020E030E0A9010E940116882309F4E3C07D
:1015B000C501B4010E9406164B015C0120E030E039
:1015C000A9010E940116882309F4D5C0A501940140
:1015D000C701B6010E940116882309F4CCC0A501F9
:1015E0009401C701B6010E94E7129B01AC0160E0C3
:1015F00070E68AE697E40E94541360936401709346
:101600006501809366019093670180917B01811150
:1016100010C06091640170916501809166019091A4
:1016200067010E94C6137B018091780181111FC060
:101630004CC00E949E02C0908001D0908101E09039
:101640008201F0908301AB01BC014C195D096E0968
:101650007F098091840190918501092E000CAA0BCD
:10166000BB0B481759076A077B0798F684C080911F
:101670006301811112C0E0915B01F0915C018785EB
:10168000882359F08581968144968E159F0528F40C
:10169000109363018EEA0E945C07E0915B01F09178
:1016A0005C0125813681809186012E153F0530F43D
:1016B0008A3F20F48F5F8093860107C08A3F28F01D
:1016C000109278018DEA0E945C078091790188234D
:1016D00069F0E0915B01F0915C0183819481E816EF
:1016E000F90620F4109277011092790180918E0111
:1016F000882379F1E0915B01F0915C01878190850D
:101700008E159F0548F080917401811105C01093DA
:1017100074018BEA0E945C078091790181112BC0D2
:10172000E0915B01F0915C01838194818E159F05AE
:1017300068F4809177018A3F20F48F5F809377016E
:101740001AC0109379018CEA0E945C07109277010D
:1017500012C08091730181110EC0E0915B01F09184
:101760005C0185819681E816F90628F010937301D3
:101770008AEA0E945C0710928D01809160018823A3
:1017800049F080916801811155C40E946C07811154
:1017900051C40CC080915F01882341F080916801A1
:1017A00081115EC40E946C0781115AC4809162014C
:1017B000882309F464C00E946C07882309F45FC081
:1017C00082E00E94090201E0892B09F000E01092FA
:1017D0006201C0906401D0906501E0906601F090D4
:1017E0006701E0915B01F0915C016781708580E0A9
:1017F00090E00E9406164B015C019B01AC01C70101
:10180000B6010E94F513181684F401110EC08BE581
:1018100091E00E9441061092860110938E01E091A2
:101820005B01F0915C0111832AC020E030E0A90146
:10183000C701B6010E94F51318160CF5A501940115
:10184000C701B6010E94011687FF19C00023B9F035
:101850008BE591E00E94410610928601109278017A
:1018600010928E01109279011092730110927401FE
:1018700010926301E0915B01F0915C011182809113
:101880006801882309F461C080917A01882309F4F2
:101890005CC082E00E94090221E0892B09F020E06F
:1018A00080917101882339F1211125C08091750142
:1018B00081114BC00E949E0220916D01C090690170
:1018C000D0906A01E0906B01F0906C01AB01BC011B
:1018D0004C195D096E097F09A4E62A9FC0011124F5
:1018E000092E000CAA0BBB0B84179507A607B70798
:1018F00008F4CAC32AC080917201882331F12223DF
:1019000021F180917601811120C00E949E022091D8
:101910006E01C0906901D0906A01E0906B01F09077
:101920006C01AB01BC014C195D096E097F09B4E67D
:101930002B9FC0011124092E000CAA0BBB0B84178E
:101940009507A607B70708F4A3C380918D018111FD
:101950004BC0F8948090930190909401A0909501D1
:10196000B09096017894C0906401D0906501E090A9
:101970006601F09067010E949E0281149104A10407
:10198000B10491F1DC01CB0188199909AA09BB09BD
:10199000883B9B40A105B10538F120E030E0A9016A
:1019A000C701B6010E9401168823F1F0109264016C
:1019B0001092650110926601109267018FEA0E94F1
:1019C0005C07109286011092780110928E0110929D
:1019D0007901109273011092740110926301E091E9
:1019E0005B01F0915C0111828091A101882359F083
:1019F0006091A00180919701909198010E947105DA
:101A000081278093A10180919C01882319F10E9474
:101A100023078639F9F0843941F48091A3018111BB
:101A200019C01093A3018BED13C08D3941F480913F
:101A3000A40181110FC01093A4018CED09C0853958
:101A400049F48091A201811105C01093A2018AED91
:101A50000E944C0780919D01882359F010929D01AE
:101A60000E942307682F80919701909198010E940E
:101A700071058091D001882369F06AEB8091CA01D9
:101A80009091CB010E947105882321F01093CF0122
:101A90001092D001E091CC01F091CD0181818111B2
:101AA00002C01092CF018091EA0181110BC0809198
:101AB000CE01882339F061E98091CA019091CB0170
:101AC0000E9471058091EA01882309F4E7C28091A0
:101AD000D9018111E3C20E949E02C090D101D09031
:101AE000D201E090D301F090D401DC01CB018C193C
:101AF0009D09AE09BF0980339547A105B10508F4DA
:101B0000CDC28091DC019091DD010E9471040E94A0
:101B10009E026093D5017093D6018093D701909374
:101B2000D8011093D9018091EA01882309F46CC08F
:101B30008091D901882309F467C00E949E02C09059
:101B4000D501D090D601E090D701F090D801DC010A
:101B5000CB018C199D09AE09BF098C3D9540A105AB
:101B6000B10508F451C0AE014F5F5F4F6EED71E0FB
:101B70008091DC019091DD010E94D304882349F01B
:101B800068E0CE0101960E946C039985891709F4DB
:101B90009EC260E874EE613854EE75070CF483C29F
:101BA000072E000C880B990B0E94081620E030E0ED
:101BB00040E05CE30E9467166093E6017093E701E2
:101BC0008093E8019093E9010E949E026093D10105
:101BD0007093D2018093D3019093D4011092D901D4
:101BE0008091CE01882309F465C21092CE010E9433
:101BF000D7062091CA013091CB01882309F458C23D
:101C000061E9C9010E9471058091C801882361F0D2
:101C10001092C801E091AB01F091AC0112836EE922
:101C200085EA91E00E9471058091C601882309F43C
:101C30000EC11092C6018091C70190E024E09595F5
:101C400087952A95E1F78430910509F488C03CF422
:101C50008230910559F0039709F463C0F8C08530CC
:101C6000910509F4C1C0069759F1F1C01092B8016D
:101C70001092AF011092AE011092B0010E949E022C
:101C80006093B9017093BA018093BB019093BC013A
:101C90001093AD018091C701803209F0D8C0E09166
:101CA000A501F091A60161857285838594850E94C6
:101CB000C6136093B6017093B7010E94FC06C7C0BB
:101CC0008091C701823611F168F48036A1F0813627
:101CD00009F0BDC08091A5019091A601DC01159687
:101CE0001C937BC08436C1F060F0863609F0AFC02B
:101CF0001093C801ACC0E091A901F091AA0114832E
:101D0000A6C0E091A501F091A60104C0E091A70151
:101D1000F091A80116839BC0E091BE01F091BF0134
:101D20001CC08091C701E090A501F090A601F701C9
:101D3000803379F410A30E949E02D70195966D938B
:101D40007D938D939C9398979E96ED91FC919F9790
:101D500004C010A200A8F1A9E02D099578C08091D7
:101D6000C701E090A501F090A6018134C9F128F4E3
:101D7000803409F06CC0C70130C08234C1F08334B4
:101D800009F065C0D70157961C93C7010E944C0605
:101D9000F70113A6158E13AA168E108E10860190C9
:101DA000F081E02D1182D70159961C9250C0F701A5
:101DB000168BC7010E944C06D7015D961C935D9758
:101DC0009B961C929B97D3961C93D397ED91FC9175
:101DD0001197118358961C923AC00E944C0637C046
:101DE000C7010E94410633C08091C701E090A7015E
:101DF000F090A801813561F020F4803541F5F701BC
:101E000021C08235A1F0833511F5F70114831AC082
:101E1000D70115961C92159714961C9260E082E1EA
:101E20000E943202F70113861486158610C0C7017E
:101E30000E941606D70118969C938E9317971596B5
:101E40001C9301C0158361E082E10E9432028091FF
:101E5000C501882309F470C01092C5016091C001CA
:101E60007091C1018091C2019091C3010E94C6137B
:101E7000262FE091C4018E2F90E0FC01E057F1097C
:101E8000E730F10508F058C0EC5CFF4FE090AB0183
:101E9000F090AC010C94CD12D70113966C9313976C
:101EA00014967C93B7016D5F7F4F80E090E02EC069
:101EB000F70165837683B7016B5F7F4F80E590E024
:101EC00025C0D70117966C93179718967C93B70186
:101ED000695F7F4F84E590E019C06D877E87BE0102
:101EE000635F7F4F8AE590E00E949205B701635FD0
:101EF0007F4F8AE590E00E947E051EC0F701638750
:101F00007487B701655F7F4F8EE590E00E94920570
:101F100013C0D70119966C9319971A967C93B70141
:101F2000675F7F4F82E690E0F1CF61E0211101C051
:101F300060E0C7010E94FC058091AD01882309F48F
:101F400041CA0E949E02C090B901D090BA01E090AF
:101F5000BB01F090BC01AB01BC014C195D096E09DD
:101F60007F098091BD0190E0A0E0B0E08417950763
:101F7000A607B70718F41092AD0124CA8091AE01EC
:101F8000882371F01092AE011093B0010E949E025E
:101F90006093B1017093B2018093B3019093B40147
:101FA0008091B001882309F40DCA0E949E02C0905E
:101FB000B101D090B201E090B301F090B401AB0157
:101FC000BC014C195D096E097F098091B50190E053
:101FD000A0E0B0E084179507A607B70708F4ACC0E7
:101FE000F1C91093470161E080E00E9432020E9433
:101FF0009E02609343017093440180934501909346
:1020000046014DCA80914801823020F48F5F809351
:10201000480169CA6AEF85EA91E00E9471058093E0
:102020004901882309F45FCA109248015CCA1092E2
:10203000490159CA82E00E9409027C018BE591E0C6
:102040000E9441061092600180915D0190915E01B5
:10205000EF2811F463E901C062E90E947105A6CB83
:1020600082E00E9409027C0110925F018BE591E001
:102070000E94410681E0EF2809F080E0E0918701AD
:10208000F0918801099592CB109375018AEC03C0F9
:10209000109376018BEC0E945C0757CC8091CE01A7
:1020A00081112FCD40CD60E070E08EEF92EC84CDB9
:1020B00060E9A7CD0E94D706882309F4A5CDE09159
:1020C000CC01F091CD01818181112FC09DCD69811D
:1020D000B8E06B9FB00111248A81282F30E0322FA5
:1020E0002227330F330F330F262B372B8091DE013E
:1020F0008031C9F4688570E08F81AB01481B5109BC
:10210000CA019695982F8827979587950E94B912AE
:1021100060517109207F53E0220F331F5A95E1F778
:10212000620F731F38CDB90136CD8091CF01811177
:102130006BCD1093D00168CD1092B0010E94FC06C7
:1021400041C9CF93DF938BE291E0892B71F48091A9
:102150002501909126010E948F1480914C0190914D
:102160004D01DF91CF910C948F14CDE3D1E08881A4
:1021700099810E948F14269781E0C532D807B9F75C
:10218000E6CFAF92BF92CF92DF92EF92FF920F9382
:102190001F93CF93DF93CDB7DEB761970FB6F89457
:1021A000DEBF0FBECDBF61E171E08CE491E00E9423
:1021B000F4011092D1011092D2011092D301109229
:1021C000D4011092D5011092D6011092D70110922D
:1021D000D8011092D9018EE090E00E94FA137C01A0
:1021E00060E084E00E946202ECEAF1E0E491D70151
:1021F000EC93E8E9F1E0E491F0E0EE0FFF1FE65721
:10220000FE4F85919491F701928381831386158601
:1022100014866701FBE0CF0ED11C570183E0A80EA6
:10222000B11CF6011292EA15FB05E1F7F092DB0111
:10223000E092DA0183E190E00E94FA138C0182E7D8
:1022400091E0D80152969C938E9351971696FC92EA
:10225000EE92159714961C9214971C9289E0119691
:102260008C93119781E012968C93129713968C930E
:102270001093DD010093DC01F60112926F01EA1563
:10228000FB05D1F7FF24F394BE01665F7F4FD801B1
:1022900015968D919C9116970E948C07882309F4BE
:1022A00056C067E0CE010A960E946C039989891393
:1022B000EBCFD8018C91811127C015968D919C91FF
:1022C00016970E943B04BE01665F7F4FF80185812F
:1022D00096810E940E0440E064EBD80115968D9122
:1022E0009C9116970E94CC03F801858196810E94EB
:1022F0007903E82ED80115968D919C9116970E942E
:102300003B04EE2009F432C1AE014F5F5F4FBE01C6
:10231000665F7F4FC8010E94D304F801E180BE01CF
:10232000665F7F4FC8010E9436058E1520F4D801E4
:1023300011968C9106C0BE01665F7F4FC8010E9456
:102340003605F801818384818F5F84839DCF10924D
:10235000CF011092CE01A091DC01B091DD01149665
:102360008C911497811103C01092EA0124C081E07E
:102370008093EA011596ED91FC91169713861586C8
:102380001486CF010B969F012D5F3F4FFC011292E7
:10239000CF01E217F307D1F76EED71E015968D913D
:1023A0009C9116970E948C07882329F067E08EED98
:1023B00091E00E946C03E091DC01F091DD0112825A
:1023C0001092E6011092E7011092E8011092E901E3
:1023D00061E082E10E9462021092A2011092A301C8
:1023E0001092A40110929C0110929B0161E171E096
:1023F00085E291E00E94F40100E010E061E171E00B
:10240000C801855D9E4F0E94F4010A5F1F4F08318D
:102410001105A1F7109215011092170183E791E0C1
:10242000909388018093870189E791E090938A01D6
:10243000809389018AE791E090938C0180938B01CE
:1024400061E081E00E94620260E082E00E9462023C
:1024500062E083E00E94620260E081E00E9432025A
:1024600010927701109279011092860110927801F2
:1024700010928E01109273011092740110926301F8
:10248000E0915B01F0915C0111828BE591E00E948B
:10249000410610928D0110927B01109264011092FE
:1024A0006501109266011092670110928F011092DF
:1024B000900110929101109292011092930110924A
:1024C0009401109295011092960110927801109249
:1024D00063011092710110927201109274011092B6
:1024E000730189E080936D0181E080936E018CED32
:1024F00095E0909385018093840110926001109281
:10250000610110925F0180E696E09093BF01809395
:10251000BE0185E191E09093AC018093AB0161E055
:1025200087E00E9462028CB580648CBD61E08CE023
:102530000E9462021092AD0183E08093B5018AE0AF
:102540008093BD018CB580688CBD61960FB6F89400
:10255000DEBF0FBECDBFDF91CF911F910F91FF90D6
:10256000EF90DF90CF90BF90AF900895D801FC928C
:10257000CBCE97FB072E16F4009407D077FD09D039
:102580000E94D31207FC05D03EF4909581959F4F91
:102590000895709561957F4F0895EE0FFF1F059088
:1025A000F491E02D0994AA1BBB1B51E107C0AA1F9F
:1025B000BB1FA617B70710F0A61BB70B881F991FE4
:1025C0005A95A9F780959095BC01CD010895505872
:1025D000BB27AA270E94FF120C94EB160E94DD165F
:1025E00038F00E94E41620F039F49F3F19F426F4E5
:1025F0000C94DA160EF4E095E7FB0C94D416E92F50
:102600000E94FC1658F3BA176207730784079507F0
:1026100020F079F4A6F50C941E170EF4E0950B2E1D
:10262000BA2FA02D0B01B90190010C01CA01A00124
:102630001124FF27591B99F0593F50F4503E68F17F
:102640001A16F040A22F232F342F4427585FF3CFC0
:10265000469537952795A795F0405395C9F77EF491
:102660001F16BA0B620B730B840BBAF09150A1F0DA
:10267000FF0FBB1F661F771F881FC2F70EC0BA0F60
:10268000621F731F841F48F4879577956795B795E8
:10269000F7959E3F08F0B0CF9395880F08F09927E3
:1026A000EE0F9795879508950E9468130C94EB168A
:1026B0000E94E41658F00E94DD1640F029F45F3FB6
:1026C00029F00C94D41651110C941F170C94DA169F
:1026D0000E94FC1668F39923B1F3552391F3951BDF
:1026E000550BBB27AA2762177307840738F09F5F33
:1026F0005F4F220F331F441FAA1FA9F335D00E2EA0
:102700003AF0E0E832D091505040E695001CCAF70C
:102710002BD0FE2F29D0660F771F881FBB1F2617CF
:1027200037074807AB07B0E809F0BB0B802DBF01A6
:10273000FF2793585F4F3AF09E3F510578F00C9475
:10274000D4160C941F175F3FE4F3983ED4F386959C
:1027500077956795B795F7959F5FC9F7880F911D96
:102760009695879597F90895E1E0660F771F881F82
:10277000BB1F621773078407BA0720F0621B730B35
:10278000840BBA0BEE1F88F7E09508950E9404179A
:1027900088F09F5798F0B92F9927B751B0F0E1F022
:1027A000660F771F881F991F1AF0BA95C9F714C0D2
:1027B000B13091F00E941E17B1E008950C941E17DD
:1027C000672F782F8827B85F39F0B93FCCF386950B
:1027D00077956795B395D9F73EF490958095709568
:1027E00061957F4F8F4F9F4F08950E94431608F4C5
:1027F0008FEF0895CF93DF938230910510F482E03C
:1028000090E0E091ED01F091EE0120E030E0C0E0D9
:10281000D0E0309711F14081518148175907C0F03D
:102820004817590761F482819381209719F09B839F
:102830008A832BC09093EE018093ED0126C0211571
:10284000310519F04217530718F49A01BE01DF0150
:10285000EF010280F381E02DDCCF2115310509F174
:10286000281B390B2430310590F412968D919C91E0
:1028700013976115710521F0FB019383828304C0D6
:102880009093EE018093ED01FD01329644C0FD016D
:10289000E20FF31F81939193225031092D933C93C2
:1028A0003AC02091EB013091EC01232B41F42091AF
:1028B0000701309108013093EC012093EB01209146
:1028C0000501309106012115310541F42DB73EB7C0
:1028D0004091090150910A01241B350BE091EB0155
:1028E000F091EC01E217F307A0F42E1B3F0B281721
:1028F000390778F0AC014E5F5F4F2417350748F079
:102900004E0F5F1F5093EC014093EB018193919325
:1029100002C0E0E0F0E0CF01DF91CF9108950F9386
:102920001F93CF93DF93009709F48CC0FC0132977B
:10293000138212820091ED011091EE010115110533
:1029400081F420813181820F931F2091EB0130911E
:10295000EC012817390779F5F093EC01E093EB01CE
:1029600071C0D80140E050E0AE17BF0750F4129696
:102970002D913C911397AD012115310509F1D90134
:10298000F3CF9D01DA013383228360817181860F49
:10299000971F8217930769F4EC0128813981260F6C
:1029A000371F2E5F3F4F318320838A819B81938322
:1029B0008283452B29F4F093EE01E093ED0142C0B0
:1029C0001396FC93EE931297ED01499159919E0154
:1029D000240F351FE217F30771F480819181840F72
:1029E000951F029611969C938E93828193811396E4
:1029F0009C938E931297E0E0F0E0D80112968D91AF
:102A00009C911397009719F0F8018C01F6CF8D91E6
:102A10009C9198012E5F3F4F820F931F2091EB01F5
:102A20003091EC012817390769F4309729F4109296
:102A3000EE011092ED0102C0138212821093EC019C
:102A40000093EB01DF91CF911F910F910895A0E0CA
:102A5000B0E0EDE2F5E10C943F17EC01009721F4B2
:102A6000CB010E94FA13B8C0FC01E60FF71F9C01CE
:102A700022503109E217F30708F4ACC0D9010D91D7
:102A80001C91119706171707B0F00530110508F4CF
:102A90009FC0C80104978617970708F499C0025091
:102AA0001109061B170B019311936D937C93CF01B2
:102AB0000E948F148DC05B01A01AB10A4C01800ED8
:102AC000911EA091ED01B091EE0140E050E0E12CAB
:102AD000F12C109709F44AC0A815B905D1F56D90ED
:102AE0007C901197630182E0C80ED11CCA14DB04EC
:102AF00080F1A3014A195B096A0182E0C80ED11C6A
:102B00001296BC9012971396AC91B5E0CB16D104F7
:102B100040F0B282A38351834083D9016D937C93AB
:102B20000AC00E5F1F4FC301800F911FF9019183EF
:102B30008083EB2DFA2FE114F10431F0D7011396C5
:102B4000FC93EE93129744C0F093EE01E093ED01F5
:102B50003FC08D919C9111974817590708F4AC011B
:102B60007D0112960D90BC91A02DB3CF8091EB0109
:102B70009091EC0188159905E1F446175707C8F4C0
:102B80008091050190910601009741F48DB79EB7A1
:102B90004091090150910A01841B950BE817F90730
:102BA000C8F4F093EC01E093EB01F90171836083C9
:102BB0000FC0CB010E94FA137C01009759F0A801C5
:102BC000BE010E94F115CE010E948F14C70104C0FE
:102BD000CE0102C080E090E0CDB7DEB7EEE00C940D
:102BE0005B17FB01DC0102C001900D924150504087
:102BF000D8F70895FB01DC0101900D920020E1F768
:102C000008950E94431608F481E00895E89409C0ED
:102C100097FB3EF490958095709561957F4F8F4F0F
:102C20009F4F9923A9F0F92F96E9BB279395F69525
:102C3000879577956795B795F111F8CFFAF4BB0FA3
:102C400011F460FF1BC06F5F7F4F8F4F9F4F16C007
:102C5000882311F096E911C0772321F09EE8872F91
:102C6000762F05C0662371F096E8862F70E060E04D
:102C70002AF09A95660F771F881FDAF7880F9695C6
:102C8000879597F90895990F0008550FAA0BE0E86A
:102C9000FEEF16161706E807F907C0F0121613061E
:102CA000E407F50798F0621B730B840B950B39F45E
:102CB0000A2661F0232B242B252B21F408950A26C4
:102CC00009F4A140A6958FEF811D811D08950E94F2
:102CD0007A160C94EB160E94DD1638F00E94E4166A
:102CE00020F0952311F00C94D4160C94DA161124CC
:102CF0000C941F170E94FC1670F3959FC1F3950F5B
:102D000050E0551F629FF001729FBB27F00DB11D6F
:102D1000639FAA27F00DB11DAA1F649F6627B00DFF
:102D2000A11D661F829F2227B00DA11D621F739FE8
:102D3000B00DA11D621F839FA00D611D221F749FF6
:102D40003327A00D611D231F849F600D211D822F3D
:102D5000762F6A2F11249F5750409AF0F1F0882364
:102D60004AF0EE0FFF1FBB1F661F771F881F915091
:102D70005040A9F79E3F510580F00C94D4160C9456
:102D80001F175F3FE4F3983ED4F3869577956795D8
:102D9000B795F795E7959F5FC1F7FE2B880F911DBB
:102DA0009695879597F9089597F99F6780E870E061
:102DB00060E008959FEF80EC089500240A941616B1
:102DC000170618060906089500240A941216130619
:102DD000140605060895092E0394000C11F48823A7
:102DE00052F0BB0F40F4BF2B11F460FF04C06F5FC3
:102DF0007F4F8F4F9F4F089557FD9058440F551F99
:102E000059F05F3F71F04795880F97FB991F61F06C
:102E10009F3F79F087950895121613061406551FE3
:102E2000F2CF4695F1DF08C0161617061806991F4F
:102E3000F1CF86957105610508940895E894BB2744
:102E400066277727CB0197F90895F999FECF92BDB0
:102E500081BDF89A992780B50895262FF999FECF5C
:102E60001FBA92BD81BD20BD0FB6F894FA9AF99AA7
:102E70000FBE019608952F923F924F925F926F92EC
:102E80007F928F929F92AF92BF92CF92DF92EF92FA
:102E9000FF920F931F93CF93DF93CDB7DEB7CA1B7B
:102EA000DB0B0FB6F894DEBF0FBECDBF09942A88A6
:102EB000398848885F846E847D848C849B84AA844E
:102EC000B984C884DF80EE80FD800C811B81AA81DB
:102ED000B981CE0FD11D0FB6F894DEBF0FBECDBFA6
:102EE000ED01089510E0C9EED0E004C0FE010E949B
:0E2EF000CD122196CA3ED107C9F7F894FFCF44
:102EFE0071017101010000EF0180005E00BC0077DE
:022F0E000100C0
:107E0000112484B714BE81FFF0D085E080938100F7
:107E100082E08093C00088E18093C10086E0809377
:107E2000C20080E18093C4008EE0C9D0259A86E02C
:107E300020E33CEF91E0309385002093840096BBD3
:107E4000B09BFECF1D9AA8958150A9F7CC24DD24C4
:107E500088248394B5E0AB2EA1E19A2EF3E0BF2EE7
:107E6000A2D0813461F49FD0082FAFD0023811F036
:107E7000013811F484E001C083E08DD089C08234E0
:107E800011F484E103C0853419F485E0A6D080C0E4
:107E9000853579F488D0E82EFF2485D0082F10E0AE
:107EA000102F00270E291F29000F111F8ED06801E7
:107EB0006FC0863521F484E090D080E0DECF843638
:107EC00009F040C070D06FD0082F6DD080E0C81688
:107ED00080E7D80618F4F601B7BEE895C0E0D1E017
:107EE00062D089930C17E1F7F0E0CF16F0E7DF06D8
:107EF00018F0F601B7BEE89568D007B600FCFDCFD4
:107F0000A601A0E0B1E02C9130E011968C91119780
:107F100090E0982F8827822B932B1296FA010C0160
:107F200087BEE89511244E5F5F4FF1E0A038BF0790
:107F300051F7F601A7BEE89507B600FCFDCF97BE46
:107F4000E89526C08437B1F42ED02DD0F82E2BD052
:107F50003CD0F601EF2C8F010F5F1F4F84911BD097
:107F6000EA94F801C1F70894C11CD11CFA94CF0C13
:107F7000D11C0EC0853739F428D08EE10CD085E9AC
:107F80000AD08FE07ACF813511F488E018D01DD067
:107F900080E101D065CF982F8091C00085FFFCCF94
:107FA0009093C60008958091C00087FFFCCF809118
:107FB000C00084FD01C0A8958091C6000895E0E648
:107FC000F0E098E1908380830895EDDF803219F02E
:107FD00088E0F5DFFFCF84E1DECF1F93182FE3DFCA
:107FE0001150E9F7F2DF1F91089580E0E8DFEE27F6
:047FF000FF270994CA
:027FFE00040479
:0400000300007E007B
:00000001FF
