:100000000C94F2000C9464030C943D030C941A01BC
:100010000C941A010C941A010C941A010C941A01F4
:100020000C941A010C941A010C941A010C941A01E4
:100030000C941A010C941A010C941A010C941A01D4
:100040000C94F3020C948E060C941A010C941A0171
:100050000C941A010C941A010C941A010C941A01B4
:100060000C941A010C941A01320F380F450F400FEF
:100070004B0FFB0F510F540F2C1035102010411057
:1000800052105D106910005EBCE2613FDD83C29CCE
:100090007E20A3FD1F419DC3217FFCA2401E5F0166
:1000A000E3BD3E6082DC237D9FC1421CFEA0E1BF18
:1000B0005D0380DE3C62BEE0025CDF81633D7C224A
:1000C000C09E1D43A1FF4618FAA427799BC584DA78
:1000D0003866E5BB5907DB856739BAE40658194726
:1000E000A5FB7826C49A653BD987045AB8E6A7F9D8
:1000F0001B45C6987A24F8A6441A99C7257B3A640A
:1001000086D85B05E7B98CD2306EEDB3510F4E1037
:10011000F2AC2F7193CD114FADF3702ECC92D38DE5
:100120006F31B2EC0E50AFF1134DCE90722C6D3397
:10013000D18F0C52B0EE326C8ED0530DEFB1F0AEC9
:100140004C1291CF2D73CA947628ABF517490856F7
:10015000B4EA6937D58B5709EBB536688AD495CBA5
:100160002977F4AA4816E9B7550B88D6346A2B7557
:1001700097C94A14F6A8742AC896154BA9F7B6E889
:100180000A54D7896B3500000000240027002A009C
:1001900000000000250028002B00000000002300C4
:1001A00026002900040404040404040402020202D8
:1001B000020203030303030301020408102040802A
:1001C00001020408102001020408102000000008A9
:1001D000000201000003040700000000000000000E
:1001E000C311A31111241FBECFEFD8E0DEBFCDBFD6
:1001F00011E0A0E0B1E0EEE2F1E302C005900D9263
:10020000A231B107D9F721E0A2E1B1E001C01D920E
:10021000AB3FB207E1F710E0C1EFD0E004C0219797
:10022000FE010E94E513C03FD107C9F70E94B40840
:100230000C948A180C940000089580E090E0892BBB
:1002400049F080E090E0892B29F00E9400008111A4
:100250000C9400000895833081F028F4813099F0E7
:100260008230A1F008958730A9F08830B9F0843049
:10027000D1F4809180008F7D03C0809180008F77C2
:1002800080938000089584B58F7702C084B58F7DF8
:1002900084BD08958091B0008F7703C08091B00035
:1002A0008F7D8093B00008953FB7F89480915601F8
:1002B00090915701A0915801B091590126B5A89B82
:1002C00005C02F3F19F00196A11DB11D3FBFBA2FE8
:1002D000A92F982F8827820F911DA11DB11DBC0148
:1002E000CD0142E0660F771F881F991F4A95D1F70D
:1002F00008950895089591E090933F0180934A01F5
:100300000895089508950F931F93CF93DF938C0161
:10031000EB01FC01808191810097B1F068817981C6
:100320006115710579F0428153812C813D8142171D
:10033000530740F00E9412178C819D81F80195832C
:10034000848313C00E94A71588819981F801918345
:1003500080838A819B81938382838C819D81958315
:100360008483198218821B821A821D821C82DF916B
:10037000CF911F910F910895EF92FF920F931F93CA
:10038000CF93DF93EC017B018A01888199810097EB
:1003900029F02A813B8124173507F8F4B8016F5FF3
:1003A0007F4F0E943F16009759F0998388831B83E3
:1003B0000A832C813D81232B81F4FC0110820DC026
:1003C00088819981009711F00E94A71519821882DF
:1003D0001D821C821B821A8207C01D830C83B701F9
:1003E000888199810E941217CE01DF91CF911F91D0
:1003F0000F91FF90EF900895FC01118210821382FB
:100400001282158214826115710551F0FB01019071
:100410000020E9F73197AF01461B570B0C94BC0144
:100420000895CF93DF93282F30E0F901E453FE4F76
:100430008491F901E854FE4FD491F901EC55FE4F37
:10044000C491CC2391F081110E942B01EC2FF0E09C
:10045000EE0FFF1FE656FE4FA591B491EC91ED23F0
:1004600081E090E021F480E002C080E090E0DF9144
:10047000CF9108951F93CF93DF93282F30E0F90198
:10048000E453FE4F8491F901E854FE4FD491F901F1
:10049000EC55FE4FC491CC23C9F0162F81110E9458
:1004A0002B01EC2FF0E0EE0FFF1FE057FE4FA59160
:1004B000B4918FB7F894111105C09C91ED2FE09580
:1004C000E92302C0EC91ED2BEC938FBFDF91CF912C
:1004D0001F910895CF93DF9390E0FC01E854FE4F05
:1004E0002491FC01EC55FE4F8491882361F190E04A
:1004F000880F991FFC01EA57FE4FC591D491FC016A
:10050000E057FE4FA591B491611109C09FB7F894CF
:100510008881209582238883EC912E230BC0623042
:1005200061F49FB7F8943881822F80958323888364
:10053000EC912E2B2C939FBF06C08FB7F894E881C7
:100540002E2B28838FBFDF91CF9108958E3008F036
:100550008E508770806480937C0080917A008064E4
:1005600080937A0080917A0086FDFCCF809178009C
:100570002091790090E0922B08952FB7F894609124
:1005800052017091530180915401909155012FBFF8
:10059000089582E00E941102892B69F481E0809322
:1005A000A7010E94BD026093A8017093A9018093E6
:1005B000AA019093AB010895CF93DF93CAE9D1E0EC
:1005C00088AD99ADAAADBBAD8CAB9DABAEABBFABAF
:1005D0000E94BD0268AF79AF8AAF9BAF81E08AAB62
:1005E000DF91CF9108951F920F920FB60F921124B1
:1005F0002F933F938F939F93AF93BF93809152011B
:1006000090915301A0915401B09155013091510145
:1006100023E0230F2D3720F40196A11DB11D05C045
:1006200026E8230F0296A11DB11D2093510180934E
:10063000520190935301A0935401B09355018091BE
:10064000560190915701A0915801B091590101961E
:10065000A11DB11D8093560190935701A09358019D
:10066000B0935901BF91AF919F918F913F912F917D
:100670000F900FBE0F901F9018951F920F920FB6FC
:100680000F9211242F933F934F935F936F937F9318
:100690008F939F93AF93BF93EF93FF93E0910201EA
:1006A000F09103010995FF91EF91BF91AF919F9157
:1006B0008F917F916F915F914F913F912F910F900B
:1006C0000FBE0F901F9018951F920F920FB60F92AA
:1006D00011242F933F934F935F936F937F938F9347
:1006E0009F93AF93BF93EF93FF93E0910001F0913D
:1006F00001010995FF91EF91BF91AF919F918F916A
:100700007F916F915F914F913F912F910F900FBE0D
:100710000F901F901895DC01E0E0615038F08D914A
:10072000E827F0E0EA57FF4FE491F7CF8E2F0895C6
:10073000FC0190810180F281E02DF8948181892B68
:1007400081832281892F809528232283A7E0B0E02E
:100750001197F1F7218182238183A3E2B0E0119701
:10076000F1F780817894EFECF0E03197F1F798237E
:1007700081E009F480E00895FC0190810180F2811C
:10078000E02D892F809560FF12C0F894228182238A
:1007900082838181892B8183A3E2B0E01197F1F7F5
:1007A0008281982B9283789487ED90E011C0F89421
:1007B0002281822382838181892B8183AFEFB0E004
:1007C0001197F1F78281982B928378948FE090E0D3
:1007D0000197F1F70895CF92DF92EF92FF920F9376
:1007E0001F93CF93DF931F92CDB7DEB76C01E62E38
:1007F00008E010E0FF24F39461E08F2D8E2109F4CE
:1008000060E0C60149830E94BC03FF0C015011093E
:1008100049810115110581F7411115C0F894D601E0
:100820001196ED91FC91129791818C91809589237D
:1008300081831196ED91FC91129792818C91809514
:100840008923828378940F90DF91CF911F910F912C
:10085000FF90EF90DF90CF900895CF92DF92EF92CC
:10086000FF920F931F93CF93DF931F92CDB7DEB705
:100870008C01F62E40E065E579830E94EB03CF2CD6
:100880007981D72E760188E0E80EF11CF60161919E
:100890006F0140E0C8010E94EB03CE14DF04B1F702
:1008A0000F90DF91CF911F910F91FF90EF90DF900C
:1008B000CF900895FC0190810180F281E02DF894A1
:1008C0008181292F20958223818378948DE743E0CD
:1008D00050E0815021F1DA011197F1F7308139238D
:1008E000C1F3F8948281822382838181892B818361
:1008F0007894ABE7B7E01197F1F7F894818128235A
:100900002183A3E1B1E01197F1F78081982381E081
:1009100009F080E07894E3E6F6E03197F1F7089586
:100920008F929F92AF92BF92CF92DF92EF92FF92FF
:10093000CF93DF93EC018D819E810E945A0440E0A9
:100940006CEC8D819E810E94EB03488164E48D8173
:100950009E810E94EB038A818823C9F1E981E950D5
:10096000E33040F4F0E0EE0FFF1FE55FFE4F8081C3
:10097000918102C08EEE92E06C01990FEE08FF08A3
:100980000E9454014B015C01C114D104E104F10443
:10099000F1F00E945401DC01CB0188199909AA09E0
:1009A000BB09883E9340A105B10570F321E0C21A4E
:1009B000D108E108F10888EE880E83E0981EA11C9A
:1009C000B11CC114D104E104F10419F7DDCFDF91AA
:1009D000CF91FF90EF90DF90CF90BF90AF909F901E
:1009E0008F9008956F927F928F929F92AF92BF9255
:1009F000CF92DF92EF92FF920F931F93CF93DF93EB
:100A000000D0CDB7DEB78C017A01FC0185819681DB
:100A100069837A830E945A0469817A81882391F1DB
:100A2000F801858196810E942D0440E06EEBF8016B
:100A3000858196810E94EB0337015701F9E0AF0EE3
:100A4000B11CF8018580968088E0C82ED12CEE2458
:100A5000E394F12CC4010E9498038111FE28EE0C4E
:100A6000F1E0CF1AD108B1F7F301F1923F01EA1595
:100A7000FB0539F7F801858196810E945A0491E0BF
:100A8000813009F090E0892F0F900F90DF91CF9186
:100A90001F910F91FF90EF90DF90CF90BF90AF909C
:100AA0009F908F907F906F900895CF93DF93CDB7F5
:100AB000DEB729970FB6F894DEBF0FBECDBFFB019E
:100AC0002081203119F1AE014F5F5F4F0E94F20487
:100AD000882379F068E0CE0101960E948B03998506
:100AE000891307C008C0803458F08F3569F08F37FC
:100AF00069F080E00CC08D818F33A9F78AE007C0D0
:100B00008F31B9F789E003C08BE001C08CE02996F2
:100B10000FB6F894DEBF0FBECDBFDF91CF91089521
:100B2000FC018085811107C06EBD61E087E00E94F5
:100B30003A0281E0089580E008950F931F93CF93C8
:100B4000DF938C01EB010E943D188883C801019658
:100B50000E943D188983CE01DF91CF911F910F91A3
:100B60000895AF92BF92CF92DF92EF92FF920F93D0
:100B70001F93CF93DF931F92CDB7DEB75C017B014C
:100B80008B016C0182E0C80ED11CF80161918F01CC
:100B9000C50169830E943D186981681719F0C50174
:100BA0000E944518FFEFAF1ABF0AAC14BD0469F7E5
:100BB000C7010F90DF91CF911F910F91FF90EF90A0
:100BC000DF90CF90BF90AF900895CF92DF92EF92D9
:100BD000FF920F931F93CF93DF937C018B016A01E8
:100BE0000E943D18F8018083C1E0D0E08823C9F05D
:100BF000CC15DD057CF4CE018E0D9F1D8115F4E032
:100C00009F0744F40E943D18F801EC0FFD1F8083FC
:100C10002196ECCF1C161D0624F4C00FD11F21977E
:100C2000188281E0DF91CF911F910F91FF90EF909B
:100C3000DF90CF900895CF93DF931F92CDB7DEB7AB
:100C4000FC01668786E690E069830E943D18698111
:100C5000681739F086E690E00F90DF91CF910C9401
:100C600045180F90DF91CF910895CF92DF92EF92C8
:100C7000FF92CF93DF9361E082E10E943A0281E12B
:100C80000E94A6020E94BD026B017C010E94BD026F
:100C9000DC01CB018C199D09AE09BF090297A105A2
:100CA000B105A0F381E10E94A602EC0160E082E1BF
:100CB0000E943A02CE01DF91CF91FF90EF90DF903A
:100CC000CF900895FC01178E1586168A178A128E0A
:100CD000138E60E081E00C943A02CF93DF93EC0135
:100CE0001D8681E08F8F0E94BD0269A37AA38BA32A
:100CF0009CA31A8E1B8E61E081E0DF91CF910C9452
:100D00003A0210923F011092400181E0809341012C
:100D100080939E018AE991E00C946D061F920F92D8
:100D20000FB60F9211242F933F934F935F936F93BE
:100D30007F938F939F93AF93BF93EF93FF938EB562
:100D4000853699F460E087E00E943A0280916D0157
:100D5000882391F180916F01811104C081E080931B
:100D60006E012AC010926D0127C0282F30E094E058
:100D7000359527959A95E1F72730310599F4E2E802
:100D8000F1E01EBC00000DB407FEFDCF9EB59193AF
:100D900091E0E638F907A9F78093860181E0809316
:100DA00087010AC081E0809388018EB58093890114
:100DB00060E087E00E943A02FF91EF91BF91AF910E
:100DC0009F918F917F916F915F914F913F912F9163
:100DD0000F900FBE0F901F90189580914A018823A5
:100DE00011F069E901C06BE985E691E00C9490058A
:100DF000CF93C091F601CC23E1F0E091D801F091BE
:100E0000D9016485758580E090E00E941E179B01E2
:100E1000AC016091F2017091F3018091F401909125
:100E2000F5010E940D1518162CF01092DB01C0E0A0
:100E300001C0C1E08C2FCF910895CF93DF93CAE911
:100E4000D1E08C8B682F8A819B810E94900591E074
:100E500089278D8BDF91CF9108950F931F938091F8
:100E6000B9018823B9F00E94BD020091BB01109125
:100E7000BC012091BD013091BE01AB01BC01401B02
:100E8000510B620B730B81E049315105610571050E
:100E900008F480E01F910F9108958CE891E00E9482
:100EA0003506E0918E01F0918F012085318528175C
:100EB0003907B0F4228533858217930798F420917F
:100EC0009101222389F020919001222369F0209141
:100ED0009301309194012817390730F08DE9089576
:100EE00084E9089585E9089586E90895CF93DF930D
:100EF000CCE8D1E08987682F888199810E9490058C
:100F000091E089278A87DF91CF910895E091780158
:100F100081E08E0F80937801F0E0EB59FE4F9189CC
:100F20009EBD823018F081E080936F0161E087E020
:100F30000C943A0280916301811112C090915C017E
:100F40002DEF290F2E3460F4933049F08091610128
:100F5000882329F01092610110926401089581E0C4
:100F60000895CF92DF92EF92FF92CF93DF9361E0EB
:100F700088E00E943A0280E10E94A6020E94BD021F
:100F80006B017C01EE24FF240E94BD02DC01CB0139
:100F90008C199D09AE09BF090297A105B105A0F3FF
:100FA00080E10E94A602EC0160E088E00E943A0223
:100FB000BE01DD0F880B990B0E94201720E030E066
:100FC00040EA50E40E947F1720E030E040E85AE316
:100FD0000E947F1723EC35EF40E850E40E947F1712
:100FE00020E030E048E351E40E94FF136B017C01F4
:100FF0000E94BD0260935D0170935E0180935F016A
:101000009093600120E030E040E251E4C701B60176
:101010000E947F170E94DE14862FDF91CF91FF90F0
:10102000EF90DF90CF9008950E94B10780935C010C
:101030000E949A07811107C080916101811103C04C
:1010400081E0809364010895AF92BF92CF92DF92C6
:10105000EF92FF920F931F93CF93DF931F92CDB721
:10106000DEB75C01D62EE72EFC018585811105C017
:10107000C5010E945A04811106C0F5011386158628
:10108000148680E065C040E060EFC5010E94EB037C
:1010900001E0F12CC12C11E0C5010E949803682FDA
:1010A000C50169830E9498036981613019F4813018
:1010B000B9F433C04F2D50E068131BC0F501838590
:1010C000181730F4E40FF51F8381802349F402C020
:1010D000181731F060E0193058F4F501148708C092
:1010E000F501EF0DF11D8381802B838361E009C041
:1010F000C12EF501E40FF51F9381802F8095892380
:101100008383C5010E94BC031F5F000F11F4F39499
:1011100001E0F7E0FF1508F0BFCF113408F4ADCFC0
:10112000F501C386C11002C081E08587F501838186
:10113000882309F4A2CFD5011396ED2DFE2D95013C
:10114000255F3F4F8D918193A217B307D9F781E0B7
:101150000F90DF91CF911F910F91FF90EF90DF9053
:10116000CF90BF90AF900895CF93DF93CDB7DEB708
:1011700064970FB6F894DEBF0FBECDBF789484B5E8
:10118000826084BD84B5816084BD85B5826085BD83
:1011900085B5816085BD80916E00816080936E0011
:1011A0001092810080918100826080938100809103
:1011B00081008160809381008091800081608093B4
:1011C00080008091B10084608093B1008091B00074
:1011D00081608093B00080917A00846080937A006F
:1011E00080917A00826080937A0080917A00816099
:1011F00080937A0080917A00806880937A001092C0
:10120000C10060E083E10E946A0261E080E00E9428
:101210006A0260E080E00E943A0286E690E00E9466
:101220003D18809320018F3F29F461E082E191E035
:101230000E941B0664E171E080E090E00E949D0541
:1012400066E171E080E590E00E949D0568E171E053
:1012500084E590E00E949D05809114019091150114
:10126000019661F48CEB92E0909315018093140148
:1012700064E171E080E090E00E94B1058091160188
:1012800090911701019661F480EA90E09093170124
:101290008093160166E171E080E590E00E94B1055F
:1012A0008091180190911901019661F482E890E013
:1012B000909319018093180168E171E084E590E052
:1012C0000E94B1056EE171E08AE590E00E949D0503
:1012D00080911E0190911F01019689F482E390E0B4
:1012E0009C8B8B8BBE016D5E7F4F8AE590E00E94E8
:1012F000B1056EE171E08AE590E00E949D056AE12A
:1013000071E082E690E00E949D056CE171E08EE55F
:1013100090E00E949D0580911A0190911B01019619
:1013200061F481E490E090931B0180931A016AE1DB
:1013300071E082E690E00E94B10580911C019091DD
:101340001D01019661F48CE591E090931D0180935D
:101350001C016CE171E08EE590E00E94B10584E033
:1013600090E00E943D188093120181508E3F08F05A
:1013700055C04CE050E0BE016F5F7F4F88E090E0C9
:101380000E94E505BE016F5F7F4FCE010D960E9462
:10139000FC01BE01635F7F4F81E291E00E94830107
:1013A0008D859E850E94A71511E006E080911201AF
:1013B000181708F04DC0E12EF12CEBE01E9FC00184
:1013C000112408968115F4E09F073CF44BE050E0AF
:1013D000BE016F5F7F4F0E94E505BE016F5F7F4FCB
:1013E000CE010D960E94FC010FB6F894DEBF0FBE31
:1013F000CDBF21E0E21AF1080E9DC0010F9D900DB6
:101400001124BE01635F7F4F895D9E4F0E9483015F
:101410008D859E850E94A7151F5FC8CF109212016F
:1014200040E050E061E171E081E291E00E94BC01A6
:1014300000E010E040E050E061E171E0C801895D4A
:101440009E4F0E94BC010A5F1F4F0831110591F7A2
:1014500085E691E090939D0180939C0190938D018E
:1014600080938C019093D7018093D60182E191E023
:1014700090939B0180939A019093D9018093D80116
:1014800090938F0180938E0186ED91E090936A0195
:10149000809369018CE891E09093680180936701E3
:1014A0008AE991E090936601809365018AE591E075
:1014B00090937F0180937E01109249018CED92E020
:1014C0009093030180930201809169008C60809366
:1014D0006900E99A89EC92E0909301018093000100
:1014E000809169008C7F816080936900E89A11E0A7
:1014F00009C00E94BD02643F71408105910538F426
:101500000E941D018091490181114AC0F2CF809152
:101510000401882301F11093A1018AE991E00E945E
:101520006D068091F601882391F08091E8019091F9
:10153000E9010E9490040E94BD026093E101709352
:10154000E2018093E3019093E4011093E5010E948E
:101550001408109204010E94BD02653C7940810587
:10156000910570F28091F601882391F08091E80155
:101570009091E9010E9490040E94BD026093E101F4
:101580007093E2018093E3019093E4011093E501ED
:10159000109349016EE985E691E00E949005B0CF75
:1015A00080914601811116C00E94BD02C090420187
:1015B000D0904301E0904401F0904501DC01CB0163
:1015C0008C199D09AE09BF09893E9340A105B1055B
:1015D00008F027C680914601882331F10E94BD02A0
:1015E000C0904201D0904301E0904401F090450149
:1015F000DC01CB018C199D09AE09BF098436910528
:10160000A105B10588F083E10E941102019709F05C
:101610002EC680914801882309F414C61092460111
:1016200060E080E00E943A02809141018823D9F075
:10163000109241010E94F806882311F06AE905C062
:101640008091CD01882331F06CE985E691E00E941C
:10165000900509C080913F01882319F00E94ED0692
:1016600002C01093400180914001882351F0809185
:101670003F01882331F00E94ED0610923F01109245
:1016800040018091AF01882359F06091AE018091B3
:101690009C0190919D010E94900581278093AF014C
:1016A0008091CC01882309F433C1F8946091D20170
:1016B0007091D3018091D4019091D5010E941E17A1
:1016C0006B017C018090CE019090CF01A090D00161
:1016D000B090D101789420E030E0A9010E94191760
:1016E000882309F413C1C501B4010E941E174B01E0
:1016F0005C0120E030E0A9010E941917882309F459
:1017000005C1A5019401C701B6010E9419178823DC
:1017100009F4FCC0A5019401C701B6010E94FF13A2
:101720009B01AC0160E070E68AE697E40E946C14CD
:101730006093A3017093A4018093A5019093A601E7
:101740008091BA0181110DC0C090A301D090A40175
:10175000E090A501F090A6018091B70181111FC012
:101760005FC00E94BD02C090BF01D090C001E09058
:10177000C101F090C201AB01BC014C195D096E09B9
:101780007F098091C3019091C401092E000CAA0B1E
:10179000BB0B481759076A077B07B0F6B7C08091A3
:1017A000A20181111CC0E0919A01F0919B018685F4
:1017B0008823A9F0648175816C5E7F4F80E090E0A2
:1017C0000E941E179B01AC01C701B6010E940D15B6
:1017D00018162CF41093A2018EEA0E941D07E091C6
:1017E0009A01F0919B016481758180E090E00E94F4
:1017F0001E179B01AC01C701B6010E940D15909107
:10180000C501181634F49A3F20F49F5F9093C501E8
:1018100007C09A3F28F01092B7018DEA0E941D0779
:101820008091B8018823B1F0E0919A01F0919B0179
:101830006281738180E090E00E941E179B01AC01E1
:10184000C701B6010E94191787FF04C01092B601A4
:101850001092B8018091B80181111FC08091CD0113
:101860008823D9F0E0919A01F0919B016281738104
:1018700080E090E00E941E179B01AC01C701B601F9
:101880000E940D1518160CF0FAC48091B6018A3F1B
:1018900008F0F0C48F5F8093B6018091CD0188235A
:1018A000D1F0E0919A01F0919B016681778180E00F
:1018B00090E00E941E179B01AC01C701B6010E9477
:1018C000191718161CF18091B30181111FC01093D4
:1018D000B3018BEA19C08091B201811117C0E09168
:1018E0009A01F0919B016481758180E090E00E94F3
:1018F0001E179B01AC01C701B6010E940D1587FDA3
:1019000005C01093B2018AEA0E941D071092CC0113
:1019100080919F01882349F08091A7018111B2C471
:101920000E942D078111AEC40CC080919E018823B6
:1019300041F08091A7018111BBC40E942D07811144
:10194000B7C48091A101882309F464C00E942D07C7
:10195000882309F45FC082E00E94110201E0892B14
:1019600009F000E01092A101C090A301D090A40161
:10197000E090A501F090A601E0919A01F0919B0101
:101980006681778180E090E00E941E174B015C0128
:101990009B01AC01C701B6010E940D15181684F415
:1019A00001110EC08AE991E00E9462061092C50101
:1019B0001093CD01E0919A01F0919B0111832AC00F
:1019C00020E030E0A901C701B6010E940D151816EC
:1019D0000CF5A5019401C701B6010E94191787FFF4
:1019E00019C00023B9F08AE991E00E9462061092C2
:1019F000C5011092B7011092CD011092B80110925A
:101A0000B2011092B3011092A201E0919A01F091FB
:101A10009B0111828091A701882309F461C0809104
:101A2000B901882309F45CC082E00E94110221E020
:101A3000892B09F020E08091B001882339F1211130
:101A400025C08091B40181114BC00E94BD0220913C
:101A5000AC01C090A801D090A901E090AA01F0903B
:101A6000AB01AB01BC014C195D096E097F09A4E60D
:101A70002A9FC0011124092E000CAA0BBB0B84174E
:101A80009507A607B70708F427C42AC08091B101BB
:101A9000882331F1222321F18091B501811120C0E9
:101AA0000E94BD022091AD01C090A801D090A90173
:101AB000E090AA01F090AB01AB01BC014C195D09AB
:101AC0006E097F09B4E62B9FC0011124092E000C7A
:101AD000AA0BBB0B84179507A607B70708F400C429
:101AE0008091CC0181114BC0F8948090D2019090EC
:101AF000D301A090D401B090D5017894C090A301F7
:101B0000D090A401E090A501F090A6010E94BD0232
:101B100081149104A104B10491F1DC01CB01881975
:101B20009909AA09BB09883B9B40A105B10538F179
:101B300020E030E0A901C701B6010E9419178823EF
:101B4000F1F01092A3011092A4011092A50110923D
:101B5000A6018FEA0E941D071092C5011092B701DD
:101B60001092CD011092B8011092B2011092B301FF
:101B70001092A201E0919A01F0919B011182809153
:101B80009601882359F06091950180918C01909184
:101B90008D010E949005812780939601809191018B
:101BA000882319F10E944D078639F9F0843941F4F0
:101BB00080919801811119C0109398018BED13C089
:101BC0008D3941F48091990181110FC010939901D1
:101BD0008CED09C0853949F480919701811105C0C8
:101BE000109397018AED0E947607809192018823D5
:101BF00059F0109292010E944D07682F80918C013C
:101C000090918D010E9490058091DC01882369F0FC
:101C10006AEB8091D6019091D7010E9490058823AC
:101C200021F01093DB011092DC01E091D801F091DA
:101C3000D9018181811102C01092DB018091F601EE
:101C400081110BC08091DA01882339F061E980911C
:101C5000D6019091D7010E9490058091F6018823CA
:101C600009F444C38091E501811140C30E94BD0283
:101C7000C090DD01D090DE01E090DF01F090E00146
:101C8000DC01CB018C199D09AE09BF098033954752
:101C9000A105B10508F42AC38091E8019091E901FA
:101CA0000E9490040E94BD026093E1017093E201E2
:101CB0008093E3019093E4011093E5018091F60194
:101CC000882309F496C08091E501882309F491C026
:101CD0000E94BD02C090E101D090E201E090E301DA
:101CE000F090E401DC01CB018C199D09AE09BF091C
:101CF0008C3D9540A105B10508F47BC0AE014F5F56
:101D00005F4F6AEE71E08091E8019091E9010E94D5
:101D1000F204882309F405C368E0CE0101960E940D
:101D20008B0399858913FDC26981F8E06F9FB0012B
:101D300011248A81282F30E0322F2227330F330FCE
:101D4000330F262B372B8091EA01803109F0E7C24F
:101D5000688570E08F81AB01481B5109CA019695D7
:101D6000982F8827979587950E94D1136051710904
:101D7000207F53E0220F331F5A95E1F7620F731F44
:101D8000613854EE75070CF4B6C2072E000C880BB0
:101D9000990B0E94201720E030E040E05CE30E94B5
:101DA0007F176093F2017093F3018093F401909395
:101DB000F5010E94BD026093DD017093DE01809306
:101DC000DF019093E0011092E5018091DA01882310
:101DD00009F498C21092DA010E94F8062091D60107
:101DE0003091D701882309F48BC261E9C9010E94AF
:101DF000900580918A01882339F010928A016EE95A
:101E000085E691E00E94900580918801882309F47D
:101E1000F2C0109288018091890190E024E09595AC
:101E200087952A95E1F78430910509F46CC024F474
:101E3000039709F43FC0DFC08530910509F4A8C0BD
:101E4000069709F0D8C0E09189018E2F90E0FC013F
:101E5000E056F109E830F10508F0CDC0EC5CFF4F29
:101E60000C94E513E0916901F0916A011483C3C0F9
:101E70008091650190916601DC0115961C9381C0EB
:101E8000E0916501F091660104C0E0916701F09175
:101E900068011683B0C0E0918001F091810109953D
:101EA000AAC010938A01A7C0E0917E01F0917F0142
:101EB0001087A1C080918901E0906501F0906601D2
:101EC000F701803379F410A30E94BD02D7019596E3
:101ED0006D937D938D939C9398979E96ED91FC9135
:101EE0009F9704C010A200A8F1A9E02D0995809148
:101EF0008901E0917E01F0917F01803311F4118717
:101F00007AC0118678C080918901E0906501F090D7
:101F100066018134C9F128F4803409F06CC0C7012E
:101F200030C08234C1F0833409F065C0D7015796C0
:101F30001C93C7010E946D06F70113A6158E13AA04
:101F4000168E108E10860190F081E02D1182D7013F
:101F500059961C9250C0F701168BC7010E946D065E
:101F6000D7015D961C935D979B961C929B97D39689
:101F70001C93D397ED91FC911197118358961C9265
:101F80003AC00E946D0637C0C7010E94620633C086
:101F900080918901E0906701F0906801813561F0DE
:101FA00020F4803541F5F70121C08235A1F0833559
:101FB00011F5F70114831AC0D70115961C921597D5
:101FC00014961C9260E082E10E943A02F7011386A7
:101FD0001486158610C0C7010E943506D7011896D1
:101FE0009C938E93179715961C9301C0158361E0FF
:101FF00082E10E943A0280918701882309F470C02F
:102000001092870160918201709183018091840117
:10201000909185010E94DE14262FE09186018E2F7B
:1020200090E0FC01E057F109E730F10508F058C0F5
:10203000E45CFF4FE0906B01F0906C010C94E513B1
:10204000D70112966C93129713967C93B7016E5F2B
:102050007F4F80E090E02EC0F70164837583B70165
:102060006C5F7F4F80E590E025C0D70116966C939A
:10207000169717967C93B7016A5F7F4F84E590E0CF
:1020800019C06D877E87BE01635F7F4F8AE590E050
:102090000E94B105B701645F7F4F8AE590E00E941E
:1020A0009D051EC0F70162877387B701665F7F4F8A
:1020B0008EE590E00E94B10513C0D70118966C938D
:1020C000189719967C93B701685F7F4F82E690E07E
:1020D000F1CF61E0211101C060E0C7010E941B0641
:1020E00080916D01882309F44EC00E94BD02C0900A
:1020F0007901D0907A01E0907B01F0907C01AB01F6
:10210000BC014C195D096E097F0980917D0190E049
:10211000A0E0B0E084179507A607B70718F410925F
:102120006D0131C080916E01882371F010926E01B3
:10213000109370010E94BD0260937101709372014F
:102140008093730190937401809170018823D9F07A
:102150000E94BD02C0907101D0907201E0907301A5
:10216000F0907401AB01BC014C195D096E097F0947
:102170008091750190E0A0E0B0E084179507A60774
:10218000B70708F4D8C0809162018823C1F010928B
:1021900062010E94B10780935C010E949A0720911E
:1021A0005A0130915B01811106C08091610181115A
:1021B00002C060E801C06FE9C9010E9490050E9459
:1021C000BD02C0905D01D0905E01E0905F01F09093
:1021D0006001DC01CB018C199D09AE09BF09813278
:1021E0009F4BA240B10528F080916301882309F438
:1021F000A7C080916401882309F482C9809161019C
:1022000081117EC96AEE80915A0190915B010E9412
:102210009005882309F474C9109361011092640138
:102220006FC91093460161E080E00E943A020E946B
:10223000BD026093420170934301809344019093E7
:102240004501C8C980914701823020F48F5F809397
:102250004701E4C96AEF85E691E00E94900580930A
:102260004801882309F4DAC910924701D7C91092AE
:102270004801D4C91093B8018CEA0E941D0710923E
:10228000B6010BCB82E00E9411027C018AE991E049
:102290000E94620610929F0180919C0190919D0185
:1022A000EF2811F463E901C062E90E94900549CB6F
:1022B00082E00E9411027C0110929E018AE991E065
:1022C0000E94620681E0EF2809F080E0E091C601FB
:1022D000F091C701099535CB1093B4018AEC03C086
:1022E0001093B5018BEC0E941D07FACB8091DA01A7
:1022F0008111D2CCE3CC60E070E08EEF92EC51CD56
:1023000060E974CD0E94F806882309F472CDE0914B
:10231000D801F091D9018181811106C06ACDB9013E
:102320002FCD60E874EE2CCD8091DB01811161CD61
:102330001093DC015ECD109270010E94860723CFBE
:102340000E94140856CFCF93DF9387E291E0892B48
:1023500071F480912101909122010E94A715809132
:102360004B0190914C01DF91CF910C94A715C9E3DB
:10237000D1E0888199810E94A715269781E0C1321A
:10238000D807B9F7E6CFAF92BF92CF92DF92EF9224
:10239000FF920F931F93CF93DF93CDB7DEB7619773
:1023A0000FB6F894DEBF0FBECDBF61E171E08BE4E4
:1023B00091E00E94FC011092DD011092DE0110926A
:1023C000DF011092E0011092E1011092E2011092FF
:1023D000E3011092E4011092E5018EE090E00E948A
:1023E00012157C0160E084E00E946A02ECEBF1E0EF
:1023F000E491D701EC93E8EAF1E0E491F0E0EE0F2C
:10240000FF1FE656FE4F85919491F70192838183D9
:102410001386158614866701FBE0CF0ED11C570189
:1024200083E0A80EB11CF6011292EA15FB05E1F754
:10243000F092E701E092E60183E190E00E9412153C
:102440008C018AE791E0D80152969C938E93519724
:102450001696FC92EE92159714961C9214971C9265
:1024600089E011968C93119781E012968C931297C4
:1024700013968C931093E9010093E801F6011292F0
:102480006F01EA15FB05D1F7FF24F394BE01665FE7
:102490007F4FD80115968D919C9116970E94240824
:1024A000882309F456C067E0CE010A960E948B0388
:1024B00099898913EBCFD8018C91811127C015968A
:1024C0008D919C9116970E945A04BE01665F7F4FC2
:1024D000F801858196810E942D0440E064EBD801CB
:1024E00015968D919C9116970E94EB03F8018581BA
:1024F00096810E949803E82ED80115968D919C91A3
:1025000016970E945A04EE2009F448C1AE014F5FAD
:102510005F4FBE01665F7F4FC8010E94F204F80161
:10252000E180BE01665F7F4FC8010E9455058E1590
:1025300020F4D80111968C9106C0BE01665F7F4FD2
:10254000C8010E945505F801818384818F5F8483CF
:102550009DCF1092DB011092DA01A091E801B091B9
:10256000E90114968C911497811103C01092F60121
:1025700024C081E08093F6011596ED91FC911697A9
:10258000138615861486CF010B969F012D5F3F4F52
:10259000FC011292CF01E217F307D1F76AEE71E066
:1025A00015968D919C9116970E942408882329F0F6
:1025B00067E08AEE91E00E948B03E091E801F091E0
:1025C000E90112821092F2011092F3011092F401CB
:1025D0001092F50161E082E10E946A021092970177
:1025E000109298011092990110929101109290010D
:1025F00061E171E081E291E00E94FC0100E010E005
:1026000061E171E0C801895D9E4F0E94FC010A5F93
:102610001F4F08311105A1F7109212018BE791E0CD
:102620009093C7018093C60181E891E09093C9011E
:102630008093C80182E891E09093CB018093CA0116
:1026400061E081E00E946A0260E082E00E946A022A
:1026500062E083E00E946A0260E081E00E943A0248
:102660001092B6011092B8011092C5011092B701F4
:102670001092CD011092B2011092B3011092A201FA
:10268000E0919A01F0919B0111828AE991E00E9408
:1026900062061092CC011092BA011092A30110921E
:1026A000A4011092A5011092A6011092CE011092E1
:1026B000CF011092D0011092D1011092D20110924C
:1026C000D3011092D4011092D5011092B70110924B
:1026D000A2011092B0011092B1011092B3011092B8
:1026E000B20189E08093AC0181E08093AD018CED73
:1026F00095E09093C4018093C30110929F011092C2
:10270000A00110929E0181E896E090938101809350
:10271000800182E191E090936C0180936B0161E014
:1027200087E00E946A028CB580648CBD61E08CE019
:102730000E946A0210926D0183E0809375018AE025
:1027400080937D018CB580688CBD61E088E00E943B
:102750006A0260E088E00E943A02109264011092DE
:102760006101109262011092630110925D0110925A
:102770005E0110925F011092600161960FB6F894AD
:10278000DEBF0FBECDBFDF91CF911F910F91FF90A4
:10279000EF90DF90CF90BF90AF900895D801FC925A
:1027A000B5CE97FB072E16F4009407D077FD09D01D
:1027B0000E94EB1307FC05D03EF4909581959F4F46
:1027C0000895709561957F4F0895EE0FFF1F059056
:1027D000F491E02D0994AA1BBB1B51E107C0AA1F6D
:1027E000BB1FA617B70710F0A61BB70B881F991FB2
:1027F0005A95A9F780959095BC01CD010895505840
:10280000BB27AA270E9417140C9403180E94F517DF
:1028100038F00E94FC1720F039F49F3F19F426F499
:102820000C94F2170EF4E095E7FB0C94EC17E92FEB
:102830000E94141858F3BA176207730784079507A4
:1028400020F079F4A6F50C9436180EF4E0950B2ED2
:10285000BA2FA02D0B01B90190010C01CA01A001F2
:102860001124FF27591B99F0593F50F4503E68F14D
:102870001A16F040A22F232F342F4427585FF3CF8E
:10288000469537952795A795F0405395C9F77EF45F
:102890001F16BA0B620B730B840BBAF09150A1F0A8
:1028A000FF0FBB1F661F771F881FC2F70EC0BA0F2E
:1028B000621F731F841F48F4879577956795B795B6
:1028C000F7959E3F08F0B0CF9395880F08F09927B1
:1028D000EE0F9795879508950E9480140C94031825
:1028E0000E94FC1758F00E94F51740F029F45F3F52
:1028F00029F00C94EC1751110C9437180C94F21722
:102900000E94141868F39923B1F3552391F3951B92
:10291000550BBB27AA2762177307840738F09F5F00
:102920005F4F220F331F441FAA1FA9F335D00E2E6D
:102930003AF0E0E832D091505040E695001CCAF7DA
:102940002BD0FE2F29D0660F771F881FBB1F26179D
:1029500037074807AB07B0E809F0BB0B802DBF0174
:10296000FF2793585F4F3AF09E3F510578F00C9443
:10297000EC170C9437185F3FE4F3983ED4F3869538
:1029800077956795B795F7959F5FC9F7880F911D64
:102990009695879597F90895E1E0660F771F881F50
:1029A000BB1F621773078407BA0720F0621B730B03
:1029B000840BBA0BEE1F88F7E09508950E941C184F
:1029C00088F09F5798F0B92F9927B751B0F0E1F0F0
:1029D000660F771F881F991F1AF0BA95C9F714C0A0
:1029E000B13091F00E943618B1E008950C94361879
:1029F000672F782F8827B85F39F0B93FCCF38695D9
:102A000077956795B395D9F73EF490958095709535
:102A100061957F4F8F4F9F4F08950E945B1708F479
:102A20008FEF0895CF93DF938230910510F482E009
:102A300090E0E091F901F091FA0120E030E0C0E08F
:102A4000D0E0309711F14081518148175907C0F00B
:102A50004817590761F482819381209719F09B836D
:102A60008A832BC09093FA018093F90126C0211527
:102A7000310519F04217530718F49A01BE01DF011E
:102A8000EF010280F381E02DDCCF2115310509F142
:102A9000281B390B2430310590F412968D919C91AE
:102AA00013976115710521F0FB019383828304C0A4
:102AB0009093FA018093F901FD01329644C0FD0123
:102AC000E20FF31F81939193225031092D933C9390
:102AD0003AC02091F7013091F801232B41F4209165
:102AE0000701309108013093F8012093F7012091FC
:102AF0000501309106012115310541F42DB73EB78E
:102B00004091090150910A01241B350BE091F70116
:102B1000F091F801E217F307A0F42E1B3F0B2817E2
:102B2000390778F0AC014E5F5F4F2417350748F046
:102B30004E0F5F1F5093F8014093F70181939193DB
:102B400002C0E0E0F0E0CF01DF91CF9108950F9354
:102B50001F93CF93DF93009709F48CC0FC01329749
:102B6000138212820091F9011091FA0101151105E9
:102B700081F420813181820F931F2091F7013091E0
:102B8000F8012817390779F5F093F801E093F70178
:102B900071C0D80140E050E0AE17BF0750F4129664
:102BA0002D913C911397AD012115310509F1D90102
:102BB000F3CF9D01DA013383228360817181860F17
:102BC000971F8217930769F4EC0128813981260F3A
:102BD000371F2E5F3F4F318320838A819B819383F0
:102BE0008283452B29F4F093FA01E093F90142C066
:102BF0001396FC93EE931297ED01499159919E0122
:102C0000240F351FE217F30771F480819181840F3F
:102C1000951F029611969C938E93828193811396B1
:102C20009C938E931297E0E0F0E0D80112968D917C
:102C30009C911397009719F0F8018C01F6CF8D91B4
:102C40009C9198012E5F3F4F820F931F2091F701B7
:102C50003091F8012817390769F4309729F4109258
:102C6000FA011092F90102C0138212821093F80146
:102C70000093F701DF91CF911F910F910895A0E08C
:102C8000B0E0E5E4F6E10C945718EC01009721F46C
:102C9000CB010E941215B8C0FC01E60FF71F9C0182
:102CA00022503109E217F30708F4ACC0D9010D91A5
:102CB0001C91119706171707B0F00530110508F49D
:102CC0009FC0C80104978617970708F499C002505F
:102CD0001109061B170B019311936D937C93CF0180
:102CE0000E94A7158DC05B01A01AB10A4C01800E8D
:102CF000911EA091F901B091FA0140E050E0E12C61
:102D0000F12C109709F44AC0A815B905D1F56D90BA
:102D10007C901197630182E0C80ED11CCA14DB04B9
:102D200080F1A3014A195B096A0182E0C80ED11C37
:102D30001296BC9012971396AC91B5E0CB16D104C5
:102D400040F0B282A38351834083D9016D937C9379
:102D50000AC00E5F1F4FC301800F911FF9019183BD
:102D60008083EB2DFA2FE114F10431F0D701139693
:102D7000FC93EE93129744C0F093FA01E093F901AB
:102D80003FC08D919C9111974817590708F4AC01E9
:102D90007D0112960D90BC91A02DB3CF8091F701CB
:102DA0009091F80188159905E1F446175707C8F482
:102DB0008091050190910601009741F48DB79EB76F
:102DC0004091090150910A01841B950BE817F907FE
:102DD000C8F4F093F801E093F701F901718360837F
:102DE0000FC0CB010E9412157C01009759F0A80179
:102DF000BE010E940917CE010E94A715C70104C099
:102E0000CE0102C080E090E0CDB7DEB7EEE00C94DA
:102E10007318FB01DC0102C001900D92415050403B
:102E2000D8F70895FB01DC0101900D920020E1F735
:102E300008950E945B1708F481E00895E89409C0A2
:102E400097FB3EF490958095709561957F4F8F4FDD
:102E50009F4F9923A9F0F92F96E9BB279395F695F3
:102E6000879577956795B795F111F8CFFAF4BB0F71
:102E700011F460FF1BC06F5F7F4F8F4F9F4F16C0D5
:102E8000882311F096E911C0772321F09EE8872F5F
:102E9000762F05C0662371F096E8862F70E060E01B
:102EA0002AF09A95660F771F881FDAF7880F969594
:102EB000879597F90895990F0008550FAA0BE0E838
:102EC000FEEF16161706E807F907C0F012161306EC
:102ED000E407F50798F0621B730B840B950B39F42C
:102EE0000A2661F0232B242B252B21F408950A2692
:102EF00009F4A140A6958FEF811D811D08950E94C0
:102F000092170C9403180E94F51738F00E94FC17D2
:102F100020F0952311F00C94EC170C94F217112467
:102F20000C9437180E94141870F3959FC1F3950FF5
:102F300050E0551F629FF001729FBB27F00DB11D3D
:102F4000639FAA27F00DB11DAA1F649F6627B00DCD
:102F5000A11D661F829F2227B00DA11D621F739FB6
:102F6000B00DA11D621F839FA00D611D221F749FC4
:102F70003327A00D611D231F849F600D211D822F0B
:102F8000762F6A2F11249F5750409AF0F1F0882332
:102F90004AF0EE0FFF1FBB1F661F771F881F91505F
:102FA0005040A9F79E3F510580F00C94EC170C940B
:102FB00037185F3FE4F3983ED4F38695779567958D
:102FC000B795F795E7959F5FC1F7FE2B880F911D89
:102FD0009695879597F9089597F99F6780E870E02F
:102FE00060E008959FEF80EC089500240A9416167F
:102FF000170618060906089500240A9412161306E7
:10300000140605060895092E0394000C11F4882374
:1030100052F0BB0F40F4BF2B11F460FF04C06F5F90
:103020007F4F8F4F9F4F089557FD9058440F551F66
:1030300059F05F3F71F04795880F97FB991F61F03A
:103040009F3F79F087950895121613061406551FB1
:10305000F2CF4695F1DF08C0161617061806991F1D
:10306000F1CF86957105610508940895E894BB2712
:1030700066277727CB0197F90895F999FECF92BD7E
:1030800081BDF89A992780B50895262FF999FECF2A
:103090001FBA92BD81BD20BD0FB6F894FA9AF99A75
:1030A0000FBE019608952F923F924F925F926F92BA
:1030B0007F928F929F92AF92BF92CF92DF92EF92C8
:1030C000FF920F931F93CF93DF93CDB7DEB7CA1B49
:1030D000DB0B0FB6F894DEBF0FBECDBF09942A8874
:1030E000398848885F846E847D848C849B84AA841C
:1030F000B984C884DF80EE80FD800C811B81AA81A9
:10310000B981CE0FD11D0FB6F894DEBF0FBECDBF73
:10311000ED01089510E0C1EFD0E004C0FE010E946F
:0E312000E5132196C23FD107C9F7F894FFCFFF
:10312E0079017901010000FB0180005E00BC00778F
:02313E0001008E
:107E0000112484B714BE81FFF0D085E080938100F7
:107E100082E08093C00088E18093C10086E0809377
:107E2000C20080E18093C4008EE0C9D0259A86E02C
:107E300020E33CEF91E0309385002093840096BBD3
:107E4000B09BFECF1D9AA8958150A9F7CC24DD24C4
:107E500088248394B5E0AB2EA1E19A2EF3E0BF2EE7
:107E6000A2D0813461F49FD0082FAFD0023811F036
:107E7000013811F484E001C083E08DD089C08234E0
:107E800011F484E103C0853419F485E0A6D080C0E4
:107E9000853579F488D0E82EFF2485D0082F10E0AE
:107EA000102F00270E291F29000F111F8ED06801E7
:107EB0006FC0863521F484E090D080E0DECF843638
:107EC00009F040C070D06FD0082F6DD080E0C81688
:107ED00080E7D80618F4F601B7BEE895C0E0D1E017
:107EE00062D089930C17E1F7F0E0CF16F0E7DF06D8
:107EF00018F0F601B7BEE89568D007B600FCFDCFD4
:107F0000A601A0E0B1E02C9130E011968C91119780
:107F100090E0982F8827822B932B1296FA010C0160
:107F200087BEE89511244E5F5F4FF1E0A038BF0790
:107F300051F7F601A7BEE89507B600FCFDCF97BE46
:107F4000E89526C08437B1F42ED02DD0F82E2BD052
:107F50003CD0F601EF2C8F010F5F1F4F84911BD097
:107F6000EA94F801C1F70894C11CD11CFA94CF0C13
:107F7000D11C0EC0853739F428D08EE10CD085E9AC
:107F80000AD08FE07ACF813511F488E018D01DD067
:107F900080E101D065CF982F8091C00085FFFCCF94
:107FA0009093C60008958091C00087FFFCCF809118
:107FB000C00084FD01C0A8958091C6000895E0E648
:107FC000F0E098E1908380830895EDDF803219F02E
:107FD00088E0F5DFFFCF84E1DECF1F93182FE3DFCA
:107FE0001150E9F7F2DF1F91089580E0E8DFEE27F6
:047FF000FF270994CA
:027FFE00040479
:0400000300007E007B
:00000001FF
